{
  "_format": "hh-sol-artifact-1",
  "contractName": "ERC20With4RMechanism",
  "sourceName": "contracts/tourismV2.sol",
  "abi": [
    {
      "inputs": [
        {
          "internalType": "uint256",
          "name": "initialSupply",
          "type": "uint256"
        }
      ],
      "stateMutability": "nonpayable",
      "type": "constructor"
    },
    {
      "anonymous": false,
      "inputs": [
        {
          "indexed": true,
          "internalType": "address",
          "name": "owner",
          "type": "address"
        },
        {
          "indexed": true,
          "internalType": "address",
          "name": "spender",
          "type": "address"
        },
        {
          "indexed": false,
          "internalType": "uint256",
          "name": "value",
          "type": "uint256"
        }
      ],
      "name": "Approval",
      "type": "event"
    },
    {
      "anonymous": false,
      "inputs": [
        {
          "indexed": true,
          "internalType": "address",
          "name": "previousOwner",
          "type": "address"
        },
        {
          "indexed": true,
          "internalType": "address",
          "name": "newOwner",
          "type": "address"
        }
      ],
      "name": "OwnershipTransferred",
      "type": "event"
    },
    {
      "anonymous": false,
      "inputs": [
        {
          "indexed": true,
          "internalType": "address",
          "name": "from",
          "type": "address"
        },
        {
          "indexed": true,
          "internalType": "address",
          "name": "to",
          "type": "address"
        },
        {
          "indexed": false,
          "internalType": "uint256",
          "name": "value",
          "type": "uint256"
        }
      ],
      "name": "Transfer",
      "type": "event"
    },
    {
      "inputs": [
        {
          "internalType": "address",
          "name": "owner",
          "type": "address"
        },
        {
          "internalType": "address",
          "name": "spender",
          "type": "address"
        }
      ],
      "name": "allowance",
      "outputs": [
        {
          "internalType": "uint256",
          "name": "",
          "type": "uint256"
        }
      ],
      "stateMutability": "view",
      "type": "function"
    },
    {
      "inputs": [
        {
          "internalType": "address",
          "name": "spender",
          "type": "address"
        },
        {
          "internalType": "uint256",
          "name": "amount",
          "type": "uint256"
        }
      ],
      "name": "approve",
      "outputs": [
        {
          "internalType": "bool",
          "name": "",
          "type": "bool"
        }
      ],
      "stateMutability": "nonpayable",
      "type": "function"
    },
    {
      "inputs": [
        {
          "internalType": "address",
          "name": "account",
          "type": "address"
        }
      ],
      "name": "balanceOf",
      "outputs": [
        {
          "internalType": "uint256",
          "name": "",
          "type": "uint256"
        }
      ],
      "stateMutability": "view",
      "type": "function"
    },
    {
      "inputs": [],
      "name": "decimals",
      "outputs": [
        {
          "internalType": "uint8",
          "name": "",
          "type": "uint8"
        }
      ],
      "stateMutability": "view",
      "type": "function"
    },
    {
      "inputs": [
        {
          "internalType": "address",
          "name": "spender",
          "type": "address"
        },
        {
          "internalType": "uint256",
          "name": "subtractedValue",
          "type": "uint256"
        }
      ],
      "name": "decreaseAllowance",
      "outputs": [
        {
          "internalType": "bool",
          "name": "",
          "type": "bool"
        }
      ],
      "stateMutability": "nonpayable",
      "type": "function"
    },
    {
      "inputs": [
        {
          "internalType": "address",
          "name": "tourist",
          "type": "address"
        },
        {
          "internalType": "uint256",
          "name": "value",
          "type": "uint256"
        }
      ],
      "name": "exchangePoint",
      "outputs": [],
      "stateMutability": "nonpayable",
      "type": "function"
    },
    {
      "inputs": [
        {
          "internalType": "address",
          "name": "tourist",
          "type": "address"
        },
        {
          "internalType": "uint256",
          "name": "value",
          "type": "uint256"
        }
      ],
      "name": "getRewardPoint",
      "outputs": [],
      "stateMutability": "nonpayable",
      "type": "function"
    },
    {
      "inputs": [
        {
          "internalType": "address",
          "name": "spender",
          "type": "address"
        },
        {
          "internalType": "uint256",
          "name": "addedValue",
          "type": "uint256"
        }
      ],
      "name": "increaseAllowance",
      "outputs": [
        {
          "internalType": "bool",
          "name": "",
          "type": "bool"
        }
      ],
      "stateMutability": "nonpayable",
      "type": "function"
    },
    {
      "inputs": [],
      "name": "name",
      "outputs": [
        {
          "internalType": "string",
          "name": "",
          "type": "string"
        }
      ],
      "stateMutability": "view",
      "type": "function"
    },
    {
      "inputs": [],
      "name": "owner",
      "outputs": [
        {
          "internalType": "address",
          "name": "",
          "type": "address"
        }
      ],
      "stateMutability": "view",
      "type": "function"
    },
    {
      "inputs": [],
      "name": "renounceOwnership",
      "outputs": [],
      "stateMutability": "nonpayable",
      "type": "function"
    },
    {
      "inputs": [],
      "name": "symbol",
      "outputs": [
        {
          "internalType": "string",
          "name": "",
          "type": "string"
        }
      ],
      "stateMutability": "view",
      "type": "function"
    },
    {
      "inputs": [],
      "name": "totalSupply",
      "outputs": [
        {
          "internalType": "uint256",
          "name": "",
          "type": "uint256"
        }
      ],
      "stateMutability": "view",
      "type": "function"
    },
    {
      "inputs": [
        {
          "internalType": "address",
          "name": "to",
          "type": "address"
        },
        {
          "internalType": "uint256",
          "name": "amount",
          "type": "uint256"
        }
      ],
      "name": "transfer",
      "outputs": [
        {
          "internalType": "bool",
          "name": "",
          "type": "bool"
        }
      ],
      "stateMutability": "nonpayable",
      "type": "function"
    },
    {
      "inputs": [
        {
          "internalType": "address",
          "name": "from",
          "type": "address"
        },
        {
          "internalType": "address",
          "name": "to",
          "type": "address"
        },
        {
          "internalType": "uint256",
          "name": "amount",
          "type": "uint256"
        }
      ],
      "name": "transferFrom",
      "outputs": [
        {
          "internalType": "bool",
          "name": "",
          "type": "bool"
        }
      ],
      "stateMutability": "nonpayable",
      "type": "function"
    },
    {
      "inputs": [
        {
          "internalType": "address",
          "name": "newOwner",
          "type": "address"
        }
      ],
      "name": "transferOwnership",
      "outputs": [],
      "stateMutability": "nonpayable",
      "type": "function"
    }
  ],
  "bytecode": "0x60806040523480156200001157600080fd5b506040516200219838038062002198833981810160405281019062000037919062000427565b6040518060400160405280600781526020017f4443546f6b656e000000000000000000000000000000000000000000000000008152506040518060400160405280600281526020017f4443000000000000000000000000000000000000000000000000000000000000815250620000c3620000b76200011060201b60201c565b6200011860201b60201c565b8160049080519060200190620000db92919062000360565b508060059080519060200190620000f492919062000360565b505050620001093382620001dc60201b60201c565b5062000619565b600033905090565b60008060009054906101000a900473ffffffffffffffffffffffffffffffffffffffff169050816000806101000a81548173ffffffffffffffffffffffffffffffffffffffff021916908373ffffffffffffffffffffffffffffffffffffffff1602179055508173ffffffffffffffffffffffffffffffffffffffff168173ffffffffffffffffffffffffffffffffffffffff167f8be0079c531659141344cd1fd0a4f28419497f9722a3daafe3b4186f6b6457e060405160405180910390a35050565b600073ffffffffffffffffffffffffffffffffffffffff168273ffffffffffffffffffffffffffffffffffffffff1614156200024f576040517f08c379a000000000000000000000000000000000000000000000000000000000815260040162000246906200048b565b60405180910390fd5b62000263600083836200035660201b60201c565b8060036000828254620002779190620004db565b9250508190555080600160008473ffffffffffffffffffffffffffffffffffffffff1673ffffffffffffffffffffffffffffffffffffffff1681526020019081526020016000206000828254620002cf9190620004db565b925050819055508173ffffffffffffffffffffffffffffffffffffffff16600073ffffffffffffffffffffffffffffffffffffffff167fddf252ad1be2c89b69c2b068fc378daa952ba7f163c4a11628f55a4df523b3ef83604051620003369190620004ad565b60405180910390a362000352600083836200035b60201b60201c565b5050565b505050565b505050565b8280546200036e9062000542565b90600052602060002090601f016020900481019282620003925760008555620003de565b82601f10620003ad57805160ff1916838001178555620003de565b82800160010185558215620003de579182015b82811115620003dd578251825591602001919060010190620003c0565b5b509050620003ed9190620003f1565b5090565b5b808211156200040c576000816000905550600101620003f2565b5090565b6000815190506200042181620005ff565b92915050565b6000602082840312156200043a57600080fd5b60006200044a8482850162000410565b91505092915050565b600062000462601f83620004ca565b91506200046f82620005d6565b602082019050919050565b620004858162000538565b82525050565b60006020820190508181036000830152620004a68162000453565b9050919050565b6000602082019050620004c460008301846200047a565b92915050565b600082825260208201905092915050565b6000620004e88262000538565b9150620004f58362000538565b9250827fffffffffffffffffffffffffffffffffffffffffffffffffffffffffffffffff038211156200052d576200052c62000578565b5b828201905092915050565b6000819050919050565b600060028204905060018216806200055b57607f821691505b60208210811415620005725762000571620005a7565b5b50919050565b7f4e487b7100000000000000000000000000000000000000000000000000000000600052601160045260246000fd5b7f4e487b7100000000000000000000000000000000000000000000000000000000600052602260045260246000fd5b7f45524332303a206d696e7420746f20746865207a65726f206164647265737300600082015250565b6200060a8162000538565b81146200061657600080fd5b50565b611b6f80620006296000396000f3fe608060405234801561001057600080fd5b50600436106101005760003560e01c8063715018a611610097578063a9059cbb11610066578063a9059cbb146102b1578063d02b789d146102e1578063dd62ed3e146102fd578063f2fde38b1461032d57610100565b8063715018a61461023b5780638da5cb5b1461024557806395d89b4114610263578063a457c2d71461028157610100565b8063313ce567116100d3578063313ce567146101a157806339509351146101bf57806352cf98fe146101ef57806370a082311461020b57610100565b806306fdde0314610105578063095ea7b31461012357806318160ddd1461015357806323b872dd14610171575b600080fd5b61010d610349565b60405161011a9190611422565b60405180910390f35b61013d60048036038101906101389190611197565b6103db565b60405161014a9190611407565b60405180910390f35b61015b6103fe565b60405161016891906115c4565b60405180910390f35b61018b60048036038101906101869190611148565b610408565b6040516101989190611407565b60405180910390f35b6101a9610437565b6040516101b691906115df565b60405180910390f35b6101d960048036038101906101d49190611197565b610440565b6040516101e69190611407565b60405180910390f35b61020960048036038101906102049190611197565b610477565b005b610225600480360381019061022091906110e3565b610485565b60405161023291906115c4565b60405180910390f35b6102436104ce565b005b61024d6104e2565b60405161025a91906113ec565b60405180910390f35b61026b61050b565b6040516102789190611422565b60405180910390f35b61029b60048036038101906102969190611197565b61059d565b6040516102a89190611407565b60405180910390f35b6102cb60048036038101906102c69190611197565b610614565b6040516102d89190611407565b60405180910390f35b6102fb60048036038101906102f69190611197565b610637565b005b6103176004803603810190610312919061110c565b610645565b60405161032491906115c4565b60405180910390f35b610347600480360381019061034291906110e3565b6106cc565b005b60606004805461035890611728565b80601f016020809104026020016040519081016040528092919081815260200182805461038490611728565b80156103d15780601f106103a6576101008083540402835291602001916103d1565b820191906000526020600020905b8154815290600101906020018083116103b457829003601f168201915b5050505050905090565b6000806103e6610750565b90506103f3818585610758565b600191505092915050565b6000600354905090565b600080610413610750565b9050610420858285610923565b61042b8585856109af565b60019150509392505050565b60006012905090565b60008061044b610750565b905061046c81858561045d8589610645565b6104679190611616565b610758565b600191505092915050565b6104818282610c33565b5050565b6000600160008373ffffffffffffffffffffffffffffffffffffffff1673ffffffffffffffffffffffffffffffffffffffff168152602001908152602001600020549050919050565b6104d6610e0c565b6104e06000610e8a565b565b60008060009054906101000a900473ffffffffffffffffffffffffffffffffffffffff16905090565b60606005805461051a90611728565b80601f016020809104026020016040519081016040528092919081815260200182805461054690611728565b80156105935780601f1061056857610100808354040283529160200191610593565b820191906000526020600020905b81548152906001019060200180831161057657829003601f168201915b5050505050905090565b6000806105a8610750565b905060006105b68286610645565b9050838110156105fb576040517f08c379a00000000000000000000000000000000000000000000000000000000081526004016105f290611584565b60405180910390fd5b6106088286868403610758565b60019250505092915050565b60008061061f610750565b905061062c8185856109af565b600191505092915050565b6106418282610f4e565b5050565b6000600260008473ffffffffffffffffffffffffffffffffffffffff1673ffffffffffffffffffffffffffffffffffffffff16815260200190815260200160002060008373ffffffffffffffffffffffffffffffffffffffff1673ffffffffffffffffffffffffffffffffffffffff16815260200190815260200160002054905092915050565b6106d4610e0c565b600073ffffffffffffffffffffffffffffffffffffffff168173ffffffffffffffffffffffffffffffffffffffff161415610744576040517f08c379a000000000000000000000000000000000000000000000000000000000815260040161073b90611484565b60405180910390fd5b61074d81610e8a565b50565b600033905090565b600073ffffffffffffffffffffffffffffffffffffffff168373ffffffffffffffffffffffffffffffffffffffff1614156107c8576040517f08c379a00000000000000000000000000000000000000000000000000000000081526004016107bf90611564565b60405180910390fd5b600073ffffffffffffffffffffffffffffffffffffffff168273ffffffffffffffffffffffffffffffffffffffff161415610838576040517f08c379a000000000000000000000000000000000000000000000000000000000815260040161082f906114a4565b60405180910390fd5b80600260008573ffffffffffffffffffffffffffffffffffffffff1673ffffffffffffffffffffffffffffffffffffffff16815260200190815260200160002060008473ffffffffffffffffffffffffffffffffffffffff1673ffffffffffffffffffffffffffffffffffffffff168152602001908152602001600020819055508173ffffffffffffffffffffffffffffffffffffffff168373ffffffffffffffffffffffffffffffffffffffff167f8c5be1e5ebec7d5bd14f71427d1e84f3dd0314c0f7b2291e5b200ac8c7c3b9258360405161091691906115c4565b60405180910390a3505050565b600061092f8484610645565b90507fffffffffffffffffffffffffffffffffffffffffffffffffffffffffffffffff81146109a9578181101561099b576040517f08c379a0000000000000000000000000000000000000000000000000000000008152600401610992906114c4565b60405180910390fd5b6109a88484848403610758565b5b50505050565b600073ffffffffffffffffffffffffffffffffffffffff168373ffffffffffffffffffffffffffffffffffffffff161415610a1f576040517f08c379a0000000000000000000000000000000000000000000000000000000008152600401610a1690611544565b60405180910390fd5b600073ffffffffffffffffffffffffffffffffffffffff168273ffffffffffffffffffffffffffffffffffffffff161415610a8f576040517f08c379a0000000000000000000000000000000000000000000000000000000008152600401610a8690611444565b60405180910390fd5b610a9a8383836110af565b6000600160008573ffffffffffffffffffffffffffffffffffffffff1673ffffffffffffffffffffffffffffffffffffffff16815260200190815260200160002054905081811015610b21576040517f08c379a0000000000000000000000000000000000000000000000000000000008152600401610b18906114e4565b60405180910390fd5b818103600160008673ffffffffffffffffffffffffffffffffffffffff1673ffffffffffffffffffffffffffffffffffffffff1681526020019081526020016000208190555081600160008573ffffffffffffffffffffffffffffffffffffffff1673ffffffffffffffffffffffffffffffffffffffff1681526020019081526020016000206000828254610bb69190611616565b925050819055508273ffffffffffffffffffffffffffffffffffffffff168473ffffffffffffffffffffffffffffffffffffffff167fddf252ad1be2c89b69c2b068fc378daa952ba7f163c4a11628f55a4df523b3ef84604051610c1a91906115c4565b60405180910390a3610c2d8484846110b4565b50505050565b600073ffffffffffffffffffffffffffffffffffffffff168273ffffffffffffffffffffffffffffffffffffffff161415610ca3576040517f08c379a0000000000000000000000000000000000000000000000000000000008152600401610c9a90611524565b60405180910390fd5b610caf826000836110af565b6000600160008473ffffffffffffffffffffffffffffffffffffffff1673ffffffffffffffffffffffffffffffffffffffff16815260200190815260200160002054905081811015610d36576040517f08c379a0000000000000000000000000000000000000000000000000000000008152600401610d2d90611464565b60405180910390fd5b818103600160008573ffffffffffffffffffffffffffffffffffffffff1673ffffffffffffffffffffffffffffffffffffffff168152602001908152602001600020819055508160036000828254610d8e919061166c565b92505081905550600073ffffffffffffffffffffffffffffffffffffffff168373ffffffffffffffffffffffffffffffffffffffff167fddf252ad1be2c89b69c2b068fc378daa952ba7f163c4a11628f55a4df523b3ef84604051610df391906115c4565b60405180910390a3610e07836000846110b4565b505050565b610e14610750565b73ffffffffffffffffffffffffffffffffffffffff16610e326104e2565b73ffffffffffffffffffffffffffffffffffffffff1614610e88576040517f08c379a0000000000000000000000000000000000000000000000000000000008152600401610e7f90611504565b60405180910390fd5b565b60008060009054906101000a900473ffffffffffffffffffffffffffffffffffffffff169050816000806101000a81548173ffffffffffffffffffffffffffffffffffffffff021916908373ffffffffffffffffffffffffffffffffffffffff1602179055508173ffffffffffffffffffffffffffffffffffffffff168173ffffffffffffffffffffffffffffffffffffffff167f8be0079c531659141344cd1fd0a4f28419497f9722a3daafe3b4186f6b6457e060405160405180910390a35050565b600073ffffffffffffffffffffffffffffffffffffffff168273ffffffffffffffffffffffffffffffffffffffff161415610fbe576040517f08c379a0000000000000000000000000000000000000000000000000000000008152600401610fb5906115a4565b60405180910390fd5b610fca600083836110af565b8060036000828254610fdc9190611616565b9250508190555080600160008473ffffffffffffffffffffffffffffffffffffffff1673ffffffffffffffffffffffffffffffffffffffff16815260200190815260200160002060008282546110329190611616565b925050819055508173ffffffffffffffffffffffffffffffffffffffff16600073ffffffffffffffffffffffffffffffffffffffff167fddf252ad1be2c89b69c2b068fc378daa952ba7f163c4a11628f55a4df523b3ef8360405161109791906115c4565b60405180910390a36110ab600083836110b4565b5050565b505050565b505050565b6000813590506110c881611b0b565b92915050565b6000813590506110dd81611b22565b92915050565b6000602082840312156110f557600080fd5b6000611103848285016110b9565b91505092915050565b6000806040838503121561111f57600080fd5b600061112d858286016110b9565b925050602061113e858286016110b9565b9150509250929050565b60008060006060848603121561115d57600080fd5b600061116b868287016110b9565b935050602061117c868287016110b9565b925050604061118d868287016110ce565b9150509250925092565b600080604083850312156111aa57600080fd5b60006111b8858286016110b9565b92505060206111c9858286016110ce565b9150509250929050565b6111dc816116a0565b82525050565b6111eb816116b2565b82525050565b60006111fc826115fa565b6112068185611605565b93506112168185602086016116f5565b61121f816117b8565b840191505092915050565b6000611237602383611605565b9150611242826117c9565b604082019050919050565b600061125a602283611605565b915061126582611818565b604082019050919050565b600061127d602683611605565b915061128882611867565b604082019050919050565b60006112a0602283611605565b91506112ab826118b6565b604082019050919050565b60006112c3601d83611605565b91506112ce82611905565b602082019050919050565b60006112e6602683611605565b91506112f18261192e565b604082019050919050565b6000611309602083611605565b91506113148261197d565b602082019050919050565b600061132c602183611605565b9150611337826119a6565b604082019050919050565b600061134f602583611605565b915061135a826119f5565b604082019050919050565b6000611372602483611605565b915061137d82611a44565b604082019050919050565b6000611395602583611605565b91506113a082611a93565b604082019050919050565b60006113b8601f83611605565b91506113c382611ae2565b602082019050919050565b6113d7816116de565b82525050565b6113e6816116e8565b82525050565b600060208201905061140160008301846111d3565b92915050565b600060208201905061141c60008301846111e2565b92915050565b6000602082019050818103600083015261143c81846111f1565b905092915050565b6000602082019050818103600083015261145d8161122a565b9050919050565b6000602082019050818103600083015261147d8161124d565b9050919050565b6000602082019050818103600083015261149d81611270565b9050919050565b600060208201905081810360008301526114bd81611293565b9050919050565b600060208201905081810360008301526114dd816112b6565b9050919050565b600060208201905081810360008301526114fd816112d9565b9050919050565b6000602082019050818103600083015261151d816112fc565b9050919050565b6000602082019050818103600083015261153d8161131f565b9050919050565b6000602082019050818103600083015261155d81611342565b9050919050565b6000602082019050818103600083015261157d81611365565b9050919050565b6000602082019050818103600083015261159d81611388565b9050919050565b600060208201905081810360008301526115bd816113ab565b9050919050565b60006020820190506115d960008301846113ce565b92915050565b60006020820190506115f460008301846113dd565b92915050565b600081519050919050565b600082825260208201905092915050565b6000611621826116de565b915061162c836116de565b9250827fffffffffffffffffffffffffffffffffffffffffffffffffffffffffffffffff038211156116615761166061175a565b5b828201905092915050565b6000611677826116de565b9150611682836116de565b9250828210156116955761169461175a565b5b828203905092915050565b60006116ab826116be565b9050919050565b60008115159050919050565b600073ffffffffffffffffffffffffffffffffffffffff82169050919050565b6000819050919050565b600060ff82169050919050565b60005b838110156117135780820151818401526020810190506116f8565b83811115611722576000848401525b50505050565b6000600282049050600182168061174057607f821691505b6020821081141561175457611753611789565b5b50919050565b7f4e487b7100000000000000000000000000000000000000000000000000000000600052601160045260246000fd5b7f4e487b7100000000000000000000000000000000000000000000000000000000600052602260045260246000fd5b6000601f19601f8301169050919050565b7f45524332303a207472616e7366657220746f20746865207a65726f206164647260008201527f6573730000000000000000000000000000000000000000000000000000000000602082015250565b7f45524332303a206275726e20616d6f756e7420657863656564732062616c616e60008201527f6365000000000000000000000000000000000000000000000000000000000000602082015250565b7f4f776e61626c653a206e6577206f776e657220697320746865207a65726f206160008201527f6464726573730000000000000000000000000000000000000000000000000000602082015250565b7f45524332303a20617070726f766520746f20746865207a65726f20616464726560008201527f7373000000000000000000000000000000000000000000000000000000000000602082015250565b7f45524332303a20696e73756666696369656e7420616c6c6f77616e6365000000600082015250565b7f45524332303a207472616e7366657220616d6f756e742065786365656473206260008201527f616c616e63650000000000000000000000000000000000000000000000000000602082015250565b7f4f776e61626c653a2063616c6c6572206973206e6f7420746865206f776e6572600082015250565b7f45524332303a206275726e2066726f6d20746865207a65726f2061646472657360008201527f7300000000000000000000000000000000000000000000000000000000000000602082015250565b7f45524332303a207472616e736665722066726f6d20746865207a65726f20616460008201527f6472657373000000000000000000000000000000000000000000000000000000602082015250565b7f45524332303a20617070726f76652066726f6d20746865207a65726f2061646460008201527f7265737300000000000000000000000000000000000000000000000000000000602082015250565b7f45524332303a2064656372656173656420616c6c6f77616e63652062656c6f7760008201527f207a65726f000000000000000000000000000000000000000000000000000000602082015250565b7f45524332303a206d696e7420746f20746865207a65726f206164647265737300600082015250565b611b14816116a0565b8114611b1f57600080fd5b50565b611b2b816116de565b8114611b3657600080fd5b5056fea264697066735822122033768409affc6ef3bd0c98b3b4a5dc5ee4dd930d8f659cf5d16fb838876a8db264736f6c63430008040033",
  "linkReferences": {},
  "deployedLinkReferences": {}
}