{
  "_format": "hh-sol-artifact-1",
  "contractName": "Tourism",
  "sourceName": "contracts/tourismV2.sol",
  "abi": [
    {
      "inputs": [
        {
          "internalType": "address",
          "name": "ERC20_address",
          "type": "address"
        }
      ],
      "stateMutability": "nonpayable",
      "type": "constructor"
    },
    {
      "inputs": [
        {
          "internalType": "string",
          "name": "PlaceID",
          "type": "string"
        }
      ],
      "name": "InvalidPlaceID",
      "type": "error"
    },
    {
      "inputs": [
        {
          "internalType": "bytes32",
          "name": "PostID",
          "type": "bytes32"
        }
      ],
      "name": "InvalidPostID",
      "type": "error"
    },
    {
      "inputs": [
        {
          "internalType": "address",
          "name": "Address",
          "type": "address"
        },
        {
          "internalType": "uint256",
          "name": "VotingPower",
          "type": "uint256"
        }
      ],
      "name": "InvalidVP",
      "type": "error"
    },
    {
      "inputs": [
        {
          "internalType": "address",
          "name": "Address",
          "type": "address"
        }
      ],
      "name": "NotRegister",
      "type": "error"
    },
    {
      "inputs": [
        {
          "internalType": "bytes32",
          "name": "PostID",
          "type": "bytes32"
        },
        {
          "internalType": "address",
          "name": "Address",
          "type": "address"
        }
      ],
      "name": "PostIsVoted",
      "type": "error"
    },
    {
      "anonymous": false,
      "inputs": [
        {
          "indexed": true,
          "internalType": "bytes32",
          "name": "postID",
          "type": "bytes32"
        },
        {
          "indexed": true,
          "internalType": "string",
          "name": "placeID",
          "type": "string"
        },
        {
          "indexed": false,
          "internalType": "address",
          "name": "TouristAddress",
          "type": "address"
        }
      ],
      "name": "CheckIn",
      "type": "event"
    },
    {
      "anonymous": false,
      "inputs": [
        {
          "indexed": true,
          "internalType": "bytes32",
          "name": "postID",
          "type": "bytes32"
        },
        {
          "indexed": true,
          "internalType": "uint256",
          "name": "authorReward",
          "type": "uint256"
        },
        {
          "indexed": true,
          "internalType": "uint256",
          "name": "curatorsReward",
          "type": "uint256"
        },
        {
          "components": [
            {
              "internalType": "address",
              "name": "curator",
              "type": "address"
            },
            {
              "internalType": "uint256",
              "name": "curatorREP",
              "type": "uint256"
            },
            {
              "internalType": "uint256",
              "name": "curatorVP",
              "type": "uint256"
            }
          ],
          "indexed": false,
          "internalType": "struct Tourism.Vote[]",
          "name": "upvotes",
          "type": "tuple[]"
        }
      ],
      "name": "DivideRewardBy4R",
      "type": "event"
    },
    {
      "anonymous": false,
      "inputs": [
        {
          "indexed": false,
          "internalType": "address",
          "name": "touristAddress",
          "type": "address"
        },
        {
          "indexed": false,
          "internalType": "bytes32",
          "name": "postID",
          "type": "bytes32"
        },
        {
          "indexed": false,
          "internalType": "string",
          "name": "content",
          "type": "string"
        }
      ],
      "name": "PostComment",
      "type": "event"
    },
    {
      "anonymous": false,
      "inputs": [
        {
          "indexed": false,
          "internalType": "address",
          "name": "TouristAddress",
          "type": "address"
        },
        {
          "indexed": true,
          "internalType": "bytes32",
          "name": "postID",
          "type": "bytes32"
        },
        {
          "indexed": true,
          "internalType": "string",
          "name": "PlaceName",
          "type": "string"
        },
        {
          "indexed": false,
          "internalType": "string",
          "name": "review",
          "type": "string"
        },
        {
          "indexed": false,
          "internalType": "uint8",
          "name": "rate",
          "type": "uint8"
        },
        {
          "indexed": false,
          "internalType": "string",
          "name": "title",
          "type": "string"
        }
      ],
      "name": "PostReview",
      "type": "event"
    },
    {
      "anonymous": false,
      "inputs": [
        {
          "indexed": false,
          "internalType": "address",
          "name": "TouristAddress",
          "type": "address"
        }
      ],
      "name": "Register",
      "type": "event"
    },
    {
      "anonymous": false,
      "inputs": [
        {
          "indexed": false,
          "internalType": "address",
          "name": "touristAddress",
          "type": "address"
        },
        {
          "indexed": false,
          "internalType": "bytes32",
          "name": "postID",
          "type": "bytes32"
        }
      ],
      "name": "Upvote",
      "type": "event"
    },
    {
      "inputs": [
        {
          "internalType": "address",
          "name": "",
          "type": "address"
        },
        {
          "internalType": "uint256",
          "name": "",
          "type": "uint256"
        }
      ],
      "name": "TouristReviews",
      "outputs": [
        {
          "internalType": "address",
          "name": "author",
          "type": "address"
        },
        {
          "internalType": "bytes32",
          "name": "postID",
          "type": "bytes32"
        },
        {
          "internalType": "string",
          "name": "placeId",
          "type": "string"
        },
        {
          "internalType": "string",
          "name": "placeName",
          "type": "string"
        },
        {
          "internalType": "string",
          "name": "placeAddress",
          "type": "string"
        },
        {
          "internalType": "uint256",
          "name": "createTime",
          "type": "uint256"
        },
        {
          "internalType": "uint8",
          "name": "rate",
          "type": "uint8"
        },
        {
          "internalType": "string",
          "name": "review",
          "type": "string"
        },
        {
          "internalType": "string",
          "name": "title",
          "type": "string"
        },
        {
          "internalType": "uint256",
          "name": "upvoteNum",
          "type": "uint256"
        }
      ],
      "stateMutability": "view",
      "type": "function"
    },
    {
      "inputs": [
        {
          "internalType": "address",
          "name": "userAddress",
          "type": "address"
        }
      ],
      "name": "addAdmin",
      "outputs": [],
      "stateMutability": "nonpayable",
      "type": "function"
    },
    {
      "inputs": [
        {
          "internalType": "string",
          "name": "_id",
          "type": "string"
        },
        {
          "internalType": "string",
          "name": "destinationName",
          "type": "string"
        },
        {
          "internalType": "string",
          "name": "destinationAddr",
          "type": "string"
        }
      ],
      "name": "addDestination",
      "outputs": [],
      "stateMutability": "nonpayable",
      "type": "function"
    },
    {
      "inputs": [
        {
          "internalType": "string",
          "name": "placeID",
          "type": "string"
        }
      ],
      "name": "checkIn",
      "outputs": [],
      "stateMutability": "nonpayable",
      "type": "function"
    },
    {
      "inputs": [
        {
          "internalType": "bytes32",
          "name": "postID",
          "type": "bytes32"
        },
        {
          "internalType": "string",
          "name": "content",
          "type": "string"
        }
      ],
      "name": "comment",
      "outputs": [],
      "stateMutability": "nonpayable",
      "type": "function"
    },
    {
      "inputs": [
        {
          "internalType": "bytes32",
          "name": "",
          "type": "bytes32"
        }
      ],
      "name": "commentByID",
      "outputs": [
        {
          "internalType": "address",
          "name": "author",
          "type": "address"
        },
        {
          "internalType": "bytes32",
          "name": "postID",
          "type": "bytes32"
        },
        {
          "internalType": "bytes32",
          "name": "reviewPostID",
          "type": "bytes32"
        },
        {
          "internalType": "uint256",
          "name": "createTime",
          "type": "uint256"
        },
        {
          "internalType": "string",
          "name": "content",
          "type": "string"
        },
        {
          "internalType": "uint256",
          "name": "upvoteNum",
          "type": "uint256"
        }
      ],
      "stateMutability": "view",
      "type": "function"
    },
    {
      "inputs": [
        {
          "internalType": "string",
          "name": "",
          "type": "string"
        }
      ],
      "name": "destinationAddress",
      "outputs": [
        {
          "internalType": "string",
          "name": "",
          "type": "string"
        }
      ],
      "stateMutability": "view",
      "type": "function"
    },
    {
      "inputs": [
        {
          "internalType": "string",
          "name": "",
          "type": "string"
        }
      ],
      "name": "destinationIdentify",
      "outputs": [
        {
          "internalType": "string",
          "name": "",
          "type": "string"
        }
      ],
      "stateMutability": "view",
      "type": "function"
    },
    {
      "inputs": [
        {
          "internalType": "bytes32",
          "name": "postID",
          "type": "bytes32"
        }
      ],
      "name": "divideRewardBy4R",
      "outputs": [],
      "stateMutability": "nonpayable",
      "type": "function"
    },
    {
      "inputs": [],
      "name": "erc20Token",
      "outputs": [
        {
          "internalType": "contract IERC20With4RMechanism",
          "name": "",
          "type": "address"
        }
      ],
      "stateMutability": "view",
      "type": "function"
    },
    {
      "inputs": [
        {
          "internalType": "bytes32",
          "name": "postID",
          "type": "bytes32"
        }
      ],
      "name": "getAllCommentOfReviewPost",
      "outputs": [
        {
          "components": [
            {
              "internalType": "address",
              "name": "author",
              "type": "address"
            },
            {
              "internalType": "bytes32",
              "name": "postID",
              "type": "bytes32"
            },
            {
              "internalType": "bytes32",
              "name": "reviewPostID",
              "type": "bytes32"
            },
            {
              "internalType": "uint256",
              "name": "createTime",
              "type": "uint256"
            },
            {
              "internalType": "string",
              "name": "content",
              "type": "string"
            },
            {
              "internalType": "uint256",
              "name": "upvoteNum",
              "type": "uint256"
            }
          ],
          "internalType": "struct Tourism.Comment[]",
          "name": "",
          "type": "tuple[]"
        }
      ],
      "stateMutability": "view",
      "type": "function"
    },
    {
      "inputs": [
        {
          "internalType": "string",
          "name": "_id",
          "type": "string"
        }
      ],
      "name": "getAllReviewsOfDestinations",
      "outputs": [
        {
          "components": [
            {
              "internalType": "address",
              "name": "author",
              "type": "address"
            },
            {
              "internalType": "bytes32",
              "name": "postID",
              "type": "bytes32"
            },
            {
              "internalType": "string",
              "name": "placeId",
              "type": "string"
            },
            {
              "internalType": "string",
              "name": "placeName",
              "type": "string"
            },
            {
              "internalType": "string",
              "name": "placeAddress",
              "type": "string"
            },
            {
              "internalType": "uint256",
              "name": "createTime",
              "type": "uint256"
            },
            {
              "internalType": "uint8",
              "name": "rate",
              "type": "uint8"
            },
            {
              "internalType": "string",
              "name": "review",
              "type": "string"
            },
            {
              "internalType": "string",
              "name": "title",
              "type": "string"
            },
            {
              "internalType": "uint256",
              "name": "upvoteNum",
              "type": "uint256"
            }
          ],
          "internalType": "struct Tourism.Review[]",
          "name": "",
          "type": "tuple[]"
        }
      ],
      "stateMutability": "view",
      "type": "function"
    },
    {
      "inputs": [
        {
          "internalType": "address",
          "name": "addr",
          "type": "address"
        }
      ],
      "name": "getAllReviewsOfTourist",
      "outputs": [
        {
          "components": [
            {
              "internalType": "address",
              "name": "author",
              "type": "address"
            },
            {
              "internalType": "bytes32",
              "name": "postID",
              "type": "bytes32"
            },
            {
              "internalType": "string",
              "name": "placeId",
              "type": "string"
            },
            {
              "internalType": "string",
              "name": "placeName",
              "type": "string"
            },
            {
              "internalType": "string",
              "name": "placeAddress",
              "type": "string"
            },
            {
              "internalType": "uint256",
              "name": "createTime",
              "type": "uint256"
            },
            {
              "internalType": "uint8",
              "name": "rate",
              "type": "uint8"
            },
            {
              "internalType": "string",
              "name": "review",
              "type": "string"
            },
            {
              "internalType": "string",
              "name": "title",
              "type": "string"
            },
            {
              "internalType": "uint256",
              "name": "upvoteNum",
              "type": "uint256"
            }
          ],
          "internalType": "struct Tourism.Review[]",
          "name": "",
          "type": "tuple[]"
        }
      ],
      "stateMutability": "view",
      "type": "function"
    },
    {
      "inputs": [
        {
          "internalType": "string",
          "name": "placeID",
          "type": "string"
        }
      ],
      "name": "getDestinationRates",
      "outputs": [
        {
          "internalType": "uint8[]",
          "name": "",
          "type": "uint8[]"
        }
      ],
      "stateMutability": "view",
      "type": "function"
    },
    {
      "inputs": [
        {
          "internalType": "bytes32",
          "name": "postID",
          "type": "bytes32"
        }
      ],
      "name": "getRewardPoint",
      "outputs": [],
      "stateMutability": "nonpayable",
      "type": "function"
    },
    {
      "inputs": [
        {
          "internalType": "bytes32",
          "name": "postID",
          "type": "bytes32"
        }
      ],
      "name": "getVoteOfReview",
      "outputs": [
        {
          "components": [
            {
              "internalType": "address",
              "name": "curator",
              "type": "address"
            },
            {
              "internalType": "uint256",
              "name": "curatorREP",
              "type": "uint256"
            },
            {
              "internalType": "uint256",
              "name": "curatorVP",
              "type": "uint256"
            }
          ],
          "internalType": "struct Tourism.Vote[]",
          "name": "",
          "type": "tuple[]"
        }
      ],
      "stateMutability": "view",
      "type": "function"
    },
    {
      "inputs": [
        {
          "internalType": "address",
          "name": "",
          "type": "address"
        },
        {
          "internalType": "bytes32",
          "name": "",
          "type": "bytes32"
        }
      ],
      "name": "isVoted",
      "outputs": [
        {
          "internalType": "bool",
          "name": "",
          "type": "bool"
        }
      ],
      "stateMutability": "view",
      "type": "function"
    },
    {
      "inputs": [
        {
          "internalType": "address",
          "name": "",
          "type": "address"
        },
        {
          "internalType": "uint256",
          "name": "",
          "type": "uint256"
        }
      ],
      "name": "listReward",
      "outputs": [
        {
          "internalType": "bytes32",
          "name": "",
          "type": "bytes32"
        }
      ],
      "stateMutability": "view",
      "type": "function"
    },
    {
      "inputs": [],
      "name": "register",
      "outputs": [],
      "stateMutability": "nonpayable",
      "type": "function"
    },
    {
      "inputs": [
        {
          "internalType": "bytes32",
          "name": "",
          "type": "bytes32"
        }
      ],
      "name": "reviewByID",
      "outputs": [
        {
          "internalType": "address",
          "name": "author",
          "type": "address"
        },
        {
          "internalType": "bytes32",
          "name": "postID",
          "type": "bytes32"
        },
        {
          "internalType": "string",
          "name": "placeId",
          "type": "string"
        },
        {
          "internalType": "string",
          "name": "placeName",
          "type": "string"
        },
        {
          "internalType": "string",
          "name": "placeAddress",
          "type": "string"
        },
        {
          "internalType": "uint256",
          "name": "createTime",
          "type": "uint256"
        },
        {
          "internalType": "uint8",
          "name": "rate",
          "type": "uint8"
        },
        {
          "internalType": "string",
          "name": "review",
          "type": "string"
        },
        {
          "internalType": "string",
          "name": "title",
          "type": "string"
        },
        {
          "internalType": "uint256",
          "name": "upvoteNum",
          "type": "uint256"
        }
      ],
      "stateMutability": "view",
      "type": "function"
    },
    {
      "inputs": [
        {
          "internalType": "bytes32",
          "name": "",
          "type": "bytes32"
        }
      ],
      "name": "reviewReward",
      "outputs": [
        {
          "internalType": "uint256",
          "name": "",
          "type": "uint256"
        }
      ],
      "stateMutability": "view",
      "type": "function"
    },
    {
      "inputs": [
        {
          "internalType": "bytes32",
          "name": "",
          "type": "bytes32"
        },
        {
          "internalType": "uint256",
          "name": "",
          "type": "uint256"
        }
      ],
      "name": "reviewVotes",
      "outputs": [
        {
          "internalType": "address",
          "name": "curator",
          "type": "address"
        },
        {
          "internalType": "uint256",
          "name": "curatorREP",
          "type": "uint256"
        },
        {
          "internalType": "uint256",
          "name": "curatorVP",
          "type": "uint256"
        }
      ],
      "stateMutability": "view",
      "type": "function"
    },
    {
      "inputs": [
        {
          "internalType": "string",
          "name": "placeID",
          "type": "string"
        },
        {
          "internalType": "bytes32",
          "name": "postID",
          "type": "bytes32"
        },
        {
          "internalType": "string",
          "name": "review",
          "type": "string"
        },
        {
          "internalType": "uint8",
          "name": "rate",
          "type": "uint8"
        },
        {
          "internalType": "string",
          "name": "title",
          "type": "string"
        }
      ],
      "name": "reviews",
      "outputs": [],
      "stateMutability": "nonpayable",
      "type": "function"
    },
    {
      "inputs": [],
      "name": "seeRewardLists",
      "outputs": [
        {
          "internalType": "bytes32[]",
          "name": "",
          "type": "bytes32[]"
        }
      ],
      "stateMutability": "view",
      "type": "function"
    },
    {
      "inputs": [
        {
          "internalType": "address",
          "name": "",
          "type": "address"
        }
      ],
      "name": "touristREP",
      "outputs": [
        {
          "internalType": "uint256",
          "name": "",
          "type": "uint256"
        }
      ],
      "stateMutability": "view",
      "type": "function"
    },
    {
      "inputs": [
        {
          "internalType": "address",
          "name": "",
          "type": "address"
        },
        {
          "internalType": "bytes32",
          "name": "",
          "type": "bytes32"
        }
      ],
      "name": "touristRewardOnPostID",
      "outputs": [
        {
          "internalType": "uint256",
          "name": "",
          "type": "uint256"
        }
      ],
      "stateMutability": "view",
      "type": "function"
    },
    {
      "inputs": [
        {
          "internalType": "address",
          "name": "",
          "type": "address"
        }
      ],
      "name": "touristVP",
      "outputs": [
        {
          "internalType": "uint256",
          "name": "",
          "type": "uint256"
        }
      ],
      "stateMutability": "view",
      "type": "function"
    },
    {
      "inputs": [
        {
          "internalType": "bytes32",
          "name": "postID",
          "type": "bytes32"
        }
      ],
      "name": "upvote",
      "outputs": [],
      "stateMutability": "nonpayable",
      "type": "function"
    }
  ],
  "bytecode": "0x60806040523480156200001157600080fd5b5060405162005c8f38038062005c8f8339818101604052810190620000379190620000ec565b60018060003373ffffffffffffffffffffffffffffffffffffffff1673ffffffffffffffffffffffffffffffffffffffff16815260200190815260200160002060006101000a81548160ff021916908315150217905550806000806101000a81548173ffffffffffffffffffffffffffffffffffffffff021916908373ffffffffffffffffffffffffffffffffffffffff1602179055505062000166565b600081519050620000e6816200014c565b92915050565b600060208284031215620000ff57600080fd5b60006200010f84828501620000d5565b91505092915050565b600062000125826200012c565b9050919050565b600073ffffffffffffffffffffffffffffffffffffffff82169050919050565b620001578162000118565b81146200016357600080fd5b50565b615b1980620001766000396000f3fe608060405234801561001057600080fd5b50600436106101c45760003560e01c80638a13eea7116100f9578063b36050b411610097578063f21bb4c511610071578063f21bb4c51461059e578063f5c62ac6146105ba578063fdb429a1146105d6578063fed9a3fe14610606576101c4565b8063b36050b41461054a578063b69f58e214610566578063ed8b56a714610582576101c4565b8063a5b1f44d116100d3578063a5b1f44d14610499578063a7ffb5fb146104b5578063aa6e1305146104e5578063ac91a75f14610515576101c4565b80638a13eea71461042f5780638a9419aa1461044d5780639216483d14610469576101c4565b80634aff09d511610166578063640e11d311610140578063640e11d31461037a5780636ca91211146103aa57806370480275146103e35780638213c3c1146103ff576101c4565b80634aff09d5146102fc5780635643618e1461032c5780635d02e4bc1461035c576101c4565b80632d70ad5c116101a25780632d70ad5c146102335780633aa9d4881461026357806340848d21146102935780634a8b6f9e146102c3576101c4565b8063153b1ea0146101c95780631aa3a008146101f95780631fe493ec14610203575b600080fd5b6101e360048036038101906101de91906144b6565b610638565b6040516101f091906151ab565b60405180910390f35b610201610a42565b005b61021d60048036038101906102189190614557565b610bf0565b60405161022a9190615189565b60405180910390f35b61024d600480360381019061024891906144df565b610d72565b60405161025a9190615211565b60405180910390f35b61027d600480360381019061027891906144df565b610da1565b60405161028a9190615388565b60405180910390f35b6102ad60048036038101906102a89190614557565b610dc6565b6040516102ba9190615388565b60405180910390f35b6102dd60048036038101906102d89190614557565b610dde565b6040516102f39a99989796959493929190614ff5565b60405180910390f35b61031660048036038101906103119190614610565b611107565b604051610323919061528b565b60405180910390f35b61034660048036038101906103419190614557565b6111bd565b60405161035391906151cd565b60405180910390f35b610364611299565b6040516103719190615167565b60405180910390f35b610394600480360381019061038f9190614610565b61132e565b6040516103a1919061528b565b60405180910390f35b6103c460048036038101906103bf919061451b565b6113e4565b6040516103da9a99989796959493929190614ff5565b60405180910390f35b6103fd60048036038101906103f891906144b6565b61172a565b005b61041960048036038101906104149190614610565b611817565b60405161042691906151ef565b60405180910390f35b6104376118b3565b6040516104449190615270565b60405180910390f35b61046760048036038101906104629190614557565b6118d7565b005b610483600480360381019061047e919061451b565b612143565b604051610490919061522c565b60405180910390f35b6104b360048036038101906104ae9190614557565b612174565b005b6104cf60048036038101906104ca91906144b6565b61293c565b6040516104dc9190615388565b60405180910390f35b6104ff60048036038101906104fa9190614610565b612954565b60405161050c91906151ab565b60405180910390f35b61052f600480360381019061052a9190614557565b612d3d565b60405161054196959493929190614f4f565b60405180910390f35b610564600480360381019061055f9190614580565b612e21565b005b610580600480360381019061057b9190614557565b6131de565b005b61059c60048036038101906105979190614710565b6133ad565b005b6105b860048036038101906105b39190614610565b6134ab565b005b6105d460048036038101906105cf9190614651565b61365c565b005b6105f060048036038101906105eb91906144b6565b613f8a565b6040516105fd9190615388565b60405180910390f35b610620600480360381019061061b91906145d4565b613fa2565b60405161062f93929190615130565b60405180910390f35b6060600560008373ffffffffffffffffffffffffffffffffffffffff1673ffffffffffffffffffffffffffffffffffffffff168152602001908152602001600020805480602002602001604051908101604052809291908181526020016000905b82821015610a3757838290600052602060002090600a0201604051806101400160405290816000820160009054906101000a900473ffffffffffffffffffffffffffffffffffffffff1673ffffffffffffffffffffffffffffffffffffffff1673ffffffffffffffffffffffffffffffffffffffff1681526020016001820154815260200160028201805461072d90615754565b80601f016020809104026020016040519081016040528092919081815260200182805461075990615754565b80156107a65780601f1061077b576101008083540402835291602001916107a6565b820191906000526020600020905b81548152906001019060200180831161078957829003601f168201915b505050505081526020016003820180546107bf90615754565b80601f01602080910402602001604051908101604052809291908181526020018280546107eb90615754565b80156108385780601f1061080d57610100808354040283529160200191610838565b820191906000526020600020905b81548152906001019060200180831161081b57829003601f168201915b5050505050815260200160048201805461085190615754565b80601f016020809104026020016040519081016040528092919081815260200182805461087d90615754565b80156108ca5780601f1061089f576101008083540402835291602001916108ca565b820191906000526020600020905b8154815290600101906020018083116108ad57829003601f168201915b50505050508152602001600582015481526020016006820160009054906101000a900460ff1660ff1660ff16815260200160078201805461090a90615754565b80601f016020809104026020016040519081016040528092919081815260200182805461093690615754565b80156109835780601f1061095857610100808354040283529160200191610983565b820191906000526020600020905b81548152906001019060200180831161096657829003601f168201915b5050505050815260200160088201805461099c90615754565b80601f01602080910402602001604051908101604052809291908181526020018280546109c890615754565b8015610a155780601f106109ea57610100808354040283529160200191610a15565b820191906000526020600020905b8154815290600101906020018083116109f857829003601f168201915b5050505050815260200160098201548152505081526020019060010190610699565b505050509050919050565b60001515600260003373ffffffffffffffffffffffffffffffffffffffff1673ffffffffffffffffffffffffffffffffffffffff16815260200190815260200160002060009054906101000a900460ff16151514610ad5576040517f08c379a0000000000000000000000000000000000000000000000000000000008152600401610acc9061534d565b60405180910390fd5b600f600460003373ffffffffffffffffffffffffffffffffffffffff1673ffffffffffffffffffffffffffffffffffffffff168152602001908152602001600020819055506064600360003373ffffffffffffffffffffffffffffffffffffffff1673ffffffffffffffffffffffffffffffffffffffff168152602001908152602001600020819055506001600260003373ffffffffffffffffffffffffffffffffffffffff1673ffffffffffffffffffffffffffffffffffffffff16815260200190815260200160002060006101000a81548160ff0219169083151502179055507feeda149c76076b34d4b9d8896c2f7efc0d33d1c7b53ea3c5db490d64613f603a33604051610be69190614f0b565b60405180910390a1565b606060116000838152602001908152602001600020805480602002602001604051908101604052809291908181526020016000905b82821015610d6757838290600052602060002090600602016040518060c00160405290816000820160009054906101000a900473ffffffffffffffffffffffffffffffffffffffff1673ffffffffffffffffffffffffffffffffffffffff1673ffffffffffffffffffffffffffffffffffffffff168152602001600182015481526020016002820154815260200160038201548152602001600482018054610ccc90615754565b80601f0160208091040260200160405190810160405280929190818152602001828054610cf890615754565b8015610d455780601f10610d1a57610100808354040283529160200191610d45565b820191906000526020600020905b815481529060010190602001808311610d2857829003601f168201915b5050505050815260200160058201548152505081526020019060010190610c25565b505050509050919050565b60126020528160005260406000206020528060005260406000206000915091509054906101000a900460ff1681565b6015602052816000526040600020602052806000526040600020600091509150505481565b600d6020528060005260406000206000915090505481565b600b6020528060005260406000206000915090508060000160009054906101000a900473ffffffffffffffffffffffffffffffffffffffff1690806001015490806002018054610e2d90615754565b80601f0160208091040260200160405190810160405280929190818152602001828054610e5990615754565b8015610ea65780601f10610e7b57610100808354040283529160200191610ea6565b820191906000526020600020905b815481529060010190602001808311610e8957829003601f168201915b505050505090806003018054610ebb90615754565b80601f0160208091040260200160405190810160405280929190818152602001828054610ee790615754565b8015610f345780601f10610f0957610100808354040283529160200191610f34565b820191906000526020600020905b815481529060010190602001808311610f1757829003601f168201915b505050505090806004018054610f4990615754565b80601f0160208091040260200160405190810160405280929190818152602001828054610f7590615754565b8015610fc25780601f10610f9757610100808354040283529160200191610fc2565b820191906000526020600020905b815481529060010190602001808311610fa557829003601f168201915b5050505050908060050154908060060160009054906101000a900460ff1690806007018054610ff090615754565b80601f016020809104026020016040519081016040528092919081815260200182805461101c90615754565b80156110695780601f1061103e57610100808354040283529160200191611069565b820191906000526020600020905b81548152906001019060200180831161104c57829003601f168201915b50505050509080600801805461107e90615754565b80601f01602080910402602001604051908101604052809291908181526020018280546110aa90615754565b80156110f75780601f106110cc576101008083540402835291602001916110f7565b820191906000526020600020905b8154815290600101906020018083116110da57829003601f168201915b505050505090806009015490508a565b600781805160208101820180518482526020830160208501208183528095505050505050600091509050805461113c90615754565b80601f016020809104026020016040519081016040528092919081815260200182805461116890615754565b80156111b55780601f1061118a576101008083540402835291602001916111b5565b820191906000526020600020905b81548152906001019060200180831161119857829003601f168201915b505050505081565b606060136000838152602001908152602001600020805480602002602001604051908101604052809291908181526020016000905b8282101561128e57838290600052602060002090600302016040518060600160405290816000820160009054906101000a900473ffffffffffffffffffffffffffffffffffffffff1673ffffffffffffffffffffffffffffffffffffffff1673ffffffffffffffffffffffffffffffffffffffff16815260200160018201548152602001600282015481525050815260200190600101906111f2565b505050509050919050565b6060600660003373ffffffffffffffffffffffffffffffffffffffff1673ffffffffffffffffffffffffffffffffffffffff16815260200190815260200160002080548060200260200160405190810160405280929190818152602001828054801561132457602002820191906000526020600020905b815481526020019060010190808311611310575b5050505050905090565b600881805160208101820180518482526020830160208501208183528095505050505050600091509050805461136390615754565b80601f016020809104026020016040519081016040528092919081815260200182805461138f90615754565b80156113dc5780601f106113b1576101008083540402835291602001916113dc565b820191906000526020600020905b8154815290600101906020018083116113bf57829003601f168201915b505050505081565b6005602052816000526040600020818154811061140057600080fd5b90600052602060002090600a0201600091509150508060000160009054906101000a900473ffffffffffffffffffffffffffffffffffffffff169080600101549080600201805461145090615754565b80601f016020809104026020016040519081016040528092919081815260200182805461147c90615754565b80156114c95780601f1061149e576101008083540402835291602001916114c9565b820191906000526020600020905b8154815290600101906020018083116114ac57829003601f168201915b5050505050908060030180546114de90615754565b80601f016020809104026020016040519081016040528092919081815260200182805461150a90615754565b80156115575780601f1061152c57610100808354040283529160200191611557565b820191906000526020600020905b81548152906001019060200180831161153a57829003601f168201915b50505050509080600401805461156c90615754565b80601f016020809104026020016040519081016040528092919081815260200182805461159890615754565b80156115e55780601f106115ba576101008083540402835291602001916115e5565b820191906000526020600020905b8154815290600101906020018083116115c857829003601f168201915b5050505050908060050154908060060160009054906101000a900460ff169080600701805461161390615754565b80601f016020809104026020016040519081016040528092919081815260200182805461163f90615754565b801561168c5780601f106116615761010080835404028352916020019161168c565b820191906000526020600020905b81548152906001019060200180831161166f57829003601f168201915b5050505050908060080180546116a190615754565b80601f01602080910402602001604051908101604052809291908181526020018280546116cd90615754565b801561171a5780601f106116ef5761010080835404028352916020019161171a565b820191906000526020600020905b8154815290600101906020018083116116fd57829003601f168201915b505050505090806009015490508a565b60011515600160003373ffffffffffffffffffffffffffffffffffffffff1673ffffffffffffffffffffffffffffffffffffffff16815260200190815260200160002060009054906101000a900460ff161515146117bd576040517f08c379a00000000000000000000000000000000000000000000000000000000081526004016117b49061530d565b60405180910390fd5b60018060008373ffffffffffffffffffffffffffffffffffffffff1673ffffffffffffffffffffffffffffffffffffffff16815260200190815260200160002060006101000a81548160ff02191690831515021790555050565b6060600a826040516118299190614ef4565b90815260200160405180910390208054806020026020016040519081016040528092919081815260200182805480156118a757602002820191906000526020600020906000905b82829054906101000a900460ff1660ff16815260200190600101906020826000010492830192600103820291508084116118705790505b50505050509050919050565b60008054906101000a900473ffffffffffffffffffffffffffffffffffffffff1681565b60001515600260003373ffffffffffffffffffffffffffffffffffffffff1673ffffffffffffffffffffffffffffffffffffffff16815260200190815260200160002060009054906101000a900460ff161515141561196d57336040517f1063935d0000000000000000000000000000000000000000000000000000000081526004016119649190614f0b565b60405180910390fd5b6000801b600b6000838152602001908152602001600020600101541480156119b357506010600082815260200190815260200160002060009054906101000a900460ff16155b156119f557806040517fd7b18dd00000000000000000000000000000000000000000000000000000000081526004016119ec919061522c565b60405180910390fd5b600115156014600083815260200190815260200160002060009054906101000a900460ff1615151415611a2757600080fd5b60001515600e600083815260200190815260200160002060009054906101000a900460ff1615151415611a8f576040517f08c379a0000000000000000000000000000000000000000000000000000000008152600401611a86906152ed565b60405180910390fd5b6000806010600084815260200190815260200160002060009054906101000a900460ff16611af557600b600084815260200190815260200160002060000160009054906101000a900473ffffffffffffffffffffffffffffffffffffffff169050611b2f565b600c600084815260200190815260200160002060000160009054906101000a900473ffffffffffffffffffffffffffffffffffffffff1690505b6000611b3a84614009565b925082600d600086815260200190815260200160002081905550600060136000868152602001908152602001600020805480602002602001604051908101604052809291908181526020016000905b82821015611c2557838290600052602060002090600302016040518060600160405290816000820160009054906101000a900473ffffffffffffffffffffffffffffffffffffffff1673ffffffffffffffffffffffffffffffffffffffff1673ffffffffffffffffffffffffffffffffffffffff1681526020016001820154815260200160028201548152505081526020019060010190611b89565b50505050905060005b81518163ffffffff161015611ca857818163ffffffff1681518110611c7c577f4e487b7100000000000000000000000000000000000000000000000000000000600052603260045260246000fd5b60200260200101516020015183611c93919061554e565b92508080611ca090615800565b915050611c2e565b50670de0b6b3a764000084611cbd91906155d5565b935060006064604b86611cd091906155d5565b611cda91906155a4565b90506010600087815260200190815260200160002060009054906101000a900460ff16611dbd5780601560008673ffffffffffffffffffffffffffffffffffffffff1673ffffffffffffffffffffffffffffffffffffffff168152602001908152602001600020600088815260200190815260200160002081905550600660008573ffffffffffffffffffffffffffffffffffffffff1673ffffffffffffffffffffffffffffffffffffffff1681526020019081526020016000208690806001815401808255809150506001900390600052602060002001600090919091909150555b60006064601987611dce91906155d5565b611dd891906155a4565b905060005b83518163ffffffff161015611fe5576000848263ffffffff1681518110611e2d577f4e487b7100000000000000000000000000000000000000000000000000000000600052603260045260246000fd5b60200260200101516020015186611e4491906155a4565b90506000811415611e5457600190505b6000858363ffffffff1681518110611e95577f4e487b7100000000000000000000000000000000000000000000000000000000600052603260045260246000fd5b60200260200101516000015190506000868463ffffffff1681518110611ee4577f4e487b7100000000000000000000000000000000000000000000000000000000600052603260045260246000fd5b6020026020010151604001519050600660008373ffffffffffffffffffffffffffffffffffffffff1673ffffffffffffffffffffffffffffffffffffffff1681526020019081526020016000208b90806001815401808255809150506001900390600052602060002001600090919091909150556064818487611f6791906155a4565b611f7191906155d5565b611f7b91906155a4565b601560008473ffffffffffffffffffffffffffffffffffffffff1673ffffffffffffffffffffffffffffffffffffffff16815260200190815260200160002060008d8152602001908152602001600020819055505050508080611fdd90615800565b915050611ddd565b5073__$09fb531d6e0688cf290a1b2a7e7ae137ee$__63677342ce856040518263ffffffff1660e01b815260040161201d919061536d565b60206040518083038186803b15801561203557600080fd5b505af4158015612049573d6000803e3d6000fd5b505050506040513d601f19601f8201168201806040525081019061206d91906147a7565b6fffffffffffffffffffffffffffffffff16600460008773ffffffffffffffffffffffffffffffffffffffff1673ffffffffffffffffffffffffffffffffffffffff16815260200190815260200160002060008282546120cd919061554e565b9250508190555060016014600089815260200190815260200160002060006101000a81548160ff0219169083151502179055508082887f134a256b30e79278465eb4be19c959a4c1f253707afe0d5eddcf9a2738a6a6b48660405161213291906151cd565b60405180910390a450505050505050565b6006602052816000526040600020818154811061215f57600080fd5b90600052602060002001600091509150505481565b6000801b600b6000838152602001908152602001600020600101541480156121ba57506010600082815260200190815260200160002060009054906101000a900460ff16155b156121fc57806040517fd7b18dd00000000000000000000000000000000000000000000000000000000081526004016121f3919061522c565b60405180910390fd5b60001515600260003373ffffffffffffffffffffffffffffffffffffffff1673ffffffffffffffffffffffffffffffffffffffff16815260200190815260200160002060009054906101000a900460ff161515141561229257336040517f1063935d0000000000000000000000000000000000000000000000000000000081526004016122899190614f0b565b60405180910390fd5b60011515601260003373ffffffffffffffffffffffffffffffffffffffff1673ffffffffffffffffffffffffffffffffffffffff168152602001908152602001600020600083815260200190815260200160002060009054906101000a900460ff161515141561233b5780336040517f77df5c0a000000000000000000000000000000000000000000000000000000008152600401612332929190615247565b60405180910390fd5b6000600360003373ffffffffffffffffffffffffffffffffffffffff1673ffffffffffffffffffffffffffffffffffffffff1681526020019081526020016000205490506000600460003373ffffffffffffffffffffffffffffffffffffffff1673ffffffffffffffffffffffffffffffffffffffff1681526020019081526020016000205490506002821080156123d35750606482115b156124175733826040517f8073989800000000000000000000000000000000000000000000000000000000815260040161240e929190615107565b60405180910390fd5b6010600084815260200190815260200160002060009054906101000a900460ff16612614576000600b60008581526020019081526020016000209050806009016000815480929190612468906157b7565b9190505550600081600201805461247e90615754565b80601f01602080910402602001604051908101604052809291908181526020018280546124aa90615754565b80156124f75780601f106124cc576101008083540402835291602001916124f7565b820191906000526020600020905b8154815290600101906020018083116124da57829003601f168201915b5050505050905060006009826040516125109190614ef4565b9081526020016040518091039020905060005b81805490508163ffffffff16101561260b5786828263ffffffff1681548110612575577f4e487b7100000000000000000000000000000000000000000000000000000000600052603260045260246000fd5b90600052602060002090600a02016001015414156125f857818163ffffffff16815481106125cc577f4e487b7100000000000000000000000000000000000000000000000000000000600052603260045260246000fd5b90600052602060002090600a020160090160008154809291906125ee906157b7565b919050555061260b565b808061260390615800565b915050612523565b5050505061274f565b6000600c60008581526020019081526020016000209050806005016000815480929190612640906157b7565b919050555060006011600083600201548152602001908152602001600020905060005b81805490508163ffffffff16101561274b5785828263ffffffff16815481106126b5577f4e487b7100000000000000000000000000000000000000000000000000000000600052603260045260246000fd5b906000526020600020906006020160010154141561273857818163ffffffff168154811061270c577f4e487b7100000000000000000000000000000000000000000000000000000000600052603260045260246000fd5b9060005260206000209060060201600501600081548092919061272e906157b7565b919050555061274b565b808061274390615800565b915050612663565b5050505b61275761424a565b33816000019073ffffffffffffffffffffffffffffffffffffffff16908173ffffffffffffffffffffffffffffffffffffffff168152505081816020018181525050828160400181815250506013600085815260200190815260200160002081908060018154018082558091505060019003906000526020600020906003020160009091909190915060008201518160000160006101000a81548173ffffffffffffffffffffffffffffffffffffffff021916908373ffffffffffffffffffffffffffffffffffffffff160217905550602082015181600101556040820151816002015550506002600360003373ffffffffffffffffffffffffffffffffffffffff1673ffffffffffffffffffffffffffffffffffffffff168152602001908152602001600020600082825461288d919061562f565b925050819055506001601260003373ffffffffffffffffffffffffffffffffffffffff1673ffffffffffffffffffffffffffffffffffffffff168152602001908152602001600020600086815260200190815260200160002060006101000a81548160ff0219169083151502179055507f0ccd933ff41b0ece70bed4d673b5580ea60a522957ddcc7185933b7b78f4c67a338560405161292e929190614f26565b60405180910390a150505050565b60046020528060005260406000206000915090505481565b60606009826040516129669190614ef4565b9081526020016040518091039020805480602002602001604051908101604052809291908181526020016000905b82821015612d3257838290600052602060002090600a0201604051806101400160405290816000820160009054906101000a900473ffffffffffffffffffffffffffffffffffffffff1673ffffffffffffffffffffffffffffffffffffffff1673ffffffffffffffffffffffffffffffffffffffff16815260200160018201548152602001600282018054612a2890615754565b80601f0160208091040260200160405190810160405280929190818152602001828054612a5490615754565b8015612aa15780601f10612a7657610100808354040283529160200191612aa1565b820191906000526020600020905b815481529060010190602001808311612a8457829003601f168201915b50505050508152602001600382018054612aba90615754565b80601f0160208091040260200160405190810160405280929190818152602001828054612ae690615754565b8015612b335780601f10612b0857610100808354040283529160200191612b33565b820191906000526020600020905b815481529060010190602001808311612b1657829003601f168201915b50505050508152602001600482018054612b4c90615754565b80601f0160208091040260200160405190810160405280929190818152602001828054612b7890615754565b8015612bc55780601f10612b9a57610100808354040283529160200191612bc5565b820191906000526020600020905b815481529060010190602001808311612ba857829003601f168201915b50505050508152602001600582015481526020016006820160009054906101000a900460ff1660ff1660ff168152602001600782018054612c0590615754565b80601f0160208091040260200160405190810160405280929190818152602001828054612c3190615754565b8015612c7e5780601f10612c5357610100808354040283529160200191612c7e565b820191906000526020600020905b815481529060010190602001808311612c6157829003601f168201915b50505050508152602001600882018054612c9790615754565b80601f0160208091040260200160405190810160405280929190818152602001828054612cc390615754565b8015612d105780601f10612ce557610100808354040283529160200191612d10565b820191906000526020600020905b815481529060010190602001808311612cf357829003601f168201915b5050505050815260200160098201548152505081526020019060010190612994565b505050509050919050565b600c6020528060005260406000206000915090508060000160009054906101000a900473ffffffffffffffffffffffffffffffffffffffff1690806001015490806002015490806003015490806004018054612d9890615754565b80601f0160208091040260200160405190810160405280929190818152602001828054612dc490615754565b8015612e115780601f10612de657610100808354040283529160200191612e11565b820191906000526020600020905b815481529060010190602001808311612df457829003601f168201915b5050505050908060050154905086565b60001515600260003373ffffffffffffffffffffffffffffffffffffffff1673ffffffffffffffffffffffffffffffffffffffff16815260200190815260200160002060009054906101000a900460ff1615151415612eb757336040517f1063935d000000000000000000000000000000000000000000000000000000008152600401612eae9190614f0b565b60405180910390fd5b6000801b600b6000848152602001908152602001600020600101541415612f1557816040517fd7b18dd0000000000000000000000000000000000000000000000000000000008152600401612f0c919061522c565b60405180910390fd5b60003342604051602001612f2a929190614ec8565b604051602081830303815290604052805190602001209050612f4a614281565b33816000019073ffffffffffffffffffffffffffffffffffffffff16908173ffffffffffffffffffffffffffffffffffffffff16815250508181602001818152505042816060018181525050828160800181905250838160400181815250506011600085815260200190815260200160002081908060018154018082558091505060019003906000526020600020906006020160009091909190915060008201518160000160006101000a81548173ffffffffffffffffffffffffffffffffffffffff021916908373ffffffffffffffffffffffffffffffffffffffff16021790555060208201518160010155604082015181600201556060820151816003015560808201518160040190805190602001906130679291906142d3565b5060a08201518160050155505060016010600084815260200190815260200160002060006101000a81548160ff02191690831515021790555080600c600084815260200190815260200160002060008201518160000160006101000a81548173ffffffffffffffffffffffffffffffffffffffff021916908373ffffffffffffffffffffffffffffffffffffffff16021790555060208201518160010155604082015181600201556060820151816003015560808201518160040190805190602001906131359291906142d3565b5060a0820151816005015590505060011515600e600086815260200190815260200160002060009054906101000a900460ff161515141561319d576001600e600084815260200190815260200160002060006101000a81548160ff0219169083151502179055505b7f4e995f78decdd67228fe5ea681e3e0bd77d263899f80f9ff48c4b98c763e7e453383856040516131d093929190614fb7565b60405180910390a150505050565b6000601560003373ffffffffffffffffffffffffffffffffffffffff1673ffffffffffffffffffffffffffffffffffffffff16815260200190815260200160002060008381526020019081526020016000205411613271576040517f08c379a0000000000000000000000000000000000000000000000000000000008152600401613268906152ad565b60405180910390fd5b6000601560003373ffffffffffffffffffffffffffffffffffffffff1673ffffffffffffffffffffffffffffffffffffffff16815260200190815260200160002060008381526020019081526020016000205490506000601560003373ffffffffffffffffffffffffffffffffffffffff1673ffffffffffffffffffffffffffffffffffffffff16815260200190815260200160002060008481526020019081526020016000208190555060008054906101000a900473ffffffffffffffffffffffffffffffffffffffff1673ffffffffffffffffffffffffffffffffffffffff1663d02b789d33836040518363ffffffff1660e01b8152600401613377929190615107565b600060405180830381600087803b15801561339157600080fd5b505af11580156133a5573d6000803e3d6000fd5b505050505050565b60011515600160003373ffffffffffffffffffffffffffffffffffffffff1673ffffffffffffffffffffffffffffffffffffffff16815260200190815260200160002060009054906101000a900460ff16151514613440576040517f08c379a00000000000000000000000000000000000000000000000000000000081526004016134379061530d565b60405180910390fd5b816007846040516134519190614ef4565b908152602001604051809103902090805190602001906134729291906142d3565b50806008846040516134849190614ef4565b908152602001604051809103902090805190602001906134a59291906142d3565b50505050565b60001515600260003373ffffffffffffffffffffffffffffffffffffffff1673ffffffffffffffffffffffffffffffffffffffff16815260200190815260200160002060009054906101000a900460ff161515141561354157336040517f1063935d0000000000000000000000000000000000000000000000000000000081526004016135389190614f0b565b60405180910390fd5b60006007826040516135539190614ef4565b9081526020016040518091039020805461356c90615754565b905014156135b157806040517f8f6b29cc0000000000000000000000000000000000000000000000000000000081526004016135a8919061528b565b60405180910390fd5b600033426040516020016135c6929190614ec8565b6040516020818303038152906040528051906020012090506001600f600083815260200190815260200160002060006101000a81548160ff021916908315150217905550816040516136189190614ef4565b6040518091039020817f995609ffe2742fdc2b1b60c0b6f329d58e9f947b234e4195b9a67bef523fb692336040516136509190614f0b565b60405180910390a35050565b60001515600260003373ffffffffffffffffffffffffffffffffffffffff1673ffffffffffffffffffffffffffffffffffffffff16815260200190815260200160002060009054906101000a900460ff16151514156136f257336040517f1063935d0000000000000000000000000000000000000000000000000000000081526004016136e99190614f0b565b60405180910390fd5b60006007866040516137049190614ef4565b9081526020016040518091039020805461371d90615754565b9050141561376257846040517f8f6b29cc000000000000000000000000000000000000000000000000000000008152600401613759919061528b565b60405180910390fd5b6000801b8414156137a55733858484844260405160200161378896959493929190614e64565b60405160208183030381529060405280519060200120935061386b565b60011515600f600086815260200190815260200160002060009054906101000a900460ff161515141561382f576001600e600086815260200190815260200160002060006101000a81548160ff0219169083151502179055506000600f600086815260200190815260200160002060006101000a81548160ff02191690831515021790555061386a565b6040517f08c379a00000000000000000000000000000000000000000000000000000000081526004016138619061532d565b60405180910390fd5b5b60008260ff1610158015613883575060328260ff1611155b6138c2576040517f08c379a00000000000000000000000000000000000000000000000000000000081526004016138b9906152cd565b60405180910390fd5b6138ca614359565b8481602001818152505033816000019073ffffffffffffffffffffffffffffffffffffffff16908173ffffffffffffffffffffffffffffffffffffffff1681525050858160400181905250838160e00181905250828160c0019060ff16908160ff168152505081816101000181905250428160a00181815250506007866040516139549190614ef4565b9081526020016040518091039020805461396d90615754565b80601f016020809104026020016040519081016040528092919081815260200182805461399990615754565b80156139e65780601f106139bb576101008083540402835291602001916139e6565b820191906000526020600020905b8154815290600101906020018083116139c957829003601f168201915b50505050508160600181905250600886604051613a039190614ef4565b90815260200160405180910390208054613a1c90615754565b80601f0160208091040260200160405190810160405280929190818152602001828054613a4890615754565b8015613a955780601f10613a6a57610100808354040283529160200191613a95565b820191906000526020600020905b815481529060010190602001808311613a7857829003601f168201915b5050505050816080018190525060008161012001818152505080600b60008360200151815260200190815260200160002060008201518160000160006101000a81548173ffffffffffffffffffffffffffffffffffffffff021916908373ffffffffffffffffffffffffffffffffffffffff160217905550602082015181600101556040820151816002019080519060200190613b339291906142d3565b506060820151816003019080519060200190613b509291906142d3565b506080820151816004019080519060200190613b6d9291906142d3565b5060a0820151816005015560c08201518160060160006101000a81548160ff021916908360ff16021790555060e0820151816007019080519060200190613bb59291906142d3565b50610100820151816008019080519060200190613bd39291906142d3565b506101208201518160090155905050600560003373ffffffffffffffffffffffffffffffffffffffff1673ffffffffffffffffffffffffffffffffffffffff1681526020019081526020016000208190806001815401808255809150506001900390600052602060002090600a020160009091909190915060008201518160000160006101000a81548173ffffffffffffffffffffffffffffffffffffffff021916908373ffffffffffffffffffffffffffffffffffffffff160217905550602082015181600101556040820151816002019080519060200190613cb89291906142d3565b506060820151816003019080519060200190613cd59291906142d3565b506080820151816004019080519060200190613cf29291906142d3565b5060a0820151816005015560c08201518160060160006101000a81548160ff021916908360ff16021790555060e0820151816007019080519060200190613d3a9291906142d3565b50610100820151816008019080519060200190613d589291906142d3565b5061012082015181600901555050600986604051613d769190614ef4565b90815260200160405180910390208190806001815401808255809150506001900390600052602060002090600a020160009091909190915060008201518160000160006101000a81548173ffffffffffffffffffffffffffffffffffffffff021916908373ffffffffffffffffffffffffffffffffffffffff160217905550602082015181600101556040820151816002019080519060200190613e1b9291906142d3565b506060820151816003019080519060200190613e389291906142d3565b506080820151816004019080519060200190613e559291906142d3565b5060a0820151816005015560c08201518160060160006101000a81548160ff021916908360ff16021790555060e0820151816007019080519060200190613e9d9291906142d3565b50610100820151816008019080519060200190613ebb9291906142d3565b5061012082015181600901555050600a86604051613ed99190614ef4565b90815260200160405180910390208390806001815401808255809150506001900390600052602060002090602091828204019190069091909190916101000a81548160ff021916908360ff16021790555085604051613f389190614ef4565b604051809103902081602001517f760704ab790065f832ff506a47ef33bb905c37b28e7cf953aff936b0add8ce9c33878787604051613f7a94939291906150b4565b60405180910390a3505050505050565b60036020528060005260406000206000915090505481565b60136020528160005260406000208181548110613fbe57600080fd5b9060005260206000209060030201600091509150508060000160009054906101000a900473ffffffffffffffffffffffffffffffffffffffff16908060010154908060020154905083565b600060011515600e600084815260200190815260200160002060009054906101000a900460ff1615151461403c57600080fd5b6000614047836111bd565b90506000806010600086815260200190815260200160002060009054906101000a900460ff166140c857600b6000868152602001908152602001600020600901549150600b600086815260200190815260200160002060000160009054906101000a900473ffffffffffffffffffffffffffffffffffffffff16905061411b565b600c6000868152602001908152602001600020600501549150600c600086815260200190815260200160002060000160009054906101000a900473ffffffffffffffffffffffffffffffffffffffff1690505b600080600090506000805b858163ffffffff1610156141bc57868163ffffffff1681518110614173577f4e487b7100000000000000000000000000000000000000000000000000000000600052603260045260246000fd5b602002602001015160200151935060018461418e91906155d5565b83614199919061554e565b925083826141a7919061554e565b915080806141b490615800565b915050614126565b506010600089815260200190815260200160002060009054906101000a900460ff1661423c576001600460008673ffffffffffffffffffffffffffffffffffffffff1673ffffffffffffffffffffffffffffffffffffffff1681526020019081526020016000205461422e91906155d5565b82614239919061554e565b91505b819650505050505050919050565b6040518060600160405280600073ffffffffffffffffffffffffffffffffffffffff16815260200160008152602001600081525090565b6040518060c00160405280600073ffffffffffffffffffffffffffffffffffffffff16815260200160008019168152602001600080191681526020016000815260200160608152602001600081525090565b8280546142df90615754565b90600052602060002090601f0160209004810192826143015760008555614348565b82601f1061431a57805160ff1916838001178555614348565b82800160010185558215614348579182015b8281111561434757825182559160200191906001019061432c565b5b50905061435591906143c8565b5090565b604051806101400160405280600073ffffffffffffffffffffffffffffffffffffffff1681526020016000801916815260200160608152602001606081526020016060815260200160008152602001600060ff1681526020016060815260200160608152602001600081525090565b5b808211156143e15760008160009055506001016143c9565b5090565b60006143f86143f3846153c8565b6153a3565b90508281526020810184848401111561441057600080fd5b61441b848285615712565b509392505050565b60008135905061443281615a70565b92915050565b60008135905061444781615a87565b92915050565b600082601f83011261445e57600080fd5b813561446e8482602086016143e5565b91505092915050565b60008151905061448681615a9e565b92915050565b60008135905061449b81615ab5565b92915050565b6000813590506144b081615acc565b92915050565b6000602082840312156144c857600080fd5b60006144d684828501614423565b91505092915050565b600080604083850312156144f257600080fd5b600061450085828601614423565b925050602061451185828601614438565b9150509250929050565b6000806040838503121561452e57600080fd5b600061453c85828601614423565b925050602061454d8582860161448c565b9150509250929050565b60006020828403121561456957600080fd5b600061457784828501614438565b91505092915050565b6000806040838503121561459357600080fd5b60006145a185828601614438565b925050602083013567ffffffffffffffff8111156145be57600080fd5b6145ca8582860161444d565b9150509250929050565b600080604083850312156145e757600080fd5b60006145f585828601614438565b92505060206146068582860161448c565b9150509250929050565b60006020828403121561462257600080fd5b600082013567ffffffffffffffff81111561463c57600080fd5b6146488482850161444d565b91505092915050565b600080600080600060a0868803121561466957600080fd5b600086013567ffffffffffffffff81111561468357600080fd5b61468f8882890161444d565b95505060206146a088828901614438565b945050604086013567ffffffffffffffff8111156146bd57600080fd5b6146c98882890161444d565b93505060606146da888289016144a1565b925050608086013567ffffffffffffffff8111156146f757600080fd5b6147038882890161444d565b9150509295509295909350565b60008060006060848603121561472557600080fd5b600084013567ffffffffffffffff81111561473f57600080fd5b61474b8682870161444d565b935050602084013567ffffffffffffffff81111561476857600080fd5b6147748682870161444d565b925050604084013567ffffffffffffffff81111561479157600080fd5b61479d8682870161444d565b9150509250925092565b6000602082840312156147b957600080fd5b60006147c784828501614477565b91505092915050565b60006147dc8383614a88565b60208301905092915050565b60006147f48383614c2a565b905092915050565b60006148088383614cb3565b905092915050565b600061481c8383614da9565b60608301905092915050565b60006148348383614e2f565b60208301905092915050565b61484981615663565b82525050565b61485881615663565b82525050565b61486f61486a82615663565b61582d565b82525050565b600061488082615449565b61488a81856154cc565b9350614895836153f9565b8060005b838110156148c65781516148ad88826147d0565b97506148b88361548b565b925050600181019050614899565b5085935050505092915050565b60006148de82615454565b6148e881856154dd565b9350836020820285016148fa85615409565b8060005b85811015614936578484038952815161491785826147e8565b945061492283615498565b925060208a019950506001810190506148fe565b50829750879550505050505092915050565b60006149538261545f565b61495d81856154ee565b93508360208202850161496f85615419565b8060005b858110156149ab578484038952815161498c85826147fc565b9450614997836154a5565b925060208a01995050600181019050614973565b50829750879550505050505092915050565b60006149c88261546a565b6149d281856154ff565b93506149dd83615429565b8060005b83811015614a0e5781516149f58882614810565b9750614a00836154b2565b9250506001810190506149e1565b5085935050505092915050565b6000614a2682615475565b614a308185615510565b9350614a3b83615439565b8060005b83811015614a6c578151614a538882614828565b9750614a5e836154bf565b925050600181019050614a3f565b5085935050505092915050565b614a8281615675565b82525050565b614a9181615681565b82525050565b614aa081615681565b82525050565b614aaf816156ee565b82525050565b6000614ac082615480565b614aca8185615521565b9350614ada818560208601615721565b614ae381615929565b840191505092915050565b6000614af982615480565b614b038185615532565b9350614b13818560208601615721565b614b1c81615929565b840191505092915050565b6000614b3282615480565b614b3c8185615543565b9350614b4c818560208601615721565b80840191505092915050565b6000614b65600e83615532565b9150614b7082615954565b602082019050919050565b6000614b88601383615532565b9150614b938261597d565b602082019050919050565b6000614bab600c83615532565b9150614bb6826159a6565b602082019050919050565b6000614bce602183615532565b9150614bd9826159cf565b604082019050919050565b6000614bf1600f83615532565b9150614bfc82615a1e565b602082019050919050565b6000614c14601d83615532565b9150614c1f82615a47565b602082019050919050565b600060c083016000830151614c426000860182614840565b506020830151614c556020860182614a88565b506040830151614c686040860182614a88565b506060830151614c7b6060860182614deb565b5060808301518482036080860152614c938282614ab5565b91505060a0830151614ca860a0860182614deb565b508091505092915050565b600061014083016000830151614ccc6000860182614840565b506020830151614cdf6020860182614a88565b5060408301518482036040860152614cf78282614ab5565b91505060608301518482036060860152614d118282614ab5565b91505060808301518482036080860152614d2b8282614ab5565b91505060a0830151614d4060a0860182614deb565b5060c0830151614d5360c0860182614e2f565b5060e083015184820360e0860152614d6b8282614ab5565b915050610100830151848203610100860152614d878282614ab5565b915050610120830151614d9e610120860182614deb565b508091505092915050565b606082016000820151614dbf6000850182614840565b506020820151614dd26020850182614deb565b506040820151614de56040850182614deb565b50505050565b614df4816156c7565b82525050565b614e03816156c7565b82525050565b614e12816156c7565b82525050565b614e29614e24826156c7565b615851565b82525050565b614e38816156e1565b82525050565b614e47816156e1565b82525050565b614e5e614e59826156e1565b61585b565b82525050565b6000614e70828961485e565b601482019150614e808288614b27565b9150614e8c8287614b27565b9150614e988286614e4d565b600182019150614ea88285614b27565b9150614eb48284614e18565b602082019150819050979650505050505050565b6000614ed4828561485e565b601482019150614ee48284614e18565b6020820191508190509392505050565b6000614f008284614b27565b915081905092915050565b6000602082019050614f20600083018461484f565b92915050565b6000604082019050614f3b600083018561484f565b614f486020830184614a97565b9392505050565b600060c082019050614f64600083018961484f565b614f716020830188614a97565b614f7e6040830187614a97565b614f8b6060830186614dfa565b8181036080830152614f9d8185614aee565b9050614fac60a0830184614dfa565b979650505050505050565b6000606082019050614fcc600083018661484f565b614fd96020830185614a97565b8181036040830152614feb8184614aee565b9050949350505050565b60006101408201905061500b600083018d61484f565b615018602083018c614a97565b818103604083015261502a818b614aee565b9050818103606083015261503e818a614aee565b905081810360808301526150528189614aee565b905061506160a0830188614dfa565b61506e60c0830187614e3e565b81810360e08301526150808186614aee565b90508181036101008301526150958185614aee565b90506150a5610120830184614dfa565b9b9a5050505050505050505050565b60006080820190506150c9600083018761484f565b81810360208301526150db8186614aee565b90506150ea6040830185614e3e565b81810360608301526150fc8184614aee565b905095945050505050565b600060408201905061511c600083018561484f565b6151296020830184614dfa565b9392505050565b6000606082019050615145600083018661484f565b6151526020830185614dfa565b61515f6040830184614dfa565b949350505050565b600060208201905081810360008301526151818184614875565b905092915050565b600060208201905081810360008301526151a381846148d3565b905092915050565b600060208201905081810360008301526151c58184614948565b905092915050565b600060208201905081810360008301526151e781846149bd565b905092915050565b600060208201905081810360008301526152098184614a1b565b905092915050565b60006020820190506152266000830184614a79565b92915050565b60006020820190506152416000830184614a97565b92915050565b600060408201905061525c6000830185614a97565b615269602083018461484f565b9392505050565b60006020820190506152856000830184614aa6565b92915050565b600060208201905081810360008301526152a58184614aee565b905092915050565b600060208201905081810360008301526152c681614b58565b9050919050565b600060208201905081810360008301526152e681614b7b565b9050919050565b6000602082019050818103600083015261530681614b9e565b9050919050565b6000602082019050818103600083015261532681614bc1565b9050919050565b6000602082019050818103600083015261534681614be4565b9050919050565b6000602082019050818103600083015261536681614c07565b9050919050565b60006020820190506153826000830184614e09565b92915050565b600060208201905061539d6000830184614dfa565b92915050565b60006153ad6153be565b90506153b98282615786565b919050565b6000604051905090565b600067ffffffffffffffff8211156153e3576153e26158fa565b5b6153ec82615929565b9050602081019050919050565b6000819050602082019050919050565b6000819050602082019050919050565b6000819050602082019050919050565b6000819050602082019050919050565b6000819050602082019050919050565b600081519050919050565b600081519050919050565b600081519050919050565b600081519050919050565b600081519050919050565b600081519050919050565b6000602082019050919050565b6000602082019050919050565b6000602082019050919050565b6000602082019050919050565b6000602082019050919050565b600082825260208201905092915050565b600082825260208201905092915050565b600082825260208201905092915050565b600082825260208201905092915050565b600082825260208201905092915050565b600082825260208201905092915050565b600082825260208201905092915050565b600081905092915050565b6000615559826156c7565b9150615564836156c7565b9250827fffffffffffffffffffffffffffffffffffffffffffffffffffffffffffffffff038211156155995761559861586d565b5b828201905092915050565b60006155af826156c7565b91506155ba836156c7565b9250826155ca576155c961589c565b5b828204905092915050565b60006155e0826156c7565b91506155eb836156c7565b9250817fffffffffffffffffffffffffffffffffffffffffffffffffffffffffffffffff04831182151516156156245761562361586d565b5b828202905092915050565b600061563a826156c7565b9150615645836156c7565b9250828210156156585761565761586d565b5b828203905092915050565b600061566e826156a7565b9050919050565b60008115159050919050565b6000819050919050565b60006fffffffffffffffffffffffffffffffff82169050919050565b600073ffffffffffffffffffffffffffffffffffffffff82169050919050565b6000819050919050565b600063ffffffff82169050919050565b600060ff82169050919050565b60006156f982615700565b9050919050565b600061570b826156a7565b9050919050565b82818337600083830152505050565b60005b8381101561573f578082015181840152602081019050615724565b8381111561574e576000848401525b50505050565b6000600282049050600182168061576c57607f821691505b602082108114156157805761577f6158cb565b5b50919050565b61578f82615929565b810181811067ffffffffffffffff821117156157ae576157ad6158fa565b5b80604052505050565b60006157c2826156c7565b91507fffffffffffffffffffffffffffffffffffffffffffffffffffffffffffffffff8214156157f5576157f461586d565b5b600182019050919050565b600061580b826156d1565b915063ffffffff8214156158225761582161586d565b5b600182019050919050565b60006158388261583f565b9050919050565b600061584a82615947565b9050919050565b6000819050919050565b60006158668261593a565b9050919050565b7f4e487b7100000000000000000000000000000000000000000000000000000000600052601160045260246000fd5b7f4e487b7100000000000000000000000000000000000000000000000000000000600052601260045260246000fd5b7f4e487b7100000000000000000000000000000000000000000000000000000000600052602260045260246000fd5b7f4e487b7100000000000000000000000000000000000000000000000000000000600052604160045260246000fd5b6000601f19601f8301169050919050565b60008160f81b9050919050565b60008160601b9050919050565b7f496e76616c696420526577617264000000000000000000000000000000000000600082015250565b7f556e76616c6964206e756d626572207261746500000000000000000000000000600082015250565b7f4e6f742056657269666965640000000000000000000000000000000000000000600082015250565b7f4f6e6c792061646d696e2063616e2063616c6c20746869732066756e6374696f60008201527f6e00000000000000000000000000000000000000000000000000000000000000602082015250565b7f416c726561647920726576696577640000000000000000000000000000000000600082015250565b7f54686973206164647265737320686173206265656e2065786973746564000000600082015250565b615a7981615663565b8114615a8457600080fd5b50565b615a9081615681565b8114615a9b57600080fd5b50565b615aa78161568b565b8114615ab257600080fd5b50565b615abe816156c7565b8114615ac957600080fd5b50565b615ad5816156e1565b8114615ae057600080fd5b5056fea2646970667358221220027614025d5c3a1bd29150c8b65a7746abb6f8c40dfcf593a2f4b1f6eb44924064736f6c63430008040033",
  "linkReferences": {
    "contracts/tourismV2.sol": {
      "Math": [
        {
          "length": 20,
          "start": 8542
        }
      ]
    }
  },
  "deployedLinkReferences": {
    "contracts/tourismV2.sol": {
      "Math": [
        {
          "length": 20,
          "start": 8168
        }
      ]
    }
  }
}