{
  "_format": "hh-sol-artifact-1",
  "contractName": "Tourism",
  "sourceName": "contracts/Tourism.sol",
  "abi": [
    {
      "inputs": [
        {
          "internalType": "address",
          "name": "ERC20_address",
          "type": "address"
        }
      ],
      "stateMutability": "nonpayable",
      "type": "constructor"
    },
    {
      "inputs": [
        {
          "internalType": "string",
          "name": "PlaceID",
          "type": "string"
        }
      ],
      "name": "InvalidPlaceID",
      "type": "error"
    },
    {
      "inputs": [
        {
          "internalType": "bytes32",
          "name": "PostID",
          "type": "bytes32"
        }
      ],
      "name": "InvalidPostID",
      "type": "error"
    },
    {
      "inputs": [
        {
          "internalType": "string",
          "name": "PlaceID",
          "type": "string"
        },
        {
          "internalType": "string",
          "name": "TicketID",
          "type": "string"
        }
      ],
      "name": "InvalidTicketID",
      "type": "error"
    },
    {
      "inputs": [
        {
          "internalType": "address",
          "name": "Address",
          "type": "address"
        }
      ],
      "name": "NotRegister",
      "type": "error"
    },
    {
      "inputs": [
        {
          "internalType": "string",
          "name": "PlaceID",
          "type": "string"
        },
        {
          "internalType": "string",
          "name": "TicketID",
          "type": "string"
        }
      ],
      "name": "TicketIsUsed",
      "type": "error"
    },
    {
      "inputs": [
        {
          "internalType": "string",
          "name": "PlaceID",
          "type": "string"
        },
        {
          "internalType": "string",
          "name": "TicketID",
          "type": "string"
        }
      ],
      "name": "TicketIsVerified",
      "type": "error"
    },
    {
      "anonymous": false,
      "inputs": [
        {
          "indexed": false,
          "internalType": "string",
          "name": "ticketId",
          "type": "string"
        },
        {
          "indexed": false,
          "internalType": "string",
          "name": "placeID",
          "type": "string"
        },
        {
          "components": [
            {
              "internalType": "string",
              "name": "firstName",
              "type": "string"
            },
            {
              "internalType": "string",
              "name": "lastName",
              "type": "string"
            },
            {
              "internalType": "string",
              "name": "phoneNumber",
              "type": "string"
            },
            {
              "internalType": "uint256",
              "name": "REP",
              "type": "uint256"
            },
            {
              "internalType": "uint256",
              "name": "VP",
              "type": "uint256"
            }
          ],
          "indexed": false,
          "internalType": "struct Tourism.Tourist",
          "name": "tourist",
          "type": "tuple"
        }
      ],
      "name": "CheckIn",
      "type": "event"
    },
    {
      "anonymous": false,
      "inputs": [
        {
          "indexed": true,
          "internalType": "bytes32",
          "name": "postID",
          "type": "bytes32"
        },
        {
          "indexed": true,
          "internalType": "uint256",
          "name": "authorReward",
          "type": "uint256"
        },
        {
          "indexed": true,
          "internalType": "uint256",
          "name": "curatorsReward",
          "type": "uint256"
        },
        {
          "components": [
            {
              "internalType": "address",
              "name": "curator",
              "type": "address"
            },
            {
              "internalType": "uint256",
              "name": "curatorREP",
              "type": "uint256"
            },
            {
              "internalType": "uint256",
              "name": "curatorVP",
              "type": "uint256"
            }
          ],
          "indexed": false,
          "internalType": "struct Tourism.Vote[]",
          "name": "upvotes",
          "type": "tuple[]"
        }
      ],
      "name": "DivideRewardBy4R",
      "type": "event"
    },
    {
      "anonymous": false,
      "inputs": [
        {
          "components": [
            {
              "internalType": "string",
              "name": "firstName",
              "type": "string"
            },
            {
              "internalType": "string",
              "name": "lastName",
              "type": "string"
            },
            {
              "internalType": "string",
              "name": "phoneNumber",
              "type": "string"
            },
            {
              "internalType": "uint256",
              "name": "REP",
              "type": "uint256"
            },
            {
              "internalType": "uint256",
              "name": "VP",
              "type": "uint256"
            }
          ],
          "indexed": false,
          "internalType": "struct Tourism.Tourist",
          "name": "tourist",
          "type": "tuple"
        },
        {
          "indexed": false,
          "internalType": "bytes32",
          "name": "postID",
          "type": "bytes32"
        },
        {
          "indexed": false,
          "internalType": "string",
          "name": "PlaceName",
          "type": "string"
        },
        {
          "indexed": false,
          "internalType": "string",
          "name": "review",
          "type": "string"
        },
        {
          "indexed": false,
          "internalType": "uint8",
          "name": "rate",
          "type": "uint8"
        },
        {
          "indexed": false,
          "internalType": "string",
          "name": "title",
          "type": "string"
        }
      ],
      "name": "PostReview",
      "type": "event"
    },
    {
      "anonymous": false,
      "inputs": [
        {
          "indexed": false,
          "internalType": "string",
          "name": "_firstName",
          "type": "string"
        },
        {
          "indexed": false,
          "internalType": "string",
          "name": "_lastName",
          "type": "string"
        },
        {
          "indexed": false,
          "internalType": "string",
          "name": "_phoneNumber",
          "type": "string"
        }
      ],
      "name": "Register",
      "type": "event"
    },
    {
      "inputs": [
        {
          "internalType": "address",
          "name": "",
          "type": "address"
        },
        {
          "internalType": "uint256",
          "name": "",
          "type": "uint256"
        }
      ],
      "name": "TouristReviews",
      "outputs": [
        {
          "internalType": "address",
          "name": "author",
          "type": "address"
        },
        {
          "internalType": "bytes32",
          "name": "postID",
          "type": "bytes32"
        },
        {
          "internalType": "string",
          "name": "placeId",
          "type": "string"
        },
        {
          "internalType": "string",
          "name": "placeName",
          "type": "string"
        },
        {
          "internalType": "string",
          "name": "placeAddress",
          "type": "string"
        },
        {
          "internalType": "uint256",
          "name": "createTime",
          "type": "uint256"
        },
        {
          "internalType": "uint256",
          "name": "rate",
          "type": "uint256"
        },
        {
          "internalType": "string",
          "name": "review",
          "type": "string"
        },
        {
          "internalType": "string",
          "name": "title",
          "type": "string"
        },
        {
          "internalType": "uint256",
          "name": "upvoteNum",
          "type": "uint256"
        }
      ],
      "stateMutability": "view",
      "type": "function"
    },
    {
      "inputs": [
        {
          "internalType": "address",
          "name": "userAddress",
          "type": "address"
        }
      ],
      "name": "addAdmin",
      "outputs": [],
      "stateMutability": "nonpayable",
      "type": "function"
    },
    {
      "inputs": [
        {
          "internalType": "string",
          "name": "_id",
          "type": "string"
        },
        {
          "internalType": "string",
          "name": "destinationName",
          "type": "string"
        },
        {
          "internalType": "string",
          "name": "destinationAddr",
          "type": "string"
        }
      ],
      "name": "addDestination",
      "outputs": [],
      "stateMutability": "nonpayable",
      "type": "function"
    },
    {
      "inputs": [
        {
          "internalType": "string",
          "name": "placeId",
          "type": "string"
        },
        {
          "internalType": "string",
          "name": "ticketId",
          "type": "string"
        }
      ],
      "name": "addPlaceTicket",
      "outputs": [],
      "stateMutability": "nonpayable",
      "type": "function"
    },
    {
      "inputs": [
        {
          "internalType": "bytes32",
          "name": "postID",
          "type": "bytes32"
        }
      ],
      "name": "calculateTotalReward",
      "outputs": [
        {
          "internalType": "uint256",
          "name": "",
          "type": "uint256"
        }
      ],
      "stateMutability": "view",
      "type": "function"
    },
    {
      "inputs": [
        {
          "internalType": "string",
          "name": "ticketId",
          "type": "string"
        },
        {
          "internalType": "string",
          "name": "placeID",
          "type": "string"
        }
      ],
      "name": "checkIn",
      "outputs": [],
      "stateMutability": "nonpayable",
      "type": "function"
    },
    {
      "inputs": [
        {
          "internalType": "string",
          "name": "",
          "type": "string"
        }
      ],
      "name": "destinationAddress",
      "outputs": [
        {
          "internalType": "string",
          "name": "",
          "type": "string"
        }
      ],
      "stateMutability": "view",
      "type": "function"
    },
    {
      "inputs": [
        {
          "internalType": "string",
          "name": "",
          "type": "string"
        }
      ],
      "name": "destinationIdentify",
      "outputs": [
        {
          "internalType": "string",
          "name": "",
          "type": "string"
        }
      ],
      "stateMutability": "view",
      "type": "function"
    },
    {
      "inputs": [
        {
          "internalType": "string",
          "name": "",
          "type": "string"
        },
        {
          "internalType": "uint256",
          "name": "",
          "type": "uint256"
        }
      ],
      "name": "destinationRates",
      "outputs": [
        {
          "internalType": "uint8",
          "name": "",
          "type": "uint8"
        }
      ],
      "stateMutability": "view",
      "type": "function"
    },
    {
      "inputs": [
        {
          "internalType": "string",
          "name": "",
          "type": "string"
        },
        {
          "internalType": "uint256",
          "name": "",
          "type": "uint256"
        }
      ],
      "name": "destinationReviews",
      "outputs": [
        {
          "internalType": "address",
          "name": "author",
          "type": "address"
        },
        {
          "internalType": "bytes32",
          "name": "postID",
          "type": "bytes32"
        },
        {
          "internalType": "string",
          "name": "placeId",
          "type": "string"
        },
        {
          "internalType": "string",
          "name": "placeName",
          "type": "string"
        },
        {
          "internalType": "string",
          "name": "placeAddress",
          "type": "string"
        },
        {
          "internalType": "uint256",
          "name": "createTime",
          "type": "uint256"
        },
        {
          "internalType": "uint256",
          "name": "rate",
          "type": "uint256"
        },
        {
          "internalType": "string",
          "name": "review",
          "type": "string"
        },
        {
          "internalType": "string",
          "name": "title",
          "type": "string"
        },
        {
          "internalType": "uint256",
          "name": "upvoteNum",
          "type": "uint256"
        }
      ],
      "stateMutability": "view",
      "type": "function"
    },
    {
      "inputs": [
        {
          "internalType": "bytes32",
          "name": "postID",
          "type": "bytes32"
        }
      ],
      "name": "divideRewardBy4R",
      "outputs": [],
      "stateMutability": "nonpayable",
      "type": "function"
    },
    {
      "inputs": [],
      "name": "erc20Token",
      "outputs": [
        {
          "internalType": "contract IERC20With4RMechanism",
          "name": "",
          "type": "address"
        }
      ],
      "stateMutability": "view",
      "type": "function"
    },
    {
      "inputs": [
        {
          "internalType": "string",
          "name": "_id",
          "type": "string"
        }
      ],
      "name": "getAllReviewsOfDestinations",
      "outputs": [
        {
          "components": [
            {
              "internalType": "address",
              "name": "author",
              "type": "address"
            },
            {
              "internalType": "bytes32",
              "name": "postID",
              "type": "bytes32"
            },
            {
              "internalType": "string",
              "name": "placeId",
              "type": "string"
            },
            {
              "internalType": "string",
              "name": "placeName",
              "type": "string"
            },
            {
              "internalType": "string",
              "name": "placeAddress",
              "type": "string"
            },
            {
              "internalType": "uint256",
              "name": "createTime",
              "type": "uint256"
            },
            {
              "internalType": "uint256",
              "name": "rate",
              "type": "uint256"
            },
            {
              "internalType": "string",
              "name": "review",
              "type": "string"
            },
            {
              "internalType": "string",
              "name": "title",
              "type": "string"
            },
            {
              "internalType": "uint256",
              "name": "upvoteNum",
              "type": "uint256"
            }
          ],
          "internalType": "struct Tourism.Review[]",
          "name": "",
          "type": "tuple[]"
        }
      ],
      "stateMutability": "view",
      "type": "function"
    },
    {
      "inputs": [
        {
          "internalType": "address",
          "name": "touristAddress",
          "type": "address"
        }
      ],
      "name": "getAllReviewsOfTourist",
      "outputs": [
        {
          "components": [
            {
              "internalType": "address",
              "name": "author",
              "type": "address"
            },
            {
              "internalType": "bytes32",
              "name": "postID",
              "type": "bytes32"
            },
            {
              "internalType": "string",
              "name": "placeId",
              "type": "string"
            },
            {
              "internalType": "string",
              "name": "placeName",
              "type": "string"
            },
            {
              "internalType": "string",
              "name": "placeAddress",
              "type": "string"
            },
            {
              "internalType": "uint256",
              "name": "createTime",
              "type": "uint256"
            },
            {
              "internalType": "uint256",
              "name": "rate",
              "type": "uint256"
            },
            {
              "internalType": "string",
              "name": "review",
              "type": "string"
            },
            {
              "internalType": "string",
              "name": "title",
              "type": "string"
            },
            {
              "internalType": "uint256",
              "name": "upvoteNum",
              "type": "uint256"
            }
          ],
          "internalType": "struct Tourism.Review[]",
          "name": "",
          "type": "tuple[]"
        }
      ],
      "stateMutability": "view",
      "type": "function"
    },
    {
      "inputs": [
        {
          "internalType": "string",
          "name": "placeID",
          "type": "string"
        }
      ],
      "name": "getDestinationRates",
      "outputs": [
        {
          "internalType": "uint8[]",
          "name": "",
          "type": "uint8[]"
        }
      ],
      "stateMutability": "view",
      "type": "function"
    },
    {
      "inputs": [
        {
          "internalType": "bytes32",
          "name": "postID",
          "type": "bytes32"
        }
      ],
      "name": "getRewardPoint",
      "outputs": [],
      "stateMutability": "nonpayable",
      "type": "function"
    },
    {
      "inputs": [
        {
          "internalType": "bytes32",
          "name": "postID",
          "type": "bytes32"
        }
      ],
      "name": "getVoteOfReview",
      "outputs": [
        {
          "components": [
            {
              "internalType": "address",
              "name": "curator",
              "type": "address"
            },
            {
              "internalType": "uint256",
              "name": "curatorREP",
              "type": "uint256"
            },
            {
              "internalType": "uint256",
              "name": "curatorVP",
              "type": "uint256"
            }
          ],
          "internalType": "struct Tourism.Vote[]",
          "name": "",
          "type": "tuple[]"
        }
      ],
      "stateMutability": "view",
      "type": "function"
    },
    {
      "inputs": [
        {
          "internalType": "string",
          "name": "",
          "type": "string"
        },
        {
          "internalType": "string",
          "name": "",
          "type": "string"
        }
      ],
      "name": "isVerify",
      "outputs": [
        {
          "internalType": "bool",
          "name": "",
          "type": "bool"
        }
      ],
      "stateMutability": "view",
      "type": "function"
    },
    {
      "inputs": [
        {
          "internalType": "address",
          "name": "",
          "type": "address"
        },
        {
          "internalType": "uint256",
          "name": "",
          "type": "uint256"
        }
      ],
      "name": "listReward",
      "outputs": [
        {
          "internalType": "bytes32",
          "name": "",
          "type": "bytes32"
        }
      ],
      "stateMutability": "view",
      "type": "function"
    },
    {
      "inputs": [
        {
          "internalType": "string",
          "name": "_firstName",
          "type": "string"
        },
        {
          "internalType": "string",
          "name": "_lastName",
          "type": "string"
        },
        {
          "internalType": "string",
          "name": "_phoneNumber",
          "type": "string"
        }
      ],
      "name": "register",
      "outputs": [],
      "stateMutability": "nonpayable",
      "type": "function"
    },
    {
      "inputs": [
        {
          "internalType": "bytes32",
          "name": "",
          "type": "bytes32"
        }
      ],
      "name": "reviewByID",
      "outputs": [
        {
          "internalType": "address",
          "name": "author",
          "type": "address"
        },
        {
          "internalType": "bytes32",
          "name": "postID",
          "type": "bytes32"
        },
        {
          "internalType": "string",
          "name": "placeId",
          "type": "string"
        },
        {
          "internalType": "string",
          "name": "placeName",
          "type": "string"
        },
        {
          "internalType": "string",
          "name": "placeAddress",
          "type": "string"
        },
        {
          "internalType": "uint256",
          "name": "createTime",
          "type": "uint256"
        },
        {
          "internalType": "uint256",
          "name": "rate",
          "type": "uint256"
        },
        {
          "internalType": "string",
          "name": "review",
          "type": "string"
        },
        {
          "internalType": "string",
          "name": "title",
          "type": "string"
        },
        {
          "internalType": "uint256",
          "name": "upvoteNum",
          "type": "uint256"
        }
      ],
      "stateMutability": "view",
      "type": "function"
    },
    {
      "inputs": [
        {
          "internalType": "bytes32",
          "name": "",
          "type": "bytes32"
        }
      ],
      "name": "reviewVerify",
      "outputs": [
        {
          "internalType": "bool",
          "name": "",
          "type": "bool"
        }
      ],
      "stateMutability": "view",
      "type": "function"
    },
    {
      "inputs": [
        {
          "internalType": "bytes32",
          "name": "",
          "type": "bytes32"
        },
        {
          "internalType": "uint256",
          "name": "",
          "type": "uint256"
        }
      ],
      "name": "reviewVotes",
      "outputs": [
        {
          "internalType": "address",
          "name": "curator",
          "type": "address"
        },
        {
          "internalType": "uint256",
          "name": "curatorREP",
          "type": "uint256"
        },
        {
          "internalType": "uint256",
          "name": "curatorVP",
          "type": "uint256"
        }
      ],
      "stateMutability": "view",
      "type": "function"
    },
    {
      "inputs": [
        {
          "internalType": "string",
          "name": "placeID",
          "type": "string"
        },
        {
          "internalType": "string",
          "name": "review",
          "type": "string"
        },
        {
          "internalType": "uint8",
          "name": "rate",
          "type": "uint8"
        },
        {
          "internalType": "string",
          "name": "title",
          "type": "string"
        }
      ],
      "name": "reviews",
      "outputs": [],
      "stateMutability": "nonpayable",
      "type": "function"
    },
    {
      "inputs": [],
      "name": "seeRewardLists",
      "outputs": [
        {
          "internalType": "bytes32[]",
          "name": "",
          "type": "bytes32[]"
        }
      ],
      "stateMutability": "view",
      "type": "function"
    },
    {
      "inputs": [
        {
          "internalType": "address",
          "name": "",
          "type": "address"
        }
      ],
      "name": "touristIdentify",
      "outputs": [
        {
          "internalType": "string",
          "name": "firstName",
          "type": "string"
        },
        {
          "internalType": "string",
          "name": "lastName",
          "type": "string"
        },
        {
          "internalType": "string",
          "name": "phoneNumber",
          "type": "string"
        },
        {
          "internalType": "uint256",
          "name": "REP",
          "type": "uint256"
        },
        {
          "internalType": "uint256",
          "name": "VP",
          "type": "uint256"
        }
      ],
      "stateMutability": "view",
      "type": "function"
    },
    {
      "inputs": [
        {
          "internalType": "address",
          "name": "",
          "type": "address"
        },
        {
          "internalType": "bytes32",
          "name": "",
          "type": "bytes32"
        }
      ],
      "name": "touristRewardOnPostID",
      "outputs": [
        {
          "internalType": "uint256",
          "name": "",
          "type": "uint256"
        }
      ],
      "stateMutability": "view",
      "type": "function"
    },
    {
      "inputs": [
        {
          "internalType": "bytes32",
          "name": "postID",
          "type": "bytes32"
        }
      ],
      "name": "upvote",
      "outputs": [],
      "stateMutability": "nonpayable",
      "type": "function"
    },
    {
      "inputs": [
        {
          "internalType": "bytes32",
          "name": "postID",
          "type": "bytes32"
        },
        {
          "internalType": "string",
          "name": "ticketID",
          "type": "string"
        }
      ],
      "name": "verifyTicket",
      "outputs": [],
      "stateMutability": "nonpayable",
      "type": "function"
    }
  ],
  "bytecode": "0x60806040523480156200001157600080fd5b5060405162005ffe38038062005ffe8339818101604052810190620000379190620000ec565b60018060003373ffffffffffffffffffffffffffffffffffffffff1673ffffffffffffffffffffffffffffffffffffffff16815260200190815260200160002060006101000a81548160ff021916908315150217905550806000806101000a81548173ffffffffffffffffffffffffffffffffffffffff021916908373ffffffffffffffffffffffffffffffffffffffff1602179055505062000166565b600081519050620000e6816200014c565b92915050565b600060208284031215620000ff57600080fd5b60006200010f84828501620000d5565b91505092915050565b600062000125826200012c565b9050919050565b600073ffffffffffffffffffffffffffffffffffffffff82169050919050565b620001578162000118565b81146200016357600080fd5b50565b615e8880620001766000396000f3fe608060405234801561001057600080fd5b50600436106101cf5760003560e01c806366cde05f11610104578063a5b1f44d116100a2578063da64f0f511610071578063da64f0f5146105df578063ed8b56a7146105fb578063f52109bd14610617578063fed9a3fe14610647576101cf565b8063a5b1f44d1461055b578063aa6e130514610577578063b69f58e2146105a7578063cb16e306146105c3576101cf565b80638213c3c1116100de5780638213c3c1146104c15780638a13eea7146104f15780638a9419aa1461050f5780639216483d1461052b576101cf565b806366cde05f146104505780636ca912111461046c57806370480275146104a5576101cf565b80634aff09d5116101715780635643618e1161014b5780635643618e1461039e5780635d02e4bc146103ce57806362533665146103ec578063640e11d314610420576101cf565b80634aff09d5146103195780634cd08d03146103495780634f9d325f14610365576101cf565b80633359f6f2116101ad5780633359f6f2146102645780633aa9d488146102945780633b60e346146102c45780634a8b6f9e146102e0576101cf565b806303c7013b146101d4578063153b1ea0146102045780631fd1e04114610234575b600080fd5b6101ee60048036038101906101e99190614549565b610679565b6040516101fb9190615648565b60405180910390f35b61021e600480360381019061021991906144a8565b610a7c565b60405161022b9190615244565b60405180910390f35b61024e60048036038101906102499190614643565b610e73565b60405161025b91906152aa565b60405180910390f35b61027e60048036038101906102799190614549565b610ece565b60405161028b91906152aa565b60405180910390f35b6102ae60048036038101906102a991906144d1565b610eee565b6040516102bb9190615648565b60405180910390f35b6102de60048036038101906102d99190614643565b610f13565b005b6102fa60048036038101906102f59190614549565b61120f565b6040516103109a99989796959493929190615103565b60405180910390f35b610333600480360381019061032e9190614602565b61152b565b60405161034091906152fb565b60405180910390f35b610363600480360381019061035e91906146af565b6115e1565b005b61037f600480360381019061037a91906147f1565b6117f4565b6040516103959a99989796959493929190615103565b60405180910390f35b6103b860048036038101906103b39190614549565b611b43565b6040516103c59190615266565b60405180910390f35b6103d6611c1f565b6040516103e39190615222565b60405180910390f35b610406600480360381019061040191906144a8565b611cb4565b6040516104179594939291906153a0565b60405180910390f35b61043a60048036038101906104359190614602565b611e82565b60405161044791906152fb565b60405180910390f35b61046a60048036038101906104659190614572565b611f38565b005b6104866004803603810190610481919061450d565b6121ce565b60405161049c9a99989796959493929190615103565b60405180910390f35b6104bf60048036038101906104ba91906144a8565b612507565b005b6104db60048036038101906104d69190614602565b6125f4565b6040516104e89190615288565b60405180910390f35b6104f9612690565b60405161050691906152e0565b60405180910390f35b61052960048036038101906105249190614549565b6126b4565b005b6105456004803603810190610540919061450d565b612cc7565b60405161055291906152c5565b60405180910390f35b61057560048036038101906105709190614549565b612cf8565b005b610591600480360381019061058c9190614602565b6130dc565b60405161059e9190615244565b60405180910390f35b6105c160048036038101906105bc9190614549565b6134b2565b005b6105dd60048036038101906105d89190614746565b613625565b005b6105f960048036038101906105f49190614643565b613e56565b005b610615600480360381019061061091906146af565b613ead565b005b610631600480360381019061062c91906147f1565b613fab565b60405161063e9190615663565b60405180910390f35b610661600480360381019061065c91906145c6565b614004565b604051610670939291906151eb565b60405180910390f35b60008060001b600a60008481526020019081526020016000206001015414156106d7576040517f08c379a00000000000000000000000000000000000000000000000000000000081526004016106ce9061554b565b60405180910390fd5b60011515600b600084815260200190815260200160002060009054906101000a900460ff1615151461073e576040517f08c379a0000000000000000000000000000000000000000000000000000000008152600401610735906154eb565b60405180910390fd5b600061074983611b43565b90506000600a60008581526020019081526020016000206009015490506000600a600086815260200190815260200160002060000160009054906101000a900473ffffffffffffffffffffffffffffffffffffffff1690506000600360008373ffffffffffffffffffffffffffffffffffffffff1673ffffffffffffffffffffffffffffffffffffffff1681526020019081526020016000206040518060a00160405290816000820180546107fd906159e9565b80601f0160208091040260200160405190810160405280929190818152602001828054610829906159e9565b80156108765780601f1061084b57610100808354040283529160200191610876565b820191906000526020600020905b81548152906001019060200180831161085957829003601f168201915b5050505050815260200160018201805461088f906159e9565b80601f01602080910402602001604051908101604052809291908181526020018280546108bb906159e9565b80156109085780601f106108dd57610100808354040283529160200191610908565b820191906000526020600020905b8154815290600101906020018083116108eb57829003601f168201915b50505050508152602001600282018054610921906159e9565b80601f016020809104026020016040519081016040528092919081815260200182805461094d906159e9565b801561099a5780601f1061096f5761010080835404028352916020019161099a565b820191906000526020600020905b81548152906001019060200180831161097d57829003601f168201915b50505050508152602001600382015481526020016004820154815250509050600080600090506000805b86811015610a4e57878181518110610a05577f4e487b7100000000000000000000000000000000000000000000000000000000600052603260045260246000fd5b6020026020010151602001519350600184610a20919061588c565b83610a2b9190615805565b92508382610a399190615805565b91508080610a4690615a66565b9150506109c4565b5060018460600151610a60919061588c565b82610a6b9190615805565b915081975050505050505050919050565b6060600460008373ffffffffffffffffffffffffffffffffffffffff1673ffffffffffffffffffffffffffffffffffffffff168152602001908152602001600020805480602002602001604051908101604052809291908181526020016000905b82821015610e6857838290600052602060002090600a0201604051806101400160405290816000820160009054906101000a900473ffffffffffffffffffffffffffffffffffffffff1673ffffffffffffffffffffffffffffffffffffffff1673ffffffffffffffffffffffffffffffffffffffff16815260200160018201548152602001600282018054610b71906159e9565b80601f0160208091040260200160405190810160405280929190818152602001828054610b9d906159e9565b8015610bea5780601f10610bbf57610100808354040283529160200191610bea565b820191906000526020600020905b815481529060010190602001808311610bcd57829003601f168201915b50505050508152602001600382018054610c03906159e9565b80601f0160208091040260200160405190810160405280929190818152602001828054610c2f906159e9565b8015610c7c5780601f10610c5157610100808354040283529160200191610c7c565b820191906000526020600020905b815481529060010190602001808311610c5f57829003601f168201915b50505050508152602001600482018054610c95906159e9565b80601f0160208091040260200160405190810160405280929190818152602001828054610cc1906159e9565b8015610d0e5780601f10610ce357610100808354040283529160200191610d0e565b820191906000526020600020905b815481529060010190602001808311610cf157829003601f168201915b505050505081526020016005820154815260200160068201548152602001600782018054610d3b906159e9565b80601f0160208091040260200160405190810160405280929190818152602001828054610d67906159e9565b8015610db45780601f10610d8957610100808354040283529160200191610db4565b820191906000526020600020905b815481529060010190602001808311610d9757829003601f168201915b50505050508152602001600882018054610dcd906159e9565b80601f0160208091040260200160405190810160405280929190818152602001828054610df9906159e9565b8015610e465780601f10610e1b57610100808354040283529160200191610e46565b820191906000526020600020905b815481529060010190602001808311610e2957829003601f168201915b5050505050815260200160098201548152505081526020019060010190610add565b505050509050919050565b600e82805160208101820180518482526020830160208501208183528095505050505050818051602081018201805184825260208301602085012081835280955050505050506000915091509054906101000a900460ff1681565b600b6020528060005260406000206000915054906101000a900460ff1681565b6011602052816000526040600020602052806000526040600020600091509150505481565b60001515600260003373ffffffffffffffffffffffffffffffffffffffff1673ffffffffffffffffffffffffffffffffffffffff16815260200190815260200160002060009054906101000a900460ff1615151415610fa957336040517f1063935d000000000000000000000000000000000000000000000000000000008152600401610fa091906150e8565b60405180910390fd5b6000600682604051610fbb9190615045565b90815260200160405180910390208054610fd4906159e9565b9050101561101957806040517f8f6b29cc00000000000000000000000000000000000000000000000000000000815260040161101091906152fb565b60405180910390fd5b60001515600c8260405161102d9190615045565b9081526020016040518091039020836040516110499190615045565b908152602001604051809103902060009054906101000a900460ff16151514156110ac5780826040517f8973e97b0000000000000000000000000000000000000000000000000000000081526004016110a392919061531d565b60405180910390fd5b60011515600d826040516110c09190615045565b9081526020016040518091039020836040516110dc9190615045565b908152602001604051809103902060009054906101000a900460ff161515141561113f5780826040517f8cc9063e00000000000000000000000000000000000000000000000000000000815260040161113692919061531d565b60405180910390fd5b6001600d826040516111519190615045565b90815260200160405180910390208360405161116d9190615045565b908152602001604051809103902060006101000a81548160ff0219169083151502179055507f7dcc4e760cafee8e323964b173ee0e8f14f637e1ba6725242d1e2788c01bb0ba8282600360003373ffffffffffffffffffffffffffffffffffffffff1673ffffffffffffffffffffffffffffffffffffffff16815260200190815260200160002060405161120393929190615408565b60405180910390a15050565b600a6020528060005260406000206000915090508060000160009054906101000a900473ffffffffffffffffffffffffffffffffffffffff169080600101549080600201805461125e906159e9565b80601f016020809104026020016040519081016040528092919081815260200182805461128a906159e9565b80156112d75780601f106112ac576101008083540402835291602001916112d7565b820191906000526020600020905b8154815290600101906020018083116112ba57829003601f168201915b5050505050908060030180546112ec906159e9565b80601f0160208091040260200160405190810160405280929190818152602001828054611318906159e9565b80156113655780601f1061133a57610100808354040283529160200191611365565b820191906000526020600020905b81548152906001019060200180831161134857829003601f168201915b50505050509080600401805461137a906159e9565b80601f01602080910402602001604051908101604052809291908181526020018280546113a6906159e9565b80156113f35780601f106113c8576101008083540402835291602001916113f3565b820191906000526020600020905b8154815290600101906020018083116113d657829003601f168201915b505050505090806005015490806006015490806007018054611414906159e9565b80601f0160208091040260200160405190810160405280929190818152602001828054611440906159e9565b801561148d5780601f106114625761010080835404028352916020019161148d565b820191906000526020600020905b81548152906001019060200180831161147057829003601f168201915b5050505050908060080180546114a2906159e9565b80601f01602080910402602001604051908101604052809291908181526020018280546114ce906159e9565b801561151b5780601f106114f05761010080835404028352916020019161151b565b820191906000526020600020905b8154815290600101906020018083116114fe57829003601f168201915b505050505090806009015490508a565b6006818051602081018201805184825260208301602085012081835280955050505050506000915090508054611560906159e9565b80601f016020809104026020016040519081016040528092919081815260200182805461158c906159e9565b80156115d95780601f106115ae576101008083540402835291602001916115d9565b820191906000526020600020905b8154815290600101906020018083116115bc57829003601f168201915b505050505081565b60001515600260003373ffffffffffffffffffffffffffffffffffffffff1673ffffffffffffffffffffffffffffffffffffffff16815260200190815260200160002060009054906101000a900460ff16151514611674576040517f08c379a000000000000000000000000000000000000000000000000000000000815260040161166b906155ab565b60405180910390fd5b61167c614277565b838160000181905250828160200181905250818160400181905250600f816060018181525050606481608001818152505080600360003373ffffffffffffffffffffffffffffffffffffffff1673ffffffffffffffffffffffffffffffffffffffff16815260200190815260200160002060008201518160000190805190602001906117099291906142a6565b5060208201518160010190805190602001906117269291906142a6565b5060408201518160020190805190602001906117439291906142a6565b5060608201518160030155608082015181600401559050506001600260003373ffffffffffffffffffffffffffffffffffffffff1673ffffffffffffffffffffffffffffffffffffffff16815260200190815260200160002060006101000a81548160ff0219169083151502179055507faa1e896fff678c49360d15cc36fa676c42d6d8e1f187b2049125f6475924f5c28484846040516117e693929190615354565b60405180910390a150505050565b600882805160208101820180518482526020830160208501208183528095505050505050818154811061182657600080fd5b90600052602060002090600a0201600091509150508060000160009054906101000a900473ffffffffffffffffffffffffffffffffffffffff1690806001015490806002018054611876906159e9565b80601f01602080910402602001604051908101604052809291908181526020018280546118a2906159e9565b80156118ef5780601f106118c4576101008083540402835291602001916118ef565b820191906000526020600020905b8154815290600101906020018083116118d257829003601f168201915b505050505090806003018054611904906159e9565b80601f0160208091040260200160405190810160405280929190818152602001828054611930906159e9565b801561197d5780601f106119525761010080835404028352916020019161197d565b820191906000526020600020905b81548152906001019060200180831161196057829003601f168201915b505050505090806004018054611992906159e9565b80601f01602080910402602001604051908101604052809291908181526020018280546119be906159e9565b8015611a0b5780601f106119e057610100808354040283529160200191611a0b565b820191906000526020600020905b8154815290600101906020018083116119ee57829003601f168201915b505050505090806005015490806006015490806007018054611a2c906159e9565b80601f0160208091040260200160405190810160405280929190818152602001828054611a58906159e9565b8015611aa55780601f10611a7a57610100808354040283529160200191611aa5565b820191906000526020600020905b815481529060010190602001808311611a8857829003601f168201915b505050505090806008018054611aba906159e9565b80601f0160208091040260200160405190810160405280929190818152602001828054611ae6906159e9565b8015611b335780601f10611b0857610100808354040283529160200191611b33565b820191906000526020600020905b815481529060010190602001808311611b1657829003601f168201915b505050505090806009015490508a565b606060106000838152602001908152602001600020805480602002602001604051908101604052809291908181526020016000905b82821015611c1457838290600052602060002090600302016040518060600160405290816000820160009054906101000a900473ffffffffffffffffffffffffffffffffffffffff1673ffffffffffffffffffffffffffffffffffffffff1673ffffffffffffffffffffffffffffffffffffffff1681526020016001820154815260200160028201548152505081526020019060010190611b78565b505050509050919050565b6060600560003373ffffffffffffffffffffffffffffffffffffffff1673ffffffffffffffffffffffffffffffffffffffff168152602001908152602001600020805480602002602001604051908101604052809291908181526020018280548015611caa57602002820191906000526020600020905b815481526020019060010190808311611c96575b5050505050905090565b6003602052806000526040600020600091509050806000018054611cd7906159e9565b80601f0160208091040260200160405190810160405280929190818152602001828054611d03906159e9565b8015611d505780601f10611d2557610100808354040283529160200191611d50565b820191906000526020600020905b815481529060010190602001808311611d3357829003601f168201915b505050505090806001018054611d65906159e9565b80601f0160208091040260200160405190810160405280929190818152602001828054611d91906159e9565b8015611dde5780601f10611db357610100808354040283529160200191611dde565b820191906000526020600020905b815481529060010190602001808311611dc157829003601f168201915b505050505090806002018054611df3906159e9565b80601f0160208091040260200160405190810160405280929190818152602001828054611e1f906159e9565b8015611e6c5780601f10611e4157610100808354040283529160200191611e6c565b820191906000526020600020905b815481529060010190602001808311611e4f57829003601f168201915b5050505050908060030154908060040154905085565b6007818051602081018201805184825260208301602085012081835280955050505050506000915090508054611eb7906159e9565b80601f0160208091040260200160405190810160405280929190818152602001828054611ee3906159e9565b8015611f305780601f10611f0557610100808354040283529160200191611f30565b820191906000526020600020905b815481529060010190602001808311611f1357829003601f168201915b505050505081565b6000600a600084815260200190815260200160002090506000801b600a6000858152602001908152602001600020600101541415611fad57826040517fd7b18dd0000000000000000000000000000000000000000000000000000000008152600401611fa491906152c5565b60405180910390fd5b60001515600d82600201604051611fc4919061505c565b908152602001604051809103902083604051611fe09190615045565b908152602001604051809103902060009054906101000a900460ff16151514156120465780600201826040517f8cc9063e00000000000000000000000000000000000000000000000000000000815260040161203d929190615454565b60405180910390fd5b60011515600e8260020160405161205d919061505c565b9081526020016040518091039020836040516120799190615045565b908152602001604051809103902060009054906101000a900460ff16151514156120df5780600201826040517f9bb374240000000000000000000000000000000000000000000000000000000081526004016120d6929190615454565b60405180910390fd5b60011515600b600085815260200190815260200160002060009054906101000a900460ff1615151415612147576040517f08c379a000000000000000000000000000000000000000000000000000000000815260040161213e9061548b565b60405180910390fd5b6001600e8260020160405161215c919061505c565b9081526020016040518091039020836040516121789190615045565b908152602001604051809103902060006101000a81548160ff0219169083151502179055506001600b600085815260200190815260200160002060006101000a81548160ff021916908315150217905550505050565b600460205281600052604060002081815481106121ea57600080fd5b90600052602060002090600a0201600091509150508060000160009054906101000a900473ffffffffffffffffffffffffffffffffffffffff169080600101549080600201805461223a906159e9565b80601f0160208091040260200160405190810160405280929190818152602001828054612266906159e9565b80156122b35780601f10612288576101008083540402835291602001916122b3565b820191906000526020600020905b81548152906001019060200180831161229657829003601f168201915b5050505050908060030180546122c8906159e9565b80601f01602080910402602001604051908101604052809291908181526020018280546122f4906159e9565b80156123415780601f1061231657610100808354040283529160200191612341565b820191906000526020600020905b81548152906001019060200180831161232457829003601f168201915b505050505090806004018054612356906159e9565b80601f0160208091040260200160405190810160405280929190818152602001828054612382906159e9565b80156123cf5780601f106123a4576101008083540402835291602001916123cf565b820191906000526020600020905b8154815290600101906020018083116123b257829003601f168201915b5050505050908060050154908060060154908060070180546123f0906159e9565b80601f016020809104026020016040519081016040528092919081815260200182805461241c906159e9565b80156124695780601f1061243e57610100808354040283529160200191612469565b820191906000526020600020905b81548152906001019060200180831161244c57829003601f168201915b50505050509080600801805461247e906159e9565b80601f01602080910402602001604051908101604052809291908181526020018280546124aa906159e9565b80156124f75780601f106124cc576101008083540402835291602001916124f7565b820191906000526020600020905b8154815290600101906020018083116124da57829003601f168201915b505050505090806009015490508a565b60011515600160003373ffffffffffffffffffffffffffffffffffffffff1673ffffffffffffffffffffffffffffffffffffffff16815260200190815260200160002060009054906101000a900460ff1615151461259a576040517f08c379a00000000000000000000000000000000000000000000000000000000081526004016125919061558b565b60405180910390fd5b60018060008373ffffffffffffffffffffffffffffffffffffffff1673ffffffffffffffffffffffffffffffffffffffff16815260200190815260200160002060006101000a81548160ff02191690831515021790555050565b60606009826040516126069190615045565b908152602001604051809103902080548060200260200160405190810160405280929190818152602001828054801561268457602002820191906000526020600020906000905b82829054906101000a900460ff1660ff168152602001906001019060208260000104928301926001038202915080841161264d5790505b50505050509050919050565b60008054906101000a900473ffffffffffffffffffffffffffffffffffffffff1681565b6000801b600a600083815260200190815260200160002060010154141561271257806040517fd7b18dd000000000000000000000000000000000000000000000000000000000815260040161270991906152c5565b60405180910390fd5b60001515600b600083815260200190815260200160002060009054906101000a900460ff161515141561277a576040517f08c379a00000000000000000000000000000000000000000000000000000000081526004016127719061556b565b60405180910390fd5b600080600a600084815260200190815260200160002060000160009054906101000a900473ffffffffffffffffffffffffffffffffffffffff16905060006127c184610679565b9250600060106000868152602001908152602001600020805480602002602001604051908101604052809291908181526020016000905b8282101561289457838290600052602060002090600302016040518060600160405290816000820160009054906101000a900473ffffffffffffffffffffffffffffffffffffffff1673ffffffffffffffffffffffffffffffffffffffff1673ffffffffffffffffffffffffffffffffffffffff16815260200160018201548152602001600282015481525050815260200190600101906127f8565b50505050905060005b815181101561290b578181815181106128df577f4e487b7100000000000000000000000000000000000000000000000000000000600052603260045260246000fd5b602002602001015160200151836128f69190615805565b9250808061290390615a66565b91505061289d565b50670de0b6b3a764000084612920919061588c565b935060006064604b86612933919061588c565b61293d919061585b565b905080601160008673ffffffffffffffffffffffffffffffffffffffff1673ffffffffffffffffffffffffffffffffffffffff168152602001908152602001600020600088815260200190815260200160002081905550600560008573ffffffffffffffffffffffffffffffffffffffff1673ffffffffffffffffffffffffffffffffffffffff16815260200190815260200160002086908060018154018082558091505060019003906000526020600020016000909190919091505560006064601987612a0b919061588c565b612a15919061585b565b905060005b8351811015612c0a576000848281518110612a5e577f4e487b7100000000000000000000000000000000000000000000000000000000600052603260045260246000fd5b60200260200101516020015186612a75919061585b565b90506000811415612a8557600190505b6000858381518110612ac0577f4e487b7100000000000000000000000000000000000000000000000000000000600052603260045260246000fd5b60200260200101516000015190506000868481518110612b09577f4e487b7100000000000000000000000000000000000000000000000000000000600052603260045260246000fd5b6020026020010151602001519050600560008373ffffffffffffffffffffffffffffffffffffffff1673ffffffffffffffffffffffffffffffffffffffff1681526020019081526020016000208b90806001815401808255809150506001900390600052602060002001600090919091909150556064818487612b8c919061585b565b612b96919061588c565b612ba0919061585b565b601160008473ffffffffffffffffffffffffffffffffffffffff1673ffffffffffffffffffffffffffffffffffffffff16815260200190815260200160002060008d8152602001908152602001600020819055505050508080612c0290615a66565b915050612a1a565b506000600360008773ffffffffffffffffffffffffffffffffffffffff1673ffffffffffffffffffffffffffffffffffffffff1681526020019081526020016000209050612c578561406b565b6fffffffffffffffffffffffffffffffff16816003016000828254612c7c9190615805565b925050819055508183897f134a256b30e79278465eb4be19c959a4c1f253707afe0d5eddcf9a2738a6a6b487604051612cb59190615266565b60405180910390a45050505050505050565b60056020528160005260406000208181548110612ce357600080fd5b90600052602060002001600091509150505481565b6000801b600a6000838152602001908152602001600020600101541415612d54576040517f08c379a0000000000000000000000000000000000000000000000000000000008152600401612d4b9061554b565b60405180910390fd5b60001515600260003373ffffffffffffffffffffffffffffffffffffffff1673ffffffffffffffffffffffffffffffffffffffff16815260200190815260200160002060009054906101000a900460ff1615151415612dea57336040517f1063935d000000000000000000000000000000000000000000000000000000008152600401612de191906150e8565b60405180910390fd5b60001515600f60003373ffffffffffffffffffffffffffffffffffffffff1673ffffffffffffffffffffffffffffffffffffffff168152602001908152602001600020600083815260200190815260200160002060009054906101000a900460ff16151514612e8e576040517f08c379a0000000000000000000000000000000000000000000000000000000008152600401612e85906154cb565b60405180910390fd5b6000600360003373ffffffffffffffffffffffffffffffffffffffff1673ffffffffffffffffffffffffffffffffffffffff16815260200190815260200160002090506002816004015410158015612eeb57506064816004015411155b612f2a576040517f08c379a0000000000000000000000000000000000000000000000000000000008152600401612f219061552b565b60405180910390fd5b6000600a60008481526020019081526020016000209050806009016000815480929190612f5690615a66565b9190505550612f6361432c565b33816000019073ffffffffffffffffffffffffffffffffffffffff16908173ffffffffffffffffffffffffffffffffffffffff1681525050826003015481602001818152505082600401548160400181815250506010600085815260200190815260200160002081908060018154018082558091505060019003906000526020600020906003020160009091909190915060008201518160000160006101000a81548173ffffffffffffffffffffffffffffffffffffffff021916908373ffffffffffffffffffffffffffffffffffffffff16021790555060208201518160010155604082015181600201555050600283600401600082825461306691906158e6565b925050819055506001600f60003373ffffffffffffffffffffffffffffffffffffffff1673ffffffffffffffffffffffffffffffffffffffff168152602001908152602001600020600086815260200190815260200160002060006101000a81548160ff02191690831515021790555050505050565b60606008826040516130ee9190615045565b9081526020016040518091039020805480602002602001604051908101604052809291908181526020016000905b828210156134a757838290600052602060002090600a0201604051806101400160405290816000820160009054906101000a900473ffffffffffffffffffffffffffffffffffffffff1673ffffffffffffffffffffffffffffffffffffffff1673ffffffffffffffffffffffffffffffffffffffff168152602001600182015481526020016002820180546131b0906159e9565b80601f01602080910402602001604051908101604052809291908181526020018280546131dc906159e9565b80156132295780601f106131fe57610100808354040283529160200191613229565b820191906000526020600020905b81548152906001019060200180831161320c57829003601f168201915b50505050508152602001600382018054613242906159e9565b80601f016020809104026020016040519081016040528092919081815260200182805461326e906159e9565b80156132bb5780601f10613290576101008083540402835291602001916132bb565b820191906000526020600020905b81548152906001019060200180831161329e57829003601f168201915b505050505081526020016004820180546132d4906159e9565b80601f0160208091040260200160405190810160405280929190818152602001828054613300906159e9565b801561334d5780601f106133225761010080835404028352916020019161334d565b820191906000526020600020905b81548152906001019060200180831161333057829003601f168201915b50505050508152602001600582015481526020016006820154815260200160078201805461337a906159e9565b80601f01602080910402602001604051908101604052809291908181526020018280546133a6906159e9565b80156133f35780601f106133c8576101008083540402835291602001916133f3565b820191906000526020600020905b8154815290600101906020018083116133d657829003601f168201915b5050505050815260200160088201805461340c906159e9565b80601f0160208091040260200160405190810160405280929190818152602001828054613438906159e9565b80156134855780601f1061345a57610100808354040283529160200191613485565b820191906000526020600020905b81548152906001019060200180831161346857829003601f168201915b505050505081526020016009820154815250508152602001906001019061311c565b505050509050919050565b6000601160003373ffffffffffffffffffffffffffffffffffffffff1673ffffffffffffffffffffffffffffffffffffffff16815260200190815260200160002060008381526020019081526020016000205411613545576040517f08c379a000000000000000000000000000000000000000000000000000000000815260040161353c906154ab565b60405180910390fd5b60008054906101000a900473ffffffffffffffffffffffffffffffffffffffff1673ffffffffffffffffffffffffffffffffffffffff1663d02b789d33601160003373ffffffffffffffffffffffffffffffffffffffff1673ffffffffffffffffffffffffffffffffffffffff1681526020019081526020016000206000858152602001908152602001600020546040518363ffffffff1660e01b81526004016135f09291906151c2565b600060405180830381600087803b15801561360a57600080fd5b505af115801561361e573d6000803e3d6000fd5b5050505050565b60001515600260003373ffffffffffffffffffffffffffffffffffffffff1673ffffffffffffffffffffffffffffffffffffffff16815260200190815260200160002060009054906101000a900460ff16151514156136bb57336040517f1063935d0000000000000000000000000000000000000000000000000000000081526004016136b291906150e8565b60405180910390fd5b60006006856040516136cd9190615045565b908152602001604051809103902080546136e6906159e9565b9050101561372b57836040517f8f6b29cc00000000000000000000000000000000000000000000000000000000815260040161372291906152fb565b60405180910390fd5b60008260ff1610158015613743575060328260ff1611155b613782576040517f08c379a00000000000000000000000000000000000000000000000000000000081526004016137799061550b565b60405180910390fd5b61378a614363565b61379a8542868660ff1686614237565b81602001818152505033816000019073ffffffffffffffffffffffffffffffffffffffff16908173ffffffffffffffffffffffffffffffffffffffff1681525050848160400181905250838160e001819052508260ff168160c001818152505081816101000181905250428160a001818152505060068560405161381e9190615045565b90815260200160405180910390208054613837906159e9565b80601f0160208091040260200160405190810160405280929190818152602001828054613863906159e9565b80156138b05780601f10613885576101008083540402835291602001916138b0565b820191906000526020600020905b81548152906001019060200180831161389357829003601f168201915b505050505081606001819052506007856040516138cd9190615045565b908152602001604051809103902080546138e6906159e9565b80601f0160208091040260200160405190810160405280929190818152602001828054613912906159e9565b801561395f5780601f106139345761010080835404028352916020019161395f565b820191906000526020600020905b81548152906001019060200180831161394257829003601f168201915b5050505050816080018190525060008161012001818152505080600a60008360200151815260200190815260200160002060008201518160000160006101000a81548173ffffffffffffffffffffffffffffffffffffffff021916908373ffffffffffffffffffffffffffffffffffffffff1602179055506020820151816001015560408201518160020190805190602001906139fd9291906142a6565b506060820151816003019080519060200190613a1a9291906142a6565b506080820151816004019080519060200190613a379291906142a6565b5060a0820151816005015560c0820151816006015560e0820151816007019080519060200190613a689291906142a6565b50610100820151816008019080519060200190613a869291906142a6565b506101208201518160090155905050600460003373ffffffffffffffffffffffffffffffffffffffff1673ffffffffffffffffffffffffffffffffffffffff1681526020019081526020016000208190806001815401808255809150506001900390600052602060002090600a020160009091909190915060008201518160000160006101000a81548173ffffffffffffffffffffffffffffffffffffffff021916908373ffffffffffffffffffffffffffffffffffffffff160217905550602082015181600101556040820151816002019080519060200190613b6b9291906142a6565b506060820151816003019080519060200190613b889291906142a6565b506080820151816004019080519060200190613ba59291906142a6565b5060a0820151816005015560c0820151816006015560e0820151816007019080519060200190613bd69291906142a6565b50610100820151816008019080519060200190613bf49291906142a6565b5061012082015181600901555050600885604051613c129190615045565b90815260200160405180910390208190806001815401808255809150506001900390600052602060002090600a020160009091909190915060008201518160000160006101000a81548173ffffffffffffffffffffffffffffffffffffffff021916908373ffffffffffffffffffffffffffffffffffffffff160217905550602082015181600101556040820151816002019080519060200190613cb79291906142a6565b506060820151816003019080519060200190613cd49291906142a6565b506080820151816004019080519060200190613cf19291906142a6565b5060a0820151816005015560c0820151816006015560e0820151816007019080519060200190613d229291906142a6565b50610100820151816008019080519060200190613d409291906142a6565b5061012082015181600901555050600985604051613d5e9190615045565b90815260200160405180910390208390806001815401808255809150506001900390600052602060002090602091828204019190069091909190916101000a81548160ff021916908360ff1602179055507f1489f5fcb1961e9678cb60f519640b9666aac5567303748ef7fc4b880b4fb891600360003373ffffffffffffffffffffffffffffffffffffffff1673ffffffffffffffffffffffffffffffffffffffff1681526020019081526020016000208260200151600688604051613e249190615045565b9081526020016040518091039020878787604051613e47969594939291906155cb565b60405180910390a15050505050565b6001600c83604051613e689190615045565b908152602001604051809103902082604051613e849190615045565b908152602001604051809103902060006101000a81548160ff0219169083151502179055505050565b60011515600160003373ffffffffffffffffffffffffffffffffffffffff1673ffffffffffffffffffffffffffffffffffffffff16815260200190815260200160002060009054906101000a900460ff16151514613f40576040517f08c379a0000000000000000000000000000000000000000000000000000000008152600401613f379061558b565b60405180910390fd5b81600684604051613f519190615045565b90815260200160405180910390209080519060200190613f729291906142a6565b5080600784604051613f849190615045565b90815260200160405180910390209080519060200190613fa59291906142a6565b50505050565b6009828051602081018201805184825260208301602085012081835280955050505050508181548110613fdd57600080fd5b9060005260206000209060209182820401919006915091509054906101000a900460ff1681565b6010602052816000526040600020818154811061402057600080fd5b9060005260206000209060030201600091509150508060000160009054906101000a900473ffffffffffffffffffffffffffffffffffffffff16908060010154908060020154905083565b60008082141561407e5760009050614232565b600082905060006001905070010000000000000000000000000000000082106140b057608082901c9150604081901b90505b6801000000000000000082106140cf57604082901c9150602081901b90505b64010000000082106140ea57602082901c9150601081901b90505b62010000821061410357601082901c9150600881901b90505b610100821061411b57600882901c9150600481901b90505b6010821061413257600482901c9150600281901b90505b6008821061414257600181901b90505b60018185614150919061585b565b8261415b9190615805565b901c90506001818561416d919061585b565b826141789190615805565b901c90506001818561418a919061585b565b826141959190615805565b901c9050600181856141a7919061585b565b826141b29190615805565b901c9050600181856141c4919061585b565b826141cf9190615805565b901c9050600181856141e1919061585b565b826141ec9190615805565b901c9050600181856141fe919061585b565b826142099190615805565b901c90506000818561421b919061585b565b905080821061422a578061422c565b815b93505050505b919050565b6000428686868686336040516020016142569796959493929190615073565b60405160208183030381529060405280519060200120905095945050505050565b6040518060a0016040528060608152602001606081526020016060815260200160008152602001600081525090565b8280546142b2906159e9565b90600052602060002090601f0160209004810192826142d4576000855561431b565b82601f106142ed57805160ff191683800117855561431b565b8280016001018555821561431b579182015b8281111561431a5782518255916020019190600101906142ff565b5b50905061432891906143cf565b5090565b6040518060600160405280600073ffffffffffffffffffffffffffffffffffffffff16815260200160008152602001600081525090565b604051806101400160405280600073ffffffffffffffffffffffffffffffffffffffff1681526020016000801916815260200160608152602001606081526020016060815260200160008152602001600081526020016060815260200160608152602001600081525090565b5b808211156143e85760008160009055506001016143d0565b5090565b60006143ff6143fa846156a3565b61567e565b90508281526020810184848401111561441757600080fd5b6144228482856159a7565b509392505050565b60008135905061443981615df6565b92915050565b60008135905061444e81615e0d565b92915050565b600082601f83011261446557600080fd5b81356144758482602086016143ec565b91505092915050565b60008135905061448d81615e24565b92915050565b6000813590506144a281615e3b565b92915050565b6000602082840312156144ba57600080fd5b60006144c88482850161442a565b91505092915050565b600080604083850312156144e457600080fd5b60006144f28582860161442a565b92505060206145038582860161443f565b9150509250929050565b6000806040838503121561452057600080fd5b600061452e8582860161442a565b925050602061453f8582860161447e565b9150509250929050565b60006020828403121561455b57600080fd5b60006145698482850161443f565b91505092915050565b6000806040838503121561458557600080fd5b60006145938582860161443f565b925050602083013567ffffffffffffffff8111156145b057600080fd5b6145bc85828601614454565b9150509250929050565b600080604083850312156145d957600080fd5b60006145e78582860161443f565b92505060206145f88582860161447e565b9150509250929050565b60006020828403121561461457600080fd5b600082013567ffffffffffffffff81111561462e57600080fd5b61463a84828501614454565b91505092915050565b6000806040838503121561465657600080fd5b600083013567ffffffffffffffff81111561467057600080fd5b61467c85828601614454565b925050602083013567ffffffffffffffff81111561469957600080fd5b6146a585828601614454565b9150509250929050565b6000806000606084860312156146c457600080fd5b600084013567ffffffffffffffff8111156146de57600080fd5b6146ea86828701614454565b935050602084013567ffffffffffffffff81111561470757600080fd5b61471386828701614454565b925050604084013567ffffffffffffffff81111561473057600080fd5b61473c86828701614454565b9150509250925092565b6000806000806080858703121561475c57600080fd5b600085013567ffffffffffffffff81111561477657600080fd5b61478287828801614454565b945050602085013567ffffffffffffffff81111561479f57600080fd5b6147ab87828801614454565b93505060406147bc87828801614493565b925050606085013567ffffffffffffffff8111156147d957600080fd5b6147e587828801614454565b91505092959194509250565b6000806040838503121561480457600080fd5b600083013567ffffffffffffffff81111561481e57600080fd5b61482a85828601614454565b925050602061483b8582860161447e565b9150509250929050565b60006148518383614a74565b60208301905092915050565b60006148698383614e21565b905092915050565b600061487d8383614fb0565b60608301905092915050565b60006148958383615027565b60208301905092915050565b6148aa81615924565b82525050565b6148b981615924565b82525050565b6148d06148cb82615924565b615aaf565b82525050565b60006148e182615729565b6148eb8185615794565b93506148f6836156d4565b8060005b8381101561492757815161490e8882614845565b975061491983615760565b9250506001810190506148fa565b5085935050505092915050565b600061493f82615734565b61494981856157a5565b93508360208202850161495b856156e4565b8060005b858110156149975784840389528151614978858261485d565b94506149838361576d565b925060208a0199505060018101905061495f565b50829750879550505050505092915050565b60006149b48261573f565b6149be81856157b6565b93506149c9836156f4565b8060005b838110156149fa5781516149e18882614871565b97506149ec8361577a565b9250506001810190506149cd565b5085935050505092915050565b6000614a128261574a565b614a1c81856157c7565b9350614a2783615704565b8060005b83811015614a58578151614a3f8882614889565b9750614a4a83615787565b925050600181019050614a2b565b5085935050505092915050565b614a6e81615936565b82525050565b614a7d81615942565b82525050565b614a8c81615942565b82525050565b614a9b81615983565b82525050565b6000614aac82615755565b614ab681856157d8565b9350614ac68185602086016159b6565b614acf81615b99565b840191505092915050565b6000614ae582615755565b614aef81856157e9565b9350614aff8185602086016159b6565b614b0881615b99565b840191505092915050565b6000614b1e82615755565b614b2881856157fa565b9350614b388185602086016159b6565b80840191505092915050565b60008154614b51816159e9565b614b5b81866157d8565b94506001821660008114614b765760018114614b8857614bbb565b60ff1983168652602086019350614bbb565b614b9185615714565b60005b83811015614bb357815481890152600182019150602081019050614b94565b808801955050505b50505092915050565b60008154614bd1816159e9565b614bdb81866157e9565b94506001821660008114614bf65760018114614c0857614c3b565b60ff1983168652602086019350614c3b565b614c1185615714565b60005b83811015614c3357815481890152600182019150602081019050614c14565b808801955050505b50505092915050565b60008154614c51816159e9565b614c5b81866157fa565b94506001821660008114614c765760018114614c8757614cba565b60ff19831686528186019350614cba565b614c9085615714565b60005b83811015614cb257815481890152600182019150602081019050614c93565b838801955050505b50505092915050565b6000614cd06016836157e9565b9150614cdb82615bc4565b602082019050919050565b6000614cf3600e836157e9565b9150614cfe82615bed565b602082019050919050565b6000614d166023836157e9565b9150614d2182615c16565b604082019050919050565b6000614d39602b836157e9565b9150614d4482615c65565b604082019050919050565b6000614d5c6013836157e9565b9150614d6782615cb4565b602082019050919050565b6000614d7f6022836157e9565b9150614d8a82615cdd565b604082019050919050565b6000614da2600f836157e9565b9150614dad82615d2c565b602082019050919050565b6000614dc5600c836157e9565b9150614dd082615d55565b602082019050919050565b6000614de86021836157e9565b9150614df382615d7e565b604082019050919050565b6000614e0b601d836157e9565b9150614e1682615dcd565b602082019050919050565b600061014083016000830151614e3a60008601826148a1565b506020830151614e4d6020860182614a74565b5060408301518482036040860152614e658282614aa1565b91505060608301518482036060860152614e7f8282614aa1565b91505060808301518482036080860152614e998282614aa1565b91505060a0830151614eae60a0860182614ff2565b5060c0830151614ec160c0860182614ff2565b5060e083015184820360e0860152614ed98282614aa1565b915050610100830151848203610100860152614ef58282614aa1565b915050610120830151614f0c610120860182614ff2565b508091505092915050565b600060a0830160008084018583036000870152614f348382614b44565b925050600184018583036020870152614f4d8382614b44565b925050600284018583036040870152614f668382614b44565b92505060038401549050614f7981615a1b565b614f866060870182614ff2565b5060048401549050614f9781615a1b565b614fa46080870182614ff2565b50819250505092915050565b606082016000820151614fc660008501826148a1565b506020820151614fd96020850182614ff2565b506040820151614fec6040850182614ff2565b50505050565b614ffb8161596c565b82525050565b61500a8161596c565b82525050565b61502161501c8261596c565b615ad3565b82525050565b61503081615976565b82525050565b61503f81615976565b82525050565b60006150518284614b13565b915081905092915050565b60006150688284614c44565b915081905092915050565b600061507f828a615010565b60208201915061508f8289614b13565b915061509b8288615010565b6020820191506150ab8287614b13565b91506150b78286615010565b6020820191506150c78285614b13565b91506150d382846148bf565b60148201915081905098975050505050505050565b60006020820190506150fd60008301846148b0565b92915050565b600061014082019050615119600083018d6148b0565b615126602083018c614a83565b8181036040830152615138818b614ada565b9050818103606083015261514c818a614ada565b905081810360808301526151608189614ada565b905061516f60a0830188615001565b61517c60c0830187615001565b81810360e083015261518e8186614ada565b90508181036101008301526151a38185614ada565b90506151b3610120830184615001565b9b9a5050505050505050505050565b60006040820190506151d760008301856148b0565b6151e46020830184615001565b9392505050565b600060608201905061520060008301866148b0565b61520d6020830185615001565b61521a6040830184615001565b949350505050565b6000602082019050818103600083015261523c81846148d6565b905092915050565b6000602082019050818103600083015261525e8184614934565b905092915050565b6000602082019050818103600083015261528081846149a9565b905092915050565b600060208201905081810360008301526152a28184614a07565b905092915050565b60006020820190506152bf6000830184614a65565b92915050565b60006020820190506152da6000830184614a83565b92915050565b60006020820190506152f56000830184614a92565b92915050565b600060208201905081810360008301526153158184614ada565b905092915050565b600060408201905081810360008301526153378185614ada565b9050818103602083015261534b8184614ada565b90509392505050565b6000606082019050818103600083015261536e8186614ada565b905081810360208301526153828185614ada565b905081810360408301526153968184614ada565b9050949350505050565b600060a08201905081810360008301526153ba8188614ada565b905081810360208301526153ce8187614ada565b905081810360408301526153e28186614ada565b90506153f16060830185615001565b6153fe6080830184615001565b9695505050505050565b600060608201905081810360008301526154228186614ada565b905081810360208301526154368185614ada565b9050818103604083015261544a8184614f17565b9050949350505050565b6000604082019050818103600083015261546e8185614bc4565b905081810360208301526154828184614ada565b90509392505050565b600060208201905081810360008301526154a481614cc3565b9050919050565b600060208201905081810360008301526154c481614ce6565b9050919050565b600060208201905081810360008301526154e481614d09565b9050919050565b6000602082019050818103600083015261550481614d2c565b9050919050565b6000602082019050818103600083015261552481614d4f565b9050919050565b6000602082019050818103600083015261554481614d72565b9050919050565b6000602082019050818103600083015261556481614d95565b9050919050565b6000602082019050818103600083015261558481614db8565b9050919050565b600060208201905081810360008301526155a481614ddb565b9050919050565b600060208201905081810360008301526155c481614dfe565b9050919050565b600060c08201905081810360008301526155e58189614f17565b90506155f46020830188614a83565b81810360408301526156068187614bc4565b9050818103606083015261561a8186614ada565b90506156296080830185615036565b81810360a083015261563b8184614ada565b9050979650505050505050565b600060208201905061565d6000830184615001565b92915050565b60006020820190506156786000830184615036565b92915050565b6000615688615699565b90506156948282615a35565b919050565b6000604051905090565b600067ffffffffffffffff8211156156be576156bd615b6a565b5b6156c782615b99565b9050602081019050919050565b6000819050602082019050919050565b6000819050602082019050919050565b6000819050602082019050919050565b6000819050602082019050919050565b60008190508160005260206000209050919050565b600081519050919050565b600081519050919050565b600081519050919050565b600081519050919050565b600081519050919050565b6000602082019050919050565b6000602082019050919050565b6000602082019050919050565b6000602082019050919050565b600082825260208201905092915050565b600082825260208201905092915050565b600082825260208201905092915050565b600082825260208201905092915050565b600082825260208201905092915050565b600082825260208201905092915050565b600081905092915050565b60006158108261596c565b915061581b8361596c565b9250827fffffffffffffffffffffffffffffffffffffffffffffffffffffffffffffffff038211156158505761584f615add565b5b828201905092915050565b60006158668261596c565b91506158718361596c565b92508261588157615880615b0c565b5b828204905092915050565b60006158978261596c565b91506158a28361596c565b9250817fffffffffffffffffffffffffffffffffffffffffffffffffffffffffffffffff04831182151516156158db576158da615add565b5b828202905092915050565b60006158f18261596c565b91506158fc8361596c565b92508282101561590f5761590e615add565b5b828203905092915050565b6000819050919050565b600061592f8261594c565b9050919050565b60008115159050919050565b6000819050919050565b600073ffffffffffffffffffffffffffffffffffffffff82169050919050565b6000819050919050565b600060ff82169050919050565b600061598e82615995565b9050919050565b60006159a08261594c565b9050919050565b82818337600083830152505050565b60005b838110156159d45780820151818401526020810190506159b9565b838111156159e3576000848401525b50505050565b60006002820490506001821680615a0157607f821691505b60208210811415615a1557615a14615b3b565b5b50919050565b6000615a2e615a2983615bb7565b61591a565b9050919050565b615a3e82615b99565b810181811067ffffffffffffffff82111715615a5d57615a5c615b6a565b5b80604052505050565b6000615a718261596c565b91507fffffffffffffffffffffffffffffffffffffffffffffffffffffffffffffffff821415615aa457615aa3615add565b5b600182019050919050565b6000615aba82615ac1565b9050919050565b6000615acc82615baa565b9050919050565b6000819050919050565b7f4e487b7100000000000000000000000000000000000000000000000000000000600052601160045260246000fd5b7f4e487b7100000000000000000000000000000000000000000000000000000000600052601260045260246000fd5b7f4e487b7100000000000000000000000000000000000000000000000000000000600052602260045260246000fd5b7f4e487b7100000000000000000000000000000000000000000000000000000000600052604160045260246000fd5b6000601f19601f8301169050919050565b60008160601b9050919050565b60008160001c9050919050565b7f5468697320506f73742048617320566572696669656400000000000000000000600082015250565b7f496e76616c696420526577617264000000000000000000000000000000000000600082015250565b7f54686973206163636f756e7420697320766f74656420666f722074686973207060008201527f6f73740000000000000000000000000000000000000000000000000000000000602082015250565b7f43616e6e6f74207265776172642062656361757365206f6620756e766572696660008201527f79696e67207469636b6574000000000000000000000000000000000000000000602082015250565b7f556e76616c6964206e756d626572207261746500000000000000000000000000600082015250565b7f566f74696e6720506f776572206e6f7420656e6f75676820666f72207570766f60008201527f7465000000000000000000000000000000000000000000000000000000000000602082015250565b7f496e76616c696420506f73742049440000000000000000000000000000000000600082015250565b7f4e6f742056657269666965640000000000000000000000000000000000000000600082015250565b7f4f6e6c792061646d696e2063616e2063616c6c20746869732066756e6374696f60008201527f6e00000000000000000000000000000000000000000000000000000000000000602082015250565b7f54686973206164647265737320686173206265656e2065786973746564000000600082015250565b615dff81615924565b8114615e0a57600080fd5b50565b615e1681615942565b8114615e2157600080fd5b50565b615e2d8161596c565b8114615e3857600080fd5b50565b615e4481615976565b8114615e4f57600080fd5b5056fea2646970667358221220f9f99a51e9de84fd77a4e76352a611b64e0fe7e3be43e67dd5cd07b1c6de204664736f6c63430008040033",
  "linkReferences": {},
  "deployedLinkReferences": {}
}