{
  "_format": "hh-sol-artifact-1",
  "contractName": "Tourism",
  "sourceName": "contracts/tourismV2.sol",
  "abi": [
    {
      "inputs": [
        {
          "internalType": "address",
          "name": "ERC20_address",
          "type": "address"
        }
      ],
      "stateMutability": "nonpayable",
      "type": "constructor"
    },
    {
      "inputs": [
        {
          "internalType": "string",
          "name": "PlaceID",
          "type": "string"
        }
      ],
      "name": "InvalidPlaceID",
      "type": "error"
    },
    {
      "inputs": [
        {
          "internalType": "bytes32",
          "name": "PostID",
          "type": "bytes32"
        }
      ],
      "name": "InvalidPostID",
      "type": "error"
    },
    {
      "inputs": [
        {
          "internalType": "address",
          "name": "Address",
          "type": "address"
        },
        {
          "internalType": "uint256",
          "name": "VotingPower",
          "type": "uint256"
        }
      ],
      "name": "InvalidVP",
      "type": "error"
    },
    {
      "inputs": [
        {
          "internalType": "address",
          "name": "Address",
          "type": "address"
        }
      ],
      "name": "NotRegister",
      "type": "error"
    },
    {
      "inputs": [
        {
          "internalType": "bytes32",
          "name": "PostID",
          "type": "bytes32"
        },
        {
          "internalType": "address",
          "name": "Address",
          "type": "address"
        }
      ],
      "name": "PostIsVoted",
      "type": "error"
    },
    {
      "anonymous": false,
      "inputs": [
        {
          "indexed": true,
          "internalType": "bytes32",
          "name": "postID",
          "type": "bytes32"
        },
        {
          "indexed": true,
          "internalType": "string",
          "name": "placeID",
          "type": "string"
        },
        {
          "indexed": false,
          "internalType": "address",
          "name": "TouristAddress",
          "type": "address"
        }
      ],
      "name": "CheckIn",
      "type": "event"
    },
    {
      "anonymous": false,
      "inputs": [
        {
          "indexed": true,
          "internalType": "bytes32",
          "name": "postID",
          "type": "bytes32"
        },
        {
          "indexed": true,
          "internalType": "uint256",
          "name": "authorReward",
          "type": "uint256"
        },
        {
          "indexed": true,
          "internalType": "uint256",
          "name": "curatorsReward",
          "type": "uint256"
        },
        {
          "components": [
            {
              "internalType": "address",
              "name": "curator",
              "type": "address"
            },
            {
              "internalType": "uint256",
              "name": "curatorREP",
              "type": "uint256"
            },
            {
              "internalType": "uint256",
              "name": "curatorVP",
              "type": "uint256"
            }
          ],
          "indexed": false,
          "internalType": "struct Tourism.Vote[]",
          "name": "upvotes",
          "type": "tuple[]"
        }
      ],
      "name": "DivideRewardBy4R",
      "type": "event"
    },
    {
      "anonymous": false,
      "inputs": [
        {
          "indexed": true,
          "internalType": "bytes32",
          "name": "postID",
          "type": "bytes32"
        },
        {
          "indexed": true,
          "internalType": "uint256",
          "name": "amount",
          "type": "uint256"
        }
      ],
      "name": "GetRewardPoint",
      "type": "event"
    },
    {
      "anonymous": false,
      "inputs": [
        {
          "indexed": false,
          "internalType": "address",
          "name": "touristAddress",
          "type": "address"
        },
        {
          "indexed": false,
          "internalType": "bytes32",
          "name": "postID",
          "type": "bytes32"
        },
        {
          "indexed": false,
          "internalType": "string",
          "name": "content",
          "type": "string"
        }
      ],
      "name": "PostComment",
      "type": "event"
    },
    {
      "anonymous": false,
      "inputs": [
        {
          "indexed": false,
          "internalType": "address",
          "name": "TouristAddress",
          "type": "address"
        },
        {
          "indexed": true,
          "internalType": "bytes32",
          "name": "postID",
          "type": "bytes32"
        },
        {
          "indexed": true,
          "internalType": "string",
          "name": "PlaceName",
          "type": "string"
        },
        {
          "indexed": false,
          "internalType": "string",
          "name": "review",
          "type": "string"
        },
        {
          "indexed": false,
          "internalType": "uint8",
          "name": "rate",
          "type": "uint8"
        },
        {
          "indexed": false,
          "internalType": "string",
          "name": "title",
          "type": "string"
        }
      ],
      "name": "PostReview",
      "type": "event"
    },
    {
      "anonymous": false,
      "inputs": [
        {
          "indexed": false,
          "internalType": "address",
          "name": "TouristAddress",
          "type": "address"
        }
      ],
      "name": "Register",
      "type": "event"
    },
    {
      "anonymous": false,
      "inputs": [
        {
          "indexed": false,
          "internalType": "address",
          "name": "touristAddress",
          "type": "address"
        },
        {
          "indexed": false,
          "internalType": "bytes32",
          "name": "postID",
          "type": "bytes32"
        }
      ],
      "name": "Upvote",
      "type": "event"
    },
    {
      "inputs": [
        {
          "internalType": "address",
          "name": "",
          "type": "address"
        },
        {
          "internalType": "uint256",
          "name": "",
          "type": "uint256"
        }
      ],
      "name": "TouristReviews",
      "outputs": [
        {
          "internalType": "address",
          "name": "author",
          "type": "address"
        },
        {
          "internalType": "bytes32",
          "name": "postID",
          "type": "bytes32"
        },
        {
          "internalType": "string",
          "name": "placeId",
          "type": "string"
        },
        {
          "internalType": "string",
          "name": "placeName",
          "type": "string"
        },
        {
          "internalType": "string",
          "name": "placeAddress",
          "type": "string"
        },
        {
          "internalType": "uint256",
          "name": "createTime",
          "type": "uint256"
        },
        {
          "internalType": "uint8",
          "name": "rate",
          "type": "uint8"
        },
        {
          "internalType": "string",
          "name": "review",
          "type": "string"
        },
        {
          "internalType": "string",
          "name": "title",
          "type": "string"
        },
        {
          "internalType": "uint256",
          "name": "upvoteNum",
          "type": "uint256"
        }
      ],
      "stateMutability": "view",
      "type": "function"
    },
    {
      "inputs": [
        {
          "internalType": "address",
          "name": "userAddress",
          "type": "address"
        }
      ],
      "name": "addAdmin",
      "outputs": [],
      "stateMutability": "nonpayable",
      "type": "function"
    },
    {
      "inputs": [
        {
          "internalType": "string",
          "name": "_id",
          "type": "string"
        },
        {
          "internalType": "string",
          "name": "destinationName",
          "type": "string"
        },
        {
          "internalType": "string",
          "name": "destinationAddr",
          "type": "string"
        }
      ],
      "name": "addDestination",
      "outputs": [],
      "stateMutability": "nonpayable",
      "type": "function"
    },
    {
      "inputs": [
        {
          "internalType": "string",
          "name": "placeID",
          "type": "string"
        }
      ],
      "name": "checkIn",
      "outputs": [],
      "stateMutability": "nonpayable",
      "type": "function"
    },
    {
      "inputs": [
        {
          "internalType": "bytes32",
          "name": "postID",
          "type": "bytes32"
        },
        {
          "internalType": "string",
          "name": "content",
          "type": "string"
        }
      ],
      "name": "comment",
      "outputs": [],
      "stateMutability": "nonpayable",
      "type": "function"
    },
    {
      "inputs": [
        {
          "internalType": "bytes32",
          "name": "",
          "type": "bytes32"
        }
      ],
      "name": "commentByID",
      "outputs": [
        {
          "internalType": "address",
          "name": "author",
          "type": "address"
        },
        {
          "internalType": "bytes32",
          "name": "postID",
          "type": "bytes32"
        },
        {
          "internalType": "bytes32",
          "name": "reviewPostID",
          "type": "bytes32"
        },
        {
          "internalType": "uint256",
          "name": "createTime",
          "type": "uint256"
        },
        {
          "internalType": "string",
          "name": "content",
          "type": "string"
        },
        {
          "internalType": "uint256",
          "name": "upvoteNum",
          "type": "uint256"
        }
      ],
      "stateMutability": "view",
      "type": "function"
    },
    {
      "inputs": [
        {
          "internalType": "string",
          "name": "",
          "type": "string"
        }
      ],
      "name": "destinationAddress",
      "outputs": [
        {
          "internalType": "string",
          "name": "",
          "type": "string"
        }
      ],
      "stateMutability": "view",
      "type": "function"
    },
    {
      "inputs": [
        {
          "internalType": "string",
          "name": "",
          "type": "string"
        }
      ],
      "name": "destinationIdentify",
      "outputs": [
        {
          "internalType": "string",
          "name": "",
          "type": "string"
        }
      ],
      "stateMutability": "view",
      "type": "function"
    },
    {
      "inputs": [
        {
          "internalType": "bytes32",
          "name": "postID",
          "type": "bytes32"
        }
      ],
      "name": "divideRewardBy4R",
      "outputs": [],
      "stateMutability": "nonpayable",
      "type": "function"
    },
    {
      "inputs": [],
      "name": "erc20Token",
      "outputs": [
        {
          "internalType": "contract IERC20With4RMechanism",
          "name": "",
          "type": "address"
        }
      ],
      "stateMutability": "view",
      "type": "function"
    },
    {
      "inputs": [
        {
          "internalType": "bytes32",
          "name": "postID",
          "type": "bytes32"
        }
      ],
      "name": "getAllCommentOfReviewPost",
      "outputs": [
        {
          "components": [
            {
              "internalType": "address",
              "name": "author",
              "type": "address"
            },
            {
              "internalType": "bytes32",
              "name": "postID",
              "type": "bytes32"
            },
            {
              "internalType": "bytes32",
              "name": "reviewPostID",
              "type": "bytes32"
            },
            {
              "internalType": "uint256",
              "name": "createTime",
              "type": "uint256"
            },
            {
              "internalType": "string",
              "name": "content",
              "type": "string"
            },
            {
              "internalType": "uint256",
              "name": "upvoteNum",
              "type": "uint256"
            }
          ],
          "internalType": "struct Tourism.Comment[]",
          "name": "",
          "type": "tuple[]"
        }
      ],
      "stateMutability": "view",
      "type": "function"
    },
    {
      "inputs": [
        {
          "internalType": "string",
          "name": "_id",
          "type": "string"
        }
      ],
      "name": "getAllReviewsOfDestinations",
      "outputs": [
        {
          "components": [
            {
              "internalType": "address",
              "name": "author",
              "type": "address"
            },
            {
              "internalType": "bytes32",
              "name": "postID",
              "type": "bytes32"
            },
            {
              "internalType": "string",
              "name": "placeId",
              "type": "string"
            },
            {
              "internalType": "string",
              "name": "placeName",
              "type": "string"
            },
            {
              "internalType": "string",
              "name": "placeAddress",
              "type": "string"
            },
            {
              "internalType": "uint256",
              "name": "createTime",
              "type": "uint256"
            },
            {
              "internalType": "uint8",
              "name": "rate",
              "type": "uint8"
            },
            {
              "internalType": "string",
              "name": "review",
              "type": "string"
            },
            {
              "internalType": "string",
              "name": "title",
              "type": "string"
            },
            {
              "internalType": "uint256",
              "name": "upvoteNum",
              "type": "uint256"
            }
          ],
          "internalType": "struct Tourism.Review[]",
          "name": "",
          "type": "tuple[]"
        }
      ],
      "stateMutability": "view",
      "type": "function"
    },
    {
      "inputs": [
        {
          "internalType": "address",
          "name": "addr",
          "type": "address"
        }
      ],
      "name": "getAllReviewsOfTourist",
      "outputs": [
        {
          "components": [
            {
              "internalType": "address",
              "name": "author",
              "type": "address"
            },
            {
              "internalType": "bytes32",
              "name": "postID",
              "type": "bytes32"
            },
            {
              "internalType": "string",
              "name": "placeId",
              "type": "string"
            },
            {
              "internalType": "string",
              "name": "placeName",
              "type": "string"
            },
            {
              "internalType": "string",
              "name": "placeAddress",
              "type": "string"
            },
            {
              "internalType": "uint256",
              "name": "createTime",
              "type": "uint256"
            },
            {
              "internalType": "uint8",
              "name": "rate",
              "type": "uint8"
            },
            {
              "internalType": "string",
              "name": "review",
              "type": "string"
            },
            {
              "internalType": "string",
              "name": "title",
              "type": "string"
            },
            {
              "internalType": "uint256",
              "name": "upvoteNum",
              "type": "uint256"
            }
          ],
          "internalType": "struct Tourism.Review[]",
          "name": "",
          "type": "tuple[]"
        }
      ],
      "stateMutability": "view",
      "type": "function"
    },
    {
      "inputs": [
        {
          "internalType": "string",
          "name": "placeID",
          "type": "string"
        }
      ],
      "name": "getDestinationRates",
      "outputs": [
        {
          "internalType": "uint8[]",
          "name": "",
          "type": "uint8[]"
        }
      ],
      "stateMutability": "view",
      "type": "function"
    },
    {
      "inputs": [
        {
          "internalType": "bytes32",
          "name": "postID",
          "type": "bytes32"
        }
      ],
      "name": "getRewardPoint",
      "outputs": [],
      "stateMutability": "nonpayable",
      "type": "function"
    },
    {
      "inputs": [
        {
          "internalType": "bytes32",
          "name": "postID",
          "type": "bytes32"
        }
      ],
      "name": "getVoteOfReview",
      "outputs": [
        {
          "components": [
            {
              "internalType": "address",
              "name": "curator",
              "type": "address"
            },
            {
              "internalType": "uint256",
              "name": "curatorREP",
              "type": "uint256"
            },
            {
              "internalType": "uint256",
              "name": "curatorVP",
              "type": "uint256"
            }
          ],
          "internalType": "struct Tourism.Vote[]",
          "name": "",
          "type": "tuple[]"
        }
      ],
      "stateMutability": "view",
      "type": "function"
    },
    {
      "inputs": [
        {
          "internalType": "address",
          "name": "",
          "type": "address"
        },
        {
          "internalType": "bytes32",
          "name": "",
          "type": "bytes32"
        }
      ],
      "name": "isVoted",
      "outputs": [
        {
          "internalType": "bool",
          "name": "",
          "type": "bool"
        }
      ],
      "stateMutability": "view",
      "type": "function"
    },
    {
      "inputs": [
        {
          "internalType": "address",
          "name": "",
          "type": "address"
        },
        {
          "internalType": "uint256",
          "name": "",
          "type": "uint256"
        }
      ],
      "name": "listReward",
      "outputs": [
        {
          "internalType": "bytes32",
          "name": "",
          "type": "bytes32"
        }
      ],
      "stateMutability": "view",
      "type": "function"
    },
    {
      "inputs": [],
      "name": "register",
      "outputs": [],
      "stateMutability": "nonpayable",
      "type": "function"
    },
    {
      "inputs": [
        {
          "internalType": "bytes32",
          "name": "",
          "type": "bytes32"
        }
      ],
      "name": "reviewByID",
      "outputs": [
        {
          "internalType": "address",
          "name": "author",
          "type": "address"
        },
        {
          "internalType": "bytes32",
          "name": "postID",
          "type": "bytes32"
        },
        {
          "internalType": "string",
          "name": "placeId",
          "type": "string"
        },
        {
          "internalType": "string",
          "name": "placeName",
          "type": "string"
        },
        {
          "internalType": "string",
          "name": "placeAddress",
          "type": "string"
        },
        {
          "internalType": "uint256",
          "name": "createTime",
          "type": "uint256"
        },
        {
          "internalType": "uint8",
          "name": "rate",
          "type": "uint8"
        },
        {
          "internalType": "string",
          "name": "review",
          "type": "string"
        },
        {
          "internalType": "string",
          "name": "title",
          "type": "string"
        },
        {
          "internalType": "uint256",
          "name": "upvoteNum",
          "type": "uint256"
        }
      ],
      "stateMutability": "view",
      "type": "function"
    },
    {
      "inputs": [
        {
          "internalType": "bytes32",
          "name": "",
          "type": "bytes32"
        }
      ],
      "name": "reviewReward",
      "outputs": [
        {
          "internalType": "uint256",
          "name": "",
          "type": "uint256"
        }
      ],
      "stateMutability": "view",
      "type": "function"
    },
    {
      "inputs": [
        {
          "internalType": "bytes32",
          "name": "",
          "type": "bytes32"
        },
        {
          "internalType": "uint256",
          "name": "",
          "type": "uint256"
        }
      ],
      "name": "reviewVotes",
      "outputs": [
        {
          "internalType": "address",
          "name": "curator",
          "type": "address"
        },
        {
          "internalType": "uint256",
          "name": "curatorREP",
          "type": "uint256"
        },
        {
          "internalType": "uint256",
          "name": "curatorVP",
          "type": "uint256"
        }
      ],
      "stateMutability": "view",
      "type": "function"
    },
    {
      "inputs": [
        {
          "internalType": "string",
          "name": "placeID",
          "type": "string"
        },
        {
          "internalType": "bytes32",
          "name": "postID",
          "type": "bytes32"
        },
        {
          "internalType": "string",
          "name": "review",
          "type": "string"
        },
        {
          "internalType": "uint8",
          "name": "rate",
          "type": "uint8"
        },
        {
          "internalType": "string",
          "name": "title",
          "type": "string"
        }
      ],
      "name": "reviews",
      "outputs": [],
      "stateMutability": "nonpayable",
      "type": "function"
    },
    {
      "inputs": [],
      "name": "seeRewardLists",
      "outputs": [
        {
          "internalType": "bytes32[]",
          "name": "",
          "type": "bytes32[]"
        }
      ],
      "stateMutability": "view",
      "type": "function"
    },
    {
      "inputs": [
        {
          "internalType": "address",
          "name": "",
          "type": "address"
        }
      ],
      "name": "touristREP",
      "outputs": [
        {
          "internalType": "uint256",
          "name": "",
          "type": "uint256"
        }
      ],
      "stateMutability": "view",
      "type": "function"
    },
    {
      "inputs": [
        {
          "internalType": "address",
          "name": "",
          "type": "address"
        },
        {
          "internalType": "bytes32",
          "name": "",
          "type": "bytes32"
        }
      ],
      "name": "touristRewardOnPostID",
      "outputs": [
        {
          "internalType": "uint256",
          "name": "",
          "type": "uint256"
        }
      ],
      "stateMutability": "view",
      "type": "function"
    },
    {
      "inputs": [
        {
          "internalType": "address",
          "name": "",
          "type": "address"
        }
      ],
      "name": "touristVP",
      "outputs": [
        {
          "internalType": "uint256",
          "name": "",
          "type": "uint256"
        }
      ],
      "stateMutability": "view",
      "type": "function"
    },
    {
      "inputs": [
        {
          "internalType": "bytes32",
          "name": "postID",
          "type": "bytes32"
        }
      ],
      "name": "upvote",
      "outputs": [],
      "stateMutability": "nonpayable",
      "type": "function"
    }
  ],
  "bytecode": "0x60806040523480156200001157600080fd5b5060405162005cbd38038062005cbd8339818101604052810190620000379190620000ec565b60018060003373ffffffffffffffffffffffffffffffffffffffff1673ffffffffffffffffffffffffffffffffffffffff16815260200190815260200160002060006101000a81548160ff021916908315150217905550806000806101000a81548173ffffffffffffffffffffffffffffffffffffffff021916908373ffffffffffffffffffffffffffffffffffffffff1602179055505062000166565b600081519050620000e6816200014c565b92915050565b600060208284031215620000ff57600080fd5b60006200010f84828501620000d5565b91505092915050565b600062000125826200012c565b9050919050565b600073ffffffffffffffffffffffffffffffffffffffff82169050919050565b620001578162000118565b81146200016357600080fd5b50565b615b4780620001766000396000f3fe608060405234801561001057600080fd5b50600436106101c45760003560e01c80638a13eea7116100f9578063b36050b411610097578063f21bb4c511610071578063f21bb4c51461059e578063f5c62ac6146105ba578063fdb429a1146105d6578063fed9a3fe14610606576101c4565b8063b36050b41461054a578063b69f58e214610566578063ed8b56a714610582576101c4565b8063a5b1f44d116100d3578063a5b1f44d14610499578063a7ffb5fb146104b5578063aa6e1305146104e5578063ac91a75f14610515576101c4565b80638a13eea71461042f5780638a9419aa1461044d5780639216483d14610469576101c4565b80634aff09d511610166578063640e11d311610140578063640e11d31461037a5780636ca91211146103aa57806370480275146103e35780638213c3c1146103ff576101c4565b80634aff09d5146102fc5780635643618e1461032c5780635d02e4bc1461035c576101c4565b80632d70ad5c116101a25780632d70ad5c146102335780633aa9d4881461026357806340848d21146102935780634a8b6f9e146102c3576101c4565b8063153b1ea0146101c95780631aa3a008146101f95780631fe493ec14610203575b600080fd5b6101e360048036038101906101de91906144e4565b610638565b6040516101f091906151d9565b60405180910390f35b610201610a42565b005b61021d60048036038101906102189190614585565b610bf0565b60405161022a91906151b7565b60405180910390f35b61024d6004803603810190610248919061450d565b610d72565b60405161025a919061523f565b60405180910390f35b61027d6004803603810190610278919061450d565b610da1565b60405161028a91906153b6565b60405180910390f35b6102ad60048036038101906102a89190614585565b610dc6565b6040516102ba91906153b6565b60405180910390f35b6102dd60048036038101906102d89190614585565b610dde565b6040516102f39a99989796959493929190615023565b60405180910390f35b6103166004803603810190610311919061463e565b611107565b60405161032391906152b9565b60405180910390f35b61034660048036038101906103419190614585565b6111bd565b60405161035391906151fb565b60405180910390f35b610364611299565b6040516103719190615195565b60405180910390f35b610394600480360381019061038f919061463e565b61132e565b6040516103a191906152b9565b60405180910390f35b6103c460048036038101906103bf9190614549565b6113e4565b6040516103da9a99989796959493929190615023565b60405180910390f35b6103fd60048036038101906103f891906144e4565b61172a565b005b6104196004803603810190610414919061463e565b611817565b604051610426919061521d565b60405180910390f35b6104376118b3565b604051610444919061529e565b60405180910390f35b61046760048036038101906104629190614585565b6118d7565b005b610483600480360381019061047e9190614549565b612143565b604051610490919061525a565b60405180910390f35b6104b360048036038101906104ae9190614585565b612174565b005b6104cf60048036038101906104ca91906144e4565b61293c565b6040516104dc91906153b6565b60405180910390f35b6104ff60048036038101906104fa919061463e565b612954565b60405161050c91906151d9565b60405180910390f35b61052f600480360381019061052a9190614585565b612d3d565b60405161054196959493929190614f7d565b60405180910390f35b610564600480360381019061055f91906145ae565b612e21565b005b610580600480360381019061057b9190614585565b6131de565b005b61059c6004803603810190610597919061473e565b6133db565b005b6105b860048036038101906105b3919061463e565b6134d9565b005b6105d460048036038101906105cf919061467f565b61368a565b005b6105f060048036038101906105eb91906144e4565b613fb8565b6040516105fd91906153b6565b60405180910390f35b610620600480360381019061061b9190614602565b613fd0565b60405161062f9392919061515e565b60405180910390f35b6060600560008373ffffffffffffffffffffffffffffffffffffffff1673ffffffffffffffffffffffffffffffffffffffff168152602001908152602001600020805480602002602001604051908101604052809291908181526020016000905b82821015610a3757838290600052602060002090600a0201604051806101400160405290816000820160009054906101000a900473ffffffffffffffffffffffffffffffffffffffff1673ffffffffffffffffffffffffffffffffffffffff1673ffffffffffffffffffffffffffffffffffffffff1681526020016001820154815260200160028201805461072d90615782565b80601f016020809104026020016040519081016040528092919081815260200182805461075990615782565b80156107a65780601f1061077b576101008083540402835291602001916107a6565b820191906000526020600020905b81548152906001019060200180831161078957829003601f168201915b505050505081526020016003820180546107bf90615782565b80601f01602080910402602001604051908101604052809291908181526020018280546107eb90615782565b80156108385780601f1061080d57610100808354040283529160200191610838565b820191906000526020600020905b81548152906001019060200180831161081b57829003601f168201915b5050505050815260200160048201805461085190615782565b80601f016020809104026020016040519081016040528092919081815260200182805461087d90615782565b80156108ca5780601f1061089f576101008083540402835291602001916108ca565b820191906000526020600020905b8154815290600101906020018083116108ad57829003601f168201915b50505050508152602001600582015481526020016006820160009054906101000a900460ff1660ff1660ff16815260200160078201805461090a90615782565b80601f016020809104026020016040519081016040528092919081815260200182805461093690615782565b80156109835780601f1061095857610100808354040283529160200191610983565b820191906000526020600020905b81548152906001019060200180831161096657829003601f168201915b5050505050815260200160088201805461099c90615782565b80601f01602080910402602001604051908101604052809291908181526020018280546109c890615782565b8015610a155780601f106109ea57610100808354040283529160200191610a15565b820191906000526020600020905b8154815290600101906020018083116109f857829003601f168201915b5050505050815260200160098201548152505081526020019060010190610699565b505050509050919050565b60001515600260003373ffffffffffffffffffffffffffffffffffffffff1673ffffffffffffffffffffffffffffffffffffffff16815260200190815260200160002060009054906101000a900460ff16151514610ad5576040517f08c379a0000000000000000000000000000000000000000000000000000000008152600401610acc9061537b565b60405180910390fd5b600f600460003373ffffffffffffffffffffffffffffffffffffffff1673ffffffffffffffffffffffffffffffffffffffff168152602001908152602001600020819055506064600360003373ffffffffffffffffffffffffffffffffffffffff1673ffffffffffffffffffffffffffffffffffffffff168152602001908152602001600020819055506001600260003373ffffffffffffffffffffffffffffffffffffffff1673ffffffffffffffffffffffffffffffffffffffff16815260200190815260200160002060006101000a81548160ff0219169083151502179055507feeda149c76076b34d4b9d8896c2f7efc0d33d1c7b53ea3c5db490d64613f603a33604051610be69190614f39565b60405180910390a1565b606060116000838152602001908152602001600020805480602002602001604051908101604052809291908181526020016000905b82821015610d6757838290600052602060002090600602016040518060c00160405290816000820160009054906101000a900473ffffffffffffffffffffffffffffffffffffffff1673ffffffffffffffffffffffffffffffffffffffff1673ffffffffffffffffffffffffffffffffffffffff168152602001600182015481526020016002820154815260200160038201548152602001600482018054610ccc90615782565b80601f0160208091040260200160405190810160405280929190818152602001828054610cf890615782565b8015610d455780601f10610d1a57610100808354040283529160200191610d45565b820191906000526020600020905b815481529060010190602001808311610d2857829003601f168201915b5050505050815260200160058201548152505081526020019060010190610c25565b505050509050919050565b60126020528160005260406000206020528060005260406000206000915091509054906101000a900460ff1681565b6015602052816000526040600020602052806000526040600020600091509150505481565b600d6020528060005260406000206000915090505481565b600b6020528060005260406000206000915090508060000160009054906101000a900473ffffffffffffffffffffffffffffffffffffffff1690806001015490806002018054610e2d90615782565b80601f0160208091040260200160405190810160405280929190818152602001828054610e5990615782565b8015610ea65780601f10610e7b57610100808354040283529160200191610ea6565b820191906000526020600020905b815481529060010190602001808311610e8957829003601f168201915b505050505090806003018054610ebb90615782565b80601f0160208091040260200160405190810160405280929190818152602001828054610ee790615782565b8015610f345780601f10610f0957610100808354040283529160200191610f34565b820191906000526020600020905b815481529060010190602001808311610f1757829003601f168201915b505050505090806004018054610f4990615782565b80601f0160208091040260200160405190810160405280929190818152602001828054610f7590615782565b8015610fc25780601f10610f9757610100808354040283529160200191610fc2565b820191906000526020600020905b815481529060010190602001808311610fa557829003601f168201915b5050505050908060050154908060060160009054906101000a900460ff1690806007018054610ff090615782565b80601f016020809104026020016040519081016040528092919081815260200182805461101c90615782565b80156110695780601f1061103e57610100808354040283529160200191611069565b820191906000526020600020905b81548152906001019060200180831161104c57829003601f168201915b50505050509080600801805461107e90615782565b80601f01602080910402602001604051908101604052809291908181526020018280546110aa90615782565b80156110f75780601f106110cc576101008083540402835291602001916110f7565b820191906000526020600020905b8154815290600101906020018083116110da57829003601f168201915b505050505090806009015490508a565b600781805160208101820180518482526020830160208501208183528095505050505050600091509050805461113c90615782565b80601f016020809104026020016040519081016040528092919081815260200182805461116890615782565b80156111b55780601f1061118a576101008083540402835291602001916111b5565b820191906000526020600020905b81548152906001019060200180831161119857829003601f168201915b505050505081565b606060136000838152602001908152602001600020805480602002602001604051908101604052809291908181526020016000905b8282101561128e57838290600052602060002090600302016040518060600160405290816000820160009054906101000a900473ffffffffffffffffffffffffffffffffffffffff1673ffffffffffffffffffffffffffffffffffffffff1673ffffffffffffffffffffffffffffffffffffffff16815260200160018201548152602001600282015481525050815260200190600101906111f2565b505050509050919050565b6060600660003373ffffffffffffffffffffffffffffffffffffffff1673ffffffffffffffffffffffffffffffffffffffff16815260200190815260200160002080548060200260200160405190810160405280929190818152602001828054801561132457602002820191906000526020600020905b815481526020019060010190808311611310575b5050505050905090565b600881805160208101820180518482526020830160208501208183528095505050505050600091509050805461136390615782565b80601f016020809104026020016040519081016040528092919081815260200182805461138f90615782565b80156113dc5780601f106113b1576101008083540402835291602001916113dc565b820191906000526020600020905b8154815290600101906020018083116113bf57829003601f168201915b505050505081565b6005602052816000526040600020818154811061140057600080fd5b90600052602060002090600a0201600091509150508060000160009054906101000a900473ffffffffffffffffffffffffffffffffffffffff169080600101549080600201805461145090615782565b80601f016020809104026020016040519081016040528092919081815260200182805461147c90615782565b80156114c95780601f1061149e576101008083540402835291602001916114c9565b820191906000526020600020905b8154815290600101906020018083116114ac57829003601f168201915b5050505050908060030180546114de90615782565b80601f016020809104026020016040519081016040528092919081815260200182805461150a90615782565b80156115575780601f1061152c57610100808354040283529160200191611557565b820191906000526020600020905b81548152906001019060200180831161153a57829003601f168201915b50505050509080600401805461156c90615782565b80601f016020809104026020016040519081016040528092919081815260200182805461159890615782565b80156115e55780601f106115ba576101008083540402835291602001916115e5565b820191906000526020600020905b8154815290600101906020018083116115c857829003601f168201915b5050505050908060050154908060060160009054906101000a900460ff169080600701805461161390615782565b80601f016020809104026020016040519081016040528092919081815260200182805461163f90615782565b801561168c5780601f106116615761010080835404028352916020019161168c565b820191906000526020600020905b81548152906001019060200180831161166f57829003601f168201915b5050505050908060080180546116a190615782565b80601f01602080910402602001604051908101604052809291908181526020018280546116cd90615782565b801561171a5780601f106116ef5761010080835404028352916020019161171a565b820191906000526020600020905b8154815290600101906020018083116116fd57829003601f168201915b505050505090806009015490508a565b60011515600160003373ffffffffffffffffffffffffffffffffffffffff1673ffffffffffffffffffffffffffffffffffffffff16815260200190815260200160002060009054906101000a900460ff161515146117bd576040517f08c379a00000000000000000000000000000000000000000000000000000000081526004016117b49061533b565b60405180910390fd5b60018060008373ffffffffffffffffffffffffffffffffffffffff1673ffffffffffffffffffffffffffffffffffffffff16815260200190815260200160002060006101000a81548160ff02191690831515021790555050565b6060600a826040516118299190614f22565b90815260200160405180910390208054806020026020016040519081016040528092919081815260200182805480156118a757602002820191906000526020600020906000905b82829054906101000a900460ff1660ff16815260200190600101906020826000010492830192600103820291508084116118705790505b50505050509050919050565b60008054906101000a900473ffffffffffffffffffffffffffffffffffffffff1681565b60001515600260003373ffffffffffffffffffffffffffffffffffffffff1673ffffffffffffffffffffffffffffffffffffffff16815260200190815260200160002060009054906101000a900460ff161515141561196d57336040517f1063935d0000000000000000000000000000000000000000000000000000000081526004016119649190614f39565b60405180910390fd5b6000801b600b6000838152602001908152602001600020600101541480156119b357506010600082815260200190815260200160002060009054906101000a900460ff16155b156119f557806040517fd7b18dd00000000000000000000000000000000000000000000000000000000081526004016119ec919061525a565b60405180910390fd5b600115156014600083815260200190815260200160002060009054906101000a900460ff1615151415611a2757600080fd5b60001515600e600083815260200190815260200160002060009054906101000a900460ff1615151415611a8f576040517f08c379a0000000000000000000000000000000000000000000000000000000008152600401611a869061531b565b60405180910390fd5b6000806010600084815260200190815260200160002060009054906101000a900460ff16611af557600b600084815260200190815260200160002060000160009054906101000a900473ffffffffffffffffffffffffffffffffffffffff169050611b2f565b600c600084815260200190815260200160002060000160009054906101000a900473ffffffffffffffffffffffffffffffffffffffff1690505b6000611b3a84614037565b925082600d600086815260200190815260200160002081905550600060136000868152602001908152602001600020805480602002602001604051908101604052809291908181526020016000905b82821015611c2557838290600052602060002090600302016040518060600160405290816000820160009054906101000a900473ffffffffffffffffffffffffffffffffffffffff1673ffffffffffffffffffffffffffffffffffffffff1673ffffffffffffffffffffffffffffffffffffffff1681526020016001820154815260200160028201548152505081526020019060010190611b89565b50505050905060005b81518163ffffffff161015611ca857818163ffffffff1681518110611c7c577f4e487b7100000000000000000000000000000000000000000000000000000000600052603260045260246000fd5b60200260200101516020015183611c93919061557c565b92508080611ca09061582e565b915050611c2e565b50670de0b6b3a764000084611cbd9190615603565b935060006064604b86611cd09190615603565b611cda91906155d2565b90506010600087815260200190815260200160002060009054906101000a900460ff16611dbd5780601560008673ffffffffffffffffffffffffffffffffffffffff1673ffffffffffffffffffffffffffffffffffffffff168152602001908152602001600020600088815260200190815260200160002081905550600660008573ffffffffffffffffffffffffffffffffffffffff1673ffffffffffffffffffffffffffffffffffffffff1681526020019081526020016000208690806001815401808255809150506001900390600052602060002001600090919091909150555b60006064601987611dce9190615603565b611dd891906155d2565b905060005b83518163ffffffff161015611fe5576000848263ffffffff1681518110611e2d577f4e487b7100000000000000000000000000000000000000000000000000000000600052603260045260246000fd5b60200260200101516020015186611e4491906155d2565b90506000811415611e5457600190505b6000858363ffffffff1681518110611e95577f4e487b7100000000000000000000000000000000000000000000000000000000600052603260045260246000fd5b60200260200101516000015190506000868463ffffffff1681518110611ee4577f4e487b7100000000000000000000000000000000000000000000000000000000600052603260045260246000fd5b6020026020010151604001519050600660008373ffffffffffffffffffffffffffffffffffffffff1673ffffffffffffffffffffffffffffffffffffffff1681526020019081526020016000208b90806001815401808255809150506001900390600052602060002001600090919091909150556064818487611f6791906155d2565b611f719190615603565b611f7b91906155d2565b601560008473ffffffffffffffffffffffffffffffffffffffff1673ffffffffffffffffffffffffffffffffffffffff16815260200190815260200160002060008d8152602001908152602001600020819055505050508080611fdd9061582e565b915050611ddd565b5073__$09fb531d6e0688cf290a1b2a7e7ae137ee$__63677342ce856040518263ffffffff1660e01b815260040161201d919061539b565b60206040518083038186803b15801561203557600080fd5b505af4158015612049573d6000803e3d6000fd5b505050506040513d601f19601f8201168201806040525081019061206d91906147d5565b6fffffffffffffffffffffffffffffffff16600460008773ffffffffffffffffffffffffffffffffffffffff1673ffffffffffffffffffffffffffffffffffffffff16815260200190815260200160002060008282546120cd919061557c565b9250508190555060016014600089815260200190815260200160002060006101000a81548160ff0219169083151502179055508082887f134a256b30e79278465eb4be19c959a4c1f253707afe0d5eddcf9a2738a6a6b48660405161213291906151fb565b60405180910390a450505050505050565b6006602052816000526040600020818154811061215f57600080fd5b90600052602060002001600091509150505481565b6000801b600b6000838152602001908152602001600020600101541480156121ba57506010600082815260200190815260200160002060009054906101000a900460ff16155b156121fc57806040517fd7b18dd00000000000000000000000000000000000000000000000000000000081526004016121f3919061525a565b60405180910390fd5b60001515600260003373ffffffffffffffffffffffffffffffffffffffff1673ffffffffffffffffffffffffffffffffffffffff16815260200190815260200160002060009054906101000a900460ff161515141561229257336040517f1063935d0000000000000000000000000000000000000000000000000000000081526004016122899190614f39565b60405180910390fd5b60011515601260003373ffffffffffffffffffffffffffffffffffffffff1673ffffffffffffffffffffffffffffffffffffffff168152602001908152602001600020600083815260200190815260200160002060009054906101000a900460ff161515141561233b5780336040517f77df5c0a000000000000000000000000000000000000000000000000000000008152600401612332929190615275565b60405180910390fd5b6000600360003373ffffffffffffffffffffffffffffffffffffffff1673ffffffffffffffffffffffffffffffffffffffff1681526020019081526020016000205490506000600460003373ffffffffffffffffffffffffffffffffffffffff1673ffffffffffffffffffffffffffffffffffffffff1681526020019081526020016000205490506002821080156123d35750606482115b156124175733826040517f8073989800000000000000000000000000000000000000000000000000000000815260040161240e929190615135565b60405180910390fd5b6010600084815260200190815260200160002060009054906101000a900460ff16612614576000600b60008581526020019081526020016000209050806009016000815480929190612468906157e5565b9190505550600081600201805461247e90615782565b80601f01602080910402602001604051908101604052809291908181526020018280546124aa90615782565b80156124f75780601f106124cc576101008083540402835291602001916124f7565b820191906000526020600020905b8154815290600101906020018083116124da57829003601f168201915b5050505050905060006009826040516125109190614f22565b9081526020016040518091039020905060005b81805490508163ffffffff16101561260b5786828263ffffffff1681548110612575577f4e487b7100000000000000000000000000000000000000000000000000000000600052603260045260246000fd5b90600052602060002090600a02016001015414156125f857818163ffffffff16815481106125cc577f4e487b7100000000000000000000000000000000000000000000000000000000600052603260045260246000fd5b90600052602060002090600a020160090160008154809291906125ee906157e5565b919050555061260b565b80806126039061582e565b915050612523565b5050505061274f565b6000600c60008581526020019081526020016000209050806005016000815480929190612640906157e5565b919050555060006011600083600201548152602001908152602001600020905060005b81805490508163ffffffff16101561274b5785828263ffffffff16815481106126b5577f4e487b7100000000000000000000000000000000000000000000000000000000600052603260045260246000fd5b906000526020600020906006020160010154141561273857818163ffffffff168154811061270c577f4e487b7100000000000000000000000000000000000000000000000000000000600052603260045260246000fd5b9060005260206000209060060201600501600081548092919061272e906157e5565b919050555061274b565b80806127439061582e565b915050612663565b5050505b612757614278565b33816000019073ffffffffffffffffffffffffffffffffffffffff16908173ffffffffffffffffffffffffffffffffffffffff168152505081816020018181525050828160400181815250506013600085815260200190815260200160002081908060018154018082558091505060019003906000526020600020906003020160009091909190915060008201518160000160006101000a81548173ffffffffffffffffffffffffffffffffffffffff021916908373ffffffffffffffffffffffffffffffffffffffff160217905550602082015181600101556040820151816002015550506002600360003373ffffffffffffffffffffffffffffffffffffffff1673ffffffffffffffffffffffffffffffffffffffff168152602001908152602001600020600082825461288d919061565d565b925050819055506001601260003373ffffffffffffffffffffffffffffffffffffffff1673ffffffffffffffffffffffffffffffffffffffff168152602001908152602001600020600086815260200190815260200160002060006101000a81548160ff0219169083151502179055507f0ccd933ff41b0ece70bed4d673b5580ea60a522957ddcc7185933b7b78f4c67a338560405161292e929190614f54565b60405180910390a150505050565b60046020528060005260406000206000915090505481565b60606009826040516129669190614f22565b9081526020016040518091039020805480602002602001604051908101604052809291908181526020016000905b82821015612d3257838290600052602060002090600a0201604051806101400160405290816000820160009054906101000a900473ffffffffffffffffffffffffffffffffffffffff1673ffffffffffffffffffffffffffffffffffffffff1673ffffffffffffffffffffffffffffffffffffffff16815260200160018201548152602001600282018054612a2890615782565b80601f0160208091040260200160405190810160405280929190818152602001828054612a5490615782565b8015612aa15780601f10612a7657610100808354040283529160200191612aa1565b820191906000526020600020905b815481529060010190602001808311612a8457829003601f168201915b50505050508152602001600382018054612aba90615782565b80601f0160208091040260200160405190810160405280929190818152602001828054612ae690615782565b8015612b335780601f10612b0857610100808354040283529160200191612b33565b820191906000526020600020905b815481529060010190602001808311612b1657829003601f168201915b50505050508152602001600482018054612b4c90615782565b80601f0160208091040260200160405190810160405280929190818152602001828054612b7890615782565b8015612bc55780601f10612b9a57610100808354040283529160200191612bc5565b820191906000526020600020905b815481529060010190602001808311612ba857829003601f168201915b50505050508152602001600582015481526020016006820160009054906101000a900460ff1660ff1660ff168152602001600782018054612c0590615782565b80601f0160208091040260200160405190810160405280929190818152602001828054612c3190615782565b8015612c7e5780601f10612c5357610100808354040283529160200191612c7e565b820191906000526020600020905b815481529060010190602001808311612c6157829003601f168201915b50505050508152602001600882018054612c9790615782565b80601f0160208091040260200160405190810160405280929190818152602001828054612cc390615782565b8015612d105780601f10612ce557610100808354040283529160200191612d10565b820191906000526020600020905b815481529060010190602001808311612cf357829003601f168201915b5050505050815260200160098201548152505081526020019060010190612994565b505050509050919050565b600c6020528060005260406000206000915090508060000160009054906101000a900473ffffffffffffffffffffffffffffffffffffffff1690806001015490806002015490806003015490806004018054612d9890615782565b80601f0160208091040260200160405190810160405280929190818152602001828054612dc490615782565b8015612e115780601f10612de657610100808354040283529160200191612e11565b820191906000526020600020905b815481529060010190602001808311612df457829003601f168201915b5050505050908060050154905086565b60001515600260003373ffffffffffffffffffffffffffffffffffffffff1673ffffffffffffffffffffffffffffffffffffffff16815260200190815260200160002060009054906101000a900460ff1615151415612eb757336040517f1063935d000000000000000000000000000000000000000000000000000000008152600401612eae9190614f39565b60405180910390fd5b6000801b600b6000848152602001908152602001600020600101541415612f1557816040517fd7b18dd0000000000000000000000000000000000000000000000000000000008152600401612f0c919061525a565b60405180910390fd5b60003342604051602001612f2a929190614ef6565b604051602081830303815290604052805190602001209050612f4a6142af565b33816000019073ffffffffffffffffffffffffffffffffffffffff16908173ffffffffffffffffffffffffffffffffffffffff16815250508181602001818152505042816060018181525050828160800181905250838160400181815250506011600085815260200190815260200160002081908060018154018082558091505060019003906000526020600020906006020160009091909190915060008201518160000160006101000a81548173ffffffffffffffffffffffffffffffffffffffff021916908373ffffffffffffffffffffffffffffffffffffffff1602179055506020820151816001015560408201518160020155606082015181600301556080820151816004019080519060200190613067929190614301565b5060a08201518160050155505060016010600084815260200190815260200160002060006101000a81548160ff02191690831515021790555080600c600084815260200190815260200160002060008201518160000160006101000a81548173ffffffffffffffffffffffffffffffffffffffff021916908373ffffffffffffffffffffffffffffffffffffffff1602179055506020820151816001015560408201518160020155606082015181600301556080820151816004019080519060200190613135929190614301565b5060a0820151816005015590505060011515600e600086815260200190815260200160002060009054906101000a900460ff161515141561319d576001600e600084815260200190815260200160002060006101000a81548160ff0219169083151502179055505b7f4e995f78decdd67228fe5ea681e3e0bd77d263899f80f9ff48c4b98c763e7e453383856040516131d093929190614fe5565b60405180910390a150505050565b6000601560003373ffffffffffffffffffffffffffffffffffffffff1673ffffffffffffffffffffffffffffffffffffffff16815260200190815260200160002060008381526020019081526020016000205411613271576040517f08c379a0000000000000000000000000000000000000000000000000000000008152600401613268906152db565b60405180910390fd5b6000601560003373ffffffffffffffffffffffffffffffffffffffff1673ffffffffffffffffffffffffffffffffffffffff16815260200190815260200160002060008381526020019081526020016000205490506000601560003373ffffffffffffffffffffffffffffffffffffffff1673ffffffffffffffffffffffffffffffffffffffff16815260200190815260200160002060008481526020019081526020016000208190555060008054906101000a900473ffffffffffffffffffffffffffffffffffffffff1673ffffffffffffffffffffffffffffffffffffffff1663d02b789d33836040518363ffffffff1660e01b8152600401613377929190615135565b600060405180830381600087803b15801561339157600080fd5b505af11580156133a5573d6000803e3d6000fd5b5050505080827f767b98af279f435e661fc19507340abe92e8ae2fe7143cbf4cdf5ae32ee0d49260405160405180910390a35050565b60011515600160003373ffffffffffffffffffffffffffffffffffffffff1673ffffffffffffffffffffffffffffffffffffffff16815260200190815260200160002060009054906101000a900460ff1615151461346e576040517f08c379a00000000000000000000000000000000000000000000000000000000081526004016134659061533b565b60405180910390fd5b8160078460405161347f9190614f22565b908152602001604051809103902090805190602001906134a0929190614301565b50806008846040516134b29190614f22565b908152602001604051809103902090805190602001906134d3929190614301565b50505050565b60001515600260003373ffffffffffffffffffffffffffffffffffffffff1673ffffffffffffffffffffffffffffffffffffffff16815260200190815260200160002060009054906101000a900460ff161515141561356f57336040517f1063935d0000000000000000000000000000000000000000000000000000000081526004016135669190614f39565b60405180910390fd5b60006007826040516135819190614f22565b9081526020016040518091039020805461359a90615782565b905014156135df57806040517f8f6b29cc0000000000000000000000000000000000000000000000000000000081526004016135d691906152b9565b60405180910390fd5b600033426040516020016135f4929190614ef6565b6040516020818303038152906040528051906020012090506001600f600083815260200190815260200160002060006101000a81548160ff021916908315150217905550816040516136469190614f22565b6040518091039020817f995609ffe2742fdc2b1b60c0b6f329d58e9f947b234e4195b9a67bef523fb6923360405161367e9190614f39565b60405180910390a35050565b60001515600260003373ffffffffffffffffffffffffffffffffffffffff1673ffffffffffffffffffffffffffffffffffffffff16815260200190815260200160002060009054906101000a900460ff161515141561372057336040517f1063935d0000000000000000000000000000000000000000000000000000000081526004016137179190614f39565b60405180910390fd5b60006007866040516137329190614f22565b9081526020016040518091039020805461374b90615782565b9050141561379057846040517f8f6b29cc00000000000000000000000000000000000000000000000000000000815260040161378791906152b9565b60405180910390fd5b6000801b8414156137d3573385848484426040516020016137b696959493929190614e92565b604051602081830303815290604052805190602001209350613899565b60011515600f600086815260200190815260200160002060009054906101000a900460ff161515141561385d576001600e600086815260200190815260200160002060006101000a81548160ff0219169083151502179055506000600f600086815260200190815260200160002060006101000a81548160ff021916908315150217905550613898565b6040517f08c379a000000000000000000000000000000000000000000000000000000000815260040161388f9061535b565b60405180910390fd5b5b60008260ff16101580156138b1575060328260ff1611155b6138f0576040517f08c379a00000000000000000000000000000000000000000000000000000000081526004016138e7906152fb565b60405180910390fd5b6138f8614387565b8481602001818152505033816000019073ffffffffffffffffffffffffffffffffffffffff16908173ffffffffffffffffffffffffffffffffffffffff1681525050858160400181905250838160e00181905250828160c0019060ff16908160ff168152505081816101000181905250428160a00181815250506007866040516139829190614f22565b9081526020016040518091039020805461399b90615782565b80601f01602080910402602001604051908101604052809291908181526020018280546139c790615782565b8015613a145780601f106139e957610100808354040283529160200191613a14565b820191906000526020600020905b8154815290600101906020018083116139f757829003601f168201915b50505050508160600181905250600886604051613a319190614f22565b90815260200160405180910390208054613a4a90615782565b80601f0160208091040260200160405190810160405280929190818152602001828054613a7690615782565b8015613ac35780601f10613a9857610100808354040283529160200191613ac3565b820191906000526020600020905b815481529060010190602001808311613aa657829003601f168201915b5050505050816080018190525060008161012001818152505080600b60008360200151815260200190815260200160002060008201518160000160006101000a81548173ffffffffffffffffffffffffffffffffffffffff021916908373ffffffffffffffffffffffffffffffffffffffff160217905550602082015181600101556040820151816002019080519060200190613b61929190614301565b506060820151816003019080519060200190613b7e929190614301565b506080820151816004019080519060200190613b9b929190614301565b5060a0820151816005015560c08201518160060160006101000a81548160ff021916908360ff16021790555060e0820151816007019080519060200190613be3929190614301565b50610100820151816008019080519060200190613c01929190614301565b506101208201518160090155905050600560003373ffffffffffffffffffffffffffffffffffffffff1673ffffffffffffffffffffffffffffffffffffffff1681526020019081526020016000208190806001815401808255809150506001900390600052602060002090600a020160009091909190915060008201518160000160006101000a81548173ffffffffffffffffffffffffffffffffffffffff021916908373ffffffffffffffffffffffffffffffffffffffff160217905550602082015181600101556040820151816002019080519060200190613ce6929190614301565b506060820151816003019080519060200190613d03929190614301565b506080820151816004019080519060200190613d20929190614301565b5060a0820151816005015560c08201518160060160006101000a81548160ff021916908360ff16021790555060e0820151816007019080519060200190613d68929190614301565b50610100820151816008019080519060200190613d86929190614301565b5061012082015181600901555050600986604051613da49190614f22565b90815260200160405180910390208190806001815401808255809150506001900390600052602060002090600a020160009091909190915060008201518160000160006101000a81548173ffffffffffffffffffffffffffffffffffffffff021916908373ffffffffffffffffffffffffffffffffffffffff160217905550602082015181600101556040820151816002019080519060200190613e49929190614301565b506060820151816003019080519060200190613e66929190614301565b506080820151816004019080519060200190613e83929190614301565b5060a0820151816005015560c08201518160060160006101000a81548160ff021916908360ff16021790555060e0820151816007019080519060200190613ecb929190614301565b50610100820151816008019080519060200190613ee9929190614301565b5061012082015181600901555050600a86604051613f079190614f22565b90815260200160405180910390208390806001815401808255809150506001900390600052602060002090602091828204019190069091909190916101000a81548160ff021916908360ff16021790555085604051613f669190614f22565b604051809103902081602001517f760704ab790065f832ff506a47ef33bb905c37b28e7cf953aff936b0add8ce9c33878787604051613fa894939291906150e2565b60405180910390a3505050505050565b60036020528060005260406000206000915090505481565b60136020528160005260406000208181548110613fec57600080fd5b9060005260206000209060030201600091509150508060000160009054906101000a900473ffffffffffffffffffffffffffffffffffffffff16908060010154908060020154905083565b600060011515600e600084815260200190815260200160002060009054906101000a900460ff1615151461406a57600080fd5b6000614075836111bd565b90506000806010600086815260200190815260200160002060009054906101000a900460ff166140f657600b6000868152602001908152602001600020600901549150600b600086815260200190815260200160002060000160009054906101000a900473ffffffffffffffffffffffffffffffffffffffff169050614149565b600c6000868152602001908152602001600020600501549150600c600086815260200190815260200160002060000160009054906101000a900473ffffffffffffffffffffffffffffffffffffffff1690505b600080600090506000805b858163ffffffff1610156141ea57868163ffffffff16815181106141a1577f4e487b7100000000000000000000000000000000000000000000000000000000600052603260045260246000fd5b60200260200101516020015193506001846141bc9190615603565b836141c7919061557c565b925083826141d5919061557c565b915080806141e29061582e565b915050614154565b506010600089815260200190815260200160002060009054906101000a900460ff1661426a576001600460008673ffffffffffffffffffffffffffffffffffffffff1673ffffffffffffffffffffffffffffffffffffffff1681526020019081526020016000205461425c9190615603565b82614267919061557c565b91505b819650505050505050919050565b6040518060600160405280600073ffffffffffffffffffffffffffffffffffffffff16815260200160008152602001600081525090565b6040518060c00160405280600073ffffffffffffffffffffffffffffffffffffffff16815260200160008019168152602001600080191681526020016000815260200160608152602001600081525090565b82805461430d90615782565b90600052602060002090601f01602090048101928261432f5760008555614376565b82601f1061434857805160ff1916838001178555614376565b82800160010185558215614376579182015b8281111561437557825182559160200191906001019061435a565b5b50905061438391906143f6565b5090565b604051806101400160405280600073ffffffffffffffffffffffffffffffffffffffff1681526020016000801916815260200160608152602001606081526020016060815260200160008152602001600060ff1681526020016060815260200160608152602001600081525090565b5b8082111561440f5760008160009055506001016143f7565b5090565b6000614426614421846153f6565b6153d1565b90508281526020810184848401111561443e57600080fd5b614449848285615740565b509392505050565b60008135905061446081615a9e565b92915050565b60008135905061447581615ab5565b92915050565b600082601f83011261448c57600080fd5b813561449c848260208601614413565b91505092915050565b6000815190506144b481615acc565b92915050565b6000813590506144c981615ae3565b92915050565b6000813590506144de81615afa565b92915050565b6000602082840312156144f657600080fd5b600061450484828501614451565b91505092915050565b6000806040838503121561452057600080fd5b600061452e85828601614451565b925050602061453f85828601614466565b9150509250929050565b6000806040838503121561455c57600080fd5b600061456a85828601614451565b925050602061457b858286016144ba565b9150509250929050565b60006020828403121561459757600080fd5b60006145a584828501614466565b91505092915050565b600080604083850312156145c157600080fd5b60006145cf85828601614466565b925050602083013567ffffffffffffffff8111156145ec57600080fd5b6145f88582860161447b565b9150509250929050565b6000806040838503121561461557600080fd5b600061462385828601614466565b9250506020614634858286016144ba565b9150509250929050565b60006020828403121561465057600080fd5b600082013567ffffffffffffffff81111561466a57600080fd5b6146768482850161447b565b91505092915050565b600080600080600060a0868803121561469757600080fd5b600086013567ffffffffffffffff8111156146b157600080fd5b6146bd8882890161447b565b95505060206146ce88828901614466565b945050604086013567ffffffffffffffff8111156146eb57600080fd5b6146f78882890161447b565b9350506060614708888289016144cf565b925050608086013567ffffffffffffffff81111561472557600080fd5b6147318882890161447b565b9150509295509295909350565b60008060006060848603121561475357600080fd5b600084013567ffffffffffffffff81111561476d57600080fd5b6147798682870161447b565b935050602084013567ffffffffffffffff81111561479657600080fd5b6147a28682870161447b565b925050604084013567ffffffffffffffff8111156147bf57600080fd5b6147cb8682870161447b565b9150509250925092565b6000602082840312156147e757600080fd5b60006147f5848285016144a5565b91505092915050565b600061480a8383614ab6565b60208301905092915050565b60006148228383614c58565b905092915050565b60006148368383614ce1565b905092915050565b600061484a8383614dd7565b60608301905092915050565b60006148628383614e5d565b60208301905092915050565b61487781615691565b82525050565b61488681615691565b82525050565b61489d61489882615691565b61585b565b82525050565b60006148ae82615477565b6148b881856154fa565b93506148c383615427565b8060005b838110156148f45781516148db88826147fe565b97506148e6836154b9565b9250506001810190506148c7565b5085935050505092915050565b600061490c82615482565b614916818561550b565b93508360208202850161492885615437565b8060005b8581101561496457848403895281516149458582614816565b9450614950836154c6565b925060208a0199505060018101905061492c565b50829750879550505050505092915050565b60006149818261548d565b61498b818561551c565b93508360208202850161499d85615447565b8060005b858110156149d957848403895281516149ba858261482a565b94506149c5836154d3565b925060208a019950506001810190506149a1565b50829750879550505050505092915050565b60006149f682615498565b614a00818561552d565b9350614a0b83615457565b8060005b83811015614a3c578151614a23888261483e565b9750614a2e836154e0565b925050600181019050614a0f565b5085935050505092915050565b6000614a54826154a3565b614a5e818561553e565b9350614a6983615467565b8060005b83811015614a9a578151614a818882614856565b9750614a8c836154ed565b925050600181019050614a6d565b5085935050505092915050565b614ab0816156a3565b82525050565b614abf816156af565b82525050565b614ace816156af565b82525050565b614add8161571c565b82525050565b6000614aee826154ae565b614af8818561554f565b9350614b0881856020860161574f565b614b1181615957565b840191505092915050565b6000614b27826154ae565b614b318185615560565b9350614b4181856020860161574f565b614b4a81615957565b840191505092915050565b6000614b60826154ae565b614b6a8185615571565b9350614b7a81856020860161574f565b80840191505092915050565b6000614b93600e83615560565b9150614b9e82615982565b602082019050919050565b6000614bb6601383615560565b9150614bc1826159ab565b602082019050919050565b6000614bd9600c83615560565b9150614be4826159d4565b602082019050919050565b6000614bfc602183615560565b9150614c07826159fd565b604082019050919050565b6000614c1f600f83615560565b9150614c2a82615a4c565b602082019050919050565b6000614c42601d83615560565b9150614c4d82615a75565b602082019050919050565b600060c083016000830151614c70600086018261486e565b506020830151614c836020860182614ab6565b506040830151614c966040860182614ab6565b506060830151614ca96060860182614e19565b5060808301518482036080860152614cc18282614ae3565b91505060a0830151614cd660a0860182614e19565b508091505092915050565b600061014083016000830151614cfa600086018261486e565b506020830151614d0d6020860182614ab6565b5060408301518482036040860152614d258282614ae3565b91505060608301518482036060860152614d3f8282614ae3565b91505060808301518482036080860152614d598282614ae3565b91505060a0830151614d6e60a0860182614e19565b5060c0830151614d8160c0860182614e5d565b5060e083015184820360e0860152614d998282614ae3565b915050610100830151848203610100860152614db58282614ae3565b915050610120830151614dcc610120860182614e19565b508091505092915050565b606082016000820151614ded600085018261486e565b506020820151614e006020850182614e19565b506040820151614e136040850182614e19565b50505050565b614e22816156f5565b82525050565b614e31816156f5565b82525050565b614e40816156f5565b82525050565b614e57614e52826156f5565b61587f565b82525050565b614e668161570f565b82525050565b614e758161570f565b82525050565b614e8c614e878261570f565b615889565b82525050565b6000614e9e828961488c565b601482019150614eae8288614b55565b9150614eba8287614b55565b9150614ec68286614e7b565b600182019150614ed68285614b55565b9150614ee28284614e46565b602082019150819050979650505050505050565b6000614f02828561488c565b601482019150614f128284614e46565b6020820191508190509392505050565b6000614f2e8284614b55565b915081905092915050565b6000602082019050614f4e600083018461487d565b92915050565b6000604082019050614f69600083018561487d565b614f766020830184614ac5565b9392505050565b600060c082019050614f92600083018961487d565b614f9f6020830188614ac5565b614fac6040830187614ac5565b614fb96060830186614e28565b8181036080830152614fcb8185614b1c565b9050614fda60a0830184614e28565b979650505050505050565b6000606082019050614ffa600083018661487d565b6150076020830185614ac5565b81810360408301526150198184614b1c565b9050949350505050565b600061014082019050615039600083018d61487d565b615046602083018c614ac5565b8181036040830152615058818b614b1c565b9050818103606083015261506c818a614b1c565b905081810360808301526150808189614b1c565b905061508f60a0830188614e28565b61509c60c0830187614e6c565b81810360e08301526150ae8186614b1c565b90508181036101008301526150c38185614b1c565b90506150d3610120830184614e28565b9b9a5050505050505050505050565b60006080820190506150f7600083018761487d565b81810360208301526151098186614b1c565b90506151186040830185614e6c565b818103606083015261512a8184614b1c565b905095945050505050565b600060408201905061514a600083018561487d565b6151576020830184614e28565b9392505050565b6000606082019050615173600083018661487d565b6151806020830185614e28565b61518d6040830184614e28565b949350505050565b600060208201905081810360008301526151af81846148a3565b905092915050565b600060208201905081810360008301526151d18184614901565b905092915050565b600060208201905081810360008301526151f38184614976565b905092915050565b6000602082019050818103600083015261521581846149eb565b905092915050565b600060208201905081810360008301526152378184614a49565b905092915050565b60006020820190506152546000830184614aa7565b92915050565b600060208201905061526f6000830184614ac5565b92915050565b600060408201905061528a6000830185614ac5565b615297602083018461487d565b9392505050565b60006020820190506152b36000830184614ad4565b92915050565b600060208201905081810360008301526152d38184614b1c565b905092915050565b600060208201905081810360008301526152f481614b86565b9050919050565b6000602082019050818103600083015261531481614ba9565b9050919050565b6000602082019050818103600083015261533481614bcc565b9050919050565b6000602082019050818103600083015261535481614bef565b9050919050565b6000602082019050818103600083015261537481614c12565b9050919050565b6000602082019050818103600083015261539481614c35565b9050919050565b60006020820190506153b06000830184614e37565b92915050565b60006020820190506153cb6000830184614e28565b92915050565b60006153db6153ec565b90506153e782826157b4565b919050565b6000604051905090565b600067ffffffffffffffff82111561541157615410615928565b5b61541a82615957565b9050602081019050919050565b6000819050602082019050919050565b6000819050602082019050919050565b6000819050602082019050919050565b6000819050602082019050919050565b6000819050602082019050919050565b600081519050919050565b600081519050919050565b600081519050919050565b600081519050919050565b600081519050919050565b600081519050919050565b6000602082019050919050565b6000602082019050919050565b6000602082019050919050565b6000602082019050919050565b6000602082019050919050565b600082825260208201905092915050565b600082825260208201905092915050565b600082825260208201905092915050565b600082825260208201905092915050565b600082825260208201905092915050565b600082825260208201905092915050565b600082825260208201905092915050565b600081905092915050565b6000615587826156f5565b9150615592836156f5565b9250827fffffffffffffffffffffffffffffffffffffffffffffffffffffffffffffffff038211156155c7576155c661589b565b5b828201905092915050565b60006155dd826156f5565b91506155e8836156f5565b9250826155f8576155f76158ca565b5b828204905092915050565b600061560e826156f5565b9150615619836156f5565b9250817fffffffffffffffffffffffffffffffffffffffffffffffffffffffffffffffff04831182151516156156525761565161589b565b5b828202905092915050565b6000615668826156f5565b9150615673836156f5565b9250828210156156865761568561589b565b5b828203905092915050565b600061569c826156d5565b9050919050565b60008115159050919050565b6000819050919050565b60006fffffffffffffffffffffffffffffffff82169050919050565b600073ffffffffffffffffffffffffffffffffffffffff82169050919050565b6000819050919050565b600063ffffffff82169050919050565b600060ff82169050919050565b60006157278261572e565b9050919050565b6000615739826156d5565b9050919050565b82818337600083830152505050565b60005b8381101561576d578082015181840152602081019050615752565b8381111561577c576000848401525b50505050565b6000600282049050600182168061579a57607f821691505b602082108114156157ae576157ad6158f9565b5b50919050565b6157bd82615957565b810181811067ffffffffffffffff821117156157dc576157db615928565b5b80604052505050565b60006157f0826156f5565b91507fffffffffffffffffffffffffffffffffffffffffffffffffffffffffffffffff8214156158235761582261589b565b5b600182019050919050565b6000615839826156ff565b915063ffffffff8214156158505761584f61589b565b5b600182019050919050565b60006158668261586d565b9050919050565b600061587882615975565b9050919050565b6000819050919050565b600061589482615968565b9050919050565b7f4e487b7100000000000000000000000000000000000000000000000000000000600052601160045260246000fd5b7f4e487b7100000000000000000000000000000000000000000000000000000000600052601260045260246000fd5b7f4e487b7100000000000000000000000000000000000000000000000000000000600052602260045260246000fd5b7f4e487b7100000000000000000000000000000000000000000000000000000000600052604160045260246000fd5b6000601f19601f8301169050919050565b60008160f81b9050919050565b60008160601b9050919050565b7f496e76616c696420526577617264000000000000000000000000000000000000600082015250565b7f556e76616c6964206e756d626572207261746500000000000000000000000000600082015250565b7f4e6f742056657269666965640000000000000000000000000000000000000000600082015250565b7f4f6e6c792061646d696e2063616e2063616c6c20746869732066756e6374696f60008201527f6e00000000000000000000000000000000000000000000000000000000000000602082015250565b7f416c726561647920726576696577640000000000000000000000000000000000600082015250565b7f54686973206164647265737320686173206265656e2065786973746564000000600082015250565b615aa781615691565b8114615ab257600080fd5b50565b615abe816156af565b8114615ac957600080fd5b50565b615ad5816156b9565b8114615ae057600080fd5b50565b615aec816156f5565b8114615af757600080fd5b50565b615b038161570f565b8114615b0e57600080fd5b5056fea2646970667358221220b61e2fdd53987b009cfae902ba44516a84671bf2a6632c49a8850906f919913d64736f6c63430008040033",
  "linkReferences": {
    "contracts/tourismV2.sol": {
      "Math": [
        {
          "length": 20,
          "start": 8542
        }
      ]
    }
  },
  "deployedLinkReferences": {
    "contracts/tourismV2.sol": {
      "Math": [
        {
          "length": 20,
          "start": 8168
        }
      ]
    }
  }
}