{
  "_format": "hh-sol-artifact-1",
  "contractName": "Tourism",
  "sourceName": "contracts/Tourism.sol",
  "abi": [
    {
      "inputs": [
        {
          "internalType": "address",
          "name": "ERC20_address",
          "type": "address"
        }
      ],
      "stateMutability": "nonpayable",
      "type": "constructor"
    },
    {
      "inputs": [
        {
          "internalType": "string",
          "name": "PlaceID",
          "type": "string"
        }
      ],
      "name": "InvalidPlaceID",
      "type": "error"
    },
    {
      "inputs": [
        {
          "internalType": "bytes32",
          "name": "PostID",
          "type": "bytes32"
        }
      ],
      "name": "InvalidPostID",
      "type": "error"
    },
    {
      "inputs": [
        {
          "internalType": "string",
          "name": "PlaceID",
          "type": "string"
        },
        {
          "internalType": "string",
          "name": "TicketID",
          "type": "string"
        }
      ],
      "name": "InvalidTicketID",
      "type": "error"
    },
    {
      "inputs": [
        {
          "internalType": "address",
          "name": "Address",
          "type": "address"
        }
      ],
      "name": "NotRegister",
      "type": "error"
    },
    {
      "inputs": [
        {
          "internalType": "string",
          "name": "PlaceID",
          "type": "string"
        },
        {
          "internalType": "string",
          "name": "TicketID",
          "type": "string"
        }
      ],
      "name": "TicketIsVerified",
      "type": "error"
    },
    {
      "anonymous": false,
      "inputs": [
        {
          "indexed": true,
          "internalType": "bytes32",
          "name": "postID",
          "type": "bytes32"
        },
        {
          "indexed": true,
          "internalType": "string",
          "name": "placeID",
          "type": "string"
        },
        {
          "components": [
            {
              "internalType": "string",
              "name": "firstName",
              "type": "string"
            },
            {
              "internalType": "string",
              "name": "lastName",
              "type": "string"
            },
            {
              "internalType": "string",
              "name": "phoneNumber",
              "type": "string"
            },
            {
              "internalType": "uint256",
              "name": "REP",
              "type": "uint256"
            },
            {
              "internalType": "uint256",
              "name": "VP",
              "type": "uint256"
            }
          ],
          "indexed": false,
          "internalType": "struct Tourism.Tourist",
          "name": "tourist",
          "type": "tuple"
        }
      ],
      "name": "CheckIn",
      "type": "event"
    },
    {
      "anonymous": false,
      "inputs": [
        {
          "indexed": true,
          "internalType": "bytes32",
          "name": "postID",
          "type": "bytes32"
        },
        {
          "indexed": true,
          "internalType": "uint256",
          "name": "authorReward",
          "type": "uint256"
        },
        {
          "indexed": true,
          "internalType": "uint256",
          "name": "curatorsReward",
          "type": "uint256"
        },
        {
          "components": [
            {
              "internalType": "address",
              "name": "curator",
              "type": "address"
            },
            {
              "internalType": "uint256",
              "name": "curatorREP",
              "type": "uint256"
            },
            {
              "internalType": "uint256",
              "name": "curatorVP",
              "type": "uint256"
            }
          ],
          "indexed": false,
          "internalType": "struct Tourism.Vote[]",
          "name": "upvotes",
          "type": "tuple[]"
        }
      ],
      "name": "DivideRewardBy4R",
      "type": "event"
    },
    {
      "anonymous": false,
      "inputs": [
        {
          "components": [
            {
              "internalType": "string",
              "name": "firstName",
              "type": "string"
            },
            {
              "internalType": "string",
              "name": "lastName",
              "type": "string"
            },
            {
              "internalType": "string",
              "name": "phoneNumber",
              "type": "string"
            },
            {
              "internalType": "uint256",
              "name": "REP",
              "type": "uint256"
            },
            {
              "internalType": "uint256",
              "name": "VP",
              "type": "uint256"
            }
          ],
          "indexed": false,
          "internalType": "struct Tourism.Tourist",
          "name": "tourist",
          "type": "tuple"
        },
        {
          "indexed": true,
          "internalType": "bytes32",
          "name": "postID",
          "type": "bytes32"
        },
        {
          "indexed": true,
          "internalType": "string",
          "name": "PlaceName",
          "type": "string"
        },
        {
          "indexed": false,
          "internalType": "string",
          "name": "review",
          "type": "string"
        },
        {
          "indexed": false,
          "internalType": "uint8",
          "name": "rate",
          "type": "uint8"
        },
        {
          "indexed": false,
          "internalType": "string",
          "name": "title",
          "type": "string"
        }
      ],
      "name": "PostReview",
      "type": "event"
    },
    {
      "anonymous": false,
      "inputs": [
        {
          "indexed": false,
          "internalType": "string",
          "name": "_firstName",
          "type": "string"
        },
        {
          "indexed": false,
          "internalType": "string",
          "name": "_lastName",
          "type": "string"
        },
        {
          "indexed": false,
          "internalType": "string",
          "name": "_phoneNumber",
          "type": "string"
        }
      ],
      "name": "Register",
      "type": "event"
    },
    {
      "inputs": [
        {
          "internalType": "address",
          "name": "",
          "type": "address"
        },
        {
          "internalType": "uint256",
          "name": "",
          "type": "uint256"
        }
      ],
      "name": "TouristReviews",
      "outputs": [
        {
          "internalType": "address",
          "name": "author",
          "type": "address"
        },
        {
          "internalType": "bytes32",
          "name": "postID",
          "type": "bytes32"
        },
        {
          "internalType": "string",
          "name": "placeId",
          "type": "string"
        },
        {
          "internalType": "string",
          "name": "placeName",
          "type": "string"
        },
        {
          "internalType": "string",
          "name": "placeAddress",
          "type": "string"
        },
        {
          "internalType": "uint256",
          "name": "createTime",
          "type": "uint256"
        },
        {
          "internalType": "uint256",
          "name": "rate",
          "type": "uint256"
        },
        {
          "internalType": "string",
          "name": "review",
          "type": "string"
        },
        {
          "internalType": "string",
          "name": "title",
          "type": "string"
        },
        {
          "internalType": "uint256",
          "name": "upvoteNum",
          "type": "uint256"
        }
      ],
      "stateMutability": "view",
      "type": "function"
    },
    {
      "inputs": [
        {
          "internalType": "address",
          "name": "userAddress",
          "type": "address"
        }
      ],
      "name": "addAdmin",
      "outputs": [],
      "stateMutability": "nonpayable",
      "type": "function"
    },
    {
      "inputs": [
        {
          "internalType": "string",
          "name": "_id",
          "type": "string"
        },
        {
          "internalType": "string",
          "name": "destinationName",
          "type": "string"
        },
        {
          "internalType": "string",
          "name": "destinationAddr",
          "type": "string"
        }
      ],
      "name": "addDestination",
      "outputs": [],
      "stateMutability": "nonpayable",
      "type": "function"
    },
    {
      "inputs": [
        {
          "internalType": "string",
          "name": "placeId",
          "type": "string"
        },
        {
          "internalType": "string",
          "name": "ticketId",
          "type": "string"
        }
      ],
      "name": "addPlaceTicket",
      "outputs": [],
      "stateMutability": "nonpayable",
      "type": "function"
    },
    {
      "inputs": [
        {
          "internalType": "bytes32",
          "name": "postID",
          "type": "bytes32"
        }
      ],
      "name": "calculateTotalReward",
      "outputs": [
        {
          "internalType": "uint256",
          "name": "",
          "type": "uint256"
        }
      ],
      "stateMutability": "view",
      "type": "function"
    },
    {
      "inputs": [
        {
          "internalType": "string",
          "name": "placeID",
          "type": "string"
        }
      ],
      "name": "checkIn",
      "outputs": [],
      "stateMutability": "nonpayable",
      "type": "function"
    },
    {
      "inputs": [
        {
          "internalType": "string",
          "name": "",
          "type": "string"
        }
      ],
      "name": "destinationAddress",
      "outputs": [
        {
          "internalType": "string",
          "name": "",
          "type": "string"
        }
      ],
      "stateMutability": "view",
      "type": "function"
    },
    {
      "inputs": [
        {
          "internalType": "string",
          "name": "",
          "type": "string"
        }
      ],
      "name": "destinationIdentify",
      "outputs": [
        {
          "internalType": "string",
          "name": "",
          "type": "string"
        }
      ],
      "stateMutability": "view",
      "type": "function"
    },
    {
      "inputs": [
        {
          "internalType": "string",
          "name": "",
          "type": "string"
        },
        {
          "internalType": "uint256",
          "name": "",
          "type": "uint256"
        }
      ],
      "name": "destinationRates",
      "outputs": [
        {
          "internalType": "uint8",
          "name": "",
          "type": "uint8"
        }
      ],
      "stateMutability": "view",
      "type": "function"
    },
    {
      "inputs": [
        {
          "internalType": "string",
          "name": "",
          "type": "string"
        },
        {
          "internalType": "uint256",
          "name": "",
          "type": "uint256"
        }
      ],
      "name": "destinationReviews",
      "outputs": [
        {
          "internalType": "address",
          "name": "author",
          "type": "address"
        },
        {
          "internalType": "bytes32",
          "name": "postID",
          "type": "bytes32"
        },
        {
          "internalType": "string",
          "name": "placeId",
          "type": "string"
        },
        {
          "internalType": "string",
          "name": "placeName",
          "type": "string"
        },
        {
          "internalType": "string",
          "name": "placeAddress",
          "type": "string"
        },
        {
          "internalType": "uint256",
          "name": "createTime",
          "type": "uint256"
        },
        {
          "internalType": "uint256",
          "name": "rate",
          "type": "uint256"
        },
        {
          "internalType": "string",
          "name": "review",
          "type": "string"
        },
        {
          "internalType": "string",
          "name": "title",
          "type": "string"
        },
        {
          "internalType": "uint256",
          "name": "upvoteNum",
          "type": "uint256"
        }
      ],
      "stateMutability": "view",
      "type": "function"
    },
    {
      "inputs": [
        {
          "internalType": "bytes32",
          "name": "postID",
          "type": "bytes32"
        }
      ],
      "name": "divideRewardBy4R",
      "outputs": [],
      "stateMutability": "nonpayable",
      "type": "function"
    },
    {
      "inputs": [],
      "name": "erc20Token",
      "outputs": [
        {
          "internalType": "contract IERC20With4RMechanism",
          "name": "",
          "type": "address"
        }
      ],
      "stateMutability": "view",
      "type": "function"
    },
    {
      "inputs": [
        {
          "internalType": "string",
          "name": "_id",
          "type": "string"
        }
      ],
      "name": "getAllReviewsOfDestinations",
      "outputs": [
        {
          "components": [
            {
              "internalType": "address",
              "name": "author",
              "type": "address"
            },
            {
              "internalType": "bytes32",
              "name": "postID",
              "type": "bytes32"
            },
            {
              "internalType": "string",
              "name": "placeId",
              "type": "string"
            },
            {
              "internalType": "string",
              "name": "placeName",
              "type": "string"
            },
            {
              "internalType": "string",
              "name": "placeAddress",
              "type": "string"
            },
            {
              "internalType": "uint256",
              "name": "createTime",
              "type": "uint256"
            },
            {
              "internalType": "uint256",
              "name": "rate",
              "type": "uint256"
            },
            {
              "internalType": "string",
              "name": "review",
              "type": "string"
            },
            {
              "internalType": "string",
              "name": "title",
              "type": "string"
            },
            {
              "internalType": "uint256",
              "name": "upvoteNum",
              "type": "uint256"
            }
          ],
          "internalType": "struct Tourism.Review[]",
          "name": "",
          "type": "tuple[]"
        }
      ],
      "stateMutability": "view",
      "type": "function"
    },
    {
      "inputs": [
        {
          "internalType": "address",
          "name": "touristAddress",
          "type": "address"
        }
      ],
      "name": "getAllReviewsOfTourist",
      "outputs": [
        {
          "components": [
            {
              "internalType": "address",
              "name": "author",
              "type": "address"
            },
            {
              "internalType": "bytes32",
              "name": "postID",
              "type": "bytes32"
            },
            {
              "internalType": "string",
              "name": "placeId",
              "type": "string"
            },
            {
              "internalType": "string",
              "name": "placeName",
              "type": "string"
            },
            {
              "internalType": "string",
              "name": "placeAddress",
              "type": "string"
            },
            {
              "internalType": "uint256",
              "name": "createTime",
              "type": "uint256"
            },
            {
              "internalType": "uint256",
              "name": "rate",
              "type": "uint256"
            },
            {
              "internalType": "string",
              "name": "review",
              "type": "string"
            },
            {
              "internalType": "string",
              "name": "title",
              "type": "string"
            },
            {
              "internalType": "uint256",
              "name": "upvoteNum",
              "type": "uint256"
            }
          ],
          "internalType": "struct Tourism.Review[]",
          "name": "",
          "type": "tuple[]"
        }
      ],
      "stateMutability": "view",
      "type": "function"
    },
    {
      "inputs": [
        {
          "internalType": "string",
          "name": "placeID",
          "type": "string"
        }
      ],
      "name": "getDestinationRates",
      "outputs": [
        {
          "internalType": "uint8[]",
          "name": "",
          "type": "uint8[]"
        }
      ],
      "stateMutability": "view",
      "type": "function"
    },
    {
      "inputs": [
        {
          "internalType": "bytes32",
          "name": "postID",
          "type": "bytes32"
        }
      ],
      "name": "getRewardPoint",
      "outputs": [],
      "stateMutability": "nonpayable",
      "type": "function"
    },
    {
      "inputs": [
        {
          "internalType": "bytes32",
          "name": "postID",
          "type": "bytes32"
        }
      ],
      "name": "getVoteOfReview",
      "outputs": [
        {
          "components": [
            {
              "internalType": "address",
              "name": "curator",
              "type": "address"
            },
            {
              "internalType": "uint256",
              "name": "curatorREP",
              "type": "uint256"
            },
            {
              "internalType": "uint256",
              "name": "curatorVP",
              "type": "uint256"
            }
          ],
          "internalType": "struct Tourism.Vote[]",
          "name": "",
          "type": "tuple[]"
        }
      ],
      "stateMutability": "view",
      "type": "function"
    },
    {
      "inputs": [
        {
          "internalType": "bytes32",
          "name": "",
          "type": "bytes32"
        }
      ],
      "name": "isReviewFromCheckIn",
      "outputs": [
        {
          "internalType": "bool",
          "name": "",
          "type": "bool"
        }
      ],
      "stateMutability": "view",
      "type": "function"
    },
    {
      "inputs": [
        {
          "internalType": "string",
          "name": "",
          "type": "string"
        },
        {
          "internalType": "string",
          "name": "",
          "type": "string"
        }
      ],
      "name": "isVerify",
      "outputs": [
        {
          "internalType": "bool",
          "name": "",
          "type": "bool"
        }
      ],
      "stateMutability": "view",
      "type": "function"
    },
    {
      "inputs": [
        {
          "internalType": "address",
          "name": "",
          "type": "address"
        },
        {
          "internalType": "uint256",
          "name": "",
          "type": "uint256"
        }
      ],
      "name": "listReward",
      "outputs": [
        {
          "internalType": "bytes32",
          "name": "",
          "type": "bytes32"
        }
      ],
      "stateMutability": "view",
      "type": "function"
    },
    {
      "inputs": [
        {
          "internalType": "string",
          "name": "_firstName",
          "type": "string"
        },
        {
          "internalType": "string",
          "name": "_lastName",
          "type": "string"
        },
        {
          "internalType": "string",
          "name": "_phoneNumber",
          "type": "string"
        }
      ],
      "name": "register",
      "outputs": [],
      "stateMutability": "nonpayable",
      "type": "function"
    },
    {
      "inputs": [
        {
          "internalType": "bytes32",
          "name": "",
          "type": "bytes32"
        }
      ],
      "name": "reviewByID",
      "outputs": [
        {
          "internalType": "address",
          "name": "author",
          "type": "address"
        },
        {
          "internalType": "bytes32",
          "name": "postID",
          "type": "bytes32"
        },
        {
          "internalType": "string",
          "name": "placeId",
          "type": "string"
        },
        {
          "internalType": "string",
          "name": "placeName",
          "type": "string"
        },
        {
          "internalType": "string",
          "name": "placeAddress",
          "type": "string"
        },
        {
          "internalType": "uint256",
          "name": "createTime",
          "type": "uint256"
        },
        {
          "internalType": "uint256",
          "name": "rate",
          "type": "uint256"
        },
        {
          "internalType": "string",
          "name": "review",
          "type": "string"
        },
        {
          "internalType": "string",
          "name": "title",
          "type": "string"
        },
        {
          "internalType": "uint256",
          "name": "upvoteNum",
          "type": "uint256"
        }
      ],
      "stateMutability": "view",
      "type": "function"
    },
    {
      "inputs": [
        {
          "internalType": "bytes32",
          "name": "",
          "type": "bytes32"
        }
      ],
      "name": "reviewVerify",
      "outputs": [
        {
          "internalType": "bool",
          "name": "",
          "type": "bool"
        }
      ],
      "stateMutability": "view",
      "type": "function"
    },
    {
      "inputs": [
        {
          "internalType": "bytes32",
          "name": "",
          "type": "bytes32"
        },
        {
          "internalType": "uint256",
          "name": "",
          "type": "uint256"
        }
      ],
      "name": "reviewVotes",
      "outputs": [
        {
          "internalType": "address",
          "name": "curator",
          "type": "address"
        },
        {
          "internalType": "uint256",
          "name": "curatorREP",
          "type": "uint256"
        },
        {
          "internalType": "uint256",
          "name": "curatorVP",
          "type": "uint256"
        }
      ],
      "stateMutability": "view",
      "type": "function"
    },
    {
      "inputs": [
        {
          "internalType": "string",
          "name": "placeID",
          "type": "string"
        },
        {
          "internalType": "bytes32",
          "name": "postID",
          "type": "bytes32"
        },
        {
          "internalType": "string",
          "name": "review",
          "type": "string"
        },
        {
          "internalType": "uint8",
          "name": "rate",
          "type": "uint8"
        },
        {
          "internalType": "string",
          "name": "title",
          "type": "string"
        }
      ],
      "name": "reviews",
      "outputs": [],
      "stateMutability": "nonpayable",
      "type": "function"
    },
    {
      "inputs": [],
      "name": "seeRewardLists",
      "outputs": [
        {
          "internalType": "bytes32[]",
          "name": "",
          "type": "bytes32[]"
        }
      ],
      "stateMutability": "view",
      "type": "function"
    },
    {
      "inputs": [
        {
          "internalType": "address",
          "name": "",
          "type": "address"
        }
      ],
      "name": "touristIdentify",
      "outputs": [
        {
          "internalType": "string",
          "name": "firstName",
          "type": "string"
        },
        {
          "internalType": "string",
          "name": "lastName",
          "type": "string"
        },
        {
          "internalType": "string",
          "name": "phoneNumber",
          "type": "string"
        },
        {
          "internalType": "uint256",
          "name": "REP",
          "type": "uint256"
        },
        {
          "internalType": "uint256",
          "name": "VP",
          "type": "uint256"
        }
      ],
      "stateMutability": "view",
      "type": "function"
    },
    {
      "inputs": [
        {
          "internalType": "address",
          "name": "",
          "type": "address"
        },
        {
          "internalType": "bytes32",
          "name": "",
          "type": "bytes32"
        }
      ],
      "name": "touristRewardOnPostID",
      "outputs": [
        {
          "internalType": "uint256",
          "name": "",
          "type": "uint256"
        }
      ],
      "stateMutability": "view",
      "type": "function"
    },
    {
      "inputs": [
        {
          "internalType": "bytes32",
          "name": "postID",
          "type": "bytes32"
        }
      ],
      "name": "upvote",
      "outputs": [],
      "stateMutability": "nonpayable",
      "type": "function"
    },
    {
      "inputs": [
        {
          "internalType": "bytes32",
          "name": "postID",
          "type": "bytes32"
        },
        {
          "internalType": "string",
          "name": "ticketID",
          "type": "string"
        }
      ],
      "name": "verifyTicket",
      "outputs": [],
      "stateMutability": "nonpayable",
      "type": "function"
    }
  ],
  "bytecode": "0x60806040523480156200001157600080fd5b5060405162005ee038038062005ee08339818101604052810190620000379190620000ec565b60018060003373ffffffffffffffffffffffffffffffffffffffff1673ffffffffffffffffffffffffffffffffffffffff16815260200190815260200160002060006101000a81548160ff021916908315150217905550806000806101000a81548173ffffffffffffffffffffffffffffffffffffffff021916908373ffffffffffffffffffffffffffffffffffffffff1602179055505062000166565b600081519050620000e6816200014c565b92915050565b600060208284031215620000ff57600080fd5b60006200010f84828501620000d5565b91505092915050565b600062000125826200012c565b9050919050565b600073ffffffffffffffffffffffffffffffffffffffff82169050919050565b620001578162000118565b81146200016357600080fd5b50565b615d6a80620001766000396000f3fe608060405234801561001057600080fd5b50600436106101da5760003560e01c80636ca9121111610104578063aa6e1305116100a2578063f21bb4c511610071578063f21bb4c51461061a578063f52109bd14610636578063f5c62ac614610666578063fed9a3fe14610682576101da565b8063aa6e130514610596578063b69f58e2146105c6578063da64f0f5146105e2578063ed8b56a7146105fe576101da565b80638a13eea7116100de5780638a13eea7146105105780638a9419aa1461052e5780639216483d1461054a578063a5b1f44d1461057a576101da565b80636ca912111461048b57806370480275146104c45780638213c3c1146104e0576101da565b80634aff09d51161017c5780635d02e4bc1161014b5780635d02e4bc146103ed578063625336651461040b578063640e11d31461043f57806366cde05f1461046f576101da565b80634aff09d5146103385780634cd08d03146103685780634f9d325f146103845780635643618e146103bd576101da565b80633359f6f2116101b85780633359f6f21461026f5780633379318d1461029f5780633aa9d488146102cf5780634a8b6f9e146102ff576101da565b806303c7013b146101df578063153b1ea01461020f5780631fd1e0411461023f575b600080fd5b6101f960048036038101906101f491906144c2565b6106b4565b6040516102069190615550565b60405180910390f35b61022960048036038101906102249190614421565b610a4b565b60405161023691906151f5565b60405180910390f35b6102596004803603810190610254919061467b565b610e42565b604051610266919061525b565b60405180910390f35b610289600480360381019061028491906144c2565b610e9d565b604051610296919061525b565b60405180910390f35b6102b960048036038101906102b491906144c2565b610ebd565b6040516102c6919061525b565b60405180910390f35b6102e960048036038101906102e4919061444a565b610edd565b6040516102f69190615550565b60405180910390f35b610319600480360381019061031491906144c2565b610f02565b60405161032f9a999897969594939291906150b4565b60405180910390f35b610352600480360381019061034d919061457b565b61121e565b60405161035f91906152ac565b60405180910390f35b610382600480360381019061037d91906146e7565b6112d4565b005b61039e6004803603810190610399919061477e565b6114e7565b6040516103b49a999897969594939291906150b4565b60405180910390f35b6103d760048036038101906103d291906144c2565b611836565b6040516103e49190615217565b60405180910390f35b6103f5611912565b60405161040291906151d3565b60405180910390f35b61042560048036038101906104209190614421565b6119a7565b60405161043695949392919061531a565b60405180910390f35b6104596004803603810190610454919061457b565b611b75565b60405161046691906152ac565b60405180910390f35b610489600480360381019061048491906144eb565b611c2b565b005b6104a560048036038101906104a09190614486565b611ec1565b6040516104bb9a999897969594939291906150b4565b60405180910390f35b6104de60048036038101906104d99190614421565b6121fa565b005b6104fa60048036038101906104f5919061457b565b6122e7565b6040516105079190615239565b60405180910390f35b610518612383565b6040516105259190615291565b60405180910390f35b610548600480360381019061054391906144c2565b6123a7565b005b610564600480360381019061055f9190614486565b612a38565b6040516105719190615276565b60405180910390f35b610594600480360381019061058f91906144c2565b612a69565b005b6105b060048036038101906105ab919061457b565b612fa2565b6040516105bd91906151f5565b60405180910390f35b6105e060048036038101906105db91906144c2565b613378565b005b6105fc60048036038101906105f7919061467b565b6134eb565b005b610618600480360381019061061391906146e7565b613542565b005b610634600480360381019061062f919061457b565b613640565b005b610650600480360381019061064b919061477e565b61382f565b60405161065d919061556b565b60405180910390f35b610680600480360381019061067b91906145bc565b613888565b005b61069c6004803603810190610697919061453f565b614174565b6040516106ab9392919061519c565b60405180910390f35b60008060001b600a60008481526020019081526020016000206001015414156106dc57600080fd5b60011515600b600084815260200190815260200160002060009054906101000a900460ff1615151461070d57600080fd5b600061071883611836565b90506000600a60008581526020019081526020016000206009015490506000600a600086815260200190815260200160002060000160009054906101000a900473ffffffffffffffffffffffffffffffffffffffff1690506000600360008373ffffffffffffffffffffffffffffffffffffffff1673ffffffffffffffffffffffffffffffffffffffff1681526020019081526020016000206040518060a00160405290816000820180546107cc9061590d565b80601f01602080910402602001604051908101604052809291908181526020018280546107f89061590d565b80156108455780601f1061081a57610100808354040283529160200191610845565b820191906000526020600020905b81548152906001019060200180831161082857829003601f168201915b5050505050815260200160018201805461085e9061590d565b80601f016020809104026020016040519081016040528092919081815260200182805461088a9061590d565b80156108d75780601f106108ac576101008083540402835291602001916108d7565b820191906000526020600020905b8154815290600101906020018083116108ba57829003601f168201915b505050505081526020016002820180546108f09061590d565b80601f016020809104026020016040519081016040528092919081815260200182805461091c9061590d565b80156109695780601f1061093e57610100808354040283529160200191610969565b820191906000526020600020905b81548152906001019060200180831161094c57829003601f168201915b50505050508152602001600382015481526020016004820154815250509050600080600090506000805b86811015610a1d578781815181106109d4577f4e487b7100000000000000000000000000000000000000000000000000000000600052603260045260246000fd5b60200260200101516020015193506001846109ef9190615794565b836109fa919061570d565b92508382610a08919061570d565b91508080610a159061598a565b915050610993565b5060018460600151610a2f9190615794565b82610a3a919061570d565b915081975050505050505050919050565b6060600460008373ffffffffffffffffffffffffffffffffffffffff1673ffffffffffffffffffffffffffffffffffffffff168152602001908152602001600020805480602002602001604051908101604052809291908181526020016000905b82821015610e3757838290600052602060002090600a0201604051806101400160405290816000820160009054906101000a900473ffffffffffffffffffffffffffffffffffffffff1673ffffffffffffffffffffffffffffffffffffffff1673ffffffffffffffffffffffffffffffffffffffff16815260200160018201548152602001600282018054610b409061590d565b80601f0160208091040260200160405190810160405280929190818152602001828054610b6c9061590d565b8015610bb95780601f10610b8e57610100808354040283529160200191610bb9565b820191906000526020600020905b815481529060010190602001808311610b9c57829003601f168201915b50505050508152602001600382018054610bd29061590d565b80601f0160208091040260200160405190810160405280929190818152602001828054610bfe9061590d565b8015610c4b5780601f10610c2057610100808354040283529160200191610c4b565b820191906000526020600020905b815481529060010190602001808311610c2e57829003601f168201915b50505050508152602001600482018054610c649061590d565b80601f0160208091040260200160405190810160405280929190818152602001828054610c909061590d565b8015610cdd5780601f10610cb257610100808354040283529160200191610cdd565b820191906000526020600020905b815481529060010190602001808311610cc057829003601f168201915b505050505081526020016005820154815260200160068201548152602001600782018054610d0a9061590d565b80601f0160208091040260200160405190810160405280929190818152602001828054610d369061590d565b8015610d835780601f10610d5857610100808354040283529160200191610d83565b820191906000526020600020905b815481529060010190602001808311610d6657829003601f168201915b50505050508152602001600882018054610d9c9061590d565b80601f0160208091040260200160405190810160405280929190818152602001828054610dc89061590d565b8015610e155780601f10610dea57610100808354040283529160200191610e15565b820191906000526020600020905b815481529060010190602001808311610df857829003601f168201915b5050505050815260200160098201548152505081526020019060010190610aac565b505050509050919050565b600e82805160208101820180518482526020830160208501208183528095505050505050818051602081018201805184825260208301602085012081835280955050505050506000915091509054906101000a900460ff1681565b600b6020528060005260406000206000915054906101000a900460ff1681565b600c6020528060005260406000206000915054906101000a900460ff1681565b6011602052816000526040600020602052806000526040600020600091509150505481565b600a6020528060005260406000206000915090508060000160009054906101000a900473ffffffffffffffffffffffffffffffffffffffff1690806001015490806002018054610f519061590d565b80601f0160208091040260200160405190810160405280929190818152602001828054610f7d9061590d565b8015610fca5780601f10610f9f57610100808354040283529160200191610fca565b820191906000526020600020905b815481529060010190602001808311610fad57829003601f168201915b505050505090806003018054610fdf9061590d565b80601f016020809104026020016040519081016040528092919081815260200182805461100b9061590d565b80156110585780601f1061102d57610100808354040283529160200191611058565b820191906000526020600020905b81548152906001019060200180831161103b57829003601f168201915b50505050509080600401805461106d9061590d565b80601f01602080910402602001604051908101604052809291908181526020018280546110999061590d565b80156110e65780601f106110bb576101008083540402835291602001916110e6565b820191906000526020600020905b8154815290600101906020018083116110c957829003601f168201915b5050505050908060050154908060060154908060070180546111079061590d565b80601f01602080910402602001604051908101604052809291908181526020018280546111339061590d565b80156111805780601f1061115557610100808354040283529160200191611180565b820191906000526020600020905b81548152906001019060200180831161116357829003601f168201915b5050505050908060080180546111959061590d565b80601f01602080910402602001604051908101604052809291908181526020018280546111c19061590d565b801561120e5780601f106111e35761010080835404028352916020019161120e565b820191906000526020600020905b8154815290600101906020018083116111f157829003601f168201915b505050505090806009015490508a565b60068180516020810182018051848252602083016020850120818352809550505050505060009150905080546112539061590d565b80601f016020809104026020016040519081016040528092919081815260200182805461127f9061590d565b80156112cc5780601f106112a1576101008083540402835291602001916112cc565b820191906000526020600020905b8154815290600101906020018083116112af57829003601f168201915b505050505081565b60001515600260003373ffffffffffffffffffffffffffffffffffffffff1673ffffffffffffffffffffffffffffffffffffffff16815260200190815260200160002060009054906101000a900460ff16151514611367576040517f08c379a000000000000000000000000000000000000000000000000000000000815260040161135e90615499565b60405180910390fd5b61136f6141db565b838160000181905250828160200181905250818160400181905250600f816060018181525050606481608001818152505080600360003373ffffffffffffffffffffffffffffffffffffffff1673ffffffffffffffffffffffffffffffffffffffff16815260200190815260200160002060008201518160000190805190602001906113fc92919061420a565b50602082015181600101908051906020019061141992919061420a565b50604082015181600201908051906020019061143692919061420a565b5060608201518160030155608082015181600401559050506001600260003373ffffffffffffffffffffffffffffffffffffffff1673ffffffffffffffffffffffffffffffffffffffff16815260200190815260200160002060006101000a81548160ff0219169083151502179055507faa1e896fff678c49360d15cc36fa676c42d6d8e1f187b2049125f6475924f5c28484846040516114d9939291906152ce565b60405180910390a150505050565b600882805160208101820180518482526020830160208501208183528095505050505050818154811061151957600080fd5b90600052602060002090600a0201600091509150508060000160009054906101000a900473ffffffffffffffffffffffffffffffffffffffff16908060010154908060020180546115699061590d565b80601f01602080910402602001604051908101604052809291908181526020018280546115959061590d565b80156115e25780601f106115b7576101008083540402835291602001916115e2565b820191906000526020600020905b8154815290600101906020018083116115c557829003601f168201915b5050505050908060030180546115f79061590d565b80601f01602080910402602001604051908101604052809291908181526020018280546116239061590d565b80156116705780601f1061164557610100808354040283529160200191611670565b820191906000526020600020905b81548152906001019060200180831161165357829003601f168201915b5050505050908060040180546116859061590d565b80601f01602080910402602001604051908101604052809291908181526020018280546116b19061590d565b80156116fe5780601f106116d3576101008083540402835291602001916116fe565b820191906000526020600020905b8154815290600101906020018083116116e157829003601f168201915b50505050509080600501549080600601549080600701805461171f9061590d565b80601f016020809104026020016040519081016040528092919081815260200182805461174b9061590d565b80156117985780601f1061176d57610100808354040283529160200191611798565b820191906000526020600020905b81548152906001019060200180831161177b57829003601f168201915b5050505050908060080180546117ad9061590d565b80601f01602080910402602001604051908101604052809291908181526020018280546117d99061590d565b80156118265780601f106117fb57610100808354040283529160200191611826565b820191906000526020600020905b81548152906001019060200180831161180957829003601f168201915b505050505090806009015490508a565b606060106000838152602001908152602001600020805480602002602001604051908101604052809291908181526020016000905b8282101561190757838290600052602060002090600302016040518060600160405290816000820160009054906101000a900473ffffffffffffffffffffffffffffffffffffffff1673ffffffffffffffffffffffffffffffffffffffff1673ffffffffffffffffffffffffffffffffffffffff168152602001600182015481526020016002820154815250508152602001906001019061186b565b505050509050919050565b6060600560003373ffffffffffffffffffffffffffffffffffffffff1673ffffffffffffffffffffffffffffffffffffffff16815260200190815260200160002080548060200260200160405190810160405280929190818152602001828054801561199d57602002820191906000526020600020905b815481526020019060010190808311611989575b5050505050905090565b60036020528060005260406000206000915090508060000180546119ca9061590d565b80601f01602080910402602001604051908101604052809291908181526020018280546119f69061590d565b8015611a435780601f10611a1857610100808354040283529160200191611a43565b820191906000526020600020905b815481529060010190602001808311611a2657829003601f168201915b505050505090806001018054611a589061590d565b80601f0160208091040260200160405190810160405280929190818152602001828054611a849061590d565b8015611ad15780601f10611aa657610100808354040283529160200191611ad1565b820191906000526020600020905b815481529060010190602001808311611ab457829003601f168201915b505050505090806002018054611ae69061590d565b80601f0160208091040260200160405190810160405280929190818152602001828054611b129061590d565b8015611b5f5780601f10611b3457610100808354040283529160200191611b5f565b820191906000526020600020905b815481529060010190602001808311611b4257829003601f168201915b5050505050908060030154908060040154905085565b6007818051602081018201805184825260208301602085012081835280955050505050506000915090508054611baa9061590d565b80601f0160208091040260200160405190810160405280929190818152602001828054611bd69061590d565b8015611c235780601f10611bf857610100808354040283529160200191611c23565b820191906000526020600020905b815481529060010190602001808311611c0657829003601f168201915b505050505081565b6000600a600084815260200190815260200160002090506000801b600a6000858152602001908152602001600020600101541415611ca057826040517fd7b18dd0000000000000000000000000000000000000000000000000000000008152600401611c979190615276565b60405180910390fd5b60001515600d82600201604051611cb79190615082565b908152602001604051809103902083604051611cd3919061506b565b908152602001604051809103902060009054906101000a900460ff1615151415611d395780600201826040517f8973e97b000000000000000000000000000000000000000000000000000000008152600401611d30929190615382565b60405180910390fd5b60011515600e82600201604051611d509190615082565b908152602001604051809103902083604051611d6c919061506b565b908152602001604051809103902060009054906101000a900460ff1615151415611dd25780600201826040517f9bb37424000000000000000000000000000000000000000000000000000000008152600401611dc9929190615382565b60405180910390fd5b60011515600b600085815260200190815260200160002060009054906101000a900460ff1615151415611e3a576040517f08c379a0000000000000000000000000000000000000000000000000000000008152600401611e31906153b9565b60405180910390fd5b6001600e82600201604051611e4f9190615082565b908152602001604051809103902083604051611e6b919061506b565b908152602001604051809103902060006101000a81548160ff0219169083151502179055506001600b600085815260200190815260200160002060006101000a81548160ff021916908315150217905550505050565b60046020528160005260406000208181548110611edd57600080fd5b90600052602060002090600a0201600091509150508060000160009054906101000a900473ffffffffffffffffffffffffffffffffffffffff1690806001015490806002018054611f2d9061590d565b80601f0160208091040260200160405190810160405280929190818152602001828054611f599061590d565b8015611fa65780601f10611f7b57610100808354040283529160200191611fa6565b820191906000526020600020905b815481529060010190602001808311611f8957829003601f168201915b505050505090806003018054611fbb9061590d565b80601f0160208091040260200160405190810160405280929190818152602001828054611fe79061590d565b80156120345780601f1061200957610100808354040283529160200191612034565b820191906000526020600020905b81548152906001019060200180831161201757829003601f168201915b5050505050908060040180546120499061590d565b80601f01602080910402602001604051908101604052809291908181526020018280546120759061590d565b80156120c25780601f10612097576101008083540402835291602001916120c2565b820191906000526020600020905b8154815290600101906020018083116120a557829003601f168201915b5050505050908060050154908060060154908060070180546120e39061590d565b80601f016020809104026020016040519081016040528092919081815260200182805461210f9061590d565b801561215c5780601f106121315761010080835404028352916020019161215c565b820191906000526020600020905b81548152906001019060200180831161213f57829003601f168201915b5050505050908060080180546121719061590d565b80601f016020809104026020016040519081016040528092919081815260200182805461219d9061590d565b80156121ea5780601f106121bf576101008083540402835291602001916121ea565b820191906000526020600020905b8154815290600101906020018083116121cd57829003601f168201915b505050505090806009015490508a565b60011515600160003373ffffffffffffffffffffffffffffffffffffffff1673ffffffffffffffffffffffffffffffffffffffff16815260200190815260200160002060009054906101000a900460ff1615151461228d576040517f08c379a000000000000000000000000000000000000000000000000000000000815260040161228490615479565b60405180910390fd5b60018060008373ffffffffffffffffffffffffffffffffffffffff1673ffffffffffffffffffffffffffffffffffffffff16815260200190815260200160002060006101000a81548160ff02191690831515021790555050565b60606009826040516122f9919061506b565b908152602001604051809103902080548060200260200160405190810160405280929190818152602001828054801561237757602002820191906000526020600020906000905b82829054906101000a900460ff1660ff16815260200190600101906020826000010492830192600103820291508084116123405790505b50505050509050919050565b60008054906101000a900473ffffffffffffffffffffffffffffffffffffffff1681565b6000801b600a600083815260200190815260200160002060010154141561240557806040517fd7b18dd00000000000000000000000000000000000000000000000000000000081526004016123fc9190615276565b60405180910390fd5b60001515600b600083815260200190815260200160002060009054906101000a900460ff161515141561246d576040517f08c379a000000000000000000000000000000000000000000000000000000000815260040161246490615459565b60405180910390fd5b600080600a600084815260200190815260200160002060000160009054906101000a900473ffffffffffffffffffffffffffffffffffffffff16905060006124b4846106b4565b9250600060106000868152602001908152602001600020805480602002602001604051908101604052809291908181526020016000905b8282101561258757838290600052602060002090600302016040518060600160405290816000820160009054906101000a900473ffffffffffffffffffffffffffffffffffffffff1673ffffffffffffffffffffffffffffffffffffffff1673ffffffffffffffffffffffffffffffffffffffff16815260200160018201548152602001600282015481525050815260200190600101906124eb565b50505050905060005b81518110156125fe578181815181106125d2577f4e487b7100000000000000000000000000000000000000000000000000000000600052603260045260246000fd5b602002602001015160200151836125e9919061570d565b925080806125f69061598a565b915050612590565b50670de0b6b3a7640000846126139190615794565b935060006064604b866126269190615794565b6126309190615763565b905080601160008673ffffffffffffffffffffffffffffffffffffffff1673ffffffffffffffffffffffffffffffffffffffff168152602001908152602001600020600088815260200190815260200160002081905550600560008573ffffffffffffffffffffffffffffffffffffffff1673ffffffffffffffffffffffffffffffffffffffff168152602001908152602001600020869080600181540180825580915050600190039060005260206000200160009091909190915055600060646019876126fe9190615794565b6127089190615763565b905060005b83518110156128fd576000848281518110612751577f4e487b7100000000000000000000000000000000000000000000000000000000600052603260045260246000fd5b602002602001015160200151866127689190615763565b9050600081141561277857600190505b60008583815181106127b3577f4e487b7100000000000000000000000000000000000000000000000000000000600052603260045260246000fd5b602002602001015160000151905060008684815181106127fc577f4e487b7100000000000000000000000000000000000000000000000000000000600052603260045260246000fd5b6020026020010151602001519050600560008373ffffffffffffffffffffffffffffffffffffffff1673ffffffffffffffffffffffffffffffffffffffff1681526020019081526020016000208b9080600181540180825580915050600190039060005260206000200160009091909190915055606481848761287f9190615763565b6128899190615794565b6128939190615763565b601160008473ffffffffffffffffffffffffffffffffffffffff1673ffffffffffffffffffffffffffffffffffffffff16815260200190815260200160002060008d81526020019081526020016000208190555050505080806128f59061598a565b91505061270d565b506000600360008773ffffffffffffffffffffffffffffffffffffffff1673ffffffffffffffffffffffffffffffffffffffff168152602001908152602001600020905073__$3e2427aeaacc18228dd15a2d9075e742dc$__63677342ce866040518263ffffffff1660e01b81526004016129789190615535565b60206040518083038186803b15801561299057600080fd5b505af41580156129a4573d6000803e3d6000fd5b505050506040513d601f19601f820116820180604052508101906129c891906147d2565b6fffffffffffffffffffffffffffffffff168160030160008282546129ed919061570d565b925050819055508183897f134a256b30e79278465eb4be19c959a4c1f253707afe0d5eddcf9a2738a6a6b487604051612a269190615217565b60405180910390a45050505050505050565b60056020528160005260406000208181548110612a5457600080fd5b90600052602060002001600091509150505481565b6000801b600a6000838152602001908152602001600020600101541415612a8f57600080fd5b60001515600260003373ffffffffffffffffffffffffffffffffffffffff1673ffffffffffffffffffffffffffffffffffffffff16815260200190815260200160002060009054906101000a900460ff1615151415612b2557336040517f1063935d000000000000000000000000000000000000000000000000000000008152600401612b1c9190615099565b60405180910390fd5b60001515600f60003373ffffffffffffffffffffffffffffffffffffffff1673ffffffffffffffffffffffffffffffffffffffff168152602001908152602001600020600083815260200190815260200160002060009054906101000a900460ff16151514612bc9576040517f08c379a0000000000000000000000000000000000000000000000000000000008152600401612bc0906153f9565b60405180910390fd5b6000600360003373ffffffffffffffffffffffffffffffffffffffff1673ffffffffffffffffffffffffffffffffffffffff16815260200190815260200160002090506002816004015410158015612c2657506064816004015411155b612c65576040517f08c379a0000000000000000000000000000000000000000000000000000000008152600401612c5c90615439565b60405180910390fd5b6000600a60008481526020019081526020016000209050806009016000815480929190612c919061598a565b91905055506000816002018054612ca79061590d565b80601f0160208091040260200160405190810160405280929190818152602001828054612cd39061590d565b8015612d205780601f10612cf557610100808354040283529160200191612d20565b820191906000526020600020905b815481529060010190602001808311612d0357829003601f168201915b505050505090506000600882604051612d39919061506b565b9081526020016040518091039020905060005b8180549050811015612e1e5785828281548110612d92577f4e487b7100000000000000000000000000000000000000000000000000000000600052603260045260246000fd5b90600052602060002090600a0201600101541415612e0b57818181548110612de3577f4e487b7100000000000000000000000000000000000000000000000000000000600052603260045260246000fd5b90600052602060002090600a02016009016000815480929190612e059061598a565b91905055505b8080612e169061598a565b915050612d4c565b50612e27614290565b33816000019073ffffffffffffffffffffffffffffffffffffffff16908173ffffffffffffffffffffffffffffffffffffffff1681525050846003015481602001818152505084600401548160400181815250506010600087815260200190815260200160002081908060018154018082558091505060019003906000526020600020906003020160009091909190915060008201518160000160006101000a81548173ffffffffffffffffffffffffffffffffffffffff021916908373ffffffffffffffffffffffffffffffffffffffff160217905550602082015181600101556040820151816002015550506002856004016000828254612f2a91906157ee565b925050819055506001600f60003373ffffffffffffffffffffffffffffffffffffffff1673ffffffffffffffffffffffffffffffffffffffff168152602001908152602001600020600088815260200190815260200160002060006101000a81548160ff021916908315150217905550505050505050565b6060600882604051612fb4919061506b565b9081526020016040518091039020805480602002602001604051908101604052809291908181526020016000905b8282101561336d57838290600052602060002090600a0201604051806101400160405290816000820160009054906101000a900473ffffffffffffffffffffffffffffffffffffffff1673ffffffffffffffffffffffffffffffffffffffff1673ffffffffffffffffffffffffffffffffffffffff168152602001600182015481526020016002820180546130769061590d565b80601f01602080910402602001604051908101604052809291908181526020018280546130a29061590d565b80156130ef5780601f106130c4576101008083540402835291602001916130ef565b820191906000526020600020905b8154815290600101906020018083116130d257829003601f168201915b505050505081526020016003820180546131089061590d565b80601f01602080910402602001604051908101604052809291908181526020018280546131349061590d565b80156131815780601f1061315657610100808354040283529160200191613181565b820191906000526020600020905b81548152906001019060200180831161316457829003601f168201915b5050505050815260200160048201805461319a9061590d565b80601f01602080910402602001604051908101604052809291908181526020018280546131c69061590d565b80156132135780601f106131e857610100808354040283529160200191613213565b820191906000526020600020905b8154815290600101906020018083116131f657829003601f168201915b5050505050815260200160058201548152602001600682015481526020016007820180546132409061590d565b80601f016020809104026020016040519081016040528092919081815260200182805461326c9061590d565b80156132b95780601f1061328e576101008083540402835291602001916132b9565b820191906000526020600020905b81548152906001019060200180831161329c57829003601f168201915b505050505081526020016008820180546132d29061590d565b80601f01602080910402602001604051908101604052809291908181526020018280546132fe9061590d565b801561334b5780601f106133205761010080835404028352916020019161334b565b820191906000526020600020905b81548152906001019060200180831161332e57829003601f168201915b5050505050815260200160098201548152505081526020019060010190612fe2565b505050509050919050565b6000601160003373ffffffffffffffffffffffffffffffffffffffff1673ffffffffffffffffffffffffffffffffffffffff1681526020019081526020016000206000838152602001908152602001600020541161340b576040517f08c379a0000000000000000000000000000000000000000000000000000000008152600401613402906153d9565b60405180910390fd5b60008054906101000a900473ffffffffffffffffffffffffffffffffffffffff1673ffffffffffffffffffffffffffffffffffffffff1663d02b789d33601160003373ffffffffffffffffffffffffffffffffffffffff1673ffffffffffffffffffffffffffffffffffffffff1681526020019081526020016000206000858152602001908152602001600020546040518363ffffffff1660e01b81526004016134b6929190615173565b600060405180830381600087803b1580156134d057600080fd5b505af11580156134e4573d6000803e3d6000fd5b5050505050565b6001600d836040516134fd919061506b565b908152602001604051809103902082604051613519919061506b565b908152602001604051809103902060006101000a81548160ff0219169083151502179055505050565b60011515600160003373ffffffffffffffffffffffffffffffffffffffff1673ffffffffffffffffffffffffffffffffffffffff16815260200190815260200160002060009054906101000a900460ff161515146135d5576040517f08c379a00000000000000000000000000000000000000000000000000000000081526004016135cc90615479565b60405180910390fd5b816006846040516135e6919061506b565b9081526020016040518091039020908051906020019061360792919061420a565b5080600784604051613619919061506b565b9081526020016040518091039020908051906020019061363a92919061420a565b50505050565b60001515600260003373ffffffffffffffffffffffffffffffffffffffff1673ffffffffffffffffffffffffffffffffffffffff16815260200190815260200160002060009054906101000a900460ff16151514156136d657336040517f1063935d0000000000000000000000000000000000000000000000000000000081526004016136cd9190615099565b60405180910390fd5b60006006826040516136e8919061506b565b908152602001604051809103902080546137019061590d565b9050141561374657806040517f8f6b29cc00000000000000000000000000000000000000000000000000000000815260040161373d91906152ac565b60405180910390fd5b6000334260405160200161375b92919061503f565b6040516020818303038152906040528051906020012090506001600c600083815260200190815260200160002060006101000a81548160ff021916908315150217905550816040516137ad919061506b565b6040518091039020817f1a865a887b9be34cda5d006b75fa778b95a96c8dc9197d66da6e82f8dc5a064a600360003373ffffffffffffffffffffffffffffffffffffffff1673ffffffffffffffffffffffffffffffffffffffff16815260200190815260200160002060405161382391906154b9565b60405180910390a35050565b600982805160208101820180518482526020830160208501208183528095505050505050818154811061386157600080fd5b9060005260206000209060209182820401919006915091509054906101000a900460ff1681565b60001515600260003373ffffffffffffffffffffffffffffffffffffffff1673ffffffffffffffffffffffffffffffffffffffff16815260200190815260200160002060009054906101000a900460ff161515141561391e57336040517f1063935d0000000000000000000000000000000000000000000000000000000081526004016139159190615099565b60405180910390fd5b6000600686604051613930919061506b565b908152602001604051809103902080546139499061590d565b9050141561398e57846040517f8f6b29cc00000000000000000000000000000000000000000000000000000000815260040161398591906152ac565b60405180910390fd5b6000801b8414156139d1573385848484426040516020016139b496959493929190614fdb565b604051602081830303815290604052805190602001209350613a61565b60011515600c600086815260200190815260200160002060009054906101000a900460ff1615151415613a5b576001600b600086815260200190815260200160002060006101000a81548160ff0219169083151502179055506000600c600086815260200190815260200160002060006101000a81548160ff021916908315150217905550613a60565b600080fd5b5b60008260ff1610158015613a79575060328260ff1611155b613ab8576040517f08c379a0000000000000000000000000000000000000000000000000000000008152600401613aaf90615419565b60405180910390fd5b613ac06142c7565b8481602001818152505033816000019073ffffffffffffffffffffffffffffffffffffffff16908173ffffffffffffffffffffffffffffffffffffffff1681525050858160400181905250838160e001819052508260ff168160c001818152505081816101000181905250428160a0018181525050600686604051613b45919061506b565b90815260200160405180910390208054613b5e9061590d565b80601f0160208091040260200160405190810160405280929190818152602001828054613b8a9061590d565b8015613bd75780601f10613bac57610100808354040283529160200191613bd7565b820191906000526020600020905b815481529060010190602001808311613bba57829003601f168201915b50505050508160600181905250600786604051613bf4919061506b565b90815260200160405180910390208054613c0d9061590d565b80601f0160208091040260200160405190810160405280929190818152602001828054613c399061590d565b8015613c865780601f10613c5b57610100808354040283529160200191613c86565b820191906000526020600020905b815481529060010190602001808311613c6957829003601f168201915b5050505050816080018190525060008161012001818152505080600a60008360200151815260200190815260200160002060008201518160000160006101000a81548173ffffffffffffffffffffffffffffffffffffffff021916908373ffffffffffffffffffffffffffffffffffffffff160217905550602082015181600101556040820151816002019080519060200190613d2492919061420a565b506060820151816003019080519060200190613d4192919061420a565b506080820151816004019080519060200190613d5e92919061420a565b5060a0820151816005015560c0820151816006015560e0820151816007019080519060200190613d8f92919061420a565b50610100820151816008019080519060200190613dad92919061420a565b506101208201518160090155905050600460003373ffffffffffffffffffffffffffffffffffffffff1673ffffffffffffffffffffffffffffffffffffffff1681526020019081526020016000208190806001815401808255809150506001900390600052602060002090600a020160009091909190915060008201518160000160006101000a81548173ffffffffffffffffffffffffffffffffffffffff021916908373ffffffffffffffffffffffffffffffffffffffff160217905550602082015181600101556040820151816002019080519060200190613e9292919061420a565b506060820151816003019080519060200190613eaf92919061420a565b506080820151816004019080519060200190613ecc92919061420a565b5060a0820151816005015560c0820151816006015560e0820151816007019080519060200190613efd92919061420a565b50610100820151816008019080519060200190613f1b92919061420a565b5061012082015181600901555050600886604051613f39919061506b565b90815260200160405180910390208190806001815401808255809150506001900390600052602060002090600a020160009091909190915060008201518160000160006101000a81548173ffffffffffffffffffffffffffffffffffffffff021916908373ffffffffffffffffffffffffffffffffffffffff160217905550602082015181600101556040820151816002019080519060200190613fde92919061420a565b506060820151816003019080519060200190613ffb92919061420a565b50608082015181600401908051906020019061401892919061420a565b5060a0820151816005015560c0820151816006015560e082015181600701908051906020019061404992919061420a565b5061010082015181600801908051906020019061406792919061420a565b5061012082015181600901555050600986604051614085919061506b565b90815260200160405180910390208390806001815401808255809150506001900390600052602060002090602091828204019190069091909190916101000a81548160ff021916908360ff160217905550856040516140e4919061506b565b604051809103902081602001517f1489f5fcb1961e9678cb60f519640b9666aac5567303748ef7fc4b880b4fb891600360003373ffffffffffffffffffffffffffffffffffffffff1673ffffffffffffffffffffffffffffffffffffffff16815260200190815260200160002087878760405161416494939291906154db565b60405180910390a3505050505050565b6010602052816000526040600020818154811061419057600080fd5b9060005260206000209060030201600091509150508060000160009054906101000a900473ffffffffffffffffffffffffffffffffffffffff16908060010154908060020154905083565b6040518060a0016040528060608152602001606081526020016060815260200160008152602001600081525090565b8280546142169061590d565b90600052602060002090601f016020900481019282614238576000855561427f565b82601f1061425157805160ff191683800117855561427f565b8280016001018555821561427f579182015b8281111561427e578251825591602001919060010190614263565b5b50905061428c9190614333565b5090565b6040518060600160405280600073ffffffffffffffffffffffffffffffffffffffff16815260200160008152602001600081525090565b604051806101400160405280600073ffffffffffffffffffffffffffffffffffffffff1681526020016000801916815260200160608152602001606081526020016060815260200160008152602001600081526020016060815260200160608152602001600081525090565b5b8082111561434c576000816000905550600101614334565b5090565b600061436361435e846155ab565b615586565b90508281526020810184848401111561437b57600080fd5b6143868482856158cb565b509392505050565b60008135905061439d81615cc1565b92915050565b6000813590506143b281615cd8565b92915050565b600082601f8301126143c957600080fd5b81356143d9848260208601614350565b91505092915050565b6000815190506143f181615cef565b92915050565b60008135905061440681615d06565b92915050565b60008135905061441b81615d1d565b92915050565b60006020828403121561443357600080fd5b60006144418482850161438e565b91505092915050565b6000806040838503121561445d57600080fd5b600061446b8582860161438e565b925050602061447c858286016143a3565b9150509250929050565b6000806040838503121561449957600080fd5b60006144a78582860161438e565b92505060206144b8858286016143f7565b9150509250929050565b6000602082840312156144d457600080fd5b60006144e2848285016143a3565b91505092915050565b600080604083850312156144fe57600080fd5b600061450c858286016143a3565b925050602083013567ffffffffffffffff81111561452957600080fd5b614535858286016143b8565b9150509250929050565b6000806040838503121561455257600080fd5b6000614560858286016143a3565b9250506020614571858286016143f7565b9150509250929050565b60006020828403121561458d57600080fd5b600082013567ffffffffffffffff8111156145a757600080fd5b6145b3848285016143b8565b91505092915050565b600080600080600060a086880312156145d457600080fd5b600086013567ffffffffffffffff8111156145ee57600080fd5b6145fa888289016143b8565b955050602061460b888289016143a3565b945050604086013567ffffffffffffffff81111561462857600080fd5b614634888289016143b8565b93505060606146458882890161440c565b925050608086013567ffffffffffffffff81111561466257600080fd5b61466e888289016143b8565b9150509295509295909350565b6000806040838503121561468e57600080fd5b600083013567ffffffffffffffff8111156146a857600080fd5b6146b4858286016143b8565b925050602083013567ffffffffffffffff8111156146d157600080fd5b6146dd858286016143b8565b9150509250929050565b6000806000606084860312156146fc57600080fd5b600084013567ffffffffffffffff81111561471657600080fd5b614722868287016143b8565b935050602084013567ffffffffffffffff81111561473f57600080fd5b61474b868287016143b8565b925050604084013567ffffffffffffffff81111561476857600080fd5b614774868287016143b8565b9150509250925092565b6000806040838503121561479157600080fd5b600083013567ffffffffffffffff8111156147ab57600080fd5b6147b7858286016143b8565b92505060206147c8858286016143f7565b9150509250929050565b6000602082840312156147e457600080fd5b60006147f2848285016143e2565b91505092915050565b60006148078383614a2a565b60208301905092915050565b600061481f8383614d91565b905092915050565b60006148338383614f20565b60608301905092915050565b600061484b8383614fa6565b60208301905092915050565b6148608161582c565b82525050565b61486f8161582c565b82525050565b6148866148818261582c565b6159d3565b82525050565b600061489782615631565b6148a1818561569c565b93506148ac836155dc565b8060005b838110156148dd5781516148c488826147fb565b97506148cf83615668565b9250506001810190506148b0565b5085935050505092915050565b60006148f58261563c565b6148ff81856156ad565b935083602082028501614911856155ec565b8060005b8581101561494d578484038952815161492e8582614813565b945061493983615675565b925060208a01995050600181019050614915565b50829750879550505050505092915050565b600061496a82615647565b61497481856156be565b935061497f836155fc565b8060005b838110156149b05781516149978882614827565b97506149a283615682565b925050600181019050614983565b5085935050505092915050565b60006149c882615652565b6149d281856156cf565b93506149dd8361560c565b8060005b83811015614a0e5781516149f5888261483f565b9750614a008361568f565b9250506001810190506149e1565b5085935050505092915050565b614a248161583e565b82525050565b614a338161584a565b82525050565b614a428161584a565b82525050565b614a51816158a7565b82525050565b6000614a628261565d565b614a6c81856156e0565b9350614a7c8185602086016158da565b614a8581615acf565b840191505092915050565b6000614a9b8261565d565b614aa581856156f1565b9350614ab58185602086016158da565b614abe81615acf565b840191505092915050565b6000614ad48261565d565b614ade8185615702565b9350614aee8185602086016158da565b80840191505092915050565b60008154614b078161590d565b614b1181866156e0565b94506001821660008114614b2c5760018114614b3e57614b71565b60ff1983168652602086019350614b71565b614b478561561c565b60005b83811015614b6957815481890152600182019150602081019050614b4a565b808801955050505b50505092915050565b60008154614b878161590d565b614b9181866156f1565b94506001821660008114614bac5760018114614bbe57614bf1565b60ff1983168652602086019350614bf1565b614bc78561561c565b60005b83811015614be957815481890152600182019150602081019050614bca565b808801955050505b50505092915050565b60008154614c078161590d565b614c118186615702565b94506001821660008114614c2c5760018114614c3d57614c70565b60ff19831686528186019350614c70565b614c468561561c565b60005b83811015614c6857815481890152600182019150602081019050614c49565b838801955050505b50505092915050565b6000614c866016836156f1565b9150614c9182615b07565b602082019050919050565b6000614ca9600e836156f1565b9150614cb482615b30565b602082019050919050565b6000614ccc6023836156f1565b9150614cd782615b59565b604082019050919050565b6000614cef6013836156f1565b9150614cfa82615ba8565b602082019050919050565b6000614d126022836156f1565b9150614d1d82615bd1565b604082019050919050565b6000614d35600c836156f1565b9150614d4082615c20565b602082019050919050565b6000614d586021836156f1565b9150614d6382615c49565b604082019050919050565b6000614d7b601d836156f1565b9150614d8682615c98565b602082019050919050565b600061014083016000830151614daa6000860182614857565b506020830151614dbd6020860182614a2a565b5060408301518482036040860152614dd58282614a57565b91505060608301518482036060860152614def8282614a57565b91505060808301518482036080860152614e098282614a57565b91505060a0830151614e1e60a0860182614f62565b5060c0830151614e3160c0860182614f62565b5060e083015184820360e0860152614e498282614a57565b915050610100830151848203610100860152614e658282614a57565b915050610120830151614e7c610120860182614f62565b508091505092915050565b600060a0830160008084018583036000870152614ea48382614afa565b925050600184018583036020870152614ebd8382614afa565b925050600284018583036040870152614ed68382614afa565b92505060038401549050614ee98161593f565b614ef66060870182614f62565b5060048401549050614f078161593f565b614f146080870182614f62565b50819250505092915050565b606082016000820151614f366000850182614857565b506020820151614f496020850182614f62565b506040820151614f5c6040850182614f62565b50505050565b614f6b81615890565b82525050565b614f7a81615890565b82525050565b614f8981615890565b82525050565b614fa0614f9b82615890565b6159f7565b82525050565b614faf8161589a565b82525050565b614fbe8161589a565b82525050565b614fd5614fd08261589a565b615a01565b82525050565b6000614fe78289614875565b601482019150614ff78288614ac9565b91506150038287614ac9565b915061500f8286614fc4565b60018201915061501f8285614ac9565b915061502b8284614f8f565b602082019150819050979650505050505050565b600061504b8285614875565b60148201915061505b8284614f8f565b6020820191508190509392505050565b60006150778284614ac9565b915081905092915050565b600061508e8284614bfa565b915081905092915050565b60006020820190506150ae6000830184614866565b92915050565b6000610140820190506150ca600083018d614866565b6150d7602083018c614a39565b81810360408301526150e9818b614a90565b905081810360608301526150fd818a614a90565b905081810360808301526151118189614a90565b905061512060a0830188614f71565b61512d60c0830187614f71565b81810360e083015261513f8186614a90565b90508181036101008301526151548185614a90565b9050615164610120830184614f71565b9b9a5050505050505050505050565b60006040820190506151886000830185614866565b6151956020830184614f71565b9392505050565b60006060820190506151b16000830186614866565b6151be6020830185614f71565b6151cb6040830184614f71565b949350505050565b600060208201905081810360008301526151ed818461488c565b905092915050565b6000602082019050818103600083015261520f81846148ea565b905092915050565b60006020820190508181036000830152615231818461495f565b905092915050565b6000602082019050818103600083015261525381846149bd565b905092915050565b60006020820190506152706000830184614a1b565b92915050565b600060208201905061528b6000830184614a39565b92915050565b60006020820190506152a66000830184614a48565b92915050565b600060208201905081810360008301526152c68184614a90565b905092915050565b600060608201905081810360008301526152e88186614a90565b905081810360208301526152fc8185614a90565b905081810360408301526153108184614a90565b9050949350505050565b600060a08201905081810360008301526153348188614a90565b905081810360208301526153488187614a90565b9050818103604083015261535c8186614a90565b905061536b6060830185614f71565b6153786080830184614f71565b9695505050505050565b6000604082019050818103600083015261539c8185614b7a565b905081810360208301526153b08184614a90565b90509392505050565b600060208201905081810360008301526153d281614c79565b9050919050565b600060208201905081810360008301526153f281614c9c565b9050919050565b6000602082019050818103600083015261541281614cbf565b9050919050565b6000602082019050818103600083015261543281614ce2565b9050919050565b6000602082019050818103600083015261545281614d05565b9050919050565b6000602082019050818103600083015261547281614d28565b9050919050565b6000602082019050818103600083015261549281614d4b565b9050919050565b600060208201905081810360008301526154b281614d6e565b9050919050565b600060208201905081810360008301526154d38184614e87565b905092915050565b600060808201905081810360008301526154f58187614e87565b905081810360208301526155098186614a90565b90506155186040830185614fb5565b818103606083015261552a8184614a90565b905095945050505050565b600060208201905061554a6000830184614f80565b92915050565b60006020820190506155656000830184614f71565b92915050565b60006020820190506155806000830184614fb5565b92915050565b60006155906155a1565b905061559c8282615959565b919050565b6000604051905090565b600067ffffffffffffffff8211156155c6576155c5615aa0565b5b6155cf82615acf565b9050602081019050919050565b6000819050602082019050919050565b6000819050602082019050919050565b6000819050602082019050919050565b6000819050602082019050919050565b60008190508160005260206000209050919050565b600081519050919050565b600081519050919050565b600081519050919050565b600081519050919050565b600081519050919050565b6000602082019050919050565b6000602082019050919050565b6000602082019050919050565b6000602082019050919050565b600082825260208201905092915050565b600082825260208201905092915050565b600082825260208201905092915050565b600082825260208201905092915050565b600082825260208201905092915050565b600082825260208201905092915050565b600081905092915050565b600061571882615890565b915061572383615890565b9250827fffffffffffffffffffffffffffffffffffffffffffffffffffffffffffffffff0382111561575857615757615a13565b5b828201905092915050565b600061576e82615890565b915061577983615890565b92508261578957615788615a42565b5b828204905092915050565b600061579f82615890565b91506157aa83615890565b9250817fffffffffffffffffffffffffffffffffffffffffffffffffffffffffffffffff04831182151516156157e3576157e2615a13565b5b828202905092915050565b60006157f982615890565b915061580483615890565b92508282101561581757615816615a13565b5b828203905092915050565b6000819050919050565b600061583782615870565b9050919050565b60008115159050919050565b6000819050919050565b60006fffffffffffffffffffffffffffffffff82169050919050565b600073ffffffffffffffffffffffffffffffffffffffff82169050919050565b6000819050919050565b600060ff82169050919050565b60006158b2826158b9565b9050919050565b60006158c482615870565b9050919050565b82818337600083830152505050565b60005b838110156158f85780820151818401526020810190506158dd565b83811115615907576000848401525b50505050565b6000600282049050600182168061592557607f821691505b6020821081141561593957615938615a71565b5b50919050565b600061595261594d83615afa565b615822565b9050919050565b61596282615acf565b810181811067ffffffffffffffff8211171561598157615980615aa0565b5b80604052505050565b600061599582615890565b91507fffffffffffffffffffffffffffffffffffffffffffffffffffffffffffffffff8214156159c8576159c7615a13565b5b600182019050919050565b60006159de826159e5565b9050919050565b60006159f082615aed565b9050919050565b6000819050919050565b6000615a0c82615ae0565b9050919050565b7f4e487b7100000000000000000000000000000000000000000000000000000000600052601160045260246000fd5b7f4e487b7100000000000000000000000000000000000000000000000000000000600052601260045260246000fd5b7f4e487b7100000000000000000000000000000000000000000000000000000000600052602260045260246000fd5b7f4e487b7100000000000000000000000000000000000000000000000000000000600052604160045260246000fd5b6000601f19601f8301169050919050565b60008160f81b9050919050565b60008160601b9050919050565b60008160001c9050919050565b7f5468697320506f73742048617320566572696669656400000000000000000000600082015250565b7f496e76616c696420526577617264000000000000000000000000000000000000600082015250565b7f54686973206163636f756e7420697320766f74656420666f722074686973207060008201527f6f73740000000000000000000000000000000000000000000000000000000000602082015250565b7f556e76616c6964206e756d626572207261746500000000000000000000000000600082015250565b7f566f74696e6720506f776572206e6f7420656e6f75676820666f72207570766f60008201527f7465000000000000000000000000000000000000000000000000000000000000602082015250565b7f4e6f742056657269666965640000000000000000000000000000000000000000600082015250565b7f4f6e6c792061646d696e2063616e2063616c6c20746869732066756e6374696f60008201527f6e00000000000000000000000000000000000000000000000000000000000000602082015250565b7f54686973206164647265737320686173206265656e2065786973746564000000600082015250565b615cca8161582c565b8114615cd557600080fd5b50565b615ce18161584a565b8114615cec57600080fd5b50565b615cf881615854565b8114615d0357600080fd5b50565b615d0f81615890565b8114615d1a57600080fd5b50565b615d268161589a565b8114615d3157600080fd5b5056fea2646970667358221220bfefa2ecb710eebe2f30dd4626baede22cef6b6ceab7d115a18d8fd29dc6624164736f6c63430008040033",
  "linkReferences": {
    "contracts/Tourism.sol": {
      "Math": [
        {
          "length": 20,
          "start": 10937
        }
      ]
    }
  },
  "deployedLinkReferences": {
    "contracts/Tourism.sol": {
      "Math": [
        {
          "length": 20,
          "start": 10563
        }
      ]
    }
  }
}