{
  "_format": "hh-sol-artifact-1",
  "contractName": "Tourism",
  "sourceName": "contracts/Tourism.sol",
  "abi": [
    {
      "inputs": [
        {
          "internalType": "address",
          "name": "ERC20_address",
          "type": "address"
        }
      ],
      "stateMutability": "nonpayable",
      "type": "constructor"
    },
    {
      "inputs": [
        {
          "internalType": "string",
          "name": "PlaceID",
          "type": "string"
        }
      ],
      "name": "InvalidPlaceID",
      "type": "error"
    },
    {
      "inputs": [
        {
          "internalType": "bytes32",
          "name": "PostID",
          "type": "bytes32"
        }
      ],
      "name": "InvalidPostID",
      "type": "error"
    },
    {
      "inputs": [
        {
          "internalType": "string",
          "name": "PlaceID",
          "type": "string"
        },
        {
          "internalType": "string",
          "name": "TicketID",
          "type": "string"
        }
      ],
      "name": "InvalidTicketID",
      "type": "error"
    },
    {
      "inputs": [
        {
          "internalType": "address",
          "name": "Address",
          "type": "address"
        }
      ],
      "name": "NotRegister",
      "type": "error"
    },
    {
      "inputs": [
        {
          "internalType": "string",
          "name": "PlaceID",
          "type": "string"
        },
        {
          "internalType": "string",
          "name": "TicketID",
          "type": "string"
        }
      ],
      "name": "TicketIsVerified",
      "type": "error"
    },
    {
      "anonymous": false,
      "inputs": [
        {
          "indexed": true,
          "internalType": "bytes32",
          "name": "postID",
          "type": "bytes32"
        },
        {
          "indexed": true,
          "internalType": "string",
          "name": "placeID",
          "type": "string"
        },
        {
          "components": [
            {
              "internalType": "string",
              "name": "firstName",
              "type": "string"
            },
            {
              "internalType": "string",
              "name": "lastName",
              "type": "string"
            },
            {
              "internalType": "string",
              "name": "phoneNumber",
              "type": "string"
            },
            {
              "internalType": "uint256",
              "name": "REP",
              "type": "uint256"
            },
            {
              "internalType": "uint256",
              "name": "VP",
              "type": "uint256"
            }
          ],
          "indexed": false,
          "internalType": "struct Tourism.Tourist",
          "name": "tourist",
          "type": "tuple"
        }
      ],
      "name": "CheckIn",
      "type": "event"
    },
    {
      "anonymous": false,
      "inputs": [
        {
          "indexed": true,
          "internalType": "bytes32",
          "name": "postID",
          "type": "bytes32"
        },
        {
          "indexed": true,
          "internalType": "uint256",
          "name": "authorReward",
          "type": "uint256"
        },
        {
          "indexed": true,
          "internalType": "uint256",
          "name": "curatorsReward",
          "type": "uint256"
        },
        {
          "components": [
            {
              "internalType": "address",
              "name": "curator",
              "type": "address"
            },
            {
              "internalType": "uint256",
              "name": "curatorREP",
              "type": "uint256"
            },
            {
              "internalType": "uint256",
              "name": "curatorVP",
              "type": "uint256"
            }
          ],
          "indexed": false,
          "internalType": "struct Tourism.Vote[]",
          "name": "upvotes",
          "type": "tuple[]"
        }
      ],
      "name": "DivideRewardBy4R",
      "type": "event"
    },
    {
      "anonymous": false,
      "inputs": [
        {
          "components": [
            {
              "internalType": "string",
              "name": "firstName",
              "type": "string"
            },
            {
              "internalType": "string",
              "name": "lastName",
              "type": "string"
            },
            {
              "internalType": "string",
              "name": "phoneNumber",
              "type": "string"
            },
            {
              "internalType": "uint256",
              "name": "REP",
              "type": "uint256"
            },
            {
              "internalType": "uint256",
              "name": "VP",
              "type": "uint256"
            }
          ],
          "indexed": false,
          "internalType": "struct Tourism.Tourist",
          "name": "tourist",
          "type": "tuple"
        },
        {
          "indexed": true,
          "internalType": "bytes32",
          "name": "postID",
          "type": "bytes32"
        },
        {
          "indexed": true,
          "internalType": "string",
          "name": "PlaceName",
          "type": "string"
        },
        {
          "indexed": false,
          "internalType": "string",
          "name": "review",
          "type": "string"
        },
        {
          "indexed": false,
          "internalType": "uint8",
          "name": "rate",
          "type": "uint8"
        },
        {
          "indexed": false,
          "internalType": "string",
          "name": "title",
          "type": "string"
        }
      ],
      "name": "PostReview",
      "type": "event"
    },
    {
      "anonymous": false,
      "inputs": [
        {
          "indexed": false,
          "internalType": "string",
          "name": "_firstName",
          "type": "string"
        },
        {
          "indexed": false,
          "internalType": "string",
          "name": "_lastName",
          "type": "string"
        },
        {
          "indexed": false,
          "internalType": "string",
          "name": "_phoneNumber",
          "type": "string"
        }
      ],
      "name": "Register",
      "type": "event"
    },
    {
      "inputs": [
        {
          "internalType": "address",
          "name": "",
          "type": "address"
        },
        {
          "internalType": "uint256",
          "name": "",
          "type": "uint256"
        }
      ],
      "name": "TouristReviews",
      "outputs": [
        {
          "internalType": "address",
          "name": "author",
          "type": "address"
        },
        {
          "internalType": "bytes32",
          "name": "postID",
          "type": "bytes32"
        },
        {
          "internalType": "string",
          "name": "placeId",
          "type": "string"
        },
        {
          "internalType": "string",
          "name": "placeName",
          "type": "string"
        },
        {
          "internalType": "string",
          "name": "placeAddress",
          "type": "string"
        },
        {
          "internalType": "uint256",
          "name": "createTime",
          "type": "uint256"
        },
        {
          "internalType": "uint256",
          "name": "rate",
          "type": "uint256"
        },
        {
          "internalType": "string",
          "name": "review",
          "type": "string"
        },
        {
          "internalType": "string",
          "name": "title",
          "type": "string"
        },
        {
          "internalType": "uint256",
          "name": "upvoteNum",
          "type": "uint256"
        }
      ],
      "stateMutability": "view",
      "type": "function"
    },
    {
      "inputs": [
        {
          "internalType": "address",
          "name": "userAddress",
          "type": "address"
        }
      ],
      "name": "addAdmin",
      "outputs": [],
      "stateMutability": "nonpayable",
      "type": "function"
    },
    {
      "inputs": [
        {
          "internalType": "string",
          "name": "_id",
          "type": "string"
        },
        {
          "internalType": "string",
          "name": "destinationName",
          "type": "string"
        },
        {
          "internalType": "string",
          "name": "destinationAddr",
          "type": "string"
        }
      ],
      "name": "addDestination",
      "outputs": [],
      "stateMutability": "nonpayable",
      "type": "function"
    },
    {
      "inputs": [
        {
          "internalType": "string",
          "name": "placeId",
          "type": "string"
        },
        {
          "internalType": "string",
          "name": "ticketId",
          "type": "string"
        }
      ],
      "name": "addPlaceTicket",
      "outputs": [],
      "stateMutability": "nonpayable",
      "type": "function"
    },
    {
      "inputs": [
        {
          "internalType": "bytes32",
          "name": "postID",
          "type": "bytes32"
        }
      ],
      "name": "calculateTotalReward",
      "outputs": [
        {
          "internalType": "uint256",
          "name": "",
          "type": "uint256"
        }
      ],
      "stateMutability": "view",
      "type": "function"
    },
    {
      "inputs": [
        {
          "internalType": "string",
          "name": "placeID",
          "type": "string"
        }
      ],
      "name": "checkIn",
      "outputs": [],
      "stateMutability": "nonpayable",
      "type": "function"
    },
    {
      "inputs": [
        {
          "internalType": "string",
          "name": "",
          "type": "string"
        }
      ],
      "name": "destinationAddress",
      "outputs": [
        {
          "internalType": "string",
          "name": "",
          "type": "string"
        }
      ],
      "stateMutability": "view",
      "type": "function"
    },
    {
      "inputs": [
        {
          "internalType": "string",
          "name": "",
          "type": "string"
        }
      ],
      "name": "destinationIdentify",
      "outputs": [
        {
          "internalType": "string",
          "name": "",
          "type": "string"
        }
      ],
      "stateMutability": "view",
      "type": "function"
    },
    {
      "inputs": [
        {
          "internalType": "string",
          "name": "",
          "type": "string"
        },
        {
          "internalType": "uint256",
          "name": "",
          "type": "uint256"
        }
      ],
      "name": "destinationRates",
      "outputs": [
        {
          "internalType": "uint8",
          "name": "",
          "type": "uint8"
        }
      ],
      "stateMutability": "view",
      "type": "function"
    },
    {
      "inputs": [
        {
          "internalType": "string",
          "name": "",
          "type": "string"
        },
        {
          "internalType": "uint256",
          "name": "",
          "type": "uint256"
        }
      ],
      "name": "destinationReviews",
      "outputs": [
        {
          "internalType": "address",
          "name": "author",
          "type": "address"
        },
        {
          "internalType": "bytes32",
          "name": "postID",
          "type": "bytes32"
        },
        {
          "internalType": "string",
          "name": "placeId",
          "type": "string"
        },
        {
          "internalType": "string",
          "name": "placeName",
          "type": "string"
        },
        {
          "internalType": "string",
          "name": "placeAddress",
          "type": "string"
        },
        {
          "internalType": "uint256",
          "name": "createTime",
          "type": "uint256"
        },
        {
          "internalType": "uint256",
          "name": "rate",
          "type": "uint256"
        },
        {
          "internalType": "string",
          "name": "review",
          "type": "string"
        },
        {
          "internalType": "string",
          "name": "title",
          "type": "string"
        },
        {
          "internalType": "uint256",
          "name": "upvoteNum",
          "type": "uint256"
        }
      ],
      "stateMutability": "view",
      "type": "function"
    },
    {
      "inputs": [
        {
          "internalType": "bytes32",
          "name": "postID",
          "type": "bytes32"
        }
      ],
      "name": "divideRewardBy4R",
      "outputs": [],
      "stateMutability": "nonpayable",
      "type": "function"
    },
    {
      "inputs": [],
      "name": "erc20Token",
      "outputs": [
        {
          "internalType": "contract IERC20With4RMechanism",
          "name": "",
          "type": "address"
        }
      ],
      "stateMutability": "view",
      "type": "function"
    },
    {
      "inputs": [
        {
          "internalType": "string",
          "name": "_id",
          "type": "string"
        }
      ],
      "name": "getAllReviewsOfDestinations",
      "outputs": [
        {
          "components": [
            {
              "internalType": "address",
              "name": "author",
              "type": "address"
            },
            {
              "internalType": "bytes32",
              "name": "postID",
              "type": "bytes32"
            },
            {
              "internalType": "string",
              "name": "placeId",
              "type": "string"
            },
            {
              "internalType": "string",
              "name": "placeName",
              "type": "string"
            },
            {
              "internalType": "string",
              "name": "placeAddress",
              "type": "string"
            },
            {
              "internalType": "uint256",
              "name": "createTime",
              "type": "uint256"
            },
            {
              "internalType": "uint256",
              "name": "rate",
              "type": "uint256"
            },
            {
              "internalType": "string",
              "name": "review",
              "type": "string"
            },
            {
              "internalType": "string",
              "name": "title",
              "type": "string"
            },
            {
              "internalType": "uint256",
              "name": "upvoteNum",
              "type": "uint256"
            }
          ],
          "internalType": "struct Tourism.Review[]",
          "name": "",
          "type": "tuple[]"
        }
      ],
      "stateMutability": "view",
      "type": "function"
    },
    {
      "inputs": [
        {
          "internalType": "address",
          "name": "touristAddress",
          "type": "address"
        }
      ],
      "name": "getAllReviewsOfTourist",
      "outputs": [
        {
          "components": [
            {
              "internalType": "address",
              "name": "author",
              "type": "address"
            },
            {
              "internalType": "bytes32",
              "name": "postID",
              "type": "bytes32"
            },
            {
              "internalType": "string",
              "name": "placeId",
              "type": "string"
            },
            {
              "internalType": "string",
              "name": "placeName",
              "type": "string"
            },
            {
              "internalType": "string",
              "name": "placeAddress",
              "type": "string"
            },
            {
              "internalType": "uint256",
              "name": "createTime",
              "type": "uint256"
            },
            {
              "internalType": "uint256",
              "name": "rate",
              "type": "uint256"
            },
            {
              "internalType": "string",
              "name": "review",
              "type": "string"
            },
            {
              "internalType": "string",
              "name": "title",
              "type": "string"
            },
            {
              "internalType": "uint256",
              "name": "upvoteNum",
              "type": "uint256"
            }
          ],
          "internalType": "struct Tourism.Review[]",
          "name": "",
          "type": "tuple[]"
        }
      ],
      "stateMutability": "view",
      "type": "function"
    },
    {
      "inputs": [
        {
          "internalType": "string",
          "name": "placeID",
          "type": "string"
        }
      ],
      "name": "getDestinationRates",
      "outputs": [
        {
          "internalType": "uint8[]",
          "name": "",
          "type": "uint8[]"
        }
      ],
      "stateMutability": "view",
      "type": "function"
    },
    {
      "inputs": [
        {
          "internalType": "bytes32",
          "name": "postID",
          "type": "bytes32"
        }
      ],
      "name": "getRewardPoint",
      "outputs": [],
      "stateMutability": "nonpayable",
      "type": "function"
    },
    {
      "inputs": [
        {
          "internalType": "bytes32",
          "name": "postID",
          "type": "bytes32"
        }
      ],
      "name": "getVoteOfReview",
      "outputs": [
        {
          "components": [
            {
              "internalType": "address",
              "name": "curator",
              "type": "address"
            },
            {
              "internalType": "uint256",
              "name": "curatorREP",
              "type": "uint256"
            },
            {
              "internalType": "uint256",
              "name": "curatorVP",
              "type": "uint256"
            }
          ],
          "internalType": "struct Tourism.Vote[]",
          "name": "",
          "type": "tuple[]"
        }
      ],
      "stateMutability": "view",
      "type": "function"
    },
    {
      "inputs": [
        {
          "internalType": "bytes32",
          "name": "",
          "type": "bytes32"
        }
      ],
      "name": "isReviewFromCheckIn",
      "outputs": [
        {
          "internalType": "bool",
          "name": "",
          "type": "bool"
        }
      ],
      "stateMutability": "view",
      "type": "function"
    },
    {
      "inputs": [
        {
          "internalType": "string",
          "name": "",
          "type": "string"
        },
        {
          "internalType": "string",
          "name": "",
          "type": "string"
        }
      ],
      "name": "isVerify",
      "outputs": [
        {
          "internalType": "bool",
          "name": "",
          "type": "bool"
        }
      ],
      "stateMutability": "view",
      "type": "function"
    },
    {
      "inputs": [
        {
          "internalType": "address",
          "name": "",
          "type": "address"
        },
        {
          "internalType": "bytes32",
          "name": "",
          "type": "bytes32"
        }
      ],
      "name": "isVoted",
      "outputs": [
        {
          "internalType": "bool",
          "name": "",
          "type": "bool"
        }
      ],
      "stateMutability": "view",
      "type": "function"
    },
    {
      "inputs": [
        {
          "internalType": "address",
          "name": "",
          "type": "address"
        },
        {
          "internalType": "uint256",
          "name": "",
          "type": "uint256"
        }
      ],
      "name": "listReward",
      "outputs": [
        {
          "internalType": "bytes32",
          "name": "",
          "type": "bytes32"
        }
      ],
      "stateMutability": "view",
      "type": "function"
    },
    {
      "inputs": [
        {
          "internalType": "string",
          "name": "_firstName",
          "type": "string"
        },
        {
          "internalType": "string",
          "name": "_lastName",
          "type": "string"
        },
        {
          "internalType": "string",
          "name": "_phoneNumber",
          "type": "string"
        }
      ],
      "name": "register",
      "outputs": [],
      "stateMutability": "nonpayable",
      "type": "function"
    },
    {
      "inputs": [
        {
          "internalType": "bytes32",
          "name": "",
          "type": "bytes32"
        }
      ],
      "name": "reviewByID",
      "outputs": [
        {
          "internalType": "address",
          "name": "author",
          "type": "address"
        },
        {
          "internalType": "bytes32",
          "name": "postID",
          "type": "bytes32"
        },
        {
          "internalType": "string",
          "name": "placeId",
          "type": "string"
        },
        {
          "internalType": "string",
          "name": "placeName",
          "type": "string"
        },
        {
          "internalType": "string",
          "name": "placeAddress",
          "type": "string"
        },
        {
          "internalType": "uint256",
          "name": "createTime",
          "type": "uint256"
        },
        {
          "internalType": "uint256",
          "name": "rate",
          "type": "uint256"
        },
        {
          "internalType": "string",
          "name": "review",
          "type": "string"
        },
        {
          "internalType": "string",
          "name": "title",
          "type": "string"
        },
        {
          "internalType": "uint256",
          "name": "upvoteNum",
          "type": "uint256"
        }
      ],
      "stateMutability": "view",
      "type": "function"
    },
    {
      "inputs": [
        {
          "internalType": "bytes32",
          "name": "",
          "type": "bytes32"
        }
      ],
      "name": "reviewVerify",
      "outputs": [
        {
          "internalType": "bool",
          "name": "",
          "type": "bool"
        }
      ],
      "stateMutability": "view",
      "type": "function"
    },
    {
      "inputs": [
        {
          "internalType": "bytes32",
          "name": "",
          "type": "bytes32"
        },
        {
          "internalType": "uint256",
          "name": "",
          "type": "uint256"
        }
      ],
      "name": "reviewVotes",
      "outputs": [
        {
          "internalType": "address",
          "name": "curator",
          "type": "address"
        },
        {
          "internalType": "uint256",
          "name": "curatorREP",
          "type": "uint256"
        },
        {
          "internalType": "uint256",
          "name": "curatorVP",
          "type": "uint256"
        }
      ],
      "stateMutability": "view",
      "type": "function"
    },
    {
      "inputs": [
        {
          "internalType": "string",
          "name": "placeID",
          "type": "string"
        },
        {
          "internalType": "bytes32",
          "name": "postID",
          "type": "bytes32"
        },
        {
          "internalType": "string",
          "name": "review",
          "type": "string"
        },
        {
          "internalType": "uint8",
          "name": "rate",
          "type": "uint8"
        },
        {
          "internalType": "string",
          "name": "title",
          "type": "string"
        }
      ],
      "name": "reviews",
      "outputs": [],
      "stateMutability": "nonpayable",
      "type": "function"
    },
    {
      "inputs": [],
      "name": "seeRewardLists",
      "outputs": [
        {
          "internalType": "bytes32[]",
          "name": "",
          "type": "bytes32[]"
        }
      ],
      "stateMutability": "view",
      "type": "function"
    },
    {
      "inputs": [
        {
          "internalType": "address",
          "name": "",
          "type": "address"
        }
      ],
      "name": "touristIdentify",
      "outputs": [
        {
          "internalType": "string",
          "name": "firstName",
          "type": "string"
        },
        {
          "internalType": "string",
          "name": "lastName",
          "type": "string"
        },
        {
          "internalType": "string",
          "name": "phoneNumber",
          "type": "string"
        },
        {
          "internalType": "uint256",
          "name": "REP",
          "type": "uint256"
        },
        {
          "internalType": "uint256",
          "name": "VP",
          "type": "uint256"
        }
      ],
      "stateMutability": "view",
      "type": "function"
    },
    {
      "inputs": [
        {
          "internalType": "address",
          "name": "",
          "type": "address"
        },
        {
          "internalType": "bytes32",
          "name": "",
          "type": "bytes32"
        }
      ],
      "name": "touristRewardOnPostID",
      "outputs": [
        {
          "internalType": "uint256",
          "name": "",
          "type": "uint256"
        }
      ],
      "stateMutability": "view",
      "type": "function"
    },
    {
      "inputs": [
        {
          "internalType": "bytes32",
          "name": "postID",
          "type": "bytes32"
        }
      ],
      "name": "upvote",
      "outputs": [],
      "stateMutability": "nonpayable",
      "type": "function"
    },
    {
      "inputs": [
        {
          "internalType": "bytes32",
          "name": "postID",
          "type": "bytes32"
        },
        {
          "internalType": "string",
          "name": "ticketID",
          "type": "string"
        }
      ],
      "name": "verifyTicket",
      "outputs": [],
      "stateMutability": "nonpayable",
      "type": "function"
    }
  ],
  "bytecode": "0x60806040523480156200001157600080fd5b5060405162005f4a38038062005f4a8339818101604052810190620000379190620000ec565b60018060003373ffffffffffffffffffffffffffffffffffffffff1673ffffffffffffffffffffffffffffffffffffffff16815260200190815260200160002060006101000a81548160ff021916908315150217905550806000806101000a81548173ffffffffffffffffffffffffffffffffffffffff021916908373ffffffffffffffffffffffffffffffffffffffff1602179055505062000166565b600081519050620000e6816200014c565b92915050565b600060208284031215620000ff57600080fd5b60006200010f84828501620000d5565b91505092915050565b600062000125826200012c565b9050919050565b600073ffffffffffffffffffffffffffffffffffffffff82169050919050565b620001578162000118565b81146200016357600080fd5b50565b615dd480620001766000396000f3fe608060405234801561001057600080fd5b50600436106101e55760003560e01c806366cde05f1161010f578063aa6e1305116100a2578063f21bb4c511610071578063f21bb4c514610655578063f52109bd14610671578063f5c62ac6146106a1578063fed9a3fe146106bd576101e5565b8063aa6e1305146105d1578063b69f58e214610601578063da64f0f51461061d578063ed8b56a714610639576101e5565b80638a13eea7116100de5780638a13eea71461054b5780638a9419aa146105695780639216483d14610585578063a5b1f44d146105b5576101e5565b806366cde05f146104aa5780636ca91211146104c657806370480275146104ff5780638213c3c11461051b576101e5565b80634a8b6f9e116101875780635643618e116101565780635643618e146103f85780635d02e4bc146104285780636253366514610446578063640e11d31461047a576101e5565b80634a8b6f9e1461033a5780634aff09d5146103735780634cd08d03146103a35780634f9d325f146103bf576101e5565b80632d70ad5c116101c35780632d70ad5c1461027a5780633359f6f2146102aa5780633379318d146102da5780633aa9d4881461030a576101e5565b806303c7013b146101ea578063153b1ea01461021a5780631fd1e0411461024a575b600080fd5b61020460048036038101906101ff919061452c565b6106ef565b60405161021191906155ba565b60405180910390f35b610234600480360381019061022f919061448b565b610a86565b604051610241919061525f565b60405180910390f35b610264600480360381019061025f91906146e5565b610e7d565b60405161027191906152c5565b60405180910390f35b610294600480360381019061028f91906144b4565b610ed8565b6040516102a191906152c5565b60405180910390f35b6102c460048036038101906102bf919061452c565b610f07565b6040516102d191906152c5565b60405180910390f35b6102f460048036038101906102ef919061452c565b610f27565b60405161030191906152c5565b60405180910390f35b610324600480360381019061031f91906144b4565b610f47565b60405161033191906155ba565b60405180910390f35b610354600480360381019061034f919061452c565b610f6c565b60405161036a9a9998979695949392919061511e565b60405180910390f35b61038d600480360381019061038891906145e5565b611288565b60405161039a9190615316565b60405180910390f35b6103bd60048036038101906103b89190614751565b61133e565b005b6103d960048036038101906103d491906147e8565b611551565b6040516103ef9a9998979695949392919061511e565b60405180910390f35b610412600480360381019061040d919061452c565b6118a0565b60405161041f9190615281565b60405180910390f35b61043061197c565b60405161043d919061523d565b60405180910390f35b610460600480360381019061045b919061448b565b611a11565b604051610471959493929190615384565b60405180910390f35b610494600480360381019061048f91906145e5565b611bdf565b6040516104a19190615316565b60405180910390f35b6104c460048036038101906104bf9190614555565b611c95565b005b6104e060048036038101906104db91906144f0565b611f2b565b6040516104f69a9998979695949392919061511e565b60405180910390f35b6105196004803603810190610514919061448b565b612264565b005b610535600480360381019061053091906145e5565b612351565b60405161054291906152a3565b60405180910390f35b6105536123ed565b60405161056091906152fb565b60405180910390f35b610583600480360381019061057e919061452c565b612411565b005b61059f600480360381019061059a91906144f0565b612aa2565b6040516105ac91906152e0565b60405180910390f35b6105cf60048036038101906105ca919061452c565b612ad3565b005b6105eb60048036038101906105e691906145e5565b61300c565b6040516105f8919061525f565b60405180910390f35b61061b6004803603810190610616919061452c565b6133e2565b005b610637600480360381019061063291906146e5565b613555565b005b610653600480360381019061064e9190614751565b6135ac565b005b61066f600480360381019061066a91906145e5565b6136aa565b005b61068b600480360381019061068691906147e8565b613899565b60405161069891906155d5565b60405180910390f35b6106bb60048036038101906106b69190614626565b6138f2565b005b6106d760048036038101906106d291906145a9565b6141de565b6040516106e693929190615206565b60405180910390f35b60008060001b600a600084815260200190815260200160002060010154141561071757600080fd5b60011515600b600084815260200190815260200160002060009054906101000a900460ff1615151461074857600080fd5b6000610753836118a0565b90506000600a60008581526020019081526020016000206009015490506000600a600086815260200190815260200160002060000160009054906101000a900473ffffffffffffffffffffffffffffffffffffffff1690506000600360008373ffffffffffffffffffffffffffffffffffffffff1673ffffffffffffffffffffffffffffffffffffffff1681526020019081526020016000206040518060a001604052908160008201805461080790615977565b80601f016020809104026020016040519081016040528092919081815260200182805461083390615977565b80156108805780601f1061085557610100808354040283529160200191610880565b820191906000526020600020905b81548152906001019060200180831161086357829003601f168201915b5050505050815260200160018201805461089990615977565b80601f01602080910402602001604051908101604052809291908181526020018280546108c590615977565b80156109125780601f106108e757610100808354040283529160200191610912565b820191906000526020600020905b8154815290600101906020018083116108f557829003601f168201915b5050505050815260200160028201805461092b90615977565b80601f016020809104026020016040519081016040528092919081815260200182805461095790615977565b80156109a45780601f10610979576101008083540402835291602001916109a4565b820191906000526020600020905b81548152906001019060200180831161098757829003601f168201915b50505050508152602001600382015481526020016004820154815250509050600080600090506000805b86811015610a5857878181518110610a0f577f4e487b7100000000000000000000000000000000000000000000000000000000600052603260045260246000fd5b6020026020010151602001519350600184610a2a91906157fe565b83610a359190615777565b92508382610a439190615777565b91508080610a50906159f4565b9150506109ce565b5060018460600151610a6a91906157fe565b82610a759190615777565b915081975050505050505050919050565b6060600460008373ffffffffffffffffffffffffffffffffffffffff1673ffffffffffffffffffffffffffffffffffffffff168152602001908152602001600020805480602002602001604051908101604052809291908181526020016000905b82821015610e7257838290600052602060002090600a0201604051806101400160405290816000820160009054906101000a900473ffffffffffffffffffffffffffffffffffffffff1673ffffffffffffffffffffffffffffffffffffffff1673ffffffffffffffffffffffffffffffffffffffff16815260200160018201548152602001600282018054610b7b90615977565b80601f0160208091040260200160405190810160405280929190818152602001828054610ba790615977565b8015610bf45780601f10610bc957610100808354040283529160200191610bf4565b820191906000526020600020905b815481529060010190602001808311610bd757829003601f168201915b50505050508152602001600382018054610c0d90615977565b80601f0160208091040260200160405190810160405280929190818152602001828054610c3990615977565b8015610c865780601f10610c5b57610100808354040283529160200191610c86565b820191906000526020600020905b815481529060010190602001808311610c6957829003601f168201915b50505050508152602001600482018054610c9f90615977565b80601f0160208091040260200160405190810160405280929190818152602001828054610ccb90615977565b8015610d185780601f10610ced57610100808354040283529160200191610d18565b820191906000526020600020905b815481529060010190602001808311610cfb57829003601f168201915b505050505081526020016005820154815260200160068201548152602001600782018054610d4590615977565b80601f0160208091040260200160405190810160405280929190818152602001828054610d7190615977565b8015610dbe5780601f10610d9357610100808354040283529160200191610dbe565b820191906000526020600020905b815481529060010190602001808311610da157829003601f168201915b50505050508152602001600882018054610dd790615977565b80601f0160208091040260200160405190810160405280929190818152602001828054610e0390615977565b8015610e505780601f10610e2557610100808354040283529160200191610e50565b820191906000526020600020905b815481529060010190602001808311610e3357829003601f168201915b5050505050815260200160098201548152505081526020019060010190610ae7565b505050509050919050565b600e82805160208101820180518482526020830160208501208183528095505050505050818051602081018201805184825260208301602085012081835280955050505050506000915091509054906101000a900460ff1681565b600f6020528160005260406000206020528060005260406000206000915091509054906101000a900460ff1681565b600b6020528060005260406000206000915054906101000a900460ff1681565b600c6020528060005260406000206000915054906101000a900460ff1681565b6011602052816000526040600020602052806000526040600020600091509150505481565b600a6020528060005260406000206000915090508060000160009054906101000a900473ffffffffffffffffffffffffffffffffffffffff1690806001015490806002018054610fbb90615977565b80601f0160208091040260200160405190810160405280929190818152602001828054610fe790615977565b80156110345780601f1061100957610100808354040283529160200191611034565b820191906000526020600020905b81548152906001019060200180831161101757829003601f168201915b50505050509080600301805461104990615977565b80601f016020809104026020016040519081016040528092919081815260200182805461107590615977565b80156110c25780601f10611097576101008083540402835291602001916110c2565b820191906000526020600020905b8154815290600101906020018083116110a557829003601f168201915b5050505050908060040180546110d790615977565b80601f016020809104026020016040519081016040528092919081815260200182805461110390615977565b80156111505780601f1061112557610100808354040283529160200191611150565b820191906000526020600020905b81548152906001019060200180831161113357829003601f168201915b50505050509080600501549080600601549080600701805461117190615977565b80601f016020809104026020016040519081016040528092919081815260200182805461119d90615977565b80156111ea5780601f106111bf576101008083540402835291602001916111ea565b820191906000526020600020905b8154815290600101906020018083116111cd57829003601f168201915b5050505050908060080180546111ff90615977565b80601f016020809104026020016040519081016040528092919081815260200182805461122b90615977565b80156112785780601f1061124d57610100808354040283529160200191611278565b820191906000526020600020905b81548152906001019060200180831161125b57829003601f168201915b505050505090806009015490508a565b60068180516020810182018051848252602083016020850120818352809550505050505060009150905080546112bd90615977565b80601f01602080910402602001604051908101604052809291908181526020018280546112e990615977565b80156113365780601f1061130b57610100808354040283529160200191611336565b820191906000526020600020905b81548152906001019060200180831161131957829003601f168201915b505050505081565b60001515600260003373ffffffffffffffffffffffffffffffffffffffff1673ffffffffffffffffffffffffffffffffffffffff16815260200190815260200160002060009054906101000a900460ff161515146113d1576040517f08c379a00000000000000000000000000000000000000000000000000000000081526004016113c890615503565b60405180910390fd5b6113d9614245565b838160000181905250828160200181905250818160400181905250600f816060018181525050606481608001818152505080600360003373ffffffffffffffffffffffffffffffffffffffff1673ffffffffffffffffffffffffffffffffffffffff1681526020019081526020016000206000820151816000019080519060200190611466929190614274565b506020820151816001019080519060200190611483929190614274565b5060408201518160020190805190602001906114a0929190614274565b5060608201518160030155608082015181600401559050506001600260003373ffffffffffffffffffffffffffffffffffffffff1673ffffffffffffffffffffffffffffffffffffffff16815260200190815260200160002060006101000a81548160ff0219169083151502179055507faa1e896fff678c49360d15cc36fa676c42d6d8e1f187b2049125f6475924f5c284848460405161154393929190615338565b60405180910390a150505050565b600882805160208101820180518482526020830160208501208183528095505050505050818154811061158357600080fd5b90600052602060002090600a0201600091509150508060000160009054906101000a900473ffffffffffffffffffffffffffffffffffffffff16908060010154908060020180546115d390615977565b80601f01602080910402602001604051908101604052809291908181526020018280546115ff90615977565b801561164c5780601f106116215761010080835404028352916020019161164c565b820191906000526020600020905b81548152906001019060200180831161162f57829003601f168201915b50505050509080600301805461166190615977565b80601f016020809104026020016040519081016040528092919081815260200182805461168d90615977565b80156116da5780601f106116af576101008083540402835291602001916116da565b820191906000526020600020905b8154815290600101906020018083116116bd57829003601f168201915b5050505050908060040180546116ef90615977565b80601f016020809104026020016040519081016040528092919081815260200182805461171b90615977565b80156117685780601f1061173d57610100808354040283529160200191611768565b820191906000526020600020905b81548152906001019060200180831161174b57829003601f168201915b50505050509080600501549080600601549080600701805461178990615977565b80601f01602080910402602001604051908101604052809291908181526020018280546117b590615977565b80156118025780601f106117d757610100808354040283529160200191611802565b820191906000526020600020905b8154815290600101906020018083116117e557829003601f168201915b50505050509080600801805461181790615977565b80601f016020809104026020016040519081016040528092919081815260200182805461184390615977565b80156118905780601f1061186557610100808354040283529160200191611890565b820191906000526020600020905b81548152906001019060200180831161187357829003601f168201915b505050505090806009015490508a565b606060106000838152602001908152602001600020805480602002602001604051908101604052809291908181526020016000905b8282101561197157838290600052602060002090600302016040518060600160405290816000820160009054906101000a900473ffffffffffffffffffffffffffffffffffffffff1673ffffffffffffffffffffffffffffffffffffffff1673ffffffffffffffffffffffffffffffffffffffff16815260200160018201548152602001600282015481525050815260200190600101906118d5565b505050509050919050565b6060600560003373ffffffffffffffffffffffffffffffffffffffff1673ffffffffffffffffffffffffffffffffffffffff168152602001908152602001600020805480602002602001604051908101604052809291908181526020018280548015611a0757602002820191906000526020600020905b8154815260200190600101908083116119f3575b5050505050905090565b6003602052806000526040600020600091509050806000018054611a3490615977565b80601f0160208091040260200160405190810160405280929190818152602001828054611a6090615977565b8015611aad5780601f10611a8257610100808354040283529160200191611aad565b820191906000526020600020905b815481529060010190602001808311611a9057829003601f168201915b505050505090806001018054611ac290615977565b80601f0160208091040260200160405190810160405280929190818152602001828054611aee90615977565b8015611b3b5780601f10611b1057610100808354040283529160200191611b3b565b820191906000526020600020905b815481529060010190602001808311611b1e57829003601f168201915b505050505090806002018054611b5090615977565b80601f0160208091040260200160405190810160405280929190818152602001828054611b7c90615977565b8015611bc95780601f10611b9e57610100808354040283529160200191611bc9565b820191906000526020600020905b815481529060010190602001808311611bac57829003601f168201915b5050505050908060030154908060040154905085565b6007818051602081018201805184825260208301602085012081835280955050505050506000915090508054611c1490615977565b80601f0160208091040260200160405190810160405280929190818152602001828054611c4090615977565b8015611c8d5780601f10611c6257610100808354040283529160200191611c8d565b820191906000526020600020905b815481529060010190602001808311611c7057829003601f168201915b505050505081565b6000600a600084815260200190815260200160002090506000801b600a6000858152602001908152602001600020600101541415611d0a57826040517fd7b18dd0000000000000000000000000000000000000000000000000000000008152600401611d0191906152e0565b60405180910390fd5b60001515600d82600201604051611d2191906150ec565b908152602001604051809103902083604051611d3d91906150d5565b908152602001604051809103902060009054906101000a900460ff1615151415611da35780600201826040517f8973e97b000000000000000000000000000000000000000000000000000000008152600401611d9a9291906153ec565b60405180910390fd5b60011515600e82600201604051611dba91906150ec565b908152602001604051809103902083604051611dd691906150d5565b908152602001604051809103902060009054906101000a900460ff1615151415611e3c5780600201826040517f9bb37424000000000000000000000000000000000000000000000000000000008152600401611e339291906153ec565b60405180910390fd5b60011515600b600085815260200190815260200160002060009054906101000a900460ff1615151415611ea4576040517f08c379a0000000000000000000000000000000000000000000000000000000008152600401611e9b90615423565b60405180910390fd5b6001600e82600201604051611eb991906150ec565b908152602001604051809103902083604051611ed591906150d5565b908152602001604051809103902060006101000a81548160ff0219169083151502179055506001600b600085815260200190815260200160002060006101000a81548160ff021916908315150217905550505050565b60046020528160005260406000208181548110611f4757600080fd5b90600052602060002090600a0201600091509150508060000160009054906101000a900473ffffffffffffffffffffffffffffffffffffffff1690806001015490806002018054611f9790615977565b80601f0160208091040260200160405190810160405280929190818152602001828054611fc390615977565b80156120105780601f10611fe557610100808354040283529160200191612010565b820191906000526020600020905b815481529060010190602001808311611ff357829003601f168201915b50505050509080600301805461202590615977565b80601f016020809104026020016040519081016040528092919081815260200182805461205190615977565b801561209e5780601f106120735761010080835404028352916020019161209e565b820191906000526020600020905b81548152906001019060200180831161208157829003601f168201915b5050505050908060040180546120b390615977565b80601f01602080910402602001604051908101604052809291908181526020018280546120df90615977565b801561212c5780601f106121015761010080835404028352916020019161212c565b820191906000526020600020905b81548152906001019060200180831161210f57829003601f168201915b50505050509080600501549080600601549080600701805461214d90615977565b80601f016020809104026020016040519081016040528092919081815260200182805461217990615977565b80156121c65780601f1061219b576101008083540402835291602001916121c6565b820191906000526020600020905b8154815290600101906020018083116121a957829003601f168201915b5050505050908060080180546121db90615977565b80601f016020809104026020016040519081016040528092919081815260200182805461220790615977565b80156122545780601f1061222957610100808354040283529160200191612254565b820191906000526020600020905b81548152906001019060200180831161223757829003601f168201915b505050505090806009015490508a565b60011515600160003373ffffffffffffffffffffffffffffffffffffffff1673ffffffffffffffffffffffffffffffffffffffff16815260200190815260200160002060009054906101000a900460ff161515146122f7576040517f08c379a00000000000000000000000000000000000000000000000000000000081526004016122ee906154e3565b60405180910390fd5b60018060008373ffffffffffffffffffffffffffffffffffffffff1673ffffffffffffffffffffffffffffffffffffffff16815260200190815260200160002060006101000a81548160ff02191690831515021790555050565b606060098260405161236391906150d5565b90815260200160405180910390208054806020026020016040519081016040528092919081815260200182805480156123e157602002820191906000526020600020906000905b82829054906101000a900460ff1660ff16815260200190600101906020826000010492830192600103820291508084116123aa5790505b50505050509050919050565b60008054906101000a900473ffffffffffffffffffffffffffffffffffffffff1681565b6000801b600a600083815260200190815260200160002060010154141561246f57806040517fd7b18dd000000000000000000000000000000000000000000000000000000000815260040161246691906152e0565b60405180910390fd5b60001515600b600083815260200190815260200160002060009054906101000a900460ff16151514156124d7576040517f08c379a00000000000000000000000000000000000000000000000000000000081526004016124ce906154c3565b60405180910390fd5b600080600a600084815260200190815260200160002060000160009054906101000a900473ffffffffffffffffffffffffffffffffffffffff169050600061251e846106ef565b9250600060106000868152602001908152602001600020805480602002602001604051908101604052809291908181526020016000905b828210156125f157838290600052602060002090600302016040518060600160405290816000820160009054906101000a900473ffffffffffffffffffffffffffffffffffffffff1673ffffffffffffffffffffffffffffffffffffffff1673ffffffffffffffffffffffffffffffffffffffff1681526020016001820154815260200160028201548152505081526020019060010190612555565b50505050905060005b81518110156126685781818151811061263c577f4e487b7100000000000000000000000000000000000000000000000000000000600052603260045260246000fd5b602002602001015160200151836126539190615777565b92508080612660906159f4565b9150506125fa565b50670de0b6b3a76400008461267d91906157fe565b935060006064604b8661269091906157fe565b61269a91906157cd565b905080601160008673ffffffffffffffffffffffffffffffffffffffff1673ffffffffffffffffffffffffffffffffffffffff168152602001908152602001600020600088815260200190815260200160002081905550600560008573ffffffffffffffffffffffffffffffffffffffff1673ffffffffffffffffffffffffffffffffffffffff1681526020019081526020016000208690806001815401808255809150506001900390600052602060002001600090919091909150556000606460198761276891906157fe565b61277291906157cd565b905060005b83518110156129675760008482815181106127bb577f4e487b7100000000000000000000000000000000000000000000000000000000600052603260045260246000fd5b602002602001015160200151866127d291906157cd565b905060008114156127e257600190505b600085838151811061281d577f4e487b7100000000000000000000000000000000000000000000000000000000600052603260045260246000fd5b60200260200101516000015190506000868481518110612866577f4e487b7100000000000000000000000000000000000000000000000000000000600052603260045260246000fd5b6020026020010151602001519050600560008373ffffffffffffffffffffffffffffffffffffffff1673ffffffffffffffffffffffffffffffffffffffff1681526020019081526020016000208b908060018154018082558091505060019003906000526020600020016000909190919091505560648184876128e991906157cd565b6128f391906157fe565b6128fd91906157cd565b601160008473ffffffffffffffffffffffffffffffffffffffff1673ffffffffffffffffffffffffffffffffffffffff16815260200190815260200160002060008d815260200190815260200160002081905550505050808061295f906159f4565b915050612777565b506000600360008773ffffffffffffffffffffffffffffffffffffffff1673ffffffffffffffffffffffffffffffffffffffff168152602001908152602001600020905073__$3e2427aeaacc18228dd15a2d9075e742dc$__63677342ce866040518263ffffffff1660e01b81526004016129e2919061559f565b60206040518083038186803b1580156129fa57600080fd5b505af4158015612a0e573d6000803e3d6000fd5b505050506040513d601f19601f82011682018060405250810190612a32919061483c565b6fffffffffffffffffffffffffffffffff16816003016000828254612a579190615777565b925050819055508183897f134a256b30e79278465eb4be19c959a4c1f253707afe0d5eddcf9a2738a6a6b487604051612a909190615281565b60405180910390a45050505050505050565b60056020528160005260406000208181548110612abe57600080fd5b90600052602060002001600091509150505481565b6000801b600a6000838152602001908152602001600020600101541415612af957600080fd5b60001515600260003373ffffffffffffffffffffffffffffffffffffffff1673ffffffffffffffffffffffffffffffffffffffff16815260200190815260200160002060009054906101000a900460ff1615151415612b8f57336040517f1063935d000000000000000000000000000000000000000000000000000000008152600401612b869190615103565b60405180910390fd5b60001515600f60003373ffffffffffffffffffffffffffffffffffffffff1673ffffffffffffffffffffffffffffffffffffffff168152602001908152602001600020600083815260200190815260200160002060009054906101000a900460ff16151514612c33576040517f08c379a0000000000000000000000000000000000000000000000000000000008152600401612c2a90615463565b60405180910390fd5b6000600360003373ffffffffffffffffffffffffffffffffffffffff1673ffffffffffffffffffffffffffffffffffffffff16815260200190815260200160002090506002816004015410158015612c9057506064816004015411155b612ccf576040517f08c379a0000000000000000000000000000000000000000000000000000000008152600401612cc6906154a3565b60405180910390fd5b6000600a60008481526020019081526020016000209050806009016000815480929190612cfb906159f4565b91905055506000816002018054612d1190615977565b80601f0160208091040260200160405190810160405280929190818152602001828054612d3d90615977565b8015612d8a5780601f10612d5f57610100808354040283529160200191612d8a565b820191906000526020600020905b815481529060010190602001808311612d6d57829003601f168201915b505050505090506000600882604051612da391906150d5565b9081526020016040518091039020905060005b8180549050811015612e885785828281548110612dfc577f4e487b7100000000000000000000000000000000000000000000000000000000600052603260045260246000fd5b90600052602060002090600a0201600101541415612e7557818181548110612e4d577f4e487b7100000000000000000000000000000000000000000000000000000000600052603260045260246000fd5b90600052602060002090600a02016009016000815480929190612e6f906159f4565b91905055505b8080612e80906159f4565b915050612db6565b50612e916142fa565b33816000019073ffffffffffffffffffffffffffffffffffffffff16908173ffffffffffffffffffffffffffffffffffffffff1681525050846003015481602001818152505084600401548160400181815250506010600087815260200190815260200160002081908060018154018082558091505060019003906000526020600020906003020160009091909190915060008201518160000160006101000a81548173ffffffffffffffffffffffffffffffffffffffff021916908373ffffffffffffffffffffffffffffffffffffffff160217905550602082015181600101556040820151816002015550506002856004016000828254612f949190615858565b925050819055506001600f60003373ffffffffffffffffffffffffffffffffffffffff1673ffffffffffffffffffffffffffffffffffffffff168152602001908152602001600020600088815260200190815260200160002060006101000a81548160ff021916908315150217905550505050505050565b606060088260405161301e91906150d5565b9081526020016040518091039020805480602002602001604051908101604052809291908181526020016000905b828210156133d757838290600052602060002090600a0201604051806101400160405290816000820160009054906101000a900473ffffffffffffffffffffffffffffffffffffffff1673ffffffffffffffffffffffffffffffffffffffff1673ffffffffffffffffffffffffffffffffffffffff168152602001600182015481526020016002820180546130e090615977565b80601f016020809104026020016040519081016040528092919081815260200182805461310c90615977565b80156131595780601f1061312e57610100808354040283529160200191613159565b820191906000526020600020905b81548152906001019060200180831161313c57829003601f168201915b5050505050815260200160038201805461317290615977565b80601f016020809104026020016040519081016040528092919081815260200182805461319e90615977565b80156131eb5780601f106131c0576101008083540402835291602001916131eb565b820191906000526020600020905b8154815290600101906020018083116131ce57829003601f168201915b5050505050815260200160048201805461320490615977565b80601f016020809104026020016040519081016040528092919081815260200182805461323090615977565b801561327d5780601f106132525761010080835404028352916020019161327d565b820191906000526020600020905b81548152906001019060200180831161326057829003601f168201915b5050505050815260200160058201548152602001600682015481526020016007820180546132aa90615977565b80601f01602080910402602001604051908101604052809291908181526020018280546132d690615977565b80156133235780601f106132f857610100808354040283529160200191613323565b820191906000526020600020905b81548152906001019060200180831161330657829003601f168201915b5050505050815260200160088201805461333c90615977565b80601f016020809104026020016040519081016040528092919081815260200182805461336890615977565b80156133b55780601f1061338a576101008083540402835291602001916133b5565b820191906000526020600020905b81548152906001019060200180831161339857829003601f168201915b505050505081526020016009820154815250508152602001906001019061304c565b505050509050919050565b6000601160003373ffffffffffffffffffffffffffffffffffffffff1673ffffffffffffffffffffffffffffffffffffffff16815260200190815260200160002060008381526020019081526020016000205411613475576040517f08c379a000000000000000000000000000000000000000000000000000000000815260040161346c90615443565b60405180910390fd5b60008054906101000a900473ffffffffffffffffffffffffffffffffffffffff1673ffffffffffffffffffffffffffffffffffffffff1663d02b789d33601160003373ffffffffffffffffffffffffffffffffffffffff1673ffffffffffffffffffffffffffffffffffffffff1681526020019081526020016000206000858152602001908152602001600020546040518363ffffffff1660e01b81526004016135209291906151dd565b600060405180830381600087803b15801561353a57600080fd5b505af115801561354e573d6000803e3d6000fd5b5050505050565b6001600d8360405161356791906150d5565b90815260200160405180910390208260405161358391906150d5565b908152602001604051809103902060006101000a81548160ff0219169083151502179055505050565b60011515600160003373ffffffffffffffffffffffffffffffffffffffff1673ffffffffffffffffffffffffffffffffffffffff16815260200190815260200160002060009054906101000a900460ff1615151461363f576040517f08c379a0000000000000000000000000000000000000000000000000000000008152600401613636906154e3565b60405180910390fd5b8160068460405161365091906150d5565b90815260200160405180910390209080519060200190613671929190614274565b508060078460405161368391906150d5565b908152602001604051809103902090805190602001906136a4929190614274565b50505050565b60001515600260003373ffffffffffffffffffffffffffffffffffffffff1673ffffffffffffffffffffffffffffffffffffffff16815260200190815260200160002060009054906101000a900460ff161515141561374057336040517f1063935d0000000000000000000000000000000000000000000000000000000081526004016137379190615103565b60405180910390fd5b600060068260405161375291906150d5565b9081526020016040518091039020805461376b90615977565b905014156137b057806040517f8f6b29cc0000000000000000000000000000000000000000000000000000000081526004016137a79190615316565b60405180910390fd5b600033426040516020016137c59291906150a9565b6040516020818303038152906040528051906020012090506001600c600083815260200190815260200160002060006101000a81548160ff0219169083151502179055508160405161381791906150d5565b6040518091039020817f1a865a887b9be34cda5d006b75fa778b95a96c8dc9197d66da6e82f8dc5a064a600360003373ffffffffffffffffffffffffffffffffffffffff1673ffffffffffffffffffffffffffffffffffffffff16815260200190815260200160002060405161388d9190615523565b60405180910390a35050565b60098280516020810182018051848252602083016020850120818352809550505050505081815481106138cb57600080fd5b9060005260206000209060209182820401919006915091509054906101000a900460ff1681565b60001515600260003373ffffffffffffffffffffffffffffffffffffffff1673ffffffffffffffffffffffffffffffffffffffff16815260200190815260200160002060009054906101000a900460ff161515141561398857336040517f1063935d00000000000000000000000000000000000000000000000000000000815260040161397f9190615103565b60405180910390fd5b600060068660405161399a91906150d5565b908152602001604051809103902080546139b390615977565b905014156139f857846040517f8f6b29cc0000000000000000000000000000000000000000000000000000000081526004016139ef9190615316565b60405180910390fd5b6000801b841415613a3b57338584848442604051602001613a1e96959493929190615045565b604051602081830303815290604052805190602001209350613acb565b60011515600c600086815260200190815260200160002060009054906101000a900460ff1615151415613ac5576001600b600086815260200190815260200160002060006101000a81548160ff0219169083151502179055506000600c600086815260200190815260200160002060006101000a81548160ff021916908315150217905550613aca565b600080fd5b5b60008260ff1610158015613ae3575060328260ff1611155b613b22576040517f08c379a0000000000000000000000000000000000000000000000000000000008152600401613b1990615483565b60405180910390fd5b613b2a614331565b8481602001818152505033816000019073ffffffffffffffffffffffffffffffffffffffff16908173ffffffffffffffffffffffffffffffffffffffff1681525050858160400181905250838160e001819052508260ff168160c001818152505081816101000181905250428160a0018181525050600686604051613baf91906150d5565b90815260200160405180910390208054613bc890615977565b80601f0160208091040260200160405190810160405280929190818152602001828054613bf490615977565b8015613c415780601f10613c1657610100808354040283529160200191613c41565b820191906000526020600020905b815481529060010190602001808311613c2457829003601f168201915b50505050508160600181905250600786604051613c5e91906150d5565b90815260200160405180910390208054613c7790615977565b80601f0160208091040260200160405190810160405280929190818152602001828054613ca390615977565b8015613cf05780601f10613cc557610100808354040283529160200191613cf0565b820191906000526020600020905b815481529060010190602001808311613cd357829003601f168201915b5050505050816080018190525060008161012001818152505080600a60008360200151815260200190815260200160002060008201518160000160006101000a81548173ffffffffffffffffffffffffffffffffffffffff021916908373ffffffffffffffffffffffffffffffffffffffff160217905550602082015181600101556040820151816002019080519060200190613d8e929190614274565b506060820151816003019080519060200190613dab929190614274565b506080820151816004019080519060200190613dc8929190614274565b5060a0820151816005015560c0820151816006015560e0820151816007019080519060200190613df9929190614274565b50610100820151816008019080519060200190613e17929190614274565b506101208201518160090155905050600460003373ffffffffffffffffffffffffffffffffffffffff1673ffffffffffffffffffffffffffffffffffffffff1681526020019081526020016000208190806001815401808255809150506001900390600052602060002090600a020160009091909190915060008201518160000160006101000a81548173ffffffffffffffffffffffffffffffffffffffff021916908373ffffffffffffffffffffffffffffffffffffffff160217905550602082015181600101556040820151816002019080519060200190613efc929190614274565b506060820151816003019080519060200190613f19929190614274565b506080820151816004019080519060200190613f36929190614274565b5060a0820151816005015560c0820151816006015560e0820151816007019080519060200190613f67929190614274565b50610100820151816008019080519060200190613f85929190614274565b5061012082015181600901555050600886604051613fa391906150d5565b90815260200160405180910390208190806001815401808255809150506001900390600052602060002090600a020160009091909190915060008201518160000160006101000a81548173ffffffffffffffffffffffffffffffffffffffff021916908373ffffffffffffffffffffffffffffffffffffffff160217905550602082015181600101556040820151816002019080519060200190614048929190614274565b506060820151816003019080519060200190614065929190614274565b506080820151816004019080519060200190614082929190614274565b5060a0820151816005015560c0820151816006015560e08201518160070190805190602001906140b3929190614274565b506101008201518160080190805190602001906140d1929190614274565b50610120820151816009015550506009866040516140ef91906150d5565b90815260200160405180910390208390806001815401808255809150506001900390600052602060002090602091828204019190069091909190916101000a81548160ff021916908360ff1602179055508560405161414e91906150d5565b604051809103902081602001517f1489f5fcb1961e9678cb60f519640b9666aac5567303748ef7fc4b880b4fb891600360003373ffffffffffffffffffffffffffffffffffffffff1673ffffffffffffffffffffffffffffffffffffffff1681526020019081526020016000208787876040516141ce9493929190615545565b60405180910390a3505050505050565b601060205281600052604060002081815481106141fa57600080fd5b9060005260206000209060030201600091509150508060000160009054906101000a900473ffffffffffffffffffffffffffffffffffffffff16908060010154908060020154905083565b6040518060a0016040528060608152602001606081526020016060815260200160008152602001600081525090565b82805461428090615977565b90600052602060002090601f0160209004810192826142a257600085556142e9565b82601f106142bb57805160ff19168380011785556142e9565b828001600101855582156142e9579182015b828111156142e85782518255916020019190600101906142cd565b5b5090506142f6919061439d565b5090565b6040518060600160405280600073ffffffffffffffffffffffffffffffffffffffff16815260200160008152602001600081525090565b604051806101400160405280600073ffffffffffffffffffffffffffffffffffffffff1681526020016000801916815260200160608152602001606081526020016060815260200160008152602001600081526020016060815260200160608152602001600081525090565b5b808211156143b657600081600090555060010161439e565b5090565b60006143cd6143c884615615565b6155f0565b9050828152602081018484840111156143e557600080fd5b6143f0848285615935565b509392505050565b60008135905061440781615d2b565b92915050565b60008135905061441c81615d42565b92915050565b600082601f83011261443357600080fd5b81356144438482602086016143ba565b91505092915050565b60008151905061445b81615d59565b92915050565b60008135905061447081615d70565b92915050565b60008135905061448581615d87565b92915050565b60006020828403121561449d57600080fd5b60006144ab848285016143f8565b91505092915050565b600080604083850312156144c757600080fd5b60006144d5858286016143f8565b92505060206144e68582860161440d565b9150509250929050565b6000806040838503121561450357600080fd5b6000614511858286016143f8565b925050602061452285828601614461565b9150509250929050565b60006020828403121561453e57600080fd5b600061454c8482850161440d565b91505092915050565b6000806040838503121561456857600080fd5b60006145768582860161440d565b925050602083013567ffffffffffffffff81111561459357600080fd5b61459f85828601614422565b9150509250929050565b600080604083850312156145bc57600080fd5b60006145ca8582860161440d565b92505060206145db85828601614461565b9150509250929050565b6000602082840312156145f757600080fd5b600082013567ffffffffffffffff81111561461157600080fd5b61461d84828501614422565b91505092915050565b600080600080600060a0868803121561463e57600080fd5b600086013567ffffffffffffffff81111561465857600080fd5b61466488828901614422565b95505060206146758882890161440d565b945050604086013567ffffffffffffffff81111561469257600080fd5b61469e88828901614422565b93505060606146af88828901614476565b925050608086013567ffffffffffffffff8111156146cc57600080fd5b6146d888828901614422565b9150509295509295909350565b600080604083850312156146f857600080fd5b600083013567ffffffffffffffff81111561471257600080fd5b61471e85828601614422565b925050602083013567ffffffffffffffff81111561473b57600080fd5b61474785828601614422565b9150509250929050565b60008060006060848603121561476657600080fd5b600084013567ffffffffffffffff81111561478057600080fd5b61478c86828701614422565b935050602084013567ffffffffffffffff8111156147a957600080fd5b6147b586828701614422565b925050604084013567ffffffffffffffff8111156147d257600080fd5b6147de86828701614422565b9150509250925092565b600080604083850312156147fb57600080fd5b600083013567ffffffffffffffff81111561481557600080fd5b61482185828601614422565b925050602061483285828601614461565b9150509250929050565b60006020828403121561484e57600080fd5b600061485c8482850161444c565b91505092915050565b60006148718383614a94565b60208301905092915050565b60006148898383614dfb565b905092915050565b600061489d8383614f8a565b60608301905092915050565b60006148b58383615010565b60208301905092915050565b6148ca81615896565b82525050565b6148d981615896565b82525050565b6148f06148eb82615896565b615a3d565b82525050565b60006149018261569b565b61490b8185615706565b935061491683615646565b8060005b8381101561494757815161492e8882614865565b9750614939836156d2565b92505060018101905061491a565b5085935050505092915050565b600061495f826156a6565b6149698185615717565b93508360208202850161497b85615656565b8060005b858110156149b75784840389528151614998858261487d565b94506149a3836156df565b925060208a0199505060018101905061497f565b50829750879550505050505092915050565b60006149d4826156b1565b6149de8185615728565b93506149e983615666565b8060005b83811015614a1a578151614a018882614891565b9750614a0c836156ec565b9250506001810190506149ed565b5085935050505092915050565b6000614a32826156bc565b614a3c8185615739565b9350614a4783615676565b8060005b83811015614a78578151614a5f88826148a9565b9750614a6a836156f9565b925050600181019050614a4b565b5085935050505092915050565b614a8e816158a8565b82525050565b614a9d816158b4565b82525050565b614aac816158b4565b82525050565b614abb81615911565b82525050565b6000614acc826156c7565b614ad6818561574a565b9350614ae6818560208601615944565b614aef81615b39565b840191505092915050565b6000614b05826156c7565b614b0f818561575b565b9350614b1f818560208601615944565b614b2881615b39565b840191505092915050565b6000614b3e826156c7565b614b48818561576c565b9350614b58818560208601615944565b80840191505092915050565b60008154614b7181615977565b614b7b818661574a565b94506001821660008114614b965760018114614ba857614bdb565b60ff1983168652602086019350614bdb565b614bb185615686565b60005b83811015614bd357815481890152600182019150602081019050614bb4565b808801955050505b50505092915050565b60008154614bf181615977565b614bfb818661575b565b94506001821660008114614c165760018114614c2857614c5b565b60ff1983168652602086019350614c5b565b614c3185615686565b60005b83811015614c5357815481890152600182019150602081019050614c34565b808801955050505b50505092915050565b60008154614c7181615977565b614c7b818661576c565b94506001821660008114614c965760018114614ca757614cda565b60ff19831686528186019350614cda565b614cb085615686565b60005b83811015614cd257815481890152600182019150602081019050614cb3565b838801955050505b50505092915050565b6000614cf060168361575b565b9150614cfb82615b71565b602082019050919050565b6000614d13600e8361575b565b9150614d1e82615b9a565b602082019050919050565b6000614d3660238361575b565b9150614d4182615bc3565b604082019050919050565b6000614d5960138361575b565b9150614d6482615c12565b602082019050919050565b6000614d7c60228361575b565b9150614d8782615c3b565b604082019050919050565b6000614d9f600c8361575b565b9150614daa82615c8a565b602082019050919050565b6000614dc260218361575b565b9150614dcd82615cb3565b604082019050919050565b6000614de5601d8361575b565b9150614df082615d02565b602082019050919050565b600061014083016000830151614e1460008601826148c1565b506020830151614e276020860182614a94565b5060408301518482036040860152614e3f8282614ac1565b91505060608301518482036060860152614e598282614ac1565b91505060808301518482036080860152614e738282614ac1565b91505060a0830151614e8860a0860182614fcc565b5060c0830151614e9b60c0860182614fcc565b5060e083015184820360e0860152614eb38282614ac1565b915050610100830151848203610100860152614ecf8282614ac1565b915050610120830151614ee6610120860182614fcc565b508091505092915050565b600060a0830160008084018583036000870152614f0e8382614b64565b925050600184018583036020870152614f278382614b64565b925050600284018583036040870152614f408382614b64565b92505060038401549050614f53816159a9565b614f606060870182614fcc565b5060048401549050614f71816159a9565b614f7e6080870182614fcc565b50819250505092915050565b606082016000820151614fa060008501826148c1565b506020820151614fb36020850182614fcc565b506040820151614fc66040850182614fcc565b50505050565b614fd5816158fa565b82525050565b614fe4816158fa565b82525050565b614ff3816158fa565b82525050565b61500a615005826158fa565b615a61565b82525050565b61501981615904565b82525050565b61502881615904565b82525050565b61503f61503a82615904565b615a6b565b82525050565b600061505182896148df565b6014820191506150618288614b33565b915061506d8287614b33565b9150615079828661502e565b6001820191506150898285614b33565b91506150958284614ff9565b602082019150819050979650505050505050565b60006150b582856148df565b6014820191506150c58284614ff9565b6020820191508190509392505050565b60006150e18284614b33565b915081905092915050565b60006150f88284614c64565b915081905092915050565b600060208201905061511860008301846148d0565b92915050565b600061014082019050615134600083018d6148d0565b615141602083018c614aa3565b8181036040830152615153818b614afa565b90508181036060830152615167818a614afa565b9050818103608083015261517b8189614afa565b905061518a60a0830188614fdb565b61519760c0830187614fdb565b81810360e08301526151a98186614afa565b90508181036101008301526151be8185614afa565b90506151ce610120830184614fdb565b9b9a5050505050505050505050565b60006040820190506151f260008301856148d0565b6151ff6020830184614fdb565b9392505050565b600060608201905061521b60008301866148d0565b6152286020830185614fdb565b6152356040830184614fdb565b949350505050565b6000602082019050818103600083015261525781846148f6565b905092915050565b600060208201905081810360008301526152798184614954565b905092915050565b6000602082019050818103600083015261529b81846149c9565b905092915050565b600060208201905081810360008301526152bd8184614a27565b905092915050565b60006020820190506152da6000830184614a85565b92915050565b60006020820190506152f56000830184614aa3565b92915050565b60006020820190506153106000830184614ab2565b92915050565b600060208201905081810360008301526153308184614afa565b905092915050565b600060608201905081810360008301526153528186614afa565b905081810360208301526153668185614afa565b9050818103604083015261537a8184614afa565b9050949350505050565b600060a082019050818103600083015261539e8188614afa565b905081810360208301526153b28187614afa565b905081810360408301526153c68186614afa565b90506153d56060830185614fdb565b6153e26080830184614fdb565b9695505050505050565b600060408201905081810360008301526154068185614be4565b9050818103602083015261541a8184614afa565b90509392505050565b6000602082019050818103600083015261543c81614ce3565b9050919050565b6000602082019050818103600083015261545c81614d06565b9050919050565b6000602082019050818103600083015261547c81614d29565b9050919050565b6000602082019050818103600083015261549c81614d4c565b9050919050565b600060208201905081810360008301526154bc81614d6f565b9050919050565b600060208201905081810360008301526154dc81614d92565b9050919050565b600060208201905081810360008301526154fc81614db5565b9050919050565b6000602082019050818103600083015261551c81614dd8565b9050919050565b6000602082019050818103600083015261553d8184614ef1565b905092915050565b6000608082019050818103600083015261555f8187614ef1565b905081810360208301526155738186614afa565b9050615582604083018561501f565b81810360608301526155948184614afa565b905095945050505050565b60006020820190506155b46000830184614fea565b92915050565b60006020820190506155cf6000830184614fdb565b92915050565b60006020820190506155ea600083018461501f565b92915050565b60006155fa61560b565b905061560682826159c3565b919050565b6000604051905090565b600067ffffffffffffffff8211156156305761562f615b0a565b5b61563982615b39565b9050602081019050919050565b6000819050602082019050919050565b6000819050602082019050919050565b6000819050602082019050919050565b6000819050602082019050919050565b60008190508160005260206000209050919050565b600081519050919050565b600081519050919050565b600081519050919050565b600081519050919050565b600081519050919050565b6000602082019050919050565b6000602082019050919050565b6000602082019050919050565b6000602082019050919050565b600082825260208201905092915050565b600082825260208201905092915050565b600082825260208201905092915050565b600082825260208201905092915050565b600082825260208201905092915050565b600082825260208201905092915050565b600081905092915050565b6000615782826158fa565b915061578d836158fa565b9250827fffffffffffffffffffffffffffffffffffffffffffffffffffffffffffffffff038211156157c2576157c1615a7d565b5b828201905092915050565b60006157d8826158fa565b91506157e3836158fa565b9250826157f3576157f2615aac565b5b828204905092915050565b6000615809826158fa565b9150615814836158fa565b9250817fffffffffffffffffffffffffffffffffffffffffffffffffffffffffffffffff048311821515161561584d5761584c615a7d565b5b828202905092915050565b6000615863826158fa565b915061586e836158fa565b92508282101561588157615880615a7d565b5b828203905092915050565b6000819050919050565b60006158a1826158da565b9050919050565b60008115159050919050565b6000819050919050565b60006fffffffffffffffffffffffffffffffff82169050919050565b600073ffffffffffffffffffffffffffffffffffffffff82169050919050565b6000819050919050565b600060ff82169050919050565b600061591c82615923565b9050919050565b600061592e826158da565b9050919050565b82818337600083830152505050565b60005b83811015615962578082015181840152602081019050615947565b83811115615971576000848401525b50505050565b6000600282049050600182168061598f57607f821691505b602082108114156159a3576159a2615adb565b5b50919050565b60006159bc6159b783615b64565b61588c565b9050919050565b6159cc82615b39565b810181811067ffffffffffffffff821117156159eb576159ea615b0a565b5b80604052505050565b60006159ff826158fa565b91507fffffffffffffffffffffffffffffffffffffffffffffffffffffffffffffffff821415615a3257615a31615a7d565b5b600182019050919050565b6000615a4882615a4f565b9050919050565b6000615a5a82615b57565b9050919050565b6000819050919050565b6000615a7682615b4a565b9050919050565b7f4e487b7100000000000000000000000000000000000000000000000000000000600052601160045260246000fd5b7f4e487b7100000000000000000000000000000000000000000000000000000000600052601260045260246000fd5b7f4e487b7100000000000000000000000000000000000000000000000000000000600052602260045260246000fd5b7f4e487b7100000000000000000000000000000000000000000000000000000000600052604160045260246000fd5b6000601f19601f8301169050919050565b60008160f81b9050919050565b60008160601b9050919050565b60008160001c9050919050565b7f5468697320506f73742048617320566572696669656400000000000000000000600082015250565b7f496e76616c696420526577617264000000000000000000000000000000000000600082015250565b7f54686973206163636f756e7420697320766f74656420666f722074686973207060008201527f6f73740000000000000000000000000000000000000000000000000000000000602082015250565b7f556e76616c6964206e756d626572207261746500000000000000000000000000600082015250565b7f566f74696e6720506f776572206e6f7420656e6f75676820666f72207570766f60008201527f7465000000000000000000000000000000000000000000000000000000000000602082015250565b7f4e6f742056657269666965640000000000000000000000000000000000000000600082015250565b7f4f6e6c792061646d696e2063616e2063616c6c20746869732066756e6374696f60008201527f6e00000000000000000000000000000000000000000000000000000000000000602082015250565b7f54686973206164647265737320686173206265656e2065786973746564000000600082015250565b615d3481615896565b8114615d3f57600080fd5b50565b615d4b816158b4565b8114615d5657600080fd5b50565b615d62816158be565b8114615d6d57600080fd5b50565b615d79816158fa565b8114615d8457600080fd5b50565b615d9081615904565b8114615d9b57600080fd5b5056fea26469706673582212207088390ee401c1afd5aeb50b414cd6332362b3e24e1431676cf2070b9dfc45a964736f6c63430008040033",
  "linkReferences": {
    "contracts/Tourism.sol": {
      "Math": [
        {
          "length": 20,
          "start": 11043
        }
      ]
    }
  },
  "deployedLinkReferences": {
    "contracts/Tourism.sol": {
      "Math": [
        {
          "length": 20,
          "start": 10669
        }
      ]
    }
  }
}