{
  "_format": "hh-sol-artifact-1",
  "contractName": "Tourism",
  "sourceName": "contracts/tourismV2.sol",
  "abi": [
    {
      "inputs": [
        {
          "internalType": "address",
          "name": "ERC20_address",
          "type": "address"
        }
      ],
      "stateMutability": "nonpayable",
      "type": "constructor"
    },
    {
      "inputs": [
        {
          "internalType": "string",
          "name": "PlaceID",
          "type": "string"
        }
      ],
      "name": "InvalidPlaceID",
      "type": "error"
    },
    {
      "inputs": [
        {
          "internalType": "bytes32",
          "name": "PostID",
          "type": "bytes32"
        }
      ],
      "name": "InvalidPostID",
      "type": "error"
    },
    {
      "inputs": [
        {
          "internalType": "address",
          "name": "Address",
          "type": "address"
        },
        {
          "internalType": "uint256",
          "name": "VotingPower",
          "type": "uint256"
        }
      ],
      "name": "InvalidVP",
      "type": "error"
    },
    {
      "inputs": [
        {
          "internalType": "address",
          "name": "Address",
          "type": "address"
        }
      ],
      "name": "NotRegister",
      "type": "error"
    },
    {
      "inputs": [
        {
          "internalType": "bytes32",
          "name": "PostID",
          "type": "bytes32"
        },
        {
          "internalType": "address",
          "name": "Address",
          "type": "address"
        }
      ],
      "name": "PostIsVoted",
      "type": "error"
    },
    {
      "anonymous": false,
      "inputs": [
        {
          "indexed": true,
          "internalType": "bytes32",
          "name": "postID",
          "type": "bytes32"
        },
        {
          "indexed": true,
          "internalType": "string",
          "name": "placeID",
          "type": "string"
        },
        {
          "indexed": false,
          "internalType": "address",
          "name": "TouristAddress",
          "type": "address"
        }
      ],
      "name": "CheckIn",
      "type": "event"
    },
    {
      "anonymous": false,
      "inputs": [
        {
          "indexed": true,
          "internalType": "bytes32",
          "name": "postID",
          "type": "bytes32"
        },
        {
          "indexed": true,
          "internalType": "uint256",
          "name": "authorReward",
          "type": "uint256"
        },
        {
          "indexed": true,
          "internalType": "uint256",
          "name": "curatorsReward",
          "type": "uint256"
        },
        {
          "components": [
            {
              "internalType": "address",
              "name": "curator",
              "type": "address"
            },
            {
              "internalType": "uint256",
              "name": "curatorREP",
              "type": "uint256"
            },
            {
              "internalType": "uint256",
              "name": "curatorVP",
              "type": "uint256"
            }
          ],
          "indexed": false,
          "internalType": "struct Tourism.Vote[]",
          "name": "upvotes",
          "type": "tuple[]"
        }
      ],
      "name": "DivideRewardBy4R",
      "type": "event"
    },
    {
      "anonymous": false,
      "inputs": [
        {
          "indexed": false,
          "internalType": "address",
          "name": "touristAddress",
          "type": "address"
        },
        {
          "indexed": false,
          "internalType": "bytes32",
          "name": "postID",
          "type": "bytes32"
        },
        {
          "indexed": false,
          "internalType": "string",
          "name": "content",
          "type": "string"
        }
      ],
      "name": "PostComment",
      "type": "event"
    },
    {
      "anonymous": false,
      "inputs": [
        {
          "indexed": false,
          "internalType": "address",
          "name": "TouristAddress",
          "type": "address"
        },
        {
          "indexed": true,
          "internalType": "bytes32",
          "name": "postID",
          "type": "bytes32"
        },
        {
          "indexed": true,
          "internalType": "string",
          "name": "PlaceName",
          "type": "string"
        },
        {
          "indexed": false,
          "internalType": "string",
          "name": "review",
          "type": "string"
        },
        {
          "indexed": false,
          "internalType": "uint8",
          "name": "rate",
          "type": "uint8"
        },
        {
          "indexed": false,
          "internalType": "string",
          "name": "title",
          "type": "string"
        }
      ],
      "name": "PostReview",
      "type": "event"
    },
    {
      "anonymous": false,
      "inputs": [
        {
          "indexed": false,
          "internalType": "address",
          "name": "TouristAddress",
          "type": "address"
        }
      ],
      "name": "Register",
      "type": "event"
    },
    {
      "anonymous": false,
      "inputs": [
        {
          "indexed": false,
          "internalType": "address",
          "name": "touristAddress",
          "type": "address"
        },
        {
          "indexed": false,
          "internalType": "bytes32",
          "name": "postID",
          "type": "bytes32"
        }
      ],
      "name": "Upvote",
      "type": "event"
    },
    {
      "inputs": [
        {
          "internalType": "address",
          "name": "",
          "type": "address"
        },
        {
          "internalType": "uint256",
          "name": "",
          "type": "uint256"
        }
      ],
      "name": "TouristReviews",
      "outputs": [
        {
          "internalType": "address",
          "name": "author",
          "type": "address"
        },
        {
          "internalType": "bytes32",
          "name": "postID",
          "type": "bytes32"
        },
        {
          "internalType": "string",
          "name": "placeId",
          "type": "string"
        },
        {
          "internalType": "string",
          "name": "placeName",
          "type": "string"
        },
        {
          "internalType": "string",
          "name": "placeAddress",
          "type": "string"
        },
        {
          "internalType": "uint256",
          "name": "createTime",
          "type": "uint256"
        },
        {
          "internalType": "uint8",
          "name": "rate",
          "type": "uint8"
        },
        {
          "internalType": "string",
          "name": "review",
          "type": "string"
        },
        {
          "internalType": "string",
          "name": "title",
          "type": "string"
        },
        {
          "internalType": "uint256",
          "name": "upvoteNum",
          "type": "uint256"
        }
      ],
      "stateMutability": "view",
      "type": "function"
    },
    {
      "inputs": [
        {
          "internalType": "address",
          "name": "userAddress",
          "type": "address"
        }
      ],
      "name": "addAdmin",
      "outputs": [],
      "stateMutability": "nonpayable",
      "type": "function"
    },
    {
      "inputs": [
        {
          "internalType": "string",
          "name": "_id",
          "type": "string"
        },
        {
          "internalType": "string",
          "name": "destinationName",
          "type": "string"
        },
        {
          "internalType": "string",
          "name": "destinationAddr",
          "type": "string"
        }
      ],
      "name": "addDestination",
      "outputs": [],
      "stateMutability": "nonpayable",
      "type": "function"
    },
    {
      "inputs": [
        {
          "internalType": "string",
          "name": "placeID",
          "type": "string"
        }
      ],
      "name": "checkIn",
      "outputs": [],
      "stateMutability": "nonpayable",
      "type": "function"
    },
    {
      "inputs": [
        {
          "internalType": "bytes32",
          "name": "postID",
          "type": "bytes32"
        },
        {
          "internalType": "string",
          "name": "content",
          "type": "string"
        }
      ],
      "name": "comment",
      "outputs": [],
      "stateMutability": "nonpayable",
      "type": "function"
    },
    {
      "inputs": [
        {
          "internalType": "bytes32",
          "name": "",
          "type": "bytes32"
        }
      ],
      "name": "commentByID",
      "outputs": [
        {
          "internalType": "address",
          "name": "author",
          "type": "address"
        },
        {
          "internalType": "bytes32",
          "name": "postID",
          "type": "bytes32"
        },
        {
          "internalType": "bytes32",
          "name": "reviewPostID",
          "type": "bytes32"
        },
        {
          "internalType": "uint256",
          "name": "createTime",
          "type": "uint256"
        },
        {
          "internalType": "string",
          "name": "content",
          "type": "string"
        },
        {
          "internalType": "uint256",
          "name": "upvoteNum",
          "type": "uint256"
        }
      ],
      "stateMutability": "view",
      "type": "function"
    },
    {
      "inputs": [
        {
          "internalType": "string",
          "name": "",
          "type": "string"
        }
      ],
      "name": "destinationAddress",
      "outputs": [
        {
          "internalType": "string",
          "name": "",
          "type": "string"
        }
      ],
      "stateMutability": "view",
      "type": "function"
    },
    {
      "inputs": [
        {
          "internalType": "string",
          "name": "",
          "type": "string"
        }
      ],
      "name": "destinationIdentify",
      "outputs": [
        {
          "internalType": "string",
          "name": "",
          "type": "string"
        }
      ],
      "stateMutability": "view",
      "type": "function"
    },
    {
      "inputs": [
        {
          "internalType": "bytes32",
          "name": "postID",
          "type": "bytes32"
        }
      ],
      "name": "divideRewardBy4R",
      "outputs": [],
      "stateMutability": "nonpayable",
      "type": "function"
    },
    {
      "inputs": [],
      "name": "erc20Token",
      "outputs": [
        {
          "internalType": "contract IERC20With4RMechanism",
          "name": "",
          "type": "address"
        }
      ],
      "stateMutability": "view",
      "type": "function"
    },
    {
      "inputs": [
        {
          "internalType": "bytes32",
          "name": "postID",
          "type": "bytes32"
        }
      ],
      "name": "getAllCommentOfReviewPost",
      "outputs": [
        {
          "components": [
            {
              "internalType": "address",
              "name": "author",
              "type": "address"
            },
            {
              "internalType": "bytes32",
              "name": "postID",
              "type": "bytes32"
            },
            {
              "internalType": "bytes32",
              "name": "reviewPostID",
              "type": "bytes32"
            },
            {
              "internalType": "uint256",
              "name": "createTime",
              "type": "uint256"
            },
            {
              "internalType": "string",
              "name": "content",
              "type": "string"
            },
            {
              "internalType": "uint256",
              "name": "upvoteNum",
              "type": "uint256"
            }
          ],
          "internalType": "struct Tourism.Comment[]",
          "name": "",
          "type": "tuple[]"
        }
      ],
      "stateMutability": "view",
      "type": "function"
    },
    {
      "inputs": [
        {
          "internalType": "string",
          "name": "_id",
          "type": "string"
        }
      ],
      "name": "getAllReviewsOfDestinations",
      "outputs": [
        {
          "components": [
            {
              "internalType": "address",
              "name": "author",
              "type": "address"
            },
            {
              "internalType": "bytes32",
              "name": "postID",
              "type": "bytes32"
            },
            {
              "internalType": "string",
              "name": "placeId",
              "type": "string"
            },
            {
              "internalType": "string",
              "name": "placeName",
              "type": "string"
            },
            {
              "internalType": "string",
              "name": "placeAddress",
              "type": "string"
            },
            {
              "internalType": "uint256",
              "name": "createTime",
              "type": "uint256"
            },
            {
              "internalType": "uint8",
              "name": "rate",
              "type": "uint8"
            },
            {
              "internalType": "string",
              "name": "review",
              "type": "string"
            },
            {
              "internalType": "string",
              "name": "title",
              "type": "string"
            },
            {
              "internalType": "uint256",
              "name": "upvoteNum",
              "type": "uint256"
            }
          ],
          "internalType": "struct Tourism.Review[]",
          "name": "",
          "type": "tuple[]"
        }
      ],
      "stateMutability": "view",
      "type": "function"
    },
    {
      "inputs": [
        {
          "internalType": "address",
          "name": "addr",
          "type": "address"
        }
      ],
      "name": "getAllReviewsOfTourist",
      "outputs": [
        {
          "components": [
            {
              "internalType": "address",
              "name": "author",
              "type": "address"
            },
            {
              "internalType": "bytes32",
              "name": "postID",
              "type": "bytes32"
            },
            {
              "internalType": "string",
              "name": "placeId",
              "type": "string"
            },
            {
              "internalType": "string",
              "name": "placeName",
              "type": "string"
            },
            {
              "internalType": "string",
              "name": "placeAddress",
              "type": "string"
            },
            {
              "internalType": "uint256",
              "name": "createTime",
              "type": "uint256"
            },
            {
              "internalType": "uint8",
              "name": "rate",
              "type": "uint8"
            },
            {
              "internalType": "string",
              "name": "review",
              "type": "string"
            },
            {
              "internalType": "string",
              "name": "title",
              "type": "string"
            },
            {
              "internalType": "uint256",
              "name": "upvoteNum",
              "type": "uint256"
            }
          ],
          "internalType": "struct Tourism.Review[]",
          "name": "",
          "type": "tuple[]"
        }
      ],
      "stateMutability": "view",
      "type": "function"
    },
    {
      "inputs": [
        {
          "internalType": "string",
          "name": "placeID",
          "type": "string"
        }
      ],
      "name": "getDestinationRates",
      "outputs": [
        {
          "internalType": "uint8[]",
          "name": "",
          "type": "uint8[]"
        }
      ],
      "stateMutability": "view",
      "type": "function"
    },
    {
      "inputs": [
        {
          "internalType": "bytes32",
          "name": "postID",
          "type": "bytes32"
        }
      ],
      "name": "getRewardPoint",
      "outputs": [],
      "stateMutability": "nonpayable",
      "type": "function"
    },
    {
      "inputs": [
        {
          "internalType": "bytes32",
          "name": "postID",
          "type": "bytes32"
        }
      ],
      "name": "getVoteOfReview",
      "outputs": [
        {
          "components": [
            {
              "internalType": "address",
              "name": "curator",
              "type": "address"
            },
            {
              "internalType": "uint256",
              "name": "curatorREP",
              "type": "uint256"
            },
            {
              "internalType": "uint256",
              "name": "curatorVP",
              "type": "uint256"
            }
          ],
          "internalType": "struct Tourism.Vote[]",
          "name": "",
          "type": "tuple[]"
        }
      ],
      "stateMutability": "view",
      "type": "function"
    },
    {
      "inputs": [
        {
          "internalType": "address",
          "name": "",
          "type": "address"
        },
        {
          "internalType": "bytes32",
          "name": "",
          "type": "bytes32"
        }
      ],
      "name": "isVoted",
      "outputs": [
        {
          "internalType": "bool",
          "name": "",
          "type": "bool"
        }
      ],
      "stateMutability": "view",
      "type": "function"
    },
    {
      "inputs": [
        {
          "internalType": "address",
          "name": "",
          "type": "address"
        },
        {
          "internalType": "uint256",
          "name": "",
          "type": "uint256"
        }
      ],
      "name": "listReward",
      "outputs": [
        {
          "internalType": "bytes32",
          "name": "",
          "type": "bytes32"
        }
      ],
      "stateMutability": "view",
      "type": "function"
    },
    {
      "inputs": [],
      "name": "register",
      "outputs": [],
      "stateMutability": "nonpayable",
      "type": "function"
    },
    {
      "inputs": [
        {
          "internalType": "bytes32",
          "name": "",
          "type": "bytes32"
        }
      ],
      "name": "reviewByID",
      "outputs": [
        {
          "internalType": "address",
          "name": "author",
          "type": "address"
        },
        {
          "internalType": "bytes32",
          "name": "postID",
          "type": "bytes32"
        },
        {
          "internalType": "string",
          "name": "placeId",
          "type": "string"
        },
        {
          "internalType": "string",
          "name": "placeName",
          "type": "string"
        },
        {
          "internalType": "string",
          "name": "placeAddress",
          "type": "string"
        },
        {
          "internalType": "uint256",
          "name": "createTime",
          "type": "uint256"
        },
        {
          "internalType": "uint8",
          "name": "rate",
          "type": "uint8"
        },
        {
          "internalType": "string",
          "name": "review",
          "type": "string"
        },
        {
          "internalType": "string",
          "name": "title",
          "type": "string"
        },
        {
          "internalType": "uint256",
          "name": "upvoteNum",
          "type": "uint256"
        }
      ],
      "stateMutability": "view",
      "type": "function"
    },
    {
      "inputs": [
        {
          "internalType": "bytes32",
          "name": "",
          "type": "bytes32"
        },
        {
          "internalType": "uint256",
          "name": "",
          "type": "uint256"
        }
      ],
      "name": "reviewVotes",
      "outputs": [
        {
          "internalType": "address",
          "name": "curator",
          "type": "address"
        },
        {
          "internalType": "uint256",
          "name": "curatorREP",
          "type": "uint256"
        },
        {
          "internalType": "uint256",
          "name": "curatorVP",
          "type": "uint256"
        }
      ],
      "stateMutability": "view",
      "type": "function"
    },
    {
      "inputs": [
        {
          "internalType": "string",
          "name": "placeID",
          "type": "string"
        },
        {
          "internalType": "bytes32",
          "name": "postID",
          "type": "bytes32"
        },
        {
          "internalType": "string",
          "name": "review",
          "type": "string"
        },
        {
          "internalType": "uint8",
          "name": "rate",
          "type": "uint8"
        },
        {
          "internalType": "string",
          "name": "title",
          "type": "string"
        }
      ],
      "name": "reviews",
      "outputs": [],
      "stateMutability": "nonpayable",
      "type": "function"
    },
    {
      "inputs": [],
      "name": "seeRewardLists",
      "outputs": [
        {
          "internalType": "bytes32[]",
          "name": "",
          "type": "bytes32[]"
        }
      ],
      "stateMutability": "view",
      "type": "function"
    },
    {
      "inputs": [
        {
          "internalType": "address",
          "name": "",
          "type": "address"
        }
      ],
      "name": "touristREP",
      "outputs": [
        {
          "internalType": "uint256",
          "name": "",
          "type": "uint256"
        }
      ],
      "stateMutability": "view",
      "type": "function"
    },
    {
      "inputs": [
        {
          "internalType": "address",
          "name": "",
          "type": "address"
        },
        {
          "internalType": "bytes32",
          "name": "",
          "type": "bytes32"
        }
      ],
      "name": "touristRewardOnPostID",
      "outputs": [
        {
          "internalType": "uint256",
          "name": "",
          "type": "uint256"
        }
      ],
      "stateMutability": "view",
      "type": "function"
    },
    {
      "inputs": [
        {
          "internalType": "address",
          "name": "",
          "type": "address"
        }
      ],
      "name": "touristVP",
      "outputs": [
        {
          "internalType": "uint256",
          "name": "",
          "type": "uint256"
        }
      ],
      "stateMutability": "view",
      "type": "function"
    },
    {
      "inputs": [
        {
          "internalType": "bytes32",
          "name": "postID",
          "type": "bytes32"
        }
      ],
      "name": "upvote",
      "outputs": [],
      "stateMutability": "nonpayable",
      "type": "function"
    }
  ],
  "bytecode": "0x60806040523480156200001157600080fd5b5060405162005b7238038062005b728339818101604052810190620000379190620000ec565b60018060003373ffffffffffffffffffffffffffffffffffffffff1673ffffffffffffffffffffffffffffffffffffffff16815260200190815260200160002060006101000a81548160ff021916908315150217905550806000806101000a81548173ffffffffffffffffffffffffffffffffffffffff021916908373ffffffffffffffffffffffffffffffffffffffff1602179055505062000166565b600081519050620000e6816200014c565b92915050565b600060208284031215620000ff57600080fd5b60006200010f84828501620000d5565b91505092915050565b600062000125826200012c565b9050919050565b600073ffffffffffffffffffffffffffffffffffffffff82169050919050565b620001578162000118565b81146200016357600080fd5b50565b6159fc80620001766000396000f3fe608060405234801561001057600080fd5b50600436106101a95760003560e01c80638a13eea7116100f9578063b36050b411610097578063f21bb4c511610071578063f21bb4c514610553578063f5c62ac61461056f578063fdb429a11461058b578063fed9a3fe146105bb576101a9565b8063b36050b4146104ff578063b69f58e21461051b578063ed8b56a714610537576101a9565b8063a5b1f44d116100d3578063a5b1f44d1461044e578063a7ffb5fb1461046a578063aa6e13051461049a578063ac91a75f146104ca576101a9565b80638a13eea7146103e45780638a9419aa146104025780639216483d1461041e576101a9565b80634aff09d511610166578063640e11d311610140578063640e11d31461032f5780636ca912111461035f57806370480275146103985780638213c3c1146103b4576101a9565b80634aff09d5146102b15780635643618e146102e15780635d02e4bc14610311576101a9565b8063153b1ea0146101ae5780631aa3a008146101de5780631fe493ec146101e85780632d70ad5c146102185780633aa9d488146102485780634a8b6f9e14610278575b600080fd5b6101c860048036038101906101c39190614405565b6105ed565b6040516101d591906150d7565b60405180910390f35b6101e66109f7565b005b61020260048036038101906101fd91906144a6565b610ba5565b60405161020f91906150b5565b60405180910390f35b610232600480360381019061022d919061442e565b610d27565b60405161023f919061513d565b60405180910390f35b610262600480360381019061025d919061442e565b610d56565b60405161026f9190615294565b60405180910390f35b610292600480360381019061028d91906144a6565b610d7b565b6040516102a89a99989796959493929190614f21565b60405180910390f35b6102cb60048036038101906102c6919061455f565b6110a4565b6040516102d891906151b7565b60405180910390f35b6102fb60048036038101906102f691906144a6565b61115a565b60405161030891906150f9565b60405180910390f35b610319611236565b6040516103269190615093565b60405180910390f35b6103496004803603810190610344919061455f565b6112cb565b60405161035691906151b7565b60405180910390f35b6103796004803603810190610374919061446a565b611381565b60405161038f9a99989796959493929190614f21565b60405180910390f35b6103b260048036038101906103ad9190614405565b6116c7565b005b6103ce60048036038101906103c9919061455f565b6117b4565b6040516103db919061511b565b60405180910390f35b6103ec611850565b6040516103f9919061519c565b60405180910390f35b61041c600480360381019061041791906144a6565b611874565b005b6104386004803603810190610433919061446a565b6120c8565b6040516104459190615158565b60405180910390f35b610468600480360381019061046391906144a6565b6120f9565b005b610484600480360381019061047f9190614405565b6128c1565b6040516104919190615294565b60405180910390f35b6104b460048036038101906104af919061455f565b6128d9565b6040516104c191906150d7565b60405180910390f35b6104e460048036038101906104df91906144a6565b612cc2565b6040516104f696959493929190614e7b565b60405180910390f35b610519600480360381019061051491906144cf565b612da6565b005b610535600480360381019061053091906144a6565b613163565b005b610551600480360381019061054c919061465f565b613332565b005b61056d6004803603810190610568919061455f565b613430565b005b610589600480360381019061058491906145a0565b6135e1565b005b6105a560048036038101906105a09190614405565b613ed9565b6040516105b29190615294565b60405180910390f35b6105d560048036038101906105d09190614523565b613ef1565b6040516105e49392919061505c565b60405180910390f35b6060600560008373ffffffffffffffffffffffffffffffffffffffff1673ffffffffffffffffffffffffffffffffffffffff168152602001908152602001600020805480602002602001604051908101604052809291908181526020016000905b828210156109ec57838290600052602060002090600a0201604051806101400160405290816000820160009054906101000a900473ffffffffffffffffffffffffffffffffffffffff1673ffffffffffffffffffffffffffffffffffffffff1673ffffffffffffffffffffffffffffffffffffffff168152602001600182015481526020016002820180546106e290615660565b80601f016020809104026020016040519081016040528092919081815260200182805461070e90615660565b801561075b5780601f106107305761010080835404028352916020019161075b565b820191906000526020600020905b81548152906001019060200180831161073e57829003601f168201915b5050505050815260200160038201805461077490615660565b80601f01602080910402602001604051908101604052809291908181526020018280546107a090615660565b80156107ed5780601f106107c2576101008083540402835291602001916107ed565b820191906000526020600020905b8154815290600101906020018083116107d057829003601f168201915b5050505050815260200160048201805461080690615660565b80601f016020809104026020016040519081016040528092919081815260200182805461083290615660565b801561087f5780601f106108545761010080835404028352916020019161087f565b820191906000526020600020905b81548152906001019060200180831161086257829003601f168201915b50505050508152602001600582015481526020016006820160009054906101000a900460ff1660ff1660ff1681526020016007820180546108bf90615660565b80601f01602080910402602001604051908101604052809291908181526020018280546108eb90615660565b80156109385780601f1061090d57610100808354040283529160200191610938565b820191906000526020600020905b81548152906001019060200180831161091b57829003601f168201915b5050505050815260200160088201805461095190615660565b80601f016020809104026020016040519081016040528092919081815260200182805461097d90615660565b80156109ca5780601f1061099f576101008083540402835291602001916109ca565b820191906000526020600020905b8154815290600101906020018083116109ad57829003601f168201915b505050505081526020016009820154815250508152602001906001019061064e565b505050509050919050565b60001515600260003373ffffffffffffffffffffffffffffffffffffffff1673ffffffffffffffffffffffffffffffffffffffff16815260200190815260200160002060009054906101000a900460ff16151514610a8a576040517f08c379a0000000000000000000000000000000000000000000000000000000008152600401610a8190615259565b60405180910390fd5b600f600460003373ffffffffffffffffffffffffffffffffffffffff1673ffffffffffffffffffffffffffffffffffffffff168152602001908152602001600020819055506064600360003373ffffffffffffffffffffffffffffffffffffffff1673ffffffffffffffffffffffffffffffffffffffff168152602001908152602001600020819055506001600260003373ffffffffffffffffffffffffffffffffffffffff1673ffffffffffffffffffffffffffffffffffffffff16815260200190815260200160002060006101000a81548160ff0219169083151502179055507feeda149c76076b34d4b9d8896c2f7efc0d33d1c7b53ea3c5db490d64613f603a33604051610b9b9190614e37565b60405180910390a1565b606060106000838152602001908152602001600020805480602002602001604051908101604052809291908181526020016000905b82821015610d1c57838290600052602060002090600602016040518060c00160405290816000820160009054906101000a900473ffffffffffffffffffffffffffffffffffffffff1673ffffffffffffffffffffffffffffffffffffffff1673ffffffffffffffffffffffffffffffffffffffff168152602001600182015481526020016002820154815260200160038201548152602001600482018054610c8190615660565b80601f0160208091040260200160405190810160405280929190818152602001828054610cad90615660565b8015610cfa5780601f10610ccf57610100808354040283529160200191610cfa565b820191906000526020600020905b815481529060010190602001808311610cdd57829003601f168201915b5050505050815260200160058201548152505081526020019060010190610bda565b505050509050919050565b60116020528160005260406000206020528060005260406000206000915091509054906101000a900460ff1681565b6014602052816000526040600020602052806000526040600020600091509150505481565b600b6020528060005260406000206000915090508060000160009054906101000a900473ffffffffffffffffffffffffffffffffffffffff1690806001015490806002018054610dca90615660565b80601f0160208091040260200160405190810160405280929190818152602001828054610df690615660565b8015610e435780601f10610e1857610100808354040283529160200191610e43565b820191906000526020600020905b815481529060010190602001808311610e2657829003601f168201915b505050505090806003018054610e5890615660565b80601f0160208091040260200160405190810160405280929190818152602001828054610e8490615660565b8015610ed15780601f10610ea657610100808354040283529160200191610ed1565b820191906000526020600020905b815481529060010190602001808311610eb457829003601f168201915b505050505090806004018054610ee690615660565b80601f0160208091040260200160405190810160405280929190818152602001828054610f1290615660565b8015610f5f5780601f10610f3457610100808354040283529160200191610f5f565b820191906000526020600020905b815481529060010190602001808311610f4257829003601f168201915b5050505050908060050154908060060160009054906101000a900460ff1690806007018054610f8d90615660565b80601f0160208091040260200160405190810160405280929190818152602001828054610fb990615660565b80156110065780601f10610fdb57610100808354040283529160200191611006565b820191906000526020600020905b815481529060010190602001808311610fe957829003601f168201915b50505050509080600801805461101b90615660565b80601f016020809104026020016040519081016040528092919081815260200182805461104790615660565b80156110945780601f1061106957610100808354040283529160200191611094565b820191906000526020600020905b81548152906001019060200180831161107757829003601f168201915b505050505090806009015490508a565b60078180516020810182018051848252602083016020850120818352809550505050505060009150905080546110d990615660565b80601f016020809104026020016040519081016040528092919081815260200182805461110590615660565b80156111525780601f1061112757610100808354040283529160200191611152565b820191906000526020600020905b81548152906001019060200180831161113557829003601f168201915b505050505081565b606060126000838152602001908152602001600020805480602002602001604051908101604052809291908181526020016000905b8282101561122b57838290600052602060002090600302016040518060600160405290816000820160009054906101000a900473ffffffffffffffffffffffffffffffffffffffff1673ffffffffffffffffffffffffffffffffffffffff1673ffffffffffffffffffffffffffffffffffffffff168152602001600182015481526020016002820154815250508152602001906001019061118f565b505050509050919050565b6060600660003373ffffffffffffffffffffffffffffffffffffffff1673ffffffffffffffffffffffffffffffffffffffff1681526020019081526020016000208054806020026020016040519081016040528092919081815260200182805480156112c157602002820191906000526020600020905b8154815260200190600101908083116112ad575b5050505050905090565b600881805160208101820180518482526020830160208501208183528095505050505050600091509050805461130090615660565b80601f016020809104026020016040519081016040528092919081815260200182805461132c90615660565b80156113795780601f1061134e57610100808354040283529160200191611379565b820191906000526020600020905b81548152906001019060200180831161135c57829003601f168201915b505050505081565b6005602052816000526040600020818154811061139d57600080fd5b90600052602060002090600a0201600091509150508060000160009054906101000a900473ffffffffffffffffffffffffffffffffffffffff16908060010154908060020180546113ed90615660565b80601f016020809104026020016040519081016040528092919081815260200182805461141990615660565b80156114665780601f1061143b57610100808354040283529160200191611466565b820191906000526020600020905b81548152906001019060200180831161144957829003601f168201915b50505050509080600301805461147b90615660565b80601f01602080910402602001604051908101604052809291908181526020018280546114a790615660565b80156114f45780601f106114c9576101008083540402835291602001916114f4565b820191906000526020600020905b8154815290600101906020018083116114d757829003601f168201915b50505050509080600401805461150990615660565b80601f016020809104026020016040519081016040528092919081815260200182805461153590615660565b80156115825780601f1061155757610100808354040283529160200191611582565b820191906000526020600020905b81548152906001019060200180831161156557829003601f168201915b5050505050908060050154908060060160009054906101000a900460ff16908060070180546115b090615660565b80601f01602080910402602001604051908101604052809291908181526020018280546115dc90615660565b80156116295780601f106115fe57610100808354040283529160200191611629565b820191906000526020600020905b81548152906001019060200180831161160c57829003601f168201915b50505050509080600801805461163e90615660565b80601f016020809104026020016040519081016040528092919081815260200182805461166a90615660565b80156116b75780601f1061168c576101008083540402835291602001916116b7565b820191906000526020600020905b81548152906001019060200180831161169a57829003601f168201915b505050505090806009015490508a565b60011515600160003373ffffffffffffffffffffffffffffffffffffffff1673ffffffffffffffffffffffffffffffffffffffff16815260200190815260200160002060009054906101000a900460ff1615151461175a576040517f08c379a000000000000000000000000000000000000000000000000000000000815260040161175190615239565b60405180910390fd5b60018060008373ffffffffffffffffffffffffffffffffffffffff1673ffffffffffffffffffffffffffffffffffffffff16815260200190815260200160002060006101000a81548160ff02191690831515021790555050565b6060600a826040516117c69190614e20565b908152602001604051809103902080548060200260200160405190810160405280929190818152602001828054801561184457602002820191906000526020600020906000905b82829054906101000a900460ff1660ff168152602001906001019060208260000104928301926001038202915080841161180d5790505b50505050509050919050565b60008054906101000a900473ffffffffffffffffffffffffffffffffffffffff1681565b60001515600260003373ffffffffffffffffffffffffffffffffffffffff1673ffffffffffffffffffffffffffffffffffffffff16815260200190815260200160002060009054906101000a900460ff161515141561190a57336040517f1063935d0000000000000000000000000000000000000000000000000000000081526004016119019190614e37565b60405180910390fd5b6000801b600b6000838152602001908152602001600020600101541480156119505750600f600082815260200190815260200160002060009054906101000a900460ff16155b1561199257806040517fd7b18dd00000000000000000000000000000000000000000000000000000000081526004016119899190615158565b60405180910390fd5b600115156013600083815260200190815260200160002060009054906101000a900460ff16151514156119c457600080fd5b60001515600d600083815260200190815260200160002060009054906101000a900460ff1615151415611a2c576040517f08c379a0000000000000000000000000000000000000000000000000000000008152600401611a2390615219565b60405180910390fd5b600080600f600084815260200190815260200160002060009054906101000a900460ff16611a9257600b600084815260200190815260200160002060000160009054906101000a900473ffffffffffffffffffffffffffffffffffffffff169050611acc565b600c600084815260200190815260200160002060000160009054906101000a900473ffffffffffffffffffffffffffffffffffffffff1690505b6000611ad784613f58565b9250600060126000868152602001908152602001600020805480602002602001604051908101604052809291908181526020016000905b82821015611baa57838290600052602060002090600302016040518060600160405290816000820160009054906101000a900473ffffffffffffffffffffffffffffffffffffffff1673ffffffffffffffffffffffffffffffffffffffff1673ffffffffffffffffffffffffffffffffffffffff1681526020016001820154815260200160028201548152505081526020019060010190611b0e565b50505050905060005b81518163ffffffff161015611c2d57818163ffffffff1681518110611c01577f4e487b7100000000000000000000000000000000000000000000000000000000600052603260045260246000fd5b60200260200101516020015183611c18919061545a565b92508080611c259061570c565b915050611bb3565b50670de0b6b3a764000084611c4291906154e1565b935060006064604b86611c5591906154e1565b611c5f91906154b0565b9050600f600087815260200190815260200160002060009054906101000a900460ff16611d425780601460008673ffffffffffffffffffffffffffffffffffffffff1673ffffffffffffffffffffffffffffffffffffffff168152602001908152602001600020600088815260200190815260200160002081905550600660008573ffffffffffffffffffffffffffffffffffffffff1673ffffffffffffffffffffffffffffffffffffffff1681526020019081526020016000208690806001815401808255809150506001900390600052602060002001600090919091909150555b60006064601987611d5391906154e1565b611d5d91906154b0565b905060005b83518163ffffffff161015611f6a576000848263ffffffff1681518110611db2577f4e487b7100000000000000000000000000000000000000000000000000000000600052603260045260246000fd5b60200260200101516020015186611dc991906154b0565b90506000811415611dd957600190505b6000858363ffffffff1681518110611e1a577f4e487b7100000000000000000000000000000000000000000000000000000000600052603260045260246000fd5b60200260200101516000015190506000868463ffffffff1681518110611e69577f4e487b7100000000000000000000000000000000000000000000000000000000600052603260045260246000fd5b6020026020010151604001519050600660008373ffffffffffffffffffffffffffffffffffffffff1673ffffffffffffffffffffffffffffffffffffffff1681526020019081526020016000208b90806001815401808255809150506001900390600052602060002001600090919091909150556064818487611eec91906154b0565b611ef691906154e1565b611f0091906154b0565b601460008473ffffffffffffffffffffffffffffffffffffffff1673ffffffffffffffffffffffffffffffffffffffff16815260200190815260200160002060008d8152602001908152602001600020819055505050508080611f629061570c565b915050611d62565b5073__$09fb531d6e0688cf290a1b2a7e7ae137ee$__63677342ce856040518263ffffffff1660e01b8152600401611fa29190615279565b60206040518083038186803b158015611fba57600080fd5b505af4158015611fce573d6000803e3d6000fd5b505050506040513d601f19601f82011682018060405250810190611ff291906146f6565b6fffffffffffffffffffffffffffffffff16600460008773ffffffffffffffffffffffffffffffffffffffff1673ffffffffffffffffffffffffffffffffffffffff1681526020019081526020016000206000828254612052919061545a565b9250508190555060016013600089815260200190815260200160002060006101000a81548160ff0219169083151502179055508082887f134a256b30e79278465eb4be19c959a4c1f253707afe0d5eddcf9a2738a6a6b4866040516120b791906150f9565b60405180910390a450505050505050565b600660205281600052604060002081815481106120e457600080fd5b90600052602060002001600091509150505481565b6000801b600b60008381526020019081526020016000206001015414801561213f5750600f600082815260200190815260200160002060009054906101000a900460ff16155b1561218157806040517fd7b18dd00000000000000000000000000000000000000000000000000000000081526004016121789190615158565b60405180910390fd5b60001515600260003373ffffffffffffffffffffffffffffffffffffffff1673ffffffffffffffffffffffffffffffffffffffff16815260200190815260200160002060009054906101000a900460ff161515141561221757336040517f1063935d00000000000000000000000000000000000000000000000000000000815260040161220e9190614e37565b60405180910390fd5b60011515601160003373ffffffffffffffffffffffffffffffffffffffff1673ffffffffffffffffffffffffffffffffffffffff168152602001908152602001600020600083815260200190815260200160002060009054906101000a900460ff16151514156122c05780336040517f77df5c0a0000000000000000000000000000000000000000000000000000000081526004016122b7929190615173565b60405180910390fd5b6000600360003373ffffffffffffffffffffffffffffffffffffffff1673ffffffffffffffffffffffffffffffffffffffff1681526020019081526020016000205490506000600460003373ffffffffffffffffffffffffffffffffffffffff1673ffffffffffffffffffffffffffffffffffffffff1681526020019081526020016000205490506002821080156123585750606482115b1561239c5733826040517f80739898000000000000000000000000000000000000000000000000000000008152600401612393929190615033565b60405180910390fd5b600f600084815260200190815260200160002060009054906101000a900460ff16612599576000600b600085815260200190815260200160002090508060090160008154809291906123ed906156c3565b9190505550600081600201805461240390615660565b80601f016020809104026020016040519081016040528092919081815260200182805461242f90615660565b801561247c5780601f106124515761010080835404028352916020019161247c565b820191906000526020600020905b81548152906001019060200180831161245f57829003601f168201915b5050505050905060006009826040516124959190614e20565b9081526020016040518091039020905060005b81805490508163ffffffff1610156125905786828263ffffffff16815481106124fa577f4e487b7100000000000000000000000000000000000000000000000000000000600052603260045260246000fd5b90600052602060002090600a020160010154141561257d57818163ffffffff1681548110612551577f4e487b7100000000000000000000000000000000000000000000000000000000600052603260045260246000fd5b90600052602060002090600a02016009016000815480929190612573906156c3565b9190505550612590565b80806125889061570c565b9150506124a8565b505050506126d4565b6000600c600085815260200190815260200160002090508060050160008154809291906125c5906156c3565b919050555060006010600083600201548152602001908152602001600020905060005b81805490508163ffffffff1610156126d05785828263ffffffff168154811061263a577f4e487b7100000000000000000000000000000000000000000000000000000000600052603260045260246000fd5b90600052602060002090600602016001015414156126bd57818163ffffffff1681548110612691577f4e487b7100000000000000000000000000000000000000000000000000000000600052603260045260246000fd5b906000526020600020906006020160050160008154809291906126b3906156c3565b91905055506126d0565b80806126c89061570c565b9150506125e8565b5050505b6126dc614199565b33816000019073ffffffffffffffffffffffffffffffffffffffff16908173ffffffffffffffffffffffffffffffffffffffff168152505081816020018181525050828160400181815250506012600085815260200190815260200160002081908060018154018082558091505060019003906000526020600020906003020160009091909190915060008201518160000160006101000a81548173ffffffffffffffffffffffffffffffffffffffff021916908373ffffffffffffffffffffffffffffffffffffffff160217905550602082015181600101556040820151816002015550506002600360003373ffffffffffffffffffffffffffffffffffffffff1673ffffffffffffffffffffffffffffffffffffffff1681526020019081526020016000206000828254612812919061553b565b925050819055506001601160003373ffffffffffffffffffffffffffffffffffffffff1673ffffffffffffffffffffffffffffffffffffffff168152602001908152602001600020600086815260200190815260200160002060006101000a81548160ff0219169083151502179055507f0ccd933ff41b0ece70bed4d673b5580ea60a522957ddcc7185933b7b78f4c67a33856040516128b3929190614e52565b60405180910390a150505050565b60046020528060005260406000206000915090505481565b60606009826040516128eb9190614e20565b9081526020016040518091039020805480602002602001604051908101604052809291908181526020016000905b82821015612cb757838290600052602060002090600a0201604051806101400160405290816000820160009054906101000a900473ffffffffffffffffffffffffffffffffffffffff1673ffffffffffffffffffffffffffffffffffffffff1673ffffffffffffffffffffffffffffffffffffffff168152602001600182015481526020016002820180546129ad90615660565b80601f01602080910402602001604051908101604052809291908181526020018280546129d990615660565b8015612a265780601f106129fb57610100808354040283529160200191612a26565b820191906000526020600020905b815481529060010190602001808311612a0957829003601f168201915b50505050508152602001600382018054612a3f90615660565b80601f0160208091040260200160405190810160405280929190818152602001828054612a6b90615660565b8015612ab85780601f10612a8d57610100808354040283529160200191612ab8565b820191906000526020600020905b815481529060010190602001808311612a9b57829003601f168201915b50505050508152602001600482018054612ad190615660565b80601f0160208091040260200160405190810160405280929190818152602001828054612afd90615660565b8015612b4a5780601f10612b1f57610100808354040283529160200191612b4a565b820191906000526020600020905b815481529060010190602001808311612b2d57829003601f168201915b50505050508152602001600582015481526020016006820160009054906101000a900460ff1660ff1660ff168152602001600782018054612b8a90615660565b80601f0160208091040260200160405190810160405280929190818152602001828054612bb690615660565b8015612c035780601f10612bd857610100808354040283529160200191612c03565b820191906000526020600020905b815481529060010190602001808311612be657829003601f168201915b50505050508152602001600882018054612c1c90615660565b80601f0160208091040260200160405190810160405280929190818152602001828054612c4890615660565b8015612c955780601f10612c6a57610100808354040283529160200191612c95565b820191906000526020600020905b815481529060010190602001808311612c7857829003601f168201915b5050505050815260200160098201548152505081526020019060010190612919565b505050509050919050565b600c6020528060005260406000206000915090508060000160009054906101000a900473ffffffffffffffffffffffffffffffffffffffff1690806001015490806002015490806003015490806004018054612d1d90615660565b80601f0160208091040260200160405190810160405280929190818152602001828054612d4990615660565b8015612d965780601f10612d6b57610100808354040283529160200191612d96565b820191906000526020600020905b815481529060010190602001808311612d7957829003601f168201915b5050505050908060050154905086565b60001515600260003373ffffffffffffffffffffffffffffffffffffffff1673ffffffffffffffffffffffffffffffffffffffff16815260200190815260200160002060009054906101000a900460ff1615151415612e3c57336040517f1063935d000000000000000000000000000000000000000000000000000000008152600401612e339190614e37565b60405180910390fd5b6000801b600b6000848152602001908152602001600020600101541415612e9a57816040517fd7b18dd0000000000000000000000000000000000000000000000000000000008152600401612e919190615158565b60405180910390fd5b60003342604051602001612eaf929190614df4565b604051602081830303815290604052805190602001209050612ecf6141d0565b33816000019073ffffffffffffffffffffffffffffffffffffffff16908173ffffffffffffffffffffffffffffffffffffffff16815250508181602001818152505042816060018181525050828160800181905250838160400181815250506010600085815260200190815260200160002081908060018154018082558091505060019003906000526020600020906006020160009091909190915060008201518160000160006101000a81548173ffffffffffffffffffffffffffffffffffffffff021916908373ffffffffffffffffffffffffffffffffffffffff1602179055506020820151816001015560408201518160020155606082015181600301556080820151816004019080519060200190612fec929190614222565b5060a0820151816005015550506001600f600084815260200190815260200160002060006101000a81548160ff02191690831515021790555080600c600084815260200190815260200160002060008201518160000160006101000a81548173ffffffffffffffffffffffffffffffffffffffff021916908373ffffffffffffffffffffffffffffffffffffffff16021790555060208201518160010155604082015181600201556060820151816003015560808201518160040190805190602001906130ba929190614222565b5060a0820151816005015590505060011515600d600086815260200190815260200160002060009054906101000a900460ff1615151415613122576001600d600084815260200190815260200160002060006101000a81548160ff0219169083151502179055505b7f4e995f78decdd67228fe5ea681e3e0bd77d263899f80f9ff48c4b98c763e7e4533838560405161315593929190614ee3565b60405180910390a150505050565b6000601460003373ffffffffffffffffffffffffffffffffffffffff1673ffffffffffffffffffffffffffffffffffffffff168152602001908152602001600020600083815260200190815260200160002054116131f6576040517f08c379a00000000000000000000000000000000000000000000000000000000081526004016131ed906151d9565b60405180910390fd5b6000601460003373ffffffffffffffffffffffffffffffffffffffff1673ffffffffffffffffffffffffffffffffffffffff16815260200190815260200160002060008381526020019081526020016000205490506000601460003373ffffffffffffffffffffffffffffffffffffffff1673ffffffffffffffffffffffffffffffffffffffff16815260200190815260200160002060008481526020019081526020016000208190555060008054906101000a900473ffffffffffffffffffffffffffffffffffffffff1673ffffffffffffffffffffffffffffffffffffffff1663d02b789d33836040518363ffffffff1660e01b81526004016132fc929190615033565b600060405180830381600087803b15801561331657600080fd5b505af115801561332a573d6000803e3d6000fd5b505050505050565b60011515600160003373ffffffffffffffffffffffffffffffffffffffff1673ffffffffffffffffffffffffffffffffffffffff16815260200190815260200160002060009054906101000a900460ff161515146133c5576040517f08c379a00000000000000000000000000000000000000000000000000000000081526004016133bc90615239565b60405180910390fd5b816007846040516133d69190614e20565b908152602001604051809103902090805190602001906133f7929190614222565b50806008846040516134099190614e20565b9081526020016040518091039020908051906020019061342a929190614222565b50505050565b60001515600260003373ffffffffffffffffffffffffffffffffffffffff1673ffffffffffffffffffffffffffffffffffffffff16815260200190815260200160002060009054906101000a900460ff16151514156134c657336040517f1063935d0000000000000000000000000000000000000000000000000000000081526004016134bd9190614e37565b60405180910390fd5b60006007826040516134d89190614e20565b908152602001604051809103902080546134f190615660565b9050141561353657806040517f8f6b29cc00000000000000000000000000000000000000000000000000000000815260040161352d91906151b7565b60405180910390fd5b6000334260405160200161354b929190614df4565b6040516020818303038152906040528051906020012090506001600e600083815260200190815260200160002060006101000a81548160ff0219169083151502179055508160405161359d9190614e20565b6040518091039020817f995609ffe2742fdc2b1b60c0b6f329d58e9f947b234e4195b9a67bef523fb692336040516135d59190614e37565b60405180910390a35050565b60001515600260003373ffffffffffffffffffffffffffffffffffffffff1673ffffffffffffffffffffffffffffffffffffffff16815260200190815260200160002060009054906101000a900460ff161515141561367757336040517f1063935d00000000000000000000000000000000000000000000000000000000815260040161366e9190614e37565b60405180910390fd5b60006007866040516136899190614e20565b908152602001604051809103902080546136a290615660565b905014156136e757846040517f8f6b29cc0000000000000000000000000000000000000000000000000000000081526004016136de91906151b7565b60405180910390fd5b6000801b84141561372a5733858484844260405160200161370d96959493929190614d90565b6040516020818303038152906040528051906020012093506137ba565b60011515600e600086815260200190815260200160002060009054906101000a900460ff16151514156137b4576001600d600086815260200190815260200160002060006101000a81548160ff0219169083151502179055506000600e600086815260200190815260200160002060006101000a81548160ff0219169083151502179055506137b9565b600080fd5b5b60008260ff16101580156137d2575060328260ff1611155b613811576040517f08c379a0000000000000000000000000000000000000000000000000000000008152600401613808906151f9565b60405180910390fd5b6138196142a8565b8481602001818152505033816000019073ffffffffffffffffffffffffffffffffffffffff16908173ffffffffffffffffffffffffffffffffffffffff1681525050858160400181905250838160e00181905250828160c0019060ff16908160ff168152505081816101000181905250428160a00181815250506007866040516138a39190614e20565b908152602001604051809103902080546138bc90615660565b80601f01602080910402602001604051908101604052809291908181526020018280546138e890615660565b80156139355780601f1061390a57610100808354040283529160200191613935565b820191906000526020600020905b81548152906001019060200180831161391857829003601f168201915b505050505081606001819052506008866040516139529190614e20565b9081526020016040518091039020805461396b90615660565b80601f016020809104026020016040519081016040528092919081815260200182805461399790615660565b80156139e45780601f106139b9576101008083540402835291602001916139e4565b820191906000526020600020905b8154815290600101906020018083116139c757829003601f168201915b5050505050816080018190525060008161012001818152505080600b60008360200151815260200190815260200160002060008201518160000160006101000a81548173ffffffffffffffffffffffffffffffffffffffff021916908373ffffffffffffffffffffffffffffffffffffffff160217905550602082015181600101556040820151816002019080519060200190613a82929190614222565b506060820151816003019080519060200190613a9f929190614222565b506080820151816004019080519060200190613abc929190614222565b5060a0820151816005015560c08201518160060160006101000a81548160ff021916908360ff16021790555060e0820151816007019080519060200190613b04929190614222565b50610100820151816008019080519060200190613b22929190614222565b506101208201518160090155905050600560003373ffffffffffffffffffffffffffffffffffffffff1673ffffffffffffffffffffffffffffffffffffffff1681526020019081526020016000208190806001815401808255809150506001900390600052602060002090600a020160009091909190915060008201518160000160006101000a81548173ffffffffffffffffffffffffffffffffffffffff021916908373ffffffffffffffffffffffffffffffffffffffff160217905550602082015181600101556040820151816002019080519060200190613c07929190614222565b506060820151816003019080519060200190613c24929190614222565b506080820151816004019080519060200190613c41929190614222565b5060a0820151816005015560c08201518160060160006101000a81548160ff021916908360ff16021790555060e0820151816007019080519060200190613c89929190614222565b50610100820151816008019080519060200190613ca7929190614222565b5061012082015181600901555050600986604051613cc59190614e20565b90815260200160405180910390208190806001815401808255809150506001900390600052602060002090600a020160009091909190915060008201518160000160006101000a81548173ffffffffffffffffffffffffffffffffffffffff021916908373ffffffffffffffffffffffffffffffffffffffff160217905550602082015181600101556040820151816002019080519060200190613d6a929190614222565b506060820151816003019080519060200190613d87929190614222565b506080820151816004019080519060200190613da4929190614222565b5060a0820151816005015560c08201518160060160006101000a81548160ff021916908360ff16021790555060e0820151816007019080519060200190613dec929190614222565b50610100820151816008019080519060200190613e0a929190614222565b5061012082015181600901555050600a86604051613e289190614e20565b90815260200160405180910390208390806001815401808255809150506001900390600052602060002090602091828204019190069091909190916101000a81548160ff021916908360ff16021790555085604051613e879190614e20565b604051809103902081602001517f760704ab790065f832ff506a47ef33bb905c37b28e7cf953aff936b0add8ce9c33878787604051613ec99493929190614fe0565b60405180910390a3505050505050565b60036020528060005260406000206000915090505481565b60126020528160005260406000208181548110613f0d57600080fd5b9060005260206000209060030201600091509150508060000160009054906101000a900473ffffffffffffffffffffffffffffffffffffffff16908060010154908060020154905083565b600060011515600d600084815260200190815260200160002060009054906101000a900460ff16151514613f8b57600080fd5b6000613f968361115a565b9050600080600f600086815260200190815260200160002060009054906101000a900460ff1661401757600b6000868152602001908152602001600020600901549150600b600086815260200190815260200160002060000160009054906101000a900473ffffffffffffffffffffffffffffffffffffffff16905061406a565b600c6000868152602001908152602001600020600501549150600c600086815260200190815260200160002060000160009054906101000a900473ffffffffffffffffffffffffffffffffffffffff1690505b600080600090506000805b858163ffffffff16101561410b57868163ffffffff16815181106140c2577f4e487b7100000000000000000000000000000000000000000000000000000000600052603260045260246000fd5b60200260200101516020015193506001846140dd91906154e1565b836140e8919061545a565b925083826140f6919061545a565b915080806141039061570c565b915050614075565b50600f600089815260200190815260200160002060009054906101000a900460ff1661418b576001600460008673ffffffffffffffffffffffffffffffffffffffff1673ffffffffffffffffffffffffffffffffffffffff1681526020019081526020016000205461417d91906154e1565b82614188919061545a565b91505b819650505050505050919050565b6040518060600160405280600073ffffffffffffffffffffffffffffffffffffffff16815260200160008152602001600081525090565b6040518060c00160405280600073ffffffffffffffffffffffffffffffffffffffff16815260200160008019168152602001600080191681526020016000815260200160608152602001600081525090565b82805461422e90615660565b90600052602060002090601f0160209004810192826142505760008555614297565b82601f1061426957805160ff1916838001178555614297565b82800160010185558215614297579182015b8281111561429657825182559160200191906001019061427b565b5b5090506142a49190614317565b5090565b604051806101400160405280600073ffffffffffffffffffffffffffffffffffffffff1681526020016000801916815260200160608152602001606081526020016060815260200160008152602001600060ff1681526020016060815260200160608152602001600081525090565b5b80821115614330576000816000905550600101614318565b5090565b6000614347614342846152d4565b6152af565b90508281526020810184848401111561435f57600080fd5b61436a84828561561e565b509392505050565b60008135905061438181615953565b92915050565b6000813590506143968161596a565b92915050565b600082601f8301126143ad57600080fd5b81356143bd848260208601614334565b91505092915050565b6000815190506143d581615981565b92915050565b6000813590506143ea81615998565b92915050565b6000813590506143ff816159af565b92915050565b60006020828403121561441757600080fd5b600061442584828501614372565b91505092915050565b6000806040838503121561444157600080fd5b600061444f85828601614372565b925050602061446085828601614387565b9150509250929050565b6000806040838503121561447d57600080fd5b600061448b85828601614372565b925050602061449c858286016143db565b9150509250929050565b6000602082840312156144b857600080fd5b60006144c684828501614387565b91505092915050565b600080604083850312156144e257600080fd5b60006144f085828601614387565b925050602083013567ffffffffffffffff81111561450d57600080fd5b6145198582860161439c565b9150509250929050565b6000806040838503121561453657600080fd5b600061454485828601614387565b9250506020614555858286016143db565b9150509250929050565b60006020828403121561457157600080fd5b600082013567ffffffffffffffff81111561458b57600080fd5b6145978482850161439c565b91505092915050565b600080600080600060a086880312156145b857600080fd5b600086013567ffffffffffffffff8111156145d257600080fd5b6145de8882890161439c565b95505060206145ef88828901614387565b945050604086013567ffffffffffffffff81111561460c57600080fd5b6146188882890161439c565b9350506060614629888289016143f0565b925050608086013567ffffffffffffffff81111561464657600080fd5b6146528882890161439c565b9150509295509295909350565b60008060006060848603121561467457600080fd5b600084013567ffffffffffffffff81111561468e57600080fd5b61469a8682870161439c565b935050602084013567ffffffffffffffff8111156146b757600080fd5b6146c38682870161439c565b925050604084013567ffffffffffffffff8111156146e057600080fd5b6146ec8682870161439c565b9150509250925092565b60006020828403121561470857600080fd5b6000614716848285016143c6565b91505092915050565b600061472b83836149d7565b60208301905092915050565b60006147438383614b56565b905092915050565b60006147578383614bdf565b905092915050565b600061476b8383614cd5565b60608301905092915050565b60006147838383614d5b565b60208301905092915050565b6147988161556f565b82525050565b6147a78161556f565b82525050565b6147be6147b98261556f565b615739565b82525050565b60006147cf82615355565b6147d981856153d8565b93506147e483615305565b8060005b838110156148155781516147fc888261471f565b975061480783615397565b9250506001810190506147e8565b5085935050505092915050565b600061482d82615360565b61483781856153e9565b93508360208202850161484985615315565b8060005b8581101561488557848403895281516148668582614737565b9450614871836153a4565b925060208a0199505060018101905061484d565b50829750879550505050505092915050565b60006148a28261536b565b6148ac81856153fa565b9350836020820285016148be85615325565b8060005b858110156148fa57848403895281516148db858261474b565b94506148e6836153b1565b925060208a019950506001810190506148c2565b50829750879550505050505092915050565b600061491782615376565b614921818561540b565b935061492c83615335565b8060005b8381101561495d578151614944888261475f565b975061494f836153be565b925050600181019050614930565b5085935050505092915050565b600061497582615381565b61497f818561541c565b935061498a83615345565b8060005b838110156149bb5781516149a28882614777565b97506149ad836153cb565b92505060018101905061498e565b5085935050505092915050565b6149d181615581565b82525050565b6149e08161558d565b82525050565b6149ef8161558d565b82525050565b6149fe816155fa565b82525050565b6000614a0f8261538c565b614a19818561542d565b9350614a2981856020860161562d565b614a3281615835565b840191505092915050565b6000614a488261538c565b614a52818561543e565b9350614a6281856020860161562d565b614a6b81615835565b840191505092915050565b6000614a818261538c565b614a8b818561544f565b9350614a9b81856020860161562d565b80840191505092915050565b6000614ab4600e8361543e565b9150614abf82615860565b602082019050919050565b6000614ad760138361543e565b9150614ae282615889565b602082019050919050565b6000614afa600c8361543e565b9150614b05826158b2565b602082019050919050565b6000614b1d60218361543e565b9150614b28826158db565b604082019050919050565b6000614b40601d8361543e565b9150614b4b8261592a565b602082019050919050565b600060c083016000830151614b6e600086018261478f565b506020830151614b8160208601826149d7565b506040830151614b9460408601826149d7565b506060830151614ba76060860182614d17565b5060808301518482036080860152614bbf8282614a04565b91505060a0830151614bd460a0860182614d17565b508091505092915050565b600061014083016000830151614bf8600086018261478f565b506020830151614c0b60208601826149d7565b5060408301518482036040860152614c238282614a04565b91505060608301518482036060860152614c3d8282614a04565b91505060808301518482036080860152614c578282614a04565b91505060a0830151614c6c60a0860182614d17565b5060c0830151614c7f60c0860182614d5b565b5060e083015184820360e0860152614c978282614a04565b915050610100830151848203610100860152614cb38282614a04565b915050610120830151614cca610120860182614d17565b508091505092915050565b606082016000820151614ceb600085018261478f565b506020820151614cfe6020850182614d17565b506040820151614d116040850182614d17565b50505050565b614d20816155d3565b82525050565b614d2f816155d3565b82525050565b614d3e816155d3565b82525050565b614d55614d50826155d3565b61575d565b82525050565b614d64816155ed565b82525050565b614d73816155ed565b82525050565b614d8a614d85826155ed565b615767565b82525050565b6000614d9c82896147ad565b601482019150614dac8288614a76565b9150614db88287614a76565b9150614dc48286614d79565b600182019150614dd48285614a76565b9150614de08284614d44565b602082019150819050979650505050505050565b6000614e0082856147ad565b601482019150614e108284614d44565b6020820191508190509392505050565b6000614e2c8284614a76565b915081905092915050565b6000602082019050614e4c600083018461479e565b92915050565b6000604082019050614e67600083018561479e565b614e7460208301846149e6565b9392505050565b600060c082019050614e90600083018961479e565b614e9d60208301886149e6565b614eaa60408301876149e6565b614eb76060830186614d26565b8181036080830152614ec98185614a3d565b9050614ed860a0830184614d26565b979650505050505050565b6000606082019050614ef8600083018661479e565b614f0560208301856149e6565b8181036040830152614f178184614a3d565b9050949350505050565b600061014082019050614f37600083018d61479e565b614f44602083018c6149e6565b8181036040830152614f56818b614a3d565b90508181036060830152614f6a818a614a3d565b90508181036080830152614f7e8189614a3d565b9050614f8d60a0830188614d26565b614f9a60c0830187614d6a565b81810360e0830152614fac8186614a3d565b9050818103610100830152614fc18185614a3d565b9050614fd1610120830184614d26565b9b9a5050505050505050505050565b6000608082019050614ff5600083018761479e565b81810360208301526150078186614a3d565b90506150166040830185614d6a565b81810360608301526150288184614a3d565b905095945050505050565b6000604082019050615048600083018561479e565b6150556020830184614d26565b9392505050565b6000606082019050615071600083018661479e565b61507e6020830185614d26565b61508b6040830184614d26565b949350505050565b600060208201905081810360008301526150ad81846147c4565b905092915050565b600060208201905081810360008301526150cf8184614822565b905092915050565b600060208201905081810360008301526150f18184614897565b905092915050565b60006020820190508181036000830152615113818461490c565b905092915050565b60006020820190508181036000830152615135818461496a565b905092915050565b600060208201905061515260008301846149c8565b92915050565b600060208201905061516d60008301846149e6565b92915050565b600060408201905061518860008301856149e6565b615195602083018461479e565b9392505050565b60006020820190506151b160008301846149f5565b92915050565b600060208201905081810360008301526151d18184614a3d565b905092915050565b600060208201905081810360008301526151f281614aa7565b9050919050565b6000602082019050818103600083015261521281614aca565b9050919050565b6000602082019050818103600083015261523281614aed565b9050919050565b6000602082019050818103600083015261525281614b10565b9050919050565b6000602082019050818103600083015261527281614b33565b9050919050565b600060208201905061528e6000830184614d35565b92915050565b60006020820190506152a96000830184614d26565b92915050565b60006152b96152ca565b90506152c58282615692565b919050565b6000604051905090565b600067ffffffffffffffff8211156152ef576152ee615806565b5b6152f882615835565b9050602081019050919050565b6000819050602082019050919050565b6000819050602082019050919050565b6000819050602082019050919050565b6000819050602082019050919050565b6000819050602082019050919050565b600081519050919050565b600081519050919050565b600081519050919050565b600081519050919050565b600081519050919050565b600081519050919050565b6000602082019050919050565b6000602082019050919050565b6000602082019050919050565b6000602082019050919050565b6000602082019050919050565b600082825260208201905092915050565b600082825260208201905092915050565b600082825260208201905092915050565b600082825260208201905092915050565b600082825260208201905092915050565b600082825260208201905092915050565b600082825260208201905092915050565b600081905092915050565b6000615465826155d3565b9150615470836155d3565b9250827fffffffffffffffffffffffffffffffffffffffffffffffffffffffffffffffff038211156154a5576154a4615779565b5b828201905092915050565b60006154bb826155d3565b91506154c6836155d3565b9250826154d6576154d56157a8565b5b828204905092915050565b60006154ec826155d3565b91506154f7836155d3565b9250817fffffffffffffffffffffffffffffffffffffffffffffffffffffffffffffffff04831182151516156155305761552f615779565b5b828202905092915050565b6000615546826155d3565b9150615551836155d3565b92508282101561556457615563615779565b5b828203905092915050565b600061557a826155b3565b9050919050565b60008115159050919050565b6000819050919050565b60006fffffffffffffffffffffffffffffffff82169050919050565b600073ffffffffffffffffffffffffffffffffffffffff82169050919050565b6000819050919050565b600063ffffffff82169050919050565b600060ff82169050919050565b60006156058261560c565b9050919050565b6000615617826155b3565b9050919050565b82818337600083830152505050565b60005b8381101561564b578082015181840152602081019050615630565b8381111561565a576000848401525b50505050565b6000600282049050600182168061567857607f821691505b6020821081141561568c5761568b6157d7565b5b50919050565b61569b82615835565b810181811067ffffffffffffffff821117156156ba576156b9615806565b5b80604052505050565b60006156ce826155d3565b91507fffffffffffffffffffffffffffffffffffffffffffffffffffffffffffffffff82141561570157615700615779565b5b600182019050919050565b6000615717826155dd565b915063ffffffff82141561572e5761572d615779565b5b600182019050919050565b60006157448261574b565b9050919050565b600061575682615853565b9050919050565b6000819050919050565b600061577282615846565b9050919050565b7f4e487b7100000000000000000000000000000000000000000000000000000000600052601160045260246000fd5b7f4e487b7100000000000000000000000000000000000000000000000000000000600052601260045260246000fd5b7f4e487b7100000000000000000000000000000000000000000000000000000000600052602260045260246000fd5b7f4e487b7100000000000000000000000000000000000000000000000000000000600052604160045260246000fd5b6000601f19601f8301169050919050565b60008160f81b9050919050565b60008160601b9050919050565b7f496e76616c696420526577617264000000000000000000000000000000000000600082015250565b7f556e76616c6964206e756d626572207261746500000000000000000000000000600082015250565b7f4e6f742056657269666965640000000000000000000000000000000000000000600082015250565b7f4f6e6c792061646d696e2063616e2063616c6c20746869732066756e6374696f60008201527f6e00000000000000000000000000000000000000000000000000000000000000602082015250565b7f54686973206164647265737320686173206265656e2065786973746564000000600082015250565b61595c8161556f565b811461596757600080fd5b50565b6159738161558d565b811461597e57600080fd5b50565b61598a81615597565b811461599557600080fd5b50565b6159a1816155d3565b81146159ac57600080fd5b50565b6159b8816155ed565b81146159c357600080fd5b5056fea26469706673582212207b37110bc106a837e72799545cc392f8f8beabcd418761c0668876050e64749864736f6c63430008040033",
  "linkReferences": {
    "contracts/tourismV2.sol": {
      "Math": [
        {
          "length": 20,
          "start": 8419
        }
      ]
    }
  },
  "deployedLinkReferences": {
    "contracts/tourismV2.sol": {
      "Math": [
        {
          "length": 20,
          "start": 8045
        }
      ]
    }
  }
}