{
  "_format": "hh-sol-artifact-1",
  "contractName": "Tourism",
  "sourceName": "contracts/Tourism.sol",
  "abi": [
    {
      "inputs": [
        {
          "internalType": "address",
          "name": "ERC20_address",
          "type": "address"
        }
      ],
      "stateMutability": "nonpayable",
      "type": "constructor"
    },
    {
      "inputs": [
        {
          "internalType": "string",
          "name": "PlaceID",
          "type": "string"
        }
      ],
      "name": "InvalidPlaceID",
      "type": "error"
    },
    {
      "inputs": [
        {
          "internalType": "bytes32",
          "name": "PostID",
          "type": "bytes32"
        }
      ],
      "name": "InvalidPostID",
      "type": "error"
    },
    {
      "inputs": [
        {
          "internalType": "string",
          "name": "PlaceID",
          "type": "string"
        },
        {
          "internalType": "string",
          "name": "TicketID",
          "type": "string"
        }
      ],
      "name": "InvalidTicketID",
      "type": "error"
    },
    {
      "inputs": [
        {
          "internalType": "address",
          "name": "Address",
          "type": "address"
        }
      ],
      "name": "NotRegister",
      "type": "error"
    },
    {
      "inputs": [
        {
          "internalType": "string",
          "name": "PlaceID",
          "type": "string"
        },
        {
          "internalType": "string",
          "name": "TicketID",
          "type": "string"
        }
      ],
      "name": "TicketIsUsed",
      "type": "error"
    },
    {
      "inputs": [
        {
          "internalType": "string",
          "name": "PlaceID",
          "type": "string"
        },
        {
          "internalType": "string",
          "name": "TicketID",
          "type": "string"
        }
      ],
      "name": "TicketIsVerified",
      "type": "error"
    },
    {
      "anonymous": false,
      "inputs": [
        {
          "indexed": false,
          "internalType": "string",
          "name": "ticketId",
          "type": "string"
        },
        {
          "indexed": false,
          "internalType": "string",
          "name": "placeID",
          "type": "string"
        },
        {
          "components": [
            {
              "internalType": "string",
              "name": "firstName",
              "type": "string"
            },
            {
              "internalType": "string",
              "name": "lastName",
              "type": "string"
            },
            {
              "internalType": "string",
              "name": "phoneNumber",
              "type": "string"
            },
            {
              "internalType": "uint256",
              "name": "REP",
              "type": "uint256"
            },
            {
              "internalType": "uint256",
              "name": "VP",
              "type": "uint256"
            }
          ],
          "indexed": false,
          "internalType": "struct Tourism.Tourist",
          "name": "Tourist",
          "type": "tuple"
        }
      ],
      "name": "CheckIn",
      "type": "event"
    },
    {
      "anonymous": false,
      "inputs": [
        {
          "indexed": true,
          "internalType": "bytes32",
          "name": "postID",
          "type": "bytes32"
        },
        {
          "indexed": true,
          "internalType": "uint256",
          "name": "authorReward",
          "type": "uint256"
        },
        {
          "indexed": true,
          "internalType": "uint256",
          "name": "curatorsReward",
          "type": "uint256"
        },
        {
          "components": [
            {
              "internalType": "address",
              "name": "curator",
              "type": "address"
            },
            {
              "internalType": "uint256",
              "name": "curatorREP",
              "type": "uint256"
            },
            {
              "internalType": "uint256",
              "name": "curatorVP",
              "type": "uint256"
            }
          ],
          "indexed": false,
          "internalType": "struct Tourism.Vote[]",
          "name": "upvotes",
          "type": "tuple[]"
        }
      ],
      "name": "DivideRewardBy4R",
      "type": "event"
    },
    {
      "anonymous": false,
      "inputs": [
        {
          "components": [
            {
              "internalType": "string",
              "name": "firstName",
              "type": "string"
            },
            {
              "internalType": "string",
              "name": "lastName",
              "type": "string"
            },
            {
              "internalType": "string",
              "name": "phoneNumber",
              "type": "string"
            },
            {
              "internalType": "uint256",
              "name": "REP",
              "type": "uint256"
            },
            {
              "internalType": "uint256",
              "name": "VP",
              "type": "uint256"
            }
          ],
          "indexed": false,
          "internalType": "struct Tourism.Tourist",
          "name": "tourist",
          "type": "tuple"
        },
        {
          "indexed": false,
          "internalType": "bytes32",
          "name": "postID",
          "type": "bytes32"
        },
        {
          "indexed": false,
          "internalType": "string",
          "name": "PlaceName",
          "type": "string"
        },
        {
          "indexed": false,
          "internalType": "string",
          "name": "review",
          "type": "string"
        },
        {
          "indexed": false,
          "internalType": "uint8",
          "name": "rate",
          "type": "uint8"
        },
        {
          "indexed": false,
          "internalType": "string",
          "name": "title",
          "type": "string"
        }
      ],
      "name": "PostReview",
      "type": "event"
    },
    {
      "anonymous": false,
      "inputs": [
        {
          "indexed": false,
          "internalType": "string",
          "name": "_firstName",
          "type": "string"
        },
        {
          "indexed": false,
          "internalType": "string",
          "name": "_lastName",
          "type": "string"
        },
        {
          "indexed": false,
          "internalType": "string",
          "name": "_phoneNumber",
          "type": "string"
        }
      ],
      "name": "Register",
      "type": "event"
    },
    {
      "inputs": [
        {
          "internalType": "address",
          "name": "",
          "type": "address"
        },
        {
          "internalType": "uint256",
          "name": "",
          "type": "uint256"
        }
      ],
      "name": "TouristReviews",
      "outputs": [
        {
          "internalType": "address",
          "name": "author",
          "type": "address"
        },
        {
          "internalType": "bytes32",
          "name": "postID",
          "type": "bytes32"
        },
        {
          "internalType": "string",
          "name": "placeId",
          "type": "string"
        },
        {
          "internalType": "string",
          "name": "placeName",
          "type": "string"
        },
        {
          "internalType": "string",
          "name": "placeAddress",
          "type": "string"
        },
        {
          "internalType": "uint256",
          "name": "createTime",
          "type": "uint256"
        },
        {
          "internalType": "uint256",
          "name": "rate",
          "type": "uint256"
        },
        {
          "internalType": "string",
          "name": "review",
          "type": "string"
        },
        {
          "internalType": "string",
          "name": "title",
          "type": "string"
        },
        {
          "internalType": "uint256",
          "name": "upvoteNum",
          "type": "uint256"
        }
      ],
      "stateMutability": "view",
      "type": "function"
    },
    {
      "inputs": [
        {
          "internalType": "address",
          "name": "userAddress",
          "type": "address"
        }
      ],
      "name": "addAdmin",
      "outputs": [],
      "stateMutability": "nonpayable",
      "type": "function"
    },
    {
      "inputs": [
        {
          "internalType": "string",
          "name": "_id",
          "type": "string"
        },
        {
          "internalType": "string",
          "name": "destinationName",
          "type": "string"
        },
        {
          "internalType": "string",
          "name": "destinationAddr",
          "type": "string"
        }
      ],
      "name": "addDestination",
      "outputs": [],
      "stateMutability": "nonpayable",
      "type": "function"
    },
    {
      "inputs": [
        {
          "internalType": "string",
          "name": "placeId",
          "type": "string"
        },
        {
          "internalType": "string",
          "name": "ticketId",
          "type": "string"
        }
      ],
      "name": "addPlaceTicket",
      "outputs": [],
      "stateMutability": "nonpayable",
      "type": "function"
    },
    {
      "inputs": [
        {
          "internalType": "bytes32",
          "name": "postID",
          "type": "bytes32"
        }
      ],
      "name": "calculateTotalReward",
      "outputs": [
        {
          "internalType": "uint256",
          "name": "",
          "type": "uint256"
        }
      ],
      "stateMutability": "view",
      "type": "function"
    },
    {
      "inputs": [
        {
          "internalType": "string",
          "name": "ticketId",
          "type": "string"
        },
        {
          "internalType": "string",
          "name": "placeID",
          "type": "string"
        }
      ],
      "name": "checkIn",
      "outputs": [],
      "stateMutability": "nonpayable",
      "type": "function"
    },
    {
      "inputs": [
        {
          "internalType": "string",
          "name": "",
          "type": "string"
        }
      ],
      "name": "destinationAddress",
      "outputs": [
        {
          "internalType": "string",
          "name": "",
          "type": "string"
        }
      ],
      "stateMutability": "view",
      "type": "function"
    },
    {
      "inputs": [
        {
          "internalType": "string",
          "name": "",
          "type": "string"
        }
      ],
      "name": "destinationIdentify",
      "outputs": [
        {
          "internalType": "string",
          "name": "",
          "type": "string"
        }
      ],
      "stateMutability": "view",
      "type": "function"
    },
    {
      "inputs": [
        {
          "internalType": "string",
          "name": "",
          "type": "string"
        },
        {
          "internalType": "uint256",
          "name": "",
          "type": "uint256"
        }
      ],
      "name": "destinationRates",
      "outputs": [
        {
          "internalType": "uint8",
          "name": "",
          "type": "uint8"
        }
      ],
      "stateMutability": "view",
      "type": "function"
    },
    {
      "inputs": [
        {
          "internalType": "string",
          "name": "",
          "type": "string"
        },
        {
          "internalType": "uint256",
          "name": "",
          "type": "uint256"
        }
      ],
      "name": "destinationReviews",
      "outputs": [
        {
          "internalType": "address",
          "name": "author",
          "type": "address"
        },
        {
          "internalType": "bytes32",
          "name": "postID",
          "type": "bytes32"
        },
        {
          "internalType": "string",
          "name": "placeId",
          "type": "string"
        },
        {
          "internalType": "string",
          "name": "placeName",
          "type": "string"
        },
        {
          "internalType": "string",
          "name": "placeAddress",
          "type": "string"
        },
        {
          "internalType": "uint256",
          "name": "createTime",
          "type": "uint256"
        },
        {
          "internalType": "uint256",
          "name": "rate",
          "type": "uint256"
        },
        {
          "internalType": "string",
          "name": "review",
          "type": "string"
        },
        {
          "internalType": "string",
          "name": "title",
          "type": "string"
        },
        {
          "internalType": "uint256",
          "name": "upvoteNum",
          "type": "uint256"
        }
      ],
      "stateMutability": "view",
      "type": "function"
    },
    {
      "inputs": [
        {
          "internalType": "bytes32",
          "name": "postID",
          "type": "bytes32"
        }
      ],
      "name": "divideRewardBy4R",
      "outputs": [],
      "stateMutability": "nonpayable",
      "type": "function"
    },
    {
      "inputs": [],
      "name": "erc20Token",
      "outputs": [
        {
          "internalType": "contract IERC20With4RMechanism",
          "name": "",
          "type": "address"
        }
      ],
      "stateMutability": "view",
      "type": "function"
    },
    {
      "inputs": [
        {
          "internalType": "string",
          "name": "_id",
          "type": "string"
        }
      ],
      "name": "getAllReviewsOfDestinations",
      "outputs": [
        {
          "components": [
            {
              "internalType": "address",
              "name": "author",
              "type": "address"
            },
            {
              "internalType": "bytes32",
              "name": "postID",
              "type": "bytes32"
            },
            {
              "internalType": "string",
              "name": "placeId",
              "type": "string"
            },
            {
              "internalType": "string",
              "name": "placeName",
              "type": "string"
            },
            {
              "internalType": "string",
              "name": "placeAddress",
              "type": "string"
            },
            {
              "internalType": "uint256",
              "name": "createTime",
              "type": "uint256"
            },
            {
              "internalType": "uint256",
              "name": "rate",
              "type": "uint256"
            },
            {
              "internalType": "string",
              "name": "review",
              "type": "string"
            },
            {
              "internalType": "string",
              "name": "title",
              "type": "string"
            },
            {
              "internalType": "uint256",
              "name": "upvoteNum",
              "type": "uint256"
            }
          ],
          "internalType": "struct Tourism.Review[]",
          "name": "",
          "type": "tuple[]"
        }
      ],
      "stateMutability": "view",
      "type": "function"
    },
    {
      "inputs": [
        {
          "internalType": "address",
          "name": "touristAddress",
          "type": "address"
        }
      ],
      "name": "getAllReviewsOfTourist",
      "outputs": [
        {
          "components": [
            {
              "internalType": "address",
              "name": "author",
              "type": "address"
            },
            {
              "internalType": "bytes32",
              "name": "postID",
              "type": "bytes32"
            },
            {
              "internalType": "string",
              "name": "placeId",
              "type": "string"
            },
            {
              "internalType": "string",
              "name": "placeName",
              "type": "string"
            },
            {
              "internalType": "string",
              "name": "placeAddress",
              "type": "string"
            },
            {
              "internalType": "uint256",
              "name": "createTime",
              "type": "uint256"
            },
            {
              "internalType": "uint256",
              "name": "rate",
              "type": "uint256"
            },
            {
              "internalType": "string",
              "name": "review",
              "type": "string"
            },
            {
              "internalType": "string",
              "name": "title",
              "type": "string"
            },
            {
              "internalType": "uint256",
              "name": "upvoteNum",
              "type": "uint256"
            }
          ],
          "internalType": "struct Tourism.Review[]",
          "name": "",
          "type": "tuple[]"
        }
      ],
      "stateMutability": "view",
      "type": "function"
    },
    {
      "inputs": [
        {
          "internalType": "string",
          "name": "placeID",
          "type": "string"
        }
      ],
      "name": "getDestinationRates",
      "outputs": [
        {
          "internalType": "uint8[]",
          "name": "",
          "type": "uint8[]"
        }
      ],
      "stateMutability": "view",
      "type": "function"
    },
    {
      "inputs": [
        {
          "internalType": "bytes32",
          "name": "postID",
          "type": "bytes32"
        }
      ],
      "name": "getRewardPoint",
      "outputs": [],
      "stateMutability": "nonpayable",
      "type": "function"
    },
    {
      "inputs": [
        {
          "internalType": "bytes32",
          "name": "postID",
          "type": "bytes32"
        }
      ],
      "name": "getVoteOfReview",
      "outputs": [
        {
          "components": [
            {
              "internalType": "address",
              "name": "curator",
              "type": "address"
            },
            {
              "internalType": "uint256",
              "name": "curatorREP",
              "type": "uint256"
            },
            {
              "internalType": "uint256",
              "name": "curatorVP",
              "type": "uint256"
            }
          ],
          "internalType": "struct Tourism.Vote[]",
          "name": "",
          "type": "tuple[]"
        }
      ],
      "stateMutability": "view",
      "type": "function"
    },
    {
      "inputs": [
        {
          "internalType": "string",
          "name": "",
          "type": "string"
        },
        {
          "internalType": "string",
          "name": "",
          "type": "string"
        }
      ],
      "name": "isVerify",
      "outputs": [
        {
          "internalType": "bool",
          "name": "",
          "type": "bool"
        }
      ],
      "stateMutability": "view",
      "type": "function"
    },
    {
      "inputs": [
        {
          "internalType": "address",
          "name": "",
          "type": "address"
        },
        {
          "internalType": "uint256",
          "name": "",
          "type": "uint256"
        }
      ],
      "name": "listReward",
      "outputs": [
        {
          "internalType": "bytes32",
          "name": "",
          "type": "bytes32"
        }
      ],
      "stateMutability": "view",
      "type": "function"
    },
    {
      "inputs": [
        {
          "internalType": "string",
          "name": "_firstName",
          "type": "string"
        },
        {
          "internalType": "string",
          "name": "_lastName",
          "type": "string"
        },
        {
          "internalType": "string",
          "name": "_phoneNumber",
          "type": "string"
        }
      ],
      "name": "register",
      "outputs": [],
      "stateMutability": "nonpayable",
      "type": "function"
    },
    {
      "inputs": [
        {
          "internalType": "bytes32",
          "name": "",
          "type": "bytes32"
        }
      ],
      "name": "reviewByID",
      "outputs": [
        {
          "internalType": "address",
          "name": "author",
          "type": "address"
        },
        {
          "internalType": "bytes32",
          "name": "postID",
          "type": "bytes32"
        },
        {
          "internalType": "string",
          "name": "placeId",
          "type": "string"
        },
        {
          "internalType": "string",
          "name": "placeName",
          "type": "string"
        },
        {
          "internalType": "string",
          "name": "placeAddress",
          "type": "string"
        },
        {
          "internalType": "uint256",
          "name": "createTime",
          "type": "uint256"
        },
        {
          "internalType": "uint256",
          "name": "rate",
          "type": "uint256"
        },
        {
          "internalType": "string",
          "name": "review",
          "type": "string"
        },
        {
          "internalType": "string",
          "name": "title",
          "type": "string"
        },
        {
          "internalType": "uint256",
          "name": "upvoteNum",
          "type": "uint256"
        }
      ],
      "stateMutability": "view",
      "type": "function"
    },
    {
      "inputs": [
        {
          "internalType": "bytes32",
          "name": "",
          "type": "bytes32"
        }
      ],
      "name": "reviewVerify",
      "outputs": [
        {
          "internalType": "bool",
          "name": "",
          "type": "bool"
        }
      ],
      "stateMutability": "view",
      "type": "function"
    },
    {
      "inputs": [
        {
          "internalType": "bytes32",
          "name": "",
          "type": "bytes32"
        },
        {
          "internalType": "uint256",
          "name": "",
          "type": "uint256"
        }
      ],
      "name": "reviewVotes",
      "outputs": [
        {
          "internalType": "address",
          "name": "curator",
          "type": "address"
        },
        {
          "internalType": "uint256",
          "name": "curatorREP",
          "type": "uint256"
        },
        {
          "internalType": "uint256",
          "name": "curatorVP",
          "type": "uint256"
        }
      ],
      "stateMutability": "view",
      "type": "function"
    },
    {
      "inputs": [
        {
          "internalType": "string",
          "name": "placeID",
          "type": "string"
        },
        {
          "internalType": "string",
          "name": "review",
          "type": "string"
        },
        {
          "internalType": "uint8",
          "name": "rate",
          "type": "uint8"
        },
        {
          "internalType": "string",
          "name": "title",
          "type": "string"
        }
      ],
      "name": "reviews",
      "outputs": [],
      "stateMutability": "nonpayable",
      "type": "function"
    },
    {
      "inputs": [],
      "name": "seeRewardLists",
      "outputs": [
        {
          "internalType": "bytes32[]",
          "name": "",
          "type": "bytes32[]"
        }
      ],
      "stateMutability": "view",
      "type": "function"
    },
    {
      "inputs": [
        {
          "internalType": "address",
          "name": "",
          "type": "address"
        }
      ],
      "name": "touristIdentify",
      "outputs": [
        {
          "internalType": "string",
          "name": "firstName",
          "type": "string"
        },
        {
          "internalType": "string",
          "name": "lastName",
          "type": "string"
        },
        {
          "internalType": "string",
          "name": "phoneNumber",
          "type": "string"
        },
        {
          "internalType": "uint256",
          "name": "REP",
          "type": "uint256"
        },
        {
          "internalType": "uint256",
          "name": "VP",
          "type": "uint256"
        }
      ],
      "stateMutability": "view",
      "type": "function"
    },
    {
      "inputs": [
        {
          "internalType": "address",
          "name": "",
          "type": "address"
        },
        {
          "internalType": "bytes32",
          "name": "",
          "type": "bytes32"
        }
      ],
      "name": "touristRewardOnPostID",
      "outputs": [
        {
          "internalType": "uint256",
          "name": "",
          "type": "uint256"
        }
      ],
      "stateMutability": "view",
      "type": "function"
    },
    {
      "inputs": [
        {
          "internalType": "bytes32",
          "name": "postID",
          "type": "bytes32"
        }
      ],
      "name": "upvote",
      "outputs": [],
      "stateMutability": "nonpayable",
      "type": "function"
    },
    {
      "inputs": [
        {
          "internalType": "bytes32",
          "name": "postID",
          "type": "bytes32"
        },
        {
          "internalType": "string",
          "name": "ticketID",
          "type": "string"
        }
      ],
      "name": "verifyTicket",
      "outputs": [],
      "stateMutability": "nonpayable",
      "type": "function"
    }
  ],
  "bytecode": "0x60806040523480156200001157600080fd5b50604051620061023803806200610283398181016040528101906200003791906200013f565b60018060003373ffffffffffffffffffffffffffffffffffffffff1673ffffffffffffffffffffffffffffffffffffffff16815260200190815260200160002060006101000a81548160ff021916908315150217905550806000806101000a81548173ffffffffffffffffffffffffffffffffffffffff021916908373ffffffffffffffffffffffffffffffffffffffff1602179055505062000171565b600080fd5b600073ffffffffffffffffffffffffffffffffffffffff82169050919050565b60006200010782620000da565b9050919050565b6200011981620000fa565b81146200012557600080fd5b50565b60008151905062000139816200010e565b92915050565b600060208284031215620001585762000157620000d5565b5b6000620001688482850162000128565b91505092915050565b615f8180620001816000396000f3fe608060405234801561001057600080fd5b50600436106101cf5760003560e01c806366cde05f11610104578063a5b1f44d116100a2578063da64f0f511610071578063da64f0f5146105df578063ed8b56a7146105fb578063f52109bd14610617578063fed9a3fe14610647576101cf565b8063a5b1f44d1461055b578063aa6e130514610577578063b69f58e2146105a7578063cb16e306146105c3576101cf565b80638213c3c1116100de5780638213c3c1146104c15780638a13eea7146104f15780638a9419aa1461050f5780639216483d1461052b576101cf565b806366cde05f146104505780636ca912111461046c57806370480275146104a5576101cf565b80634aff09d5116101715780635643618e1161014b5780635643618e1461039e5780635d02e4bc146103ce57806362533665146103ec578063640e11d314610420576101cf565b80634aff09d5146103195780634cd08d03146103495780634f9d325f14610365576101cf565b80633359f6f2116101ad5780633359f6f2146102645780633aa9d488146102945780633b60e346146102c45780634a8b6f9e146102e0576101cf565b806303c7013b146101d4578063153b1ea0146102045780631fd1e04114610234575b600080fd5b6101ee60048036038101906101e9919061423a565b610679565b6040516101fb9190614280565b60405180910390f35b61021e600480360381019061021991906142f9565b610a55565b60405161022b919061459b565b60405180910390f35b61024e600480360381019061024991906146f2565b610e4c565b60405161025b9190614785565b60405180910390f35b61027e6004803603810190610279919061423a565b610ea7565b60405161028b9190614785565b60405180910390f35b6102ae60048036038101906102a991906147a0565b610ec7565b6040516102bb9190614280565b60405180910390f35b6102de60048036038101906102d991906146f2565b610eec565b005b6102fa60048036038101906102f5919061423a565b6111e5565b6040516103109a99989796959493929190614848565b60405180910390f35b610333600480360381019061032e9190614907565b611501565b6040516103409190614950565b60405180910390f35b610363600480360381019061035e9190614972565b6115b7565b005b61037f600480360381019061037a9190614a45565b6117b5565b6040516103959a99989796959493929190614848565b60405180910390f35b6103b860048036038101906103b3919061423a565b611b04565b6040516103c59190614b92565b60405180910390f35b6103d6611be0565b6040516103e39190614c63565b60405180910390f35b610406600480360381019061040191906142f9565b611c75565b604051610417959493929190614c85565b60405180910390f35b61043a60048036038101906104359190614907565b611e43565b6040516104479190614950565b60405180910390f35b61046a60048036038101906104659190614ced565b611ef9565b005b61048660048036038101906104819190614d49565b61218b565b60405161049c9a99989796959493929190614848565b60405180910390f35b6104bf60048036038101906104ba91906142f9565b6124c4565b005b6104db60048036038101906104d69190614907565b6125b1565b6040516104e89190614e54565b60405180910390f35b6104f961264d565b6040516105069190614ed5565b60405180910390f35b6105296004803603810190610524919061423a565b612671565b005b61054560048036038101906105409190614d49565b612be9565b6040516105529190614ef0565b60405180910390f35b6105756004803603810190610570919061423a565b612c1a565b005b610591600480360381019061058c9190614907565b612ffc565b60405161059e919061459b565b60405180910390f35b6105c160048036038101906105bc919061423a565b6133d2565b005b6105dd60048036038101906105d89190614f37565b613545565b005b6105f960048036038101906105f491906146f2565b613d0c565b005b61061560048036038101906106109190614972565b613d63565b005b610631600480360381019061062c9190614a45565b613e53565b60405161063e9190615001565b60405180910390f35b610661600480360381019061065c919061501c565b613eac565b6040516106709392919061505c565b60405180910390f35b60008060001b600a600084815260200190815260200160002060010154036106d6576040517f08c379a00000000000000000000000000000000000000000000000000000000081526004016106cd906150df565b60405180910390fd5b60011515600b600084815260200190815260200160002060009054906101000a900460ff1615151461073d576040517f08c379a000000000000000000000000000000000000000000000000000000000815260040161073490615171565b60405180910390fd5b600061074883611b04565b90506000600a60008581526020019081526020016000206009015490506000600a600086815260200190815260200160002060000160009054906101000a900473ffffffffffffffffffffffffffffffffffffffff1690506000600360008373ffffffffffffffffffffffffffffffffffffffff1673ffffffffffffffffffffffffffffffffffffffff1681526020019081526020016000206040518060a00160405290816000820180546107fc906151c0565b80601f0160208091040260200160405190810160405280929190818152602001828054610828906151c0565b80156108755780601f1061084a57610100808354040283529160200191610875565b820191906000526020600020905b81548152906001019060200180831161085857829003601f168201915b5050505050815260200160018201805461088e906151c0565b80601f01602080910402602001604051908101604052809291908181526020018280546108ba906151c0565b80156109075780601f106108dc57610100808354040283529160200191610907565b820191906000526020600020905b8154815290600101906020018083116108ea57829003601f168201915b50505050508152602001600282018054610920906151c0565b80601f016020809104026020016040519081016040528092919081815260200182805461094c906151c0565b80156109995780601f1061096e57610100808354040283529160200191610999565b820191906000526020600020905b81548152906001019060200180831161097c57829003601f168201915b50505050508152602001600382015481526020016004820154815250509050600080600090506000805b86811015610a27578781815181106109de576109dd6151f1565b5b60200260200101516020015193506001846109f9919061524f565b83610a049190615291565b92508382610a129190615291565b91508080610a1f906152c5565b9150506109c3565b5060018460600151610a39919061524f565b82610a449190615291565b915081975050505050505050919050565b6060600460008373ffffffffffffffffffffffffffffffffffffffff1673ffffffffffffffffffffffffffffffffffffffff168152602001908152602001600020805480602002602001604051908101604052809291908181526020016000905b82821015610e4157838290600052602060002090600a0201604051806101400160405290816000820160009054906101000a900473ffffffffffffffffffffffffffffffffffffffff1673ffffffffffffffffffffffffffffffffffffffff1673ffffffffffffffffffffffffffffffffffffffff16815260200160018201548152602001600282018054610b4a906151c0565b80601f0160208091040260200160405190810160405280929190818152602001828054610b76906151c0565b8015610bc35780601f10610b9857610100808354040283529160200191610bc3565b820191906000526020600020905b815481529060010190602001808311610ba657829003601f168201915b50505050508152602001600382018054610bdc906151c0565b80601f0160208091040260200160405190810160405280929190818152602001828054610c08906151c0565b8015610c555780601f10610c2a57610100808354040283529160200191610c55565b820191906000526020600020905b815481529060010190602001808311610c3857829003601f168201915b50505050508152602001600482018054610c6e906151c0565b80601f0160208091040260200160405190810160405280929190818152602001828054610c9a906151c0565b8015610ce75780601f10610cbc57610100808354040283529160200191610ce7565b820191906000526020600020905b815481529060010190602001808311610cca57829003601f168201915b505050505081526020016005820154815260200160068201548152602001600782018054610d14906151c0565b80601f0160208091040260200160405190810160405280929190818152602001828054610d40906151c0565b8015610d8d5780601f10610d6257610100808354040283529160200191610d8d565b820191906000526020600020905b815481529060010190602001808311610d7057829003601f168201915b50505050508152602001600882018054610da6906151c0565b80601f0160208091040260200160405190810160405280929190818152602001828054610dd2906151c0565b8015610e1f5780601f10610df457610100808354040283529160200191610e1f565b820191906000526020600020905b815481529060010190602001808311610e0257829003601f168201915b5050505050815260200160098201548152505081526020019060010190610ab6565b505050509050919050565b600e82805160208101820180518482526020830160208501208183528095505050505050818051602081018201805184825260208301602085012081835280955050505050506000915091509054906101000a900460ff1681565b600b6020528060005260406000206000915054906101000a900460ff1681565b6011602052816000526040600020602052806000526040600020600091509150505481565b60001515600260003373ffffffffffffffffffffffffffffffffffffffff1673ffffffffffffffffffffffffffffffffffffffff16815260200190815260200160002060009054906101000a900460ff16151503610f8157336040517f1063935d000000000000000000000000000000000000000000000000000000008152600401610f78919061530d565b60405180910390fd5b6000600682604051610f939190615364565b90815260200160405180910390208054610fac906151c0565b90501015610ff157806040517f8f6b29cc000000000000000000000000000000000000000000000000000000008152600401610fe89190614950565b60405180910390fd5b60001515600c826040516110059190615364565b9081526020016040518091039020836040516110219190615364565b908152602001604051809103902060009054906101000a900460ff161515036110835780826040517f8973e97b00000000000000000000000000000000000000000000000000000000815260040161107a92919061537b565b60405180910390fd5b60011515600d826040516110979190615364565b9081526020016040518091039020836040516110b39190615364565b908152602001604051809103902060009054906101000a900460ff161515036111155780826040517f8cc9063e00000000000000000000000000000000000000000000000000000000815260040161110c92919061537b565b60405180910390fd5b6001600d826040516111279190615364565b9081526020016040518091039020836040516111439190615364565b908152602001604051809103902060006101000a81548160ff0219169083151502179055507f7dcc4e760cafee8e323964b173ee0e8f14f637e1ba6725242d1e2788c01bb0ba8282600360003373ffffffffffffffffffffffffffffffffffffffff1673ffffffffffffffffffffffffffffffffffffffff1681526020019081526020016000206040516111d993929190615515565b60405180910390a15050565b600a6020528060005260406000206000915090508060000160009054906101000a900473ffffffffffffffffffffffffffffffffffffffff1690806001015490806002018054611234906151c0565b80601f0160208091040260200160405190810160405280929190818152602001828054611260906151c0565b80156112ad5780601f10611282576101008083540402835291602001916112ad565b820191906000526020600020905b81548152906001019060200180831161129057829003601f168201915b5050505050908060030180546112c2906151c0565b80601f01602080910402602001604051908101604052809291908181526020018280546112ee906151c0565b801561133b5780601f106113105761010080835404028352916020019161133b565b820191906000526020600020905b81548152906001019060200180831161131e57829003601f168201915b505050505090806004018054611350906151c0565b80601f016020809104026020016040519081016040528092919081815260200182805461137c906151c0565b80156113c95780601f1061139e576101008083540402835291602001916113c9565b820191906000526020600020905b8154815290600101906020018083116113ac57829003601f168201915b5050505050908060050154908060060154908060070180546113ea906151c0565b80601f0160208091040260200160405190810160405280929190818152602001828054611416906151c0565b80156114635780601f1061143857610100808354040283529160200191611463565b820191906000526020600020905b81548152906001019060200180831161144657829003601f168201915b505050505090806008018054611478906151c0565b80601f01602080910402602001604051908101604052809291908181526020018280546114a4906151c0565b80156114f15780601f106114c6576101008083540402835291602001916114f1565b820191906000526020600020905b8154815290600101906020018083116114d457829003601f168201915b505050505090806009015490508a565b6006818051602081018201805184825260208301602085012081835280955050505050506000915090508054611536906151c0565b80601f0160208091040260200160405190810160405280929190818152602001828054611562906151c0565b80156115af5780601f10611584576101008083540402835291602001916115af565b820191906000526020600020905b81548152906001019060200180831161159257829003601f168201915b505050505081565b60001515600260003373ffffffffffffffffffffffffffffffffffffffff1673ffffffffffffffffffffffffffffffffffffffff16815260200190815260200160002060009054906101000a900460ff1615151461164a576040517f08c379a0000000000000000000000000000000000000000000000000000000008152600401611641906155ad565b60405180910390fd5b61165261411e565b838160000181905250828160200181905250818160400181905250600f816060018181525050606481608001818152505080600360003373ffffffffffffffffffffffffffffffffffffffff1673ffffffffffffffffffffffffffffffffffffffff16815260200190815260200160002060008201518160000190816116d8919061575a565b5060208201518160010190816116ee919061575a565b506040820151816002019081611704919061575a565b5060608201518160030155608082015181600401559050506001600260003373ffffffffffffffffffffffffffffffffffffffff1673ffffffffffffffffffffffffffffffffffffffff16815260200190815260200160002060006101000a81548160ff0219169083151502179055507faa1e896fff678c49360d15cc36fa676c42d6d8e1f187b2049125f6475924f5c28484846040516117a79392919061582c565b60405180910390a150505050565b60088280516020810182018051848252602083016020850120818352809550505050505081815481106117e757600080fd5b90600052602060002090600a0201600091509150508060000160009054906101000a900473ffffffffffffffffffffffffffffffffffffffff1690806001015490806002018054611837906151c0565b80601f0160208091040260200160405190810160405280929190818152602001828054611863906151c0565b80156118b05780601f10611885576101008083540402835291602001916118b0565b820191906000526020600020905b81548152906001019060200180831161189357829003601f168201915b5050505050908060030180546118c5906151c0565b80601f01602080910402602001604051908101604052809291908181526020018280546118f1906151c0565b801561193e5780601f106119135761010080835404028352916020019161193e565b820191906000526020600020905b81548152906001019060200180831161192157829003601f168201915b505050505090806004018054611953906151c0565b80601f016020809104026020016040519081016040528092919081815260200182805461197f906151c0565b80156119cc5780601f106119a1576101008083540402835291602001916119cc565b820191906000526020600020905b8154815290600101906020018083116119af57829003601f168201915b5050505050908060050154908060060154908060070180546119ed906151c0565b80601f0160208091040260200160405190810160405280929190818152602001828054611a19906151c0565b8015611a665780601f10611a3b57610100808354040283529160200191611a66565b820191906000526020600020905b815481529060010190602001808311611a4957829003601f168201915b505050505090806008018054611a7b906151c0565b80601f0160208091040260200160405190810160405280929190818152602001828054611aa7906151c0565b8015611af45780601f10611ac957610100808354040283529160200191611af4565b820191906000526020600020905b815481529060010190602001808311611ad757829003601f168201915b505050505090806009015490508a565b606060106000838152602001908152602001600020805480602002602001604051908101604052809291908181526020016000905b82821015611bd557838290600052602060002090600302016040518060600160405290816000820160009054906101000a900473ffffffffffffffffffffffffffffffffffffffff1673ffffffffffffffffffffffffffffffffffffffff1673ffffffffffffffffffffffffffffffffffffffff1681526020016001820154815260200160028201548152505081526020019060010190611b39565b505050509050919050565b6060600560003373ffffffffffffffffffffffffffffffffffffffff1673ffffffffffffffffffffffffffffffffffffffff168152602001908152602001600020805480602002602001604051908101604052809291908181526020018280548015611c6b57602002820191906000526020600020905b815481526020019060010190808311611c57575b5050505050905090565b6003602052806000526040600020600091509050806000018054611c98906151c0565b80601f0160208091040260200160405190810160405280929190818152602001828054611cc4906151c0565b8015611d115780601f10611ce657610100808354040283529160200191611d11565b820191906000526020600020905b815481529060010190602001808311611cf457829003601f168201915b505050505090806001018054611d26906151c0565b80601f0160208091040260200160405190810160405280929190818152602001828054611d52906151c0565b8015611d9f5780601f10611d7457610100808354040283529160200191611d9f565b820191906000526020600020905b815481529060010190602001808311611d8257829003601f168201915b505050505090806002018054611db4906151c0565b80601f0160208091040260200160405190810160405280929190818152602001828054611de0906151c0565b8015611e2d5780601f10611e0257610100808354040283529160200191611e2d565b820191906000526020600020905b815481529060010190602001808311611e1057829003601f168201915b5050505050908060030154908060040154905085565b6007818051602081018201805184825260208301602085012081835280955050505050506000915090508054611e78906151c0565b80601f0160208091040260200160405190810160405280929190818152602001828054611ea4906151c0565b8015611ef15780601f10611ec657610100808354040283529160200191611ef1565b820191906000526020600020905b815481529060010190602001808311611ed457829003601f168201915b505050505081565b6000600a600084815260200190815260200160002090506000801b600a60008581526020019081526020016000206001015403611f6d57826040517fd7b18dd0000000000000000000000000000000000000000000000000000000008152600401611f649190614ef0565b60405180910390fd5b60001515600d82600201604051611f8491906158fb565b908152602001604051809103902083604051611fa09190615364565b908152602001604051809103902060009054906101000a900460ff161515036120055780600201826040517f8cc9063e000000000000000000000000000000000000000000000000000000008152600401611ffc929190615996565b60405180910390fd5b60011515600e8260020160405161201c91906158fb565b9081526020016040518091039020836040516120389190615364565b908152602001604051809103902060009054906101000a900460ff1615150361209d5780600201826040517f9bb37424000000000000000000000000000000000000000000000000000000008152600401612094929190615996565b60405180910390fd5b60011515600b600085815260200190815260200160002060009054906101000a900460ff16151503612104576040517f08c379a00000000000000000000000000000000000000000000000000000000081526004016120fb90615a19565b60405180910390fd5b6001600e8260020160405161211991906158fb565b9081526020016040518091039020836040516121359190615364565b908152602001604051809103902060006101000a81548160ff0219169083151502179055506001600b600085815260200190815260200160002060006101000a81548160ff021916908315150217905550505050565b600460205281600052604060002081815481106121a757600080fd5b90600052602060002090600a0201600091509150508060000160009054906101000a900473ffffffffffffffffffffffffffffffffffffffff16908060010154908060020180546121f7906151c0565b80601f0160208091040260200160405190810160405280929190818152602001828054612223906151c0565b80156122705780601f1061224557610100808354040283529160200191612270565b820191906000526020600020905b81548152906001019060200180831161225357829003601f168201915b505050505090806003018054612285906151c0565b80601f01602080910402602001604051908101604052809291908181526020018280546122b1906151c0565b80156122fe5780601f106122d3576101008083540402835291602001916122fe565b820191906000526020600020905b8154815290600101906020018083116122e157829003601f168201915b505050505090806004018054612313906151c0565b80601f016020809104026020016040519081016040528092919081815260200182805461233f906151c0565b801561238c5780601f106123615761010080835404028352916020019161238c565b820191906000526020600020905b81548152906001019060200180831161236f57829003601f168201915b5050505050908060050154908060060154908060070180546123ad906151c0565b80601f01602080910402602001604051908101604052809291908181526020018280546123d9906151c0565b80156124265780601f106123fb57610100808354040283529160200191612426565b820191906000526020600020905b81548152906001019060200180831161240957829003601f168201915b50505050509080600801805461243b906151c0565b80601f0160208091040260200160405190810160405280929190818152602001828054612467906151c0565b80156124b45780601f10612489576101008083540402835291602001916124b4565b820191906000526020600020905b81548152906001019060200180831161249757829003601f168201915b505050505090806009015490508a565b60011515600160003373ffffffffffffffffffffffffffffffffffffffff1673ffffffffffffffffffffffffffffffffffffffff16815260200190815260200160002060009054906101000a900460ff16151514612557576040517f08c379a000000000000000000000000000000000000000000000000000000000815260040161254e90615aab565b60405180910390fd5b60018060008373ffffffffffffffffffffffffffffffffffffffff1673ffffffffffffffffffffffffffffffffffffffff16815260200190815260200160002060006101000a81548160ff02191690831515021790555050565b60606009826040516125c39190615364565b908152602001604051809103902080548060200260200160405190810160405280929190818152602001828054801561264157602002820191906000526020600020906000905b82829054906101000a900460ff1660ff168152602001906001019060208260000104928301926001038202915080841161260a5790505b50505050509050919050565b60008054906101000a900473ffffffffffffffffffffffffffffffffffffffff1681565b6000801b600a600083815260200190815260200160002060010154036126ce57806040517fd7b18dd00000000000000000000000000000000000000000000000000000000081526004016126c59190614ef0565b60405180910390fd5b60001515600b600083815260200190815260200160002060009054906101000a900460ff16151503612735576040517f08c379a000000000000000000000000000000000000000000000000000000000815260040161272c90615b17565b60405180910390fd5b600080600a600084815260200190815260200160002060000160009054906101000a900473ffffffffffffffffffffffffffffffffffffffff169050600061277c84610679565b9250600060106000868152602001908152602001600020805480602002602001604051908101604052809291908181526020016000905b8282101561284f57838290600052602060002090600302016040518060600160405290816000820160009054906101000a900473ffffffffffffffffffffffffffffffffffffffff1673ffffffffffffffffffffffffffffffffffffffff1673ffffffffffffffffffffffffffffffffffffffff16815260200160018201548152602001600282015481525050815260200190600101906127b3565b50505050905060005b81518110156128a057818181518110612874576128736151f1565b5b6020026020010151602001518361288b9190615291565b92508080612898906152c5565b915050612858565b50670de0b6b3a7640000846128b5919061524f565b935060006064604b866128c8919061524f565b6128d29190615b66565b905080601160008673ffffffffffffffffffffffffffffffffffffffff1673ffffffffffffffffffffffffffffffffffffffff168152602001908152602001600020600088815260200190815260200160002081905550600560008573ffffffffffffffffffffffffffffffffffffffff1673ffffffffffffffffffffffffffffffffffffffff168152602001908152602001600020869080600181540180825580915050600190039060005260206000200160009091909190915055600060646019876129a0919061524f565b6129aa9190615b66565b905060005b8351811015612b2c5760008482815181106129cd576129cc6151f1565b5b602002602001015160200151866129e49190615b66565b9050600081036129f357600190505b6000858381518110612a0857612a076151f1565b5b60200260200101516000015190506000868481518110612a2b57612a2a6151f1565b5b6020026020010151602001519050600560008373ffffffffffffffffffffffffffffffffffffffff1673ffffffffffffffffffffffffffffffffffffffff1681526020019081526020016000208b90806001815401808255809150506001900390600052602060002001600090919091909150556064818487612aae9190615b66565b612ab8919061524f565b612ac29190615b66565b601160008473ffffffffffffffffffffffffffffffffffffffff1673ffffffffffffffffffffffffffffffffffffffff16815260200190815260200160002060008d8152602001908152602001600020819055505050508080612b24906152c5565b9150506129af565b506000600360008773ffffffffffffffffffffffffffffffffffffffff1673ffffffffffffffffffffffffffffffffffffffff1681526020019081526020016000209050612b7985613f13565b6fffffffffffffffffffffffffffffffff16816003016000828254612b9e9190615291565b925050819055508183897f134a256b30e79278465eb4be19c959a4c1f253707afe0d5eddcf9a2738a6a6b487604051612bd79190614b92565b60405180910390a45050505050505050565b60056020528160005260406000208181548110612c0557600080fd5b90600052602060002001600091509150505481565b6000801b600a60008381526020019081526020016000206001015403612c75576040517f08c379a0000000000000000000000000000000000000000000000000000000008152600401612c6c906150df565b60405180910390fd5b60001515600260003373ffffffffffffffffffffffffffffffffffffffff1673ffffffffffffffffffffffffffffffffffffffff16815260200190815260200160002060009054906101000a900460ff16151503612d0a57336040517f1063935d000000000000000000000000000000000000000000000000000000008152600401612d01919061530d565b60405180910390fd5b60001515600f60003373ffffffffffffffffffffffffffffffffffffffff1673ffffffffffffffffffffffffffffffffffffffff168152602001908152602001600020600083815260200190815260200160002060009054906101000a900460ff16151514612dae576040517f08c379a0000000000000000000000000000000000000000000000000000000008152600401612da590615c09565b60405180910390fd5b6000600360003373ffffffffffffffffffffffffffffffffffffffff1673ffffffffffffffffffffffffffffffffffffffff16815260200190815260200160002090506002816004015410158015612e0b57506064816004015411155b612e4a576040517f08c379a0000000000000000000000000000000000000000000000000000000008152600401612e4190615c9b565b60405180910390fd5b6000600a60008481526020019081526020016000209050806009016000815480929190612e76906152c5565b9190505550612e8361414d565b33816000019073ffffffffffffffffffffffffffffffffffffffff16908173ffffffffffffffffffffffffffffffffffffffff1681525050826003015481602001818152505082600401548160400181815250506010600085815260200190815260200160002081908060018154018082558091505060019003906000526020600020906003020160009091909190915060008201518160000160006101000a81548173ffffffffffffffffffffffffffffffffffffffff021916908373ffffffffffffffffffffffffffffffffffffffff160217905550602082015181600101556040820151816002015550506002836004016000828254612f869190615cbb565b925050819055506001600f60003373ffffffffffffffffffffffffffffffffffffffff1673ffffffffffffffffffffffffffffffffffffffff168152602001908152602001600020600086815260200190815260200160002060006101000a81548160ff02191690831515021790555050505050565b606060088260405161300e9190615364565b9081526020016040518091039020805480602002602001604051908101604052809291908181526020016000905b828210156133c757838290600052602060002090600a0201604051806101400160405290816000820160009054906101000a900473ffffffffffffffffffffffffffffffffffffffff1673ffffffffffffffffffffffffffffffffffffffff1673ffffffffffffffffffffffffffffffffffffffff168152602001600182015481526020016002820180546130d0906151c0565b80601f01602080910402602001604051908101604052809291908181526020018280546130fc906151c0565b80156131495780601f1061311e57610100808354040283529160200191613149565b820191906000526020600020905b81548152906001019060200180831161312c57829003601f168201915b50505050508152602001600382018054613162906151c0565b80601f016020809104026020016040519081016040528092919081815260200182805461318e906151c0565b80156131db5780601f106131b0576101008083540402835291602001916131db565b820191906000526020600020905b8154815290600101906020018083116131be57829003601f168201915b505050505081526020016004820180546131f4906151c0565b80601f0160208091040260200160405190810160405280929190818152602001828054613220906151c0565b801561326d5780601f106132425761010080835404028352916020019161326d565b820191906000526020600020905b81548152906001019060200180831161325057829003601f168201915b50505050508152602001600582015481526020016006820154815260200160078201805461329a906151c0565b80601f01602080910402602001604051908101604052809291908181526020018280546132c6906151c0565b80156133135780601f106132e857610100808354040283529160200191613313565b820191906000526020600020905b8154815290600101906020018083116132f657829003601f168201915b5050505050815260200160088201805461332c906151c0565b80601f0160208091040260200160405190810160405280929190818152602001828054613358906151c0565b80156133a55780601f1061337a576101008083540402835291602001916133a5565b820191906000526020600020905b81548152906001019060200180831161338857829003601f168201915b505050505081526020016009820154815250508152602001906001019061303c565b505050509050919050565b6000601160003373ffffffffffffffffffffffffffffffffffffffff1673ffffffffffffffffffffffffffffffffffffffff16815260200190815260200160002060008381526020019081526020016000205411613465576040517f08c379a000000000000000000000000000000000000000000000000000000000815260040161345c90615d3b565b60405180910390fd5b60008054906101000a900473ffffffffffffffffffffffffffffffffffffffff1673ffffffffffffffffffffffffffffffffffffffff1663d02b789d33601160003373ffffffffffffffffffffffffffffffffffffffff1673ffffffffffffffffffffffffffffffffffffffff1681526020019081526020016000206000858152602001908152602001600020546040518363ffffffff1660e01b8152600401613510929190615d5b565b600060405180830381600087803b15801561352a57600080fd5b505af115801561353e573d6000803e3d6000fd5b5050505050565b60001515600260003373ffffffffffffffffffffffffffffffffffffffff1673ffffffffffffffffffffffffffffffffffffffff16815260200190815260200160002060009054906101000a900460ff161515036135da57336040517f1063935d0000000000000000000000000000000000000000000000000000000081526004016135d1919061530d565b60405180910390fd5b60006006856040516135ec9190615364565b90815260200160405180910390208054613605906151c0565b9050101561364a57836040517f8f6b29cc0000000000000000000000000000000000000000000000000000000081526004016136419190614950565b60405180910390fd5b60008260ff1610158015613662575060328260ff1611155b6136a1576040517f08c379a000000000000000000000000000000000000000000000000000000000815260040161369890615dd0565b60405180910390fd5b6136a9614184565b6136b98542868660ff16866140de565b81602001818152505033816000019073ffffffffffffffffffffffffffffffffffffffff16908173ffffffffffffffffffffffffffffffffffffffff1681525050848160400181905250838160e001819052508260ff168160c001818152505081816101000181905250428160a001818152505060068560405161373d9190615364565b90815260200160405180910390208054613756906151c0565b80601f0160208091040260200160405190810160405280929190818152602001828054613782906151c0565b80156137cf5780601f106137a4576101008083540402835291602001916137cf565b820191906000526020600020905b8154815290600101906020018083116137b257829003601f168201915b505050505081606001819052506007856040516137ec9190615364565b90815260200160405180910390208054613805906151c0565b80601f0160208091040260200160405190810160405280929190818152602001828054613831906151c0565b801561387e5780601f106138535761010080835404028352916020019161387e565b820191906000526020600020905b81548152906001019060200180831161386157829003601f168201915b5050505050816080018190525060008161012001818152505080600a60008360200151815260200190815260200160002060008201518160000160006101000a81548173ffffffffffffffffffffffffffffffffffffffff021916908373ffffffffffffffffffffffffffffffffffffffff160217905550602082015181600101556040820151816002019081613915919061575a565b50606082015181600301908161392b919061575a565b506080820151816004019081613941919061575a565b5060a0820151816005015560c0820151816006015560e082015181600701908161396b919061575a565b50610100820151816008019081613982919061575a565b506101208201518160090155905050600460003373ffffffffffffffffffffffffffffffffffffffff1673ffffffffffffffffffffffffffffffffffffffff1681526020019081526020016000208190806001815401808255809150506001900390600052602060002090600a020160009091909190915060008201518160000160006101000a81548173ffffffffffffffffffffffffffffffffffffffff021916908373ffffffffffffffffffffffffffffffffffffffff160217905550602082015181600101556040820151816002019081613a60919061575a565b506060820151816003019081613a76919061575a565b506080820151816004019081613a8c919061575a565b5060a0820151816005015560c0820151816006015560e0820151816007019081613ab6919061575a565b50610100820151816008019081613acd919061575a565b5061012082015181600901555050600885604051613aeb9190615364565b90815260200160405180910390208190806001815401808255809150506001900390600052602060002090600a020160009091909190915060008201518160000160006101000a81548173ffffffffffffffffffffffffffffffffffffffff021916908373ffffffffffffffffffffffffffffffffffffffff160217905550602082015181600101556040820151816002019081613b89919061575a565b506060820151816003019081613b9f919061575a565b506080820151816004019081613bb5919061575a565b5060a0820151816005015560c0820151816006015560e0820151816007019081613bdf919061575a565b50610100820151816008019081613bf6919061575a565b5061012082015181600901555050600985604051613c149190615364565b90815260200160405180910390208390806001815401808255809150506001900390600052602060002090602091828204019190069091909190916101000a81548160ff021916908360ff1602179055507f1489f5fcb1961e9678cb60f519640b9666aac5567303748ef7fc4b880b4fb891600360003373ffffffffffffffffffffffffffffffffffffffff1673ffffffffffffffffffffffffffffffffffffffff1681526020019081526020016000208260200151600688604051613cda9190615364565b9081526020016040518091039020878787604051613cfd96959493929190615df0565b60405180910390a15050505050565b6001600c83604051613d1e9190615364565b908152602001604051809103902082604051613d3a9190615364565b908152602001604051809103902060006101000a81548160ff0219169083151502179055505050565b60011515600160003373ffffffffffffffffffffffffffffffffffffffff1673ffffffffffffffffffffffffffffffffffffffff16815260200190815260200160002060009054906101000a900460ff16151514613df6576040517f08c379a0000000000000000000000000000000000000000000000000000000008152600401613ded90615aab565b60405180910390fd5b81600684604051613e079190615364565b90815260200160405180910390209081613e21919061575a565b5080600784604051613e339190615364565b90815260200160405180910390209081613e4d919061575a565b50505050565b6009828051602081018201805184825260208301602085012081835280955050505050508181548110613e8557600080fd5b9060005260206000209060209182820401919006915091509054906101000a900460ff1681565b60106020528160005260406000208181548110613ec857600080fd5b9060005260206000209060030201600091509150508060000160009054906101000a900473ffffffffffffffffffffffffffffffffffffffff16908060010154908060020154905083565b6000808203613f2557600090506140d9565b60008290506000600190507001000000000000000000000000000000008210613f5757608082901c9150604081901b90505b680100000000000000008210613f7657604082901c9150602081901b90505b6401000000008210613f9157602082901c9150601081901b90505b620100008210613faa57601082901c9150600881901b90505b6101008210613fc257600882901c9150600481901b90505b60108210613fd957600482901c9150600281901b90505b60088210613fe957600181901b90505b60018185613ff79190615b66565b826140029190615291565b901c9050600181856140149190615b66565b8261401f9190615291565b901c9050600181856140319190615b66565b8261403c9190615291565b901c90506001818561404e9190615b66565b826140599190615291565b901c90506001818561406b9190615b66565b826140769190615291565b901c9050600181856140889190615b66565b826140939190615291565b901c9050600181856140a59190615b66565b826140b09190615291565b901c9050600081856140c29190615b66565b90508082106140d157806140d3565b815b93505050505b919050565b6000428686868686336040516020016140fd9796959493929190615ed6565b60405160208183030381529060405280519060200120905095945050505050565b6040518060a0016040528060608152602001606081526020016060815260200160008152602001600081525090565b6040518060600160405280600073ffffffffffffffffffffffffffffffffffffffff16815260200160008152602001600081525090565b604051806101400160405280600073ffffffffffffffffffffffffffffffffffffffff1681526020016000801916815260200160608152602001606081526020016060815260200160008152602001600081526020016060815260200160608152602001600081525090565b6000604051905090565b600080fd5b600080fd5b6000819050919050565b61421781614204565b811461422257600080fd5b50565b6000813590506142348161420e565b92915050565b6000602082840312156142505761424f6141fa565b5b600061425e84828501614225565b91505092915050565b6000819050919050565b61427a81614267565b82525050565b60006020820190506142956000830184614271565b92915050565b600073ffffffffffffffffffffffffffffffffffffffff82169050919050565b60006142c68261429b565b9050919050565b6142d6816142bb565b81146142e157600080fd5b50565b6000813590506142f3816142cd565b92915050565b60006020828403121561430f5761430e6141fa565b5b600061431d848285016142e4565b91505092915050565b600081519050919050565b600082825260208201905092915050565b6000819050602082019050919050565b61435b816142bb565b82525050565b61436a81614204565b82525050565b600081519050919050565b600082825260208201905092915050565b60005b838110156143aa57808201518184015260208101905061438f565b60008484015250505050565b6000601f19601f8301169050919050565b60006143d282614370565b6143dc818561437b565b93506143ec81856020860161438c565b6143f5816143b6565b840191505092915050565b61440981614267565b82525050565b6000610140830160008301516144286000860182614352565b50602083015161443b6020860182614361565b506040830151848203604086015261445382826143c7565b9150506060830151848203606086015261446d82826143c7565b9150506080830151848203608086015261448782826143c7565b91505060a083015161449c60a0860182614400565b5060c08301516144af60c0860182614400565b5060e083015184820360e08601526144c782826143c7565b9150506101008301518482036101008601526144e382826143c7565b9150506101208301516144fa610120860182614400565b508091505092915050565b6000614511838361440f565b905092915050565b6000602082019050919050565b600061453182614326565b61453b8185614331565b93508360208202850161454d85614342565b8060005b85811015614589578484038952815161456a8582614505565b945061457583614519565b925060208a01995050600181019050614551565b50829750879550505050505092915050565b600060208201905081810360008301526145b58184614526565b905092915050565b600080fd5b600080fd5b7f4e487b7100000000000000000000000000000000000000000000000000000000600052604160045260246000fd5b6145ff826143b6565b810181811067ffffffffffffffff8211171561461e5761461d6145c7565b5b80604052505050565b60006146316141f0565b905061463d82826145f6565b919050565b600067ffffffffffffffff82111561465d5761465c6145c7565b5b614666826143b6565b9050602081019050919050565b82818337600083830152505050565b600061469561469084614642565b614627565b9050828152602081018484840111156146b1576146b06145c2565b5b6146bc848285614673565b509392505050565b600082601f8301126146d9576146d86145bd565b5b81356146e9848260208601614682565b91505092915050565b60008060408385031215614709576147086141fa565b5b600083013567ffffffffffffffff811115614727576147266141ff565b5b614733858286016146c4565b925050602083013567ffffffffffffffff811115614754576147536141ff565b5b614760858286016146c4565b9150509250929050565b60008115159050919050565b61477f8161476a565b82525050565b600060208201905061479a6000830184614776565b92915050565b600080604083850312156147b7576147b66141fa565b5b60006147c5858286016142e4565b92505060206147d685828601614225565b9150509250929050565b6147e9816142bb565b82525050565b6147f881614204565b82525050565b600082825260208201905092915050565b600061481a82614370565b61482481856147fe565b935061483481856020860161438c565b61483d816143b6565b840191505092915050565b60006101408201905061485e600083018d6147e0565b61486b602083018c6147ef565b818103604083015261487d818b61480f565b90508181036060830152614891818a61480f565b905081810360808301526148a5818961480f565b90506148b460a0830188614271565b6148c160c0830187614271565b81810360e08301526148d3818661480f565b90508181036101008301526148e8818561480f565b90506148f8610120830184614271565b9b9a5050505050505050505050565b60006020828403121561491d5761491c6141fa565b5b600082013567ffffffffffffffff81111561493b5761493a6141ff565b5b614947848285016146c4565b91505092915050565b6000602082019050818103600083015261496a818461480f565b905092915050565b60008060006060848603121561498b5761498a6141fa565b5b600084013567ffffffffffffffff8111156149a9576149a86141ff565b5b6149b5868287016146c4565b935050602084013567ffffffffffffffff8111156149d6576149d56141ff565b5b6149e2868287016146c4565b925050604084013567ffffffffffffffff811115614a0357614a026141ff565b5b614a0f868287016146c4565b9150509250925092565b614a2281614267565b8114614a2d57600080fd5b50565b600081359050614a3f81614a19565b92915050565b60008060408385031215614a5c57614a5b6141fa565b5b600083013567ffffffffffffffff811115614a7a57614a796141ff565b5b614a86858286016146c4565b9250506020614a9785828601614a30565b9150509250929050565b600081519050919050565b600082825260208201905092915050565b6000819050602082019050919050565b606082016000820151614ae36000850182614352565b506020820151614af66020850182614400565b506040820151614b096040850182614400565b50505050565b6000614b1b8383614acd565b60608301905092915050565b6000602082019050919050565b6000614b3f82614aa1565b614b498185614aac565b9350614b5483614abd565b8060005b83811015614b85578151614b6c8882614b0f565b9750614b7783614b27565b925050600181019050614b58565b5085935050505092915050565b60006020820190508181036000830152614bac8184614b34565b905092915050565b600081519050919050565b600082825260208201905092915050565b6000819050602082019050919050565b6000614bec8383614361565b60208301905092915050565b6000602082019050919050565b6000614c1082614bb4565b614c1a8185614bbf565b9350614c2583614bd0565b8060005b83811015614c56578151614c3d8882614be0565b9750614c4883614bf8565b925050600181019050614c29565b5085935050505092915050565b60006020820190508181036000830152614c7d8184614c05565b905092915050565b600060a0820190508181036000830152614c9f818861480f565b90508181036020830152614cb3818761480f565b90508181036040830152614cc7818661480f565b9050614cd66060830185614271565b614ce36080830184614271565b9695505050505050565b60008060408385031215614d0457614d036141fa565b5b6000614d1285828601614225565b925050602083013567ffffffffffffffff811115614d3357614d326141ff565b5b614d3f858286016146c4565b9150509250929050565b60008060408385031215614d6057614d5f6141fa565b5b6000614d6e858286016142e4565b9250506020614d7f85828601614a30565b9150509250929050565b600081519050919050565b600082825260208201905092915050565b6000819050602082019050919050565b600060ff82169050919050565b614dcb81614db5565b82525050565b6000614ddd8383614dc2565b60208301905092915050565b6000602082019050919050565b6000614e0182614d89565b614e0b8185614d94565b9350614e1683614da5565b8060005b83811015614e47578151614e2e8882614dd1565b9750614e3983614de9565b925050600181019050614e1a565b5085935050505092915050565b60006020820190508181036000830152614e6e8184614df6565b905092915050565b6000819050919050565b6000614e9b614e96614e918461429b565b614e76565b61429b565b9050919050565b6000614ead82614e80565b9050919050565b6000614ebf82614ea2565b9050919050565b614ecf81614eb4565b82525050565b6000602082019050614eea6000830184614ec6565b92915050565b6000602082019050614f0560008301846147ef565b92915050565b614f1481614db5565b8114614f1f57600080fd5b50565b600081359050614f3181614f0b565b92915050565b60008060008060808587031215614f5157614f506141fa565b5b600085013567ffffffffffffffff811115614f6f57614f6e6141ff565b5b614f7b878288016146c4565b945050602085013567ffffffffffffffff811115614f9c57614f9b6141ff565b5b614fa8878288016146c4565b9350506040614fb987828801614f22565b925050606085013567ffffffffffffffff811115614fda57614fd96141ff565b5b614fe6878288016146c4565b91505092959194509250565b614ffb81614db5565b82525050565b60006020820190506150166000830184614ff2565b92915050565b60008060408385031215615033576150326141fa565b5b600061504185828601614225565b925050602061505285828601614a30565b9150509250929050565b600060608201905061507160008301866147e0565b61507e6020830185614271565b61508b6040830184614271565b949350505050565b7f496e76616c696420506f73742049440000000000000000000000000000000000600082015250565b60006150c9600f836147fe565b91506150d482615093565b602082019050919050565b600060208201905081810360008301526150f8816150bc565b9050919050565b7f43616e6e6f74207265776172642062656361757365206f6620756e766572696660008201527f79696e67207469636b6574000000000000000000000000000000000000000000602082015250565b600061515b602b836147fe565b9150615166826150ff565b604082019050919050565b6000602082019050818103600083015261518a8161514e565b9050919050565b7f4e487b7100000000000000000000000000000000000000000000000000000000600052602260045260246000fd5b600060028204905060018216806151d857607f821691505b6020821081036151eb576151ea615191565b5b50919050565b7f4e487b7100000000000000000000000000000000000000000000000000000000600052603260045260246000fd5b7f4e487b7100000000000000000000000000000000000000000000000000000000600052601160045260246000fd5b600061525a82614267565b915061526583614267565b925082820261527381614267565b9150828204841483151761528a57615289615220565b5b5092915050565b600061529c82614267565b91506152a783614267565b92508282019050808211156152bf576152be615220565b5b92915050565b60006152d082614267565b91507fffffffffffffffffffffffffffffffffffffffffffffffffffffffffffffffff820361530257615301615220565b5b600182019050919050565b600060208201905061532260008301846147e0565b92915050565b600081905092915050565b600061533e82614370565b6153488185615328565b935061535881856020860161438c565b80840191505092915050565b60006153708284615333565b915081905092915050565b60006040820190508181036000830152615395818561480f565b905081810360208301526153a9818461480f565b90509392505050565b60008190508160005260206000209050919050565b600081546153d4816151c0565b6153de818661437b565b945060018216600081146153f9576001811461540f57615442565b60ff198316865281151560200286019350615442565b615418856153b2565b60005b8381101561543a5781548189015260018201915060208101905061541b565b808801955050505b50505092915050565b60008160001c9050919050565b6000819050919050565b60006154756154708361544b565b615458565b9050919050565b600060a083016000808401858303600087015261549983826153c7565b9250506001840185830360208701526154b283826153c7565b9250506002840185830360408701526154cb83826153c7565b925050600384015490506154de81615462565b6154eb6060870182614400565b50600484015490506154fc81615462565b6155096080870182614400565b50819250505092915050565b6000606082019050818103600083015261552f818661480f565b90508181036020830152615543818561480f565b90508181036040830152615557818461547c565b9050949350505050565b7f54686973206164647265737320686173206265656e2065786973746564000000600082015250565b6000615597601d836147fe565b91506155a282615561565b602082019050919050565b600060208201905081810360008301526155c68161558a565b9050919050565b60006020601f8301049050919050565b600082821b905092915050565b60006008830261561a7fffffffffffffffffffffffffffffffffffffffffffffffffffffffffffffffff826155dd565b61562486836155dd565b95508019841693508086168417925050509392505050565b600061565761565261564d84614267565b614e76565b614267565b9050919050565b6000819050919050565b6156718361563c565b61568561567d8261565e565b8484546155ea565b825550505050565b600090565b61569a61568d565b6156a5818484615668565b505050565b5b818110156156c9576156be600082615692565b6001810190506156ab565b5050565b601f82111561570e576156df816153b2565b6156e8846155cd565b810160208510156156f7578190505b61570b615703856155cd565b8301826156aa565b50505b505050565b600082821c905092915050565b600061573160001984600802615713565b1980831691505092915050565b600061574a8383615720565b9150826002028217905092915050565b61576382614370565b67ffffffffffffffff81111561577c5761577b6145c7565b5b61578682546151c0565b6157918282856156cd565b600060209050601f8311600181146157c457600084156157b2578287015190505b6157bc858261573e565b865550615824565b601f1984166157d2866153b2565b60005b828110156157fa578489015182556001820191506020850194506020810190506157d5565b868310156158175784890151615813601f891682615720565b8355505b6001600288020188555050505b505050505050565b60006060820190508181036000830152615846818661480f565b9050818103602083015261585a818561480f565b9050818103604083015261586e818461480f565b9050949350505050565b60008154615885816151c0565b61588f8186615328565b945060018216600081146158aa57600181146158bf576158f2565b60ff19831686528115158202860193506158f2565b6158c8856153b2565b60005b838110156158ea578154818901526001820191506020810190506158cb565b838801955050505b50505092915050565b60006159078284615878565b915081905092915050565b6000815461591f816151c0565b61592981866147fe565b94506001821660008114615944576001811461595a5761598d565b60ff19831686528115156020028601935061598d565b615963856153b2565b60005b8381101561598557815481890152600182019150602081019050615966565b808801955050505b50505092915050565b600060408201905081810360008301526159b08185615912565b905081810360208301526159c4818461480f565b90509392505050565b7f5468697320506f73742048617320566572696669656400000000000000000000600082015250565b6000615a036016836147fe565b9150615a0e826159cd565b602082019050919050565b60006020820190508181036000830152615a32816159f6565b9050919050565b7f4f6e6c792061646d696e2063616e2063616c6c20746869732066756e6374696f60008201527f6e00000000000000000000000000000000000000000000000000000000000000602082015250565b6000615a956021836147fe565b9150615aa082615a39565b604082019050919050565b60006020820190508181036000830152615ac481615a88565b9050919050565b7f4e6f742056657269666965640000000000000000000000000000000000000000600082015250565b6000615b01600c836147fe565b9150615b0c82615acb565b602082019050919050565b60006020820190508181036000830152615b3081615af4565b9050919050565b7f4e487b7100000000000000000000000000000000000000000000000000000000600052601260045260246000fd5b6000615b7182614267565b9150615b7c83614267565b925082615b8c57615b8b615b37565b5b828204905092915050565b7f54686973206163636f756e7420697320766f74656420666f722074686973207060008201527f6f73740000000000000000000000000000000000000000000000000000000000602082015250565b6000615bf36023836147fe565b9150615bfe82615b97565b604082019050919050565b60006020820190508181036000830152615c2281615be6565b9050919050565b7f566f74696e6720506f776572206e6f7420656e6f75676820666f72207570766f60008201527f7465000000000000000000000000000000000000000000000000000000000000602082015250565b6000615c856022836147fe565b9150615c9082615c29565b604082019050919050565b60006020820190508181036000830152615cb481615c78565b9050919050565b6000615cc682614267565b9150615cd183614267565b9250828203905081811115615ce957615ce8615220565b5b92915050565b7f496e76616c696420526577617264000000000000000000000000000000000000600082015250565b6000615d25600e836147fe565b9150615d3082615cef565b602082019050919050565b60006020820190508181036000830152615d5481615d18565b9050919050565b6000604082019050615d7060008301856147e0565b615d7d6020830184614271565b9392505050565b7f556e76616c6964206e756d626572207261746500000000000000000000000000600082015250565b6000615dba6013836147fe565b9150615dc582615d84565b602082019050919050565b60006020820190508181036000830152615de981615dad565b9050919050565b600060c0820190508181036000830152615e0a818961547c565b9050615e1960208301886147ef565b8181036040830152615e2b8187615912565b90508181036060830152615e3f818661480f565b9050615e4e6080830185614ff2565b81810360a0830152615e60818461480f565b9050979650505050505050565b6000819050919050565b615e88615e8382614267565b615e6d565b82525050565b60008160601b9050919050565b6000615ea682615e8e565b9050919050565b6000615eb882615e9b565b9050919050565b615ed0615ecb826142bb565b615ead565b82525050565b6000615ee2828a615e77565b602082019150615ef28289615333565b9150615efe8288615e77565b602082019150615f0e8287615333565b9150615f1a8286615e77565b602082019150615f2a8285615333565b9150615f368284615ebf565b6014820191508190509897505050505050505056fea26469706673582212200e9e5fbb76c38ad5ccdf2a73b536b07330d19035fa99eca592cf420ea54c117264736f6c63430008140033",
  "linkReferences": {},
  "deployedLinkReferences": {}
}