{
  "_format": "hh-sol-artifact-1",
  "contractName": "Voucher",
  "sourceName": "contracts/voucher.sol",
  "abi": [
    {
      "inputs": [
        {
          "internalType": "address",
          "name": "tokenAddress",
          "type": "address"
        }
      ],
      "stateMutability": "nonpayable",
      "type": "constructor"
    },
    {
      "anonymous": false,
      "inputs": [
        {
          "indexed": false,
          "internalType": "uint256",
          "name": "amount",
          "type": "uint256"
        },
        {
          "indexed": false,
          "internalType": "uint256",
          "name": "price",
          "type": "uint256"
        },
        {
          "indexed": false,
          "internalType": "uint256",
          "name": "discount",
          "type": "uint256"
        },
        {
          "indexed": false,
          "internalType": "uint256",
          "name": "expiry",
          "type": "uint256"
        },
        {
          "indexed": false,
          "internalType": "string",
          "name": "content",
          "type": "string"
        }
      ],
      "name": "VoucherCreated",
      "type": "event"
    },
    {
      "anonymous": false,
      "inputs": [
        {
          "indexed": true,
          "internalType": "uint256",
          "name": "voucherId",
          "type": "uint256"
        },
        {
          "indexed": true,
          "internalType": "uint256",
          "name": "price",
          "type": "uint256"
        }
      ],
      "name": "VoucherExchanged",
      "type": "event"
    },
    {
      "inputs": [
        {
          "internalType": "uint256",
          "name": "amount",
          "type": "uint256"
        },
        {
          "internalType": "uint256",
          "name": "price",
          "type": "uint256"
        },
        {
          "internalType": "uint256",
          "name": "discount",
          "type": "uint256"
        },
        {
          "internalType": "uint256",
          "name": "expiry",
          "type": "uint256"
        },
        {
          "internalType": "string",
          "name": "content",
          "type": "string"
        }
      ],
      "name": "createVoucher",
      "outputs": [],
      "stateMutability": "nonpayable",
      "type": "function"
    },
    {
      "inputs": [
        {
          "internalType": "uint256",
          "name": "voucherId",
          "type": "uint256"
        }
      ],
      "name": "exchangeVoucher",
      "outputs": [],
      "stateMutability": "nonpayable",
      "type": "function"
    },
    {
      "inputs": [],
      "name": "getAllVouchers",
      "outputs": [
        {
          "components": [
            {
              "internalType": "uint256",
              "name": "id",
              "type": "uint256"
            },
            {
              "internalType": "uint256",
              "name": "amount",
              "type": "uint256"
            },
            {
              "internalType": "uint256",
              "name": "price",
              "type": "uint256"
            },
            {
              "internalType": "uint256",
              "name": "expiry",
              "type": "uint256"
            },
            {
              "internalType": "uint256",
              "name": "discount",
              "type": "uint256"
            },
            {
              "internalType": "string",
              "name": "content",
              "type": "string"
            }
          ],
          "internalType": "struct Voucher.VoucherDetails[]",
          "name": "",
          "type": "tuple[]"
        }
      ],
      "stateMutability": "view",
      "type": "function"
    },
    {
      "inputs": [],
      "name": "getUserVouchers",
      "outputs": [
        {
          "components": [
            {
              "internalType": "uint256",
              "name": "id",
              "type": "uint256"
            },
            {
              "internalType": "uint256",
              "name": "amount",
              "type": "uint256"
            },
            {
              "internalType": "uint256",
              "name": "price",
              "type": "uint256"
            },
            {
              "internalType": "uint256",
              "name": "expiry",
              "type": "uint256"
            },
            {
              "internalType": "uint256",
              "name": "discount",
              "type": "uint256"
            },
            {
              "internalType": "string",
              "name": "content",
              "type": "string"
            }
          ],
          "internalType": "struct Voucher.VoucherDetails[]",
          "name": "",
          "type": "tuple[]"
        }
      ],
      "stateMutability": "view",
      "type": "function"
    },
    {
      "inputs": [],
      "name": "nextVoucherId",
      "outputs": [
        {
          "internalType": "uint256",
          "name": "",
          "type": "uint256"
        }
      ],
      "stateMutability": "view",
      "type": "function"
    },
    {
      "inputs": [],
      "name": "token",
      "outputs": [
        {
          "internalType": "contract ERC20With4RMechanism",
          "name": "",
          "type": "address"
        }
      ],
      "stateMutability": "view",
      "type": "function"
    },
    {
      "inputs": [
        {
          "internalType": "address",
          "name": "",
          "type": "address"
        },
        {
          "internalType": "uint256",
          "name": "",
          "type": "uint256"
        }
      ],
      "name": "userVouchers",
      "outputs": [
        {
          "internalType": "uint256",
          "name": "id",
          "type": "uint256"
        },
        {
          "internalType": "uint256",
          "name": "amount",
          "type": "uint256"
        },
        {
          "internalType": "uint256",
          "name": "price",
          "type": "uint256"
        },
        {
          "internalType": "uint256",
          "name": "expiry",
          "type": "uint256"
        },
        {
          "internalType": "uint256",
          "name": "discount",
          "type": "uint256"
        },
        {
          "internalType": "string",
          "name": "content",
          "type": "string"
        }
      ],
      "stateMutability": "view",
      "type": "function"
    },
    {
      "inputs": [
        {
          "internalType": "uint256",
          "name": "",
          "type": "uint256"
        }
      ],
      "name": "voucherLists",
      "outputs": [
        {
          "internalType": "uint256",
          "name": "id",
          "type": "uint256"
        },
        {
          "internalType": "uint256",
          "name": "amount",
          "type": "uint256"
        },
        {
          "internalType": "uint256",
          "name": "price",
          "type": "uint256"
        },
        {
          "internalType": "uint256",
          "name": "expiry",
          "type": "uint256"
        },
        {
          "internalType": "uint256",
          "name": "discount",
          "type": "uint256"
        },
        {
          "internalType": "string",
          "name": "content",
          "type": "string"
        }
      ],
      "stateMutability": "view",
      "type": "function"
    },
    {
      "inputs": [
        {
          "internalType": "uint256",
          "name": "",
          "type": "uint256"
        }
      ],
      "name": "vouchers",
      "outputs": [
        {
          "internalType": "uint256",
          "name": "id",
          "type": "uint256"
        },
        {
          "internalType": "uint256",
          "name": "amount",
          "type": "uint256"
        },
        {
          "internalType": "uint256",
          "name": "price",
          "type": "uint256"
        },
        {
          "internalType": "uint256",
          "name": "expiry",
          "type": "uint256"
        },
        {
          "internalType": "uint256",
          "name": "discount",
          "type": "uint256"
        },
        {
          "internalType": "string",
          "name": "content",
          "type": "string"
        }
      ],
      "stateMutability": "view",
      "type": "function"
    }
  ],
  "bytecode": "0x60806040523480156200001157600080fd5b506040516200192138038062001921833981810160405281019062000037919062000095565b806000806101000a81548173ffffffffffffffffffffffffffffffffffffffff021916908373ffffffffffffffffffffffffffffffffffffffff160217905550506200010f565b6000815190506200008f81620000f5565b92915050565b600060208284031215620000a857600080fd5b6000620000b8848285016200007e565b91505092915050565b6000620000ce82620000d5565b9050919050565b600073ffffffffffffffffffffffffffffffffffffffff82169050919050565b6200010081620000c1565b81146200010c57600080fd5b50565b611802806200011f6000396000f3fe608060405234801561001057600080fd5b50600436106100935760003560e01c80636f7311c9116100665780636f7311c914610123578063c0e3410514610141578063f91ce77e14610176578063fc0c546a146101ab578063fe7c7bcf146101c957610093565b80630f75097d146100985780633e97b43f146100b4578063516fde5a146100e95780635955304a14610105575b600080fd5b6100b260048036038101906100ad9190610f25565b6101e7565b005b6100ce60048036038101906100c99190610f25565b61062d565b6040516100e096959493929190611385565b60405180910390f35b61010360048036038101906100fe9190610f77565b6106f1565b005b61010d61087a565b60405161011a9190611273565b60405180910390f35b61012b6109da565b6040516101389190611273565b60405180910390f35b61015b60048036038101906101569190610f25565b610afd565b60405161016d96959493929190611385565b60405180910390f35b610190600480360381019061018b9190610ee9565b610bd1565b6040516101a296959493929190611385565b60405180910390f35b6101b3610cb2565b6040516101c09190611295565b60405180910390f35b6101d1610cd6565b6040516101de9190611310565b60405180910390f35b6000600260008381526020019081526020016000206001015411610240576040517f08c379a0000000000000000000000000000000000000000000000000000000008152600401610237906112b0565b60405180910390fd5b42600260008381526020019081526020016000206003015411610298576040517f08c379a000000000000000000000000000000000000000000000000000000000815260040161028f906112f0565b60405180910390fd5b600260008281526020019081526020016000206002015460008054906101000a900473ffffffffffffffffffffffffffffffffffffffff1673ffffffffffffffffffffffffffffffffffffffff166370a08231336040518263ffffffff1660e01b8152600401610308919061122f565b60206040518083038186803b15801561032057600080fd5b505afa158015610334573d6000803e3d6000fd5b505050506040513d601f19601f820116820180604052508101906103589190610f4e565b1015610399576040517f08c379a0000000000000000000000000000000000000000000000000000000008152600401610390906112d0565b60405180910390fd5b60016002600083815260200190815260200160002060010160008282546103c09190611503565b925050819055506001808281548110610402577f4e487b7100000000000000000000000000000000000000000000000000000000600052603260045260246000fd5b906000526020600020906006020160010160008282546104229190611503565b92505081905550600360003373ffffffffffffffffffffffffffffffffffffffff1673ffffffffffffffffffffffffffffffffffffffff168152602001908152602001600020600182815481106104a2577f4e487b7100000000000000000000000000000000000000000000000000000000600052603260045260246000fd5b906000526020600020906006020190806001815401808255809150506001900390600052602060002090600602016000909190919091506000820154816000015560018201548160010155600282015481600201556003820154816003015560048201548160040155600582018160050190805461051f906115d9565b61052a929190610cdc565b50505060006002600083815260200190815260200160002060020154905060008054906101000a900473ffffffffffffffffffffffffffffffffffffffff1673ffffffffffffffffffffffffffffffffffffffff166352cf98fe33670de0b6b3a76400008461059991906114a9565b6040518363ffffffff1660e01b81526004016105b692919061124a565b600060405180830381600087803b1580156105d057600080fd5b505af11580156105e4573d6000803e3d6000fd5b50505050670de0b6b3a7640000816105fc91906114a9565b827f8e2f59afd23c012c36ecd2b396af9e5befa5718f90e5c0c06a6331d3494168cd60405160405180910390a35050565b600260205280600052604060002060009150905080600001549080600101549080600201549080600301549080600401549080600501805461066e906115d9565b80601f016020809104026020016040519081016040528092919081815260200182805461069a906115d9565b80156106e75780601f106106bc576101008083540402835291602001916106e7565b820191906000526020600020905b8154815290600101906020018083116106ca57829003601f168201915b5050505050905086565b6106f9610d69565b60045481600001818152505085816020018181525050848160400181815250508381608001818152505082816060018181525050818160a0018190525080600260006004548152602001908152602001600020600082015181600001556020820151816001015560408201518160020155606082015181600301556080820151816004015560a082015181600501908051906020019061079a929190610d9f565b509050506001819080600181540180825580915050600190039060005260206000209060060201600090919091909150600082015181600001556020820151816001015560408201518160020155606082015181600301556080820151816004015560a0820151816005019080519060200190610818929190610d9f565b5050506004600081548092919061082e9061163c565b91905055507f9f0df0a78e47f38fab8ca608c4bebf5d3d7694906258f87968910bfe05992a1c868686868660405161086a95949392919061132b565b60405180910390a1505050505050565b6060600360003373ffffffffffffffffffffffffffffffffffffffff1673ffffffffffffffffffffffffffffffffffffffff168152602001908152602001600020805480602002602001604051908101604052809291908181526020016000905b828210156109d157838290600052602060002090600602016040518060c00160405290816000820154815260200160018201548152602001600282015481526020016003820154815260200160048201548152602001600582018054610940906115d9565b80601f016020809104026020016040519081016040528092919081815260200182805461096c906115d9565b80156109b95780601f1061098e576101008083540402835291602001916109b9565b820191906000526020600020905b81548152906001019060200180831161099c57829003601f168201915b505050505081525050815260200190600101906108db565b50505050905090565b60606001805480602002602001604051908101604052809291908181526020016000905b82821015610af457838290600052602060002090600602016040518060c00160405290816000820154815260200160018201548152602001600282015481526020016003820154815260200160048201548152602001600582018054610a63906115d9565b80601f0160208091040260200160405190810160405280929190818152602001828054610a8f906115d9565b8015610adc5780601f10610ab157610100808354040283529160200191610adc565b820191906000526020600020905b815481529060010190602001808311610abf57829003601f168201915b505050505081525050815260200190600101906109fe565b50505050905090565b60018181548110610b0d57600080fd5b9060005260206000209060060201600091509050806000015490806001015490806002015490806003015490806004015490806005018054610b4e906115d9565b80601f0160208091040260200160405190810160405280929190818152602001828054610b7a906115d9565b8015610bc75780601f10610b9c57610100808354040283529160200191610bc7565b820191906000526020600020905b815481529060010190602001808311610baa57829003601f168201915b5050505050905086565b60036020528160005260406000208181548110610bed57600080fd5b906000526020600020906006020160009150915050806000015490806001015490806002015490806003015490806004015490806005018054610c2f906115d9565b80601f0160208091040260200160405190810160405280929190818152602001828054610c5b906115d9565b8015610ca85780601f10610c7d57610100808354040283529160200191610ca8565b820191906000526020600020905b815481529060010190602001808311610c8b57829003601f168201915b5050505050905086565b60008054906101000a900473ffffffffffffffffffffffffffffffffffffffff1681565b60045481565b828054610ce8906115d9565b90600052602060002090601f016020900481019282610d0a5760008555610d58565b82601f10610d1b5780548555610d58565b82800160010185558215610d5857600052602060002091601f016020900482015b82811115610d57578254825591600101919060010190610d3c565b5b509050610d659190610e25565b5090565b6040518060c001604052806000815260200160008152602001600081526020016000815260200160008152602001606081525090565b828054610dab906115d9565b90600052602060002090601f016020900481019282610dcd5760008555610e14565b82601f10610de657805160ff1916838001178555610e14565b82800160010185558215610e14579182015b82811115610e13578251825591602001919060010190610df8565b5b509050610e219190610e25565b5090565b5b80821115610e3e576000816000905550600101610e26565b5090565b6000610e55610e5084611412565b6113ed565b905082815260208101848484011115610e6d57600080fd5b610e78848285611597565b509392505050565b600081359050610e8f8161179e565b92915050565b600082601f830112610ea657600080fd5b8135610eb6848260208601610e42565b91505092915050565b600081359050610ece816117b5565b92915050565b600081519050610ee3816117b5565b92915050565b60008060408385031215610efc57600080fd5b6000610f0a85828601610e80565b9250506020610f1b85828601610ebf565b9150509250929050565b600060208284031215610f3757600080fd5b6000610f4584828501610ebf565b91505092915050565b600060208284031215610f6057600080fd5b6000610f6e84828501610ed4565b91505092915050565b600080600080600060a08688031215610f8f57600080fd5b6000610f9d88828901610ebf565b9550506020610fae88828901610ebf565b9450506040610fbf88828901610ebf565b9350506060610fd088828901610ebf565b925050608086013567ffffffffffffffff811115610fed57600080fd5b610ff988828901610e95565b9150509295509295909350565b60006110128383611188565b905092915050565b61102381611537565b82525050565b600061103482611453565b61103e8185611476565b93508360208202850161105085611443565b8060005b8581101561108c578484038952815161106d8582611006565b945061107883611469565b925060208a01995050600181019050611054565b50829750879550505050505092915050565b6110a781611573565b82525050565b60006110b88261145e565b6110c28185611487565b93506110d28185602086016115a6565b6110db81611712565b840191505092915050565b60006110f18261145e565b6110fb8185611498565b935061110b8185602086016115a6565b61111481611712565b840191505092915050565b600061112c601083611498565b915061113782611723565b602082019050919050565b600061114f601a83611498565b915061115a8261174c565b602082019050919050565b6000611172600f83611498565b915061117d82611775565b602082019050919050565b600060c0830160008301516111a06000860182611211565b5060208301516111b36020860182611211565b5060408301516111c66040860182611211565b5060608301516111d96060860182611211565b5060808301516111ec6080860182611211565b5060a083015184820360a086015261120482826110ad565b9150508091505092915050565b61121a81611569565b82525050565b61122981611569565b82525050565b6000602082019050611244600083018461101a565b92915050565b600060408201905061125f600083018561101a565b61126c6020830184611220565b9392505050565b6000602082019050818103600083015261128d8184611029565b905092915050565b60006020820190506112aa600083018461109e565b92915050565b600060208201905081810360008301526112c98161111f565b9050919050565b600060208201905081810360008301526112e981611142565b9050919050565b6000602082019050818103600083015261130981611165565b9050919050565b60006020820190506113256000830184611220565b92915050565b600060a0820190506113406000830188611220565b61134d6020830187611220565b61135a6040830186611220565b6113676060830185611220565b818103608083015261137981846110e6565b90509695505050505050565b600060c08201905061139a6000830189611220565b6113a76020830188611220565b6113b46040830187611220565b6113c16060830186611220565b6113ce6080830185611220565b81810360a08301526113e081846110e6565b9050979650505050505050565b60006113f7611408565b9050611403828261160b565b919050565b6000604051905090565b600067ffffffffffffffff82111561142d5761142c6116e3565b5b61143682611712565b9050602081019050919050565b6000819050602082019050919050565b600081519050919050565b600081519050919050565b6000602082019050919050565b600082825260208201905092915050565b600082825260208201905092915050565b600082825260208201905092915050565b60006114b482611569565b91506114bf83611569565b9250817fffffffffffffffffffffffffffffffffffffffffffffffffffffffffffffffff04831182151516156114f8576114f7611685565b5b828202905092915050565b600061150e82611569565b915061151983611569565b92508282101561152c5761152b611685565b5b828203905092915050565b600061154282611549565b9050919050565b600073ffffffffffffffffffffffffffffffffffffffff82169050919050565b6000819050919050565b600061157e82611585565b9050919050565b600061159082611549565b9050919050565b82818337600083830152505050565b60005b838110156115c45780820151818401526020810190506115a9565b838111156115d3576000848401525b50505050565b600060028204905060018216806115f157607f821691505b60208210811415611605576116046116b4565b5b50919050565b61161482611712565b810181811067ffffffffffffffff82111715611633576116326116e3565b5b80604052505050565b600061164782611569565b91507fffffffffffffffffffffffffffffffffffffffffffffffffffffffffffffffff82141561167a57611679611685565b5b600182019050919050565b7f4e487b7100000000000000000000000000000000000000000000000000000000600052601160045260246000fd5b7f4e487b7100000000000000000000000000000000000000000000000000000000600052602260045260246000fd5b7f4e487b7100000000000000000000000000000000000000000000000000000000600052604160045260246000fd5b6000601f19601f8301169050919050565b7f566f7563686572206465706c6574656400000000000000000000000000000000600082015250565b7f496e73756666696369656e7420746f6b656e2062616c616e6365000000000000600082015250565b7f566f756368657220657870697265640000000000000000000000000000000000600082015250565b6117a781611537565b81146117b257600080fd5b50565b6117be81611569565b81146117c957600080fd5b5056fea26469706673582212209e4237c194f6943517d6feefa0f377f5036a19d0d05d9245e7c568e87ec77b9964736f6c63430008040033",
  "linkReferences": {},
  "deployedLinkReferences": {}
}